:0200000460009A
:10000000464346420004015600000000000303007E
:1000100001010000010400000002000000000000D7
:1000200000000000000000000000000000000000D0
:1000300000000000000000000000000000000000C0
:1000400000000000010407000000000000000000A4
:10005000000000020000000000000000000000009E
:100060000000000000000000000000000000000090
:100070000000000000000000000000000000000080
:10008000EC04200A063204260000000000000000F4
:10009000050404240000000000000000000000002F
:1000A0000000000000000000000000000000000050
:1000B0000000000000000000000000000000000040
:1000C0000000000000000000000000000000000030
:1000D0000000000000000000000000000000000020
:1000E0000000000000000000000000000000000010
:1000F0000000000000000000000000000000000000
:1001000000000000000000000000000000000000EF
:1001100000000000000000000000000000000000DF
:1001200000000000000000000000000000000000CF
:1001300000000000000000000000000000000000BF
:1001400000000000000000000000000000000000AF
:10015000000000000000000000000000000000009F
:10016000000000000000000000000000000000008F
:10017000000000000000000000000000000000007F
:10018000000000000000000000000000000000006F
:10019000000000000000000000000000000000005F
:1001A000000000000000000000000000000000004F
:1001B000000000000000000000000000000000003F
:1001C000000100000010000000000000000000001E
:1001D000000000000000000000000000000000001F
:1001E000000000000000000000000000000000000F
:1001F00000000000000000000000000000000000FF
:0200000460009A
:10100000D10020410020006000000000301000608E
:1010100020100060001000600000000000000000D0
:10102000000000600000000200000000FFFFFFFF62
:10103000D2040041CC037C04400FC068FFFFFFFFD7
:10104000400FC06CFFFFFFFF400FC070FFFFFFFFAE
:10105000400FC074FFFFFFFF400FC078FFFFFFFF8E
:10106000400FC07CFFFFFFFF400FC080FFFFFFFF6E
:10107000400D803000002001400D8100001D000067
:10108000400FC01400020D40401F801400000000FB
:10109000401F801800000000401F801C000000005E
:1010A000401F802000000000401F8024000000003E
:1010B000401F802800000000401F802C000000001E
:1010C000401F803000000000401F803400000000FE
:1010D000401F803800000000401F803C00000000DE
:1010E000401F804000000000401F804400000000BE
:1010F000401F804800000000401F804C000000009E
:10110000401F805000000000401F8054000000007D
:10111000401F805800000000401F805C000000005D
:10112000401F806000000000401F8064000000003D
:10113000401F806800000000401F806C000000001D
:10114000401F807000000000401F807400000000FD
:10115000401F807800000000401F807C00000000DD
:10116000401F808000000000401F808400000010AD
:10117000401F808800000000401F808C000000009D
:10118000401F809000000000401F8094000000007D
:10119000401F809800000000401F809C000000005D
:1011A000401F80A000000000401F80A4000000003D
:1011B000401F80A800000000401F80AC000000001D
:1011C000401F80B000000000401F80B400000000FD
:1011D000401F80B800000000401F8204000000E1B2
:1011E000401F8208000000E1401F820C000000E167
:1011F000401F8210000000E1401F8214000000E147
:10120000401F8218000000E1401F821C000000E126
:10121000401F8220000000E1401F8224000000E106
:10122000401F8228000000E1401F822C000000E1E6
:10123000401F8230000000E1401F8234000000E1C6
:10124000401F8238000000E1401F823C000000E1A6
:10125000401F8240000000E1401F8244000000E186
:10126000401F8248000000E1401F824C000000E166
:10127000401F8250000000E1401F8254000000E146
:10128000401F8258000000E1401F825C000000E126
:10129000401F8260000000E1401F8264000000E106
:1012A000401F8268000000E1401F826C000000E1E6
:1012B000401F8270000000E1401F8274000000E1C6
:1012C000401F8278000000E1401F827C000000E1A6
:1012D000401F8280000000E1401F8284000000E186
:1012E000401F8288000000E1401F828C000000E166
:1012F000401F8290000000E1401F8294000000E146
:10130000401F8298000000E1401F829C000000E125
:10131000401F82A0000000E1401F82A4000000E105
:10132000401F82A8000000E1402F000010000004D0
:10133000402F000800030524402F000C060305245D
:10134000402F00108000001B402F00148200001B63
:10135000402F00188400001B402F000400007988F3
:10136000402F004000000F37402F00440065292225
:10137000402F004800010920402F004C50210A084E
:10138000402F008000000021402F008400888888C2
:10139000402F009400000002402F00980000000041
:1013A000402F009080000000402F009CA55A000FA5
:1013B000CF000C1C402F003C00000001CC001404A6
:1013C000402F009080000000402F009CA55A000C88
:1013D000CF000C1C402F003C00000001CC00140486
:1013E000402F009080000000402F009CA55A000C68
:1013F000CF000C1C402F003C00000001CC001C045E
:10140000402F00A000000033402F0090800000001B
:10141000402F009CA55A000ACF000C1C402F003C16
:1014200000000001CC000C04402F004C50210A09A0
:0200000460009A
:1020000000000120152400602D2400602F240060B2
:10201000312400603324006035240060000000009B
:1020200000000000000000000000000037240060F5
:1020300039240060000000003B2400603D24006063
:102040003F24006043240060472400604B2400606C
:102050004F24006053240060572400605B2400601C
:102060005F24006063240060672400606B240060CC
:102070006F24006073240060772400607B2400607C
:102080007F240060F7240060F7240060F7240060DC
:1020900083240060872400608B2400608F2400600C
:1020A00093240060972400609B2400609F240060BC
:1020B000A3240060A7240060AB240060AF2400606C
:1020C000B3240060B7240060BB240060BF2400601C
:1020D000C3240060C7240060F7240060F724006078
:1020E000F7240060F7240060F7240060F724006004
:1020F000F7240060F7240060F7240060F7240060F4
:10210000F7240060F7240060F7240060F7240060E3
:10211000F7240060F7240060F7240060F7240060D3
:10212000CB240060CF240060D3240060D72400605B
:10213000DB240060F7240060F7240060F7240060CF
:10214000F7240060F7240060F7240060F7240060A3
:10215000F7240060F7240060F7240060F724006093
:10216000F7240060F7240060F7240060F724006083
:10217000F7240060F7240060F7240060F724006073
:10218000F7240060F7240060F7240060F724006063
:10219000F7240060F7240060F7240060F724006053
:1021A000F7240060F7240060DF240060F72400605B
:1021B000F7240060F7240060F7240060F724006033
:1021C000F7240060F7240060F7240060F724006023
:1021D000F7240060F7240060F7240060F724006013
:1021E000F7240060F7240060F7240060F724006003
:1021F000E3240060F7240060E7240060EB24006023
:10220000F7240060F7240060EF240060F3240060EE
:10221000F7240060F7240060F7240060F7240060D2
:10222000F7240060F7240060F7240060F7240060C2
:10223000F7240060F7240060F7240060F7240060B2
:10224000F7240060F7240060F7240060F7240060A2
:10225000F7240060F7240060F7240060F724006092
:10226000F7240060F7240060F7240060F724006082
:10227000F7240060F7240060F7240060F724006072
:10228000F7240060F7240060F7240060F724006062
:10229000F7240060F7240060F7240060F724006052
:1022A000F7240060F7240060F7240060F724006042
:1022B000F7240060F7240060F7240060F724006032
:1022C000F7240060F7240060F7240060F724006022
:1022D000F7240060F7240060F7240060F724006012
:1022E000F7240060F7240060F7240060F724006002
:1022F000F7240060F7240060F7240060F7240060F2
:10230000F7240060F7240060F7240060F7240060E1
:10231000F7240060F7240060F7240060F7240060D1
:10232000F7240060F7240060F7240060F7240060C1
:10233000F7240060F7240060F7240060F7240060B1
:10234000F7240060F7240060F7240060F7240060A1
:10235000F7240060F7240060F7240060F724006091
:10236000F7240060F7240060F7240060F724006081
:10237000F7240060F7240060F7240060F724006071
:10238000F7240060F7240060F7240060F724006061
:10239000F7240060F7240060F7240060F724006051
:1023A000F7240060F7240060F7240060F724006041
:1023B000F7240060F7240060F7240060F724006031
:1023C000F7240060F7240060F7240060F724006021
:1023D000F7240060F7240060F7240060F724006011
:1023E000F7240060F7240060F7240060F724006001
:1023F000F7240060F7240060F7240060FFFFFFFF70
:10240000DFF80CD000F028FA00480047257900607A
:102410000000012072B63948394901600A6882F328
:1024200008883848804762B637480047FEE7FEE72D
:10243000FEE7FEE7FEE7FEE7FEE7FEE7FEE73348DE
:102440000047334800473348004733480047334884
:102450000047334800473348004733480047334874
:102460000047334800473348004733480047334864
:102470000047334800473348004733480047334854
:102480000047334800473348004733480047334844
:102490000047334800473348004733480047334834
:1024A0000047334800473348004733480047334824
:1024B0000047334800473348004733480047334814
:1024C0000047334800473348004733480047334804
:1024D00000473348004733480047334800473348F4
:1024E00000473348004733480047334800473348E4
:1024F00000473348004733480047000008ED00E03C
:1025000000200060056D0060012400609D420060B5
:10251000254400605D44006095440060CD44006047
:10252000054500603D45006075450060AD450060B3
:10253000E5450060D54200600D4300604543006002
:102540007D430060B5430060ED430060F724006008
:10255000355C0060515C00606D5C0060895C00600F
:10256000A55C0060C15C0060DD5C0060F95C00603F
:10257000F7240060F7240060F7240060F72400606F
:10258000F7240060F7240060F7240060F72400605F
:10259000F7240060F7240060F7240060F72400604F
:1025A000F7240060F7240060F7240060F72400603F
:1025B000F7240060F7240060F7240060F72400602F
:1025C000F7240060F72400602DE9F05F0546002045
:1025D00092469B4688460646814640241BE0284694
:1025E00041464746224600F0B2F853465A46C01AC2
:1025F000914110D311461846224600F099F82D1A41
:1026000067EB01084F4622460120002100F090F8B8
:1026100017EB00094E41201EA4F10104DFDC4846FF
:1026200031462A464346BDE8F09F2DE9F04100249B
:10263000061B254671F1000605DA01240027D0EBC0
:10264000070067EB0101161E73F1000605DA00278B
:10265000D2EB0702012567EB0303FFF7B5FF8646C0
:102660000E4617469C46AC4204D00025D0EB050E22
:1026700065EB010624B10020D2EB000760EB030CF0
:10268000704631463A466346BDE8F081D2B201E079
:1026900000F8012B491EFBD270470022F6E710B567
:1026A00013460A4604461946FFF7F0FF204610BDC0
:1026B000421C10F8011B0029FBD1801A70473EB55F
:1026C000CA17CB0F002450405140C0186141DA07AF
:1026D00040F233430094CDE901232246234600F023
:1026E00055F803B030BD70B5C1F30A5201F0004592
:1026F0000024C1F3130140F2FF3341F480119A42E8
:1027000002DA0020014670BD40F233439A42A2F241
:10271000334203DC524200F01AF801E000F008F8FE
:102720002C43F0D00023D0EB030063EB010170BD1C
:10273000202A04DB203A00FA02F100207047914081
:10274000C2F1200320FA03F3194390407047202A76
:1027500004DB203A21FA02F00021704721FA02F34B
:10276000D040C2F12002914008431946704710B58D
:10277000141E73F1000408DA401C41F100019218A4
:102780005B411A4301D120F0010010BD2DE9F04D4D
:1027900092469B4611B1B1FA81F202E0B0FA80F2A2
:1027A00020329046FFF7C4FF04460F4640EA0A0075
:1027B00041EA0B0153465A46084313D0114653EAE7
:1027C000010019D0C8F140025046FFF7C0FF05468E
:1027D0000E46504659464246FFF7AAFF084305D029
:1027E000012004E020463946BDE8F08D0020054375
:1027F00046EAE0762C4337430A986305E40AA0EBE7
:1028000008000022FD0A44EA47540A3002D500209D
:102810000146E9E7010510196941DDE9084500199C
:102820006941BDE8F04DA2E770B521F000430343D4
:102830000CD0C1F30A550024D5EB040564EB040366
:10284000D617AD1AB34102DB0020014670BD201837
:1028500041EB025170BD0000064C074D06E0E068F8
:1028600040F0010394E8070098471034AC42F6D3D7
:10287000FFF7CAFD4C7E00607C7E006010B54FF40F
:1028800000406249086000BF61486249086000BFBB
:102890000121614801F05AFA0121604801F056FA1D
:1028A0005F48C06820F01F0040F012005C49C8601B
:1028B0005C4801F0BBF900215B4801F0F1F900210F
:1028C0005A4801F0EDF90321594801F0E9F90321D3
:1028D000584801F03BFA0021504801F037FA002136
:1028E000554801F0DDF900214B4801F02FFA012194
:1028F000524801F0D5F90021514801F027FA022190
:10290000504801F0CDF900214F4801F01FFA022193
:102910004E4801F0C5F900214D4801F017FA042195
:102920004548FC3801F0BCF902214A4801F00EFA92
:102930000221494801F0B4F90221484801F006FAA1
:102940000321474801F0ACF901213C480C3001F06B
:10295000A7F90021434801F0F9F903214048001D7F
:1029600001F09EF901213548103001F099F900215C
:102970002948001D01F0EAF903213B4801F090F9D4
:1029800001213A4801F08CF900213448001D01F082
:10299000DDF90021364801F083F90021354801F0C6
:1029A000D5F90121344801F07BF9022120480C308F
:1029B00001F0CCF90121314801F072F907212A48D0
:1029C000083001F06DF903212D4801F0BFF9012114
:1029D0002C4801F065F907212848083801F060F912
:1029E0000321294801F0B2F90021284801F0AEF98D
:1029F00000211248083001F053F900211048083036
:102A000001F0A4F904F0DAF810BD0000080000207D
:102A100000366E0104000020186C00801439001488
:102A200000000840D07C006014EA000410E0004080
:102A3000146800801872008014FB00801CE007807E
:102A40001C26008024EB00801C30008024F00080D5
:102A50001C3100801864008024790080186E00808A
:102A600028E600801C6A008028F6008028F0078095
:102A700038F307803832008020E2078030F9008088
:102A80003074008028E90080207300800C200080D2
:102A900010B56148006800F40030B0F5003F2BD15C
:102AA00000BF00BF00BF00BF00BFBFF34F8F00BF1C
:102AB00000BF00BF00BF00BF00BFBFF36F8F00BFEC
:102AC00000BF00BF5448006820F40030524908603D
:102AD00000205249086000BF00BF00BFBFF34F8F06
:102AE00000BF00BF00BF00BF00BF00BFBFF36F8FBC
:102AF00000BF00BF00BF00BF4748006800F480303F
:102B0000B0F5803F01D103F0DDFB00BF00BF00BF87
:102B100000BF00BFBFF34F8F00BF00BF00BF00BFAB
:102B200000BF00BFBFF36F8F00BF00BF00BF3A48B8
:102B30001030006820F48030374910310860364882
:102B40008030006820F0010033498031086000BF08
:102B500033483149883108603248091D08603248DD
:102B6000091F08602F48801C091D08602F48091F95
:102B700008602F48091D08601320091F08602948B4
:102B8000801C091D08601420091F086028481A3895
:102B9000091D08602748091F086025481A38091DC3
:102BA00008602548091F086021481838091D086079
:102BB0001D48801D091F08601D480838091D086050
:102BC0001E48091F08601E48091D0860042000BF38
:102BD00000BF00BF00BFBFF34F8F00BF00BF00BFEB
:102BE00000BF00BF00BFBFF36F8F00BF00BF00BFBB
:102BF00040F00101084A803211600749103109682C
:102C000041F48031044A1032116000BF03F0F8FB38
:102C100003F082FC10BD000014ED00E050EF00E076
:102C2000100000C039001003110000801200006085
:102C30003900030315000020160020201800E08151
:102C40002900080370B51648C1B2164A8958C0F366
:102C50004C32C0F304239A401140C0F30422D14007
:102C600061B9114800F0B2FE0621B0FBF1F50F4842
:102C700000F084FD401CB5FBF0F40FE000BF0C48F1
:102C8000006800F0100008B10A4D01E00A4805682C
:102C9000064800F073FD401CB5FBF0F4204670BD03
:102CA0002426008000C00F400D00100024E00780A3
:102CB00070820D4000366E010400002010B5FFF751
:102CC000C1FF0446234602224FF4E131014801F0DE
:102CD000F7FC10BD004018401CB540F2024000F067
:102CE00011FD0020FE4903460246CDE900100221F5
:102CF000FC4802F0C3FE0020F949091D03460246C4
:102D0000CDE900100221F748001D02F0B7FE0020B7
:102D1000F449B43103460246CDE900100146F148BA
:102D2000C03802F0ABFE0020EE49B831034602463F
:102D3000CDE900100146EB48BC3802F09FFE0020B0
:102D4000E749B83903460246CDE900100146E54897
:102D5000B83802F093FE0020E149B4390346024638
:102D6000CDE900100146DF48B43802F087FE0020AC
:102D7000DB49B03903460246CDE900100146D94887
:102D8000B03802F07BFE0020D549AC39034602463C
:102D9000CDE900100146D348AC3802F06FFE0020A8
:102DA000CF49A83903460246CDE900100146CD4877
:102DB000A83802F063FE0020C949A4390346024640
:102DC000CDE900100146C748A43802F057FE0020A4
:102DD000C349A03903460246CDE900100146C14867
:102DE000A03802F04BFE0020BD499C390346024644
:102DF000CDE900100146BB489C3802F03FFE0020A0
:102E0000B749983903460246CDE900100146B54856
:102E1000983802F033FE0020B14994390346024647
:102E2000CDE900100146AF48943802F027FE00209B
:102E3000AB49903903460246CDE900100146A94846
:102E4000903802F01BFE0020A5498C39034602464B
:102E5000CDE900100146A3488C3802F00FFE002097
:102E60009F49883903460246CDE9001001469D4836
:102E7000883802F003FE002099498439034602464F
:102E8000CDE9001001469748843802F0F7FD002094
:102E90009349803903460246CDE900100146914826
:102EA000803802F0EBFD00208D497C390346024654
:102EB000CDE9001001468B487C3802F0DFFD002090
:102EC0008749783903460246CDE900100146854816
:102ED000783802F0D3FD0020814974390346024658
:102EE000CDE9001001467F48743802F0C7FD00208C
:102EF0007B49703903460246CDE900100146794806
:102F0000703802F0BBFD002075496C39034602465B
:102F1000CDE90010014673486C3802F0AFFD002087
:102F20006F49683903460246CDE9001001466D48F5
:102F3000683802F0A3FD002069496439034602465F
:102F4000CDE9001001466748643802F097FD002083
:102F50006349603903460246CDE9001001466148E5
:102F6000603802F08BFD00205D495C390346024663
:102F7000CDE9001001465B485C3802F07FFD00207F
:102F80005749583903460246CDE9001001465548D5
:102F9000583802F073FD0020514954390346024667
:102FA000CDE9001001464F48543802F067FD01207A
:102FB0004B49503900231A46CDE9001019464948BB
:102FC000503802F05BFD002045494C39034602466B
:102FD000CDE90010014643484C3802F04FFD002077
:102FE0003F49483903460246CDE9001001463D48B5
:102FF000483802F043FD002039494439034602466F
:10300000CDE9001001463748443802F037FD002072
:103010003349403903460246CDE9001001463148A4
:10302000403802F02BFD00202D493C390346024672
:10303000CDE9001001462B483C3802F01FFD00206E
:103040002749383903460246CDE900100146254894
:10305000383802F013FD0020214934390346024676
:10306000CDE9001001461F48343802F007FD00206A
:103070001B49303903460246CDE900100146194884
:10308000303802F0FBFC002015492C39034602467B
:10309000CDE90010014613482C3802F0EFFC002067
:1030A0000F49283903460246CDE9001001460D4874
:1030B000283802F0E3FC002009492439034602467F
:1030C000CDE9001001460748243802F0D7FC002063
:1030D0000349203903460246CDE90010014603E0CA
:1030E00048821F40D4801F40FE48203802F0C6FCB2
:1030F0000020FD4903460246CDE900100521F948AC
:103100001C3802F0BBFC41F2B000F7491C3100232F
:103110001A46CDE900100221F24802F0A9FC41F262
:10312000B000F149203100231A46CDE900100221F8
:10313000EC48001D02F09CFCE120EB49A43900237F
:103140001A46CDE900101946E648C03802F090FC56
:10315000E120E549A03900231A46CDE900101946BF
:10316000E048BC3802F084FCE120DF499C390023B0
:103170001A46CDE900101946DA48B83802F078FC52
:10318000E120D949983900231A46CDE900101946A3
:10319000D448B43802F06CFCE120D34994390023C0
:1031A0001A46CDE900101946CE48B03802F060FC4E
:1031B000E120CD49903900231A46CDE90010194687
:1031C000C848AC3802F054FCE120C7498C390023D0
:1031D0001A46CDE900101946C248A83802F048FC4A
:1031E000E120C149883900231A46CDE9001019466B
:1031F000BC48A43802F03CFCE120BB4984390023E0
:103200001A46CDE900101946B648A03802F030FC45
:10321000E120B549803900231A46CDE9001019464E
:10322000B0489C3802F024FCE120AF497C390023EF
:103230001A46CDE900101946AA48983802F018FC41
:10324000E120A949783900231A46CDE90010194632
:10325000A448943802F00CFCE120A34974390023FF
:103260001A46CDE9001019469E48903802F000FC3D
:10327000E1209D49703900231A46CDE90010194616
:1032800098488C3802F0F4FBE12097496C39002310
:103290001A46CDE9001019469248883802F0E8FB3A
:1032A000E1209149683900231A46CDE900101946FA
:1032B0008C48843802F0DCFBE1208B496439002320
:1032C0001A46CDE9001019468648803802F0D0FB36
:1032D000E1208549603900231A46CDE900101946DE
:1032E00080487C3802F0C4FBE1207F495C39002330
:1032F0001A46CDE9001019467A48783802F0B8FB32
:10330000E1207949583900231A46CDE900101946C1
:103310007448743802F0ACFBE1207349543900233F
:103320001A46CDE9001019466E48703802F0A0FB2D
:10333000E1206D49503900231A46CDE900101946A5
:1033400068486C3802F094FBE12067494C3900234F
:103350001A46CDE9001019466248683802F088FB29
:10336000E1206149483900231A46CDE90010194689
:103370005C48643802F07CFBE1205B49443900235F
:103380001A46CDE9001019465648603802F070FB25
:10339000E1205549403900231A46CDE9001019466D
:1033A00050485C3802F064FBE1204F493C3900236F
:1033B0001A46CDE9001019464A48583802F058FB21
:1033C000E1204949383900231A46CDE90010194651
:1033D0004448543802F04CFBE1204349343900237F
:1033E0001A46CDE9001019463E48503802F040FB1D
:1033F000E1203D49303900231A46CDE90010194635
:1034000038484C3802F034FBE12037492C3900238E
:103410001A46CDE9001019463248483802F028FB18
:10342000E1203149283900231A46CDE90010194618
:103430002C48443802F01CFBE1202B49243900239E
:103440001A46CDE9001019462648403802F010FB14
:10345000E1202549203900231A46CDE900101946FC
:1034600020483C3802F004FBE1201F491C390023AE
:103470001A46CDE9001019461A48383802F0F8FA11
:10348000E1201949183900231A46CDE900101946E0
:103490001448343802F0ECFAE120134914390023BF
:1034A0001A46CDE9001019460E48303802F0E0FA0D
:1034B000E1200D49103900231A46CDE900101946C4
:1034C00008482C3802F0D4FAE12007490C390023CF
:1034D0001A46CDE9001019460248283802F0C8FA09
:1034E000E12003E0D4801F402C821F40114908399D
:1034F00000231A46CDE9001019460F4802F0B8FA29
:10350000E1200C49091F00231A46CDE90010194695
:103510000948001D02F0ACFA47F2A000054900235B
:103520001A46CDE9001005210348083002F0A0FA40
:103530001CBD00002C821F40B0801F402DE9F041CF
:1035400004460E46270A04F01F08062F00D805E09F
:1035500040F2873208A111A003F054FC124800EB9E
:1035600087052868032101FA08F1884306FA08F163
:1035700008432860BDE8F0812E2E5C2E2E5C6C691D
:10358000627261726965735C647269766572735C9C
:1035900066736C5F636C6F636B2E6800696E646545
:1035A00078203C3D2036000068C00F402DE9F041F6
:1035B00004460E46270A04F01F08062F00D805E02F
:1035C00040F2873208A111A003F01CFC124800EB66
:1035D00087052868032101FA08F1884306FA08F1F3
:1035E00008432860BDE8F0812E2E5C2E2E5C6C69AD
:1035F000627261726965735C647269766572735C2C
:1036000066736C5F636C6F636B2E6800696E6465D4
:1036100078203C3D2036000068C00F402DE9F04185
:1036200004460E46270A04F01F08062F00D805E0BE
:1036300040F2873208A111A003F0E4FB124800EB2E
:1036400087052868032101FA08F1884306FA08F182
:1036500008432860BDE8F0812E2E5C2E2E5C6C693C
:10366000627261726965735C647269766572735CBB
:1036700066736C5F636C6F636B2E6800696E646564
:1036800078203C3D2036000068C00F402DE9F0470F
:103690000446254603274FEA152805F01F09B8F10F
:1036A000060F00D805E040F2873209A111A003F00F
:1036B000A9FB134800EB88063068032101FA09F1E1
:1036C000884307FA09F10843306000BFBDE8F0877E
:1036D0002E2E5C2E2E5C6C69627261726965735C61
:1036E000647269766572735C66736C5F636C6F633A
:1036F0006B2E6800696E646578203C3D20360000C2
:1037000068C00F402DE9F0470446254603274FEADD
:10371000152805F01F09B8F1060F00D805E040F2A2
:10372000873209A111A003F06DFB134800EB880656
:103730003068032101FA09F1884307FA09F10843C7
:10374000306000BFBDE8F0872E2E5C2E2E5C6C69C9
:10375000627261726965735C647269766572735CCA
:1037600066736C5F636C6F636B2E6800696E646573
:1037700078203C3D2036000068C00F400146C8B2AA
:10378000054A8058C1F34C32C1F304239A401040DB
:10379000C1F30422D040704700C00F4070B5054609
:1037A000142D72D2DFE805F00A0B153445494E534B
:1037B000585D62676C72777C81868C9200BF00F0E6
:1037C000A9F847494969C1F38221491CB0FBF1F4CA
:1037D00083E04348406900F0400070B140484069D0
:1037E00000F0800020B1012000F0EAF9044607E073
:1037F000022000F0AFF9044602E000F08BF8044626
:1038000037484069C0F30240401CB4FBF0F464E068
:1038100000F080F832494969C1F38221491CB0FBAC
:10382000F1F42F484069C0F30120401CB4FBF0F4D0
:1038300053E000F05FF804464FE000BF4FF400444F
:1038400000BF4AE0274800F0C1F8044645E00020E8
:1038500000F0B6F9044640E0012000F0B1F904465A
:103860003BE0022000F0ACF9044636E0032000F013
:10387000A7F9044631E01C4800F0A8F804462CE003
:10388000002000F067F9044627E024E0012000F062
:1038900061F9044621E0022000F05CF904461CE0D6
:1038A000032000F057F9044617E0104800F08EF8A6
:1038B000044612E00D48083000F088F804460CE099
:1038C0000A48093000F082F8044606E0084800F093
:1038D0007DF8044601E0002400BF00BF204670BD13
:1038E00000C00F400D0010000D0030000D00E00082
:1038F0000D0070000448006800F0100008B1034893
:10390000704703480068FBE770820D4000366E0187
:103910000400002010B52948406900F0007040B351
:103920002648806900F4405048B1B0F5805F0BD064
:10393000B0F5005F0CD0B0F5405F0ED10EE020482E
:1039400000F044F804460BE0FFF7D4FF044607E01C
:103950001C4800F03BF8044602E000BF002400BF12
:1039600000BF16484069C0F3C260401CB4FBF0F4CD
:1039700022E01248806900F4402048B1B0F5802F61
:103980000BD0B0F5002F0DD0B0F5402F11D10EE0C7
:103990000C4800F01BF804460DE0032000F010F97D
:1039A000044608E0032000F0D5F8044603E0064C86
:1039B00001E0002400BF00BF204610BD00C00F4042
:1039C0000D0010000D0030000065CD1D2DE9FF47F2
:1039D0008146594BD3E901021968DB6801AC0DC47B
:1039E000009156494846C0F30B428A5800F01F0721
:1039F0000123BB401A400AB1012200E000221AB99B
:103A0000002004B0BDE8F0874C4FC846C8F30B4017
:103A10003858C0F3813010B9FFF76CFF00E0002088
:103A200004464648C9F30B414158C1F3004109B16E
:103A30002046E6E74249A9EB010089456BD00BDC43
:103A4000A9F58010A0F10D0028B3B0F5001F08D033
:103A5000B0F5C00F6BD128E0082864D0092866D1E2
:103A600063E03648D0F860C0006DA4FB00700146EA
:103A7000624600233846FEF7A7FD05462F48006B37
:103A800000F0010010B11620444302E004EB840072
:103A900084002C444DE02948006900F0020008B180
:103AA000162000E01420444343E02448006F00F057
:103AB0007F0A22489030D0F800C02048D0F880001B
:103AC000A4FB00700146624600233846FEF77CFDE9
:103AD000054604FB0A541948006F00F4C01018B1E1
:103AE000B0F5002F04D101E0A40802E0640800E072
:103AF00000BF00BF1348006813490840B0F5004FED
:103B000004D04942084418B9A40802E0640800E05F
:103B100000BF00BF0DE00B489038006800F0030ABA
:103B20005DF82A4005E0094C03E0094C01E000245F
:103B300000BF00BF204664E7047C006000800D40A9
:103B40000D00E00070810D400080800040787D0114
:103B50000065CD1D70B505461748FFF737FF0446D1
:103B600035B1012D0BD0022D10D0032D1CD114E046
:103B70001248006800F03F00B4FBF0F416E00F4874
:103B80000068C0F30520B4FBF0F40FE00B480068B8
:103B9000C0F30540B4FBF0F408E008480068C0F347
:103BA0000560B4FBF0F401E0002400BF00BF04EBAB
:103BB000C4004400204670BD0D00300000810D405F
:103BC00070B505461748FFF701FF044635B1012DD2
:103BD0000BD0022D10D0032D1CD114E01248006828
:103BE00000F03F00B4FBF0F416E00F480068C0F3AB
:103BF0000520B4FBF0F40FE00B480068C0F305406B
:103C0000B4FBF0F408E008480068C0F30560B4FBBA
:103C1000F0F401E0002400BF00BF04EBC400440046
:103C2000204670BD0D001000F0800D4010B5C27828
:103C300002F00301194A126822F4404242F4803231
:103C400003794FF4404404EA83331A43134B1A6058
:103C500002780AB141F4005182780AB141F40011AE
:103C600042780AB141F480010C4A126841F2030320
:103C70009A430A43094BE03BC3F8E02000BF074AE0
:103C8000126802F00042002AF9D0044A126822F4B5
:103C90008032024BE03BC3F8E02010BDE0800D40D5
:103CA00070B504460E463F2000EA9465E0B215491F
:103CB0004158C4F34C30C4F30422904021EA000080
:103CC000C4F3042206FA02F1C4F34C32C4F3042311
:103CD0009A4011400843E1B20A4A8850202D00D88A
:103CE00005E040F2653208A110A003F08BF8202D0A
:103CF00007D000BF0348806C0121A940084000287C
:103D0000F8D170BD00C00F402E2E5C2E2E5C6C6969
:103D1000627261726965735C647269766572735C04
:103D200066736C5F636C6F636B2E6800627573798A
:103D30005368696674203C3D2043434D5F4E4F5F9E
:103D4000425553595F5741495400000070B504462D
:103D50000E463F2000EA9465E0B215494158C4F38D
:103D60004C30C4F30422904021EA0000C4F3042242
:103D700006FA02F1C4F34C32C4F304239A40114012
:103D80000843E1B20A4A8850202D00D805E04FF4DC
:103D9000507208A110A003F035F8202D07D000BF05
:103DA0000348806C0121A94008400028F8D170BD6B
:103DB00000C00F402E2E5C2E2E5C6C696272617208
:103DC0006965735C647269766572735C66736C5F57
:103DD000636C6F636B2E68006275737953686966F4
:103DE00074203C3D2043434D5F4E4F5F4255535935
:103DF0005F574149540000000748006840F0807058
:103E0000054908600020054948600846006840F000
:103E10000100086070470000FCED00E0001000E0C9
:103E20000148406870470000001000E02DE9F041B3
:103E300007460026FFF7E0FF0020FFF7AFFC104920
:103E4000B0FBF1F000FB07F800BFFFF7E9FF054604
:103E500011E0FFF7E5FF0446AC420CD0AC4202D9BA
:103E6000601B064403E0C5F1FF30204406442546AC
:103E7000464500D300E0ECE700BFBDE8F08100005C
:103E800040420F00F8B5204800F00AFC684600F0F8
:103E900081FD69461D4800F065FE1B4D002401268A
:103EA000202C00D204E0B72219A123A002F0AAFF1F
:103EB00036B155F8240040F0005045F8240005E0E4
:103EC00055F8240020F0005045F8240000BF0E4DA6
:103ED0000024202C00D204E068220DA116A002F0DC
:103EE00091FF55F8240040F0004045F8240000BF41
:103EF000002206491B4800F077FC00221A491948A5
:103F000001F018F8F8BD000000C00E4000800E401F
:103F10002E2E5C2E2E5C6C69627261726965735C18
:103F2000647269766572735C66736C5F646D616DF3
:103F300075782E68000000006368616E6E656C2005
:103F40003C2046534C5F464541545552455F444DD5
:103F5000414D55585F4D4F44554C455F4348414E88
:103F60004E454C00C8000020D54700600948406815
:103F700040F038000749486007490648C16261209F
:103F800004498031086005480249C1F884000020D6
:103F90007047000000002F40110000A088888800B2
:103FA0002DE9FF4F2DED0A8B87B0834616461F463D
:103FB0004FF000095D46002005F8010B129890EDC6
:103FC000000BB0EE40BBB5EEC0BBF1EE10FA0AD16B
:103FD0003020287009F10109484607B0BDEC0A8B72
:103FE00004B0BDE8F08F02A8B0EE4B0B02F02CFF3E
:103FF000B0EE409B4FF0000A09E000EE106AB8EE08
:10400000C00B29EE000BB0EE409B0AF1010ABA4545
:10401000F3D3B5EEC0BBF1EE10FA19DBB6EE000B30
:1040200039EE008B00EE107AB8EE401BB2EE040BB6
:1040300002F06AFFB4EEC80BF1EE10FA23D89DED42
:10404000020BB7EE001B30EE010B8DED020B1AE0F8
:10405000B6EE000B39EE408B00EE107AB8EE401B46
:10406000B2EE040B02F050FFB1EE400BB4EEC80B01
:10407000F1EE10FA07DB9DED020BB7EE001B30EE00
:10408000410B8DED020B4FF0000A2FE000EE106A9D
:10409000B8EEC00B88EE00AB51EC1A0BFEF723FB19
:1040A000F317A0FB062C01FB06C100FB0310CDE9B2
:1040B000002010460199FEF702FB41EC100B38EE90
:1040C00040CBBDEECC0B10EE104A002C05DA049468
:1040D000049CE04300F1310400E03034B0EE4A8B40
:1040E00005F8014B09F101090AF1010ABA45CDD3DE
:1040F0002E2005F8010B09F101099DED020BBDEE23
:10410000C00B10EE108AB8F1000F05D1302005F871
:10411000010B09F1010918E014E098FBF6F0059095
:10412000059800FB1684002C05DA0494049CE043F7
:1041300000F1310400E03034DDF8148005F8014B63
:1041400009F10109B8F1000FE7D1484645E72DE92B
:10415000FF4F89B01E4600200190DDF824B00BF817
:10416000010B0B9800284DD00A98D0E90078002167
:1041700087EA010088EA0101084309D130208BF861
:1041800000000198401C019001980DB0BDE8F08F2F
:104190002FE03246F31738464146FEF746FACDE99E
:1041A0000601F317DDE90601A0FB062C01FB06C1A1
:1041B00003FB0013B91A68EB0300CDE904100023D8
:1041C000DDE90410C91A984107DA049CE143491C4F
:1041D0004FF030000818049002E00498303004904A
:1041E000DDE9067804980BF8010B019800F1010055
:1041F00001904FF0000187EA010088EA01010843BD
:10420000C7D148E00A98D0E9009A002189EA010064
:104210008AEA0101084307D130208BF80000019899
:10422000401C01900198B0E72DE03246F317484654
:104230005146FEF7C9F9CDE90201F317DDE90201A4
:10424000A0FB062C01FB06C100FB0310B9EB020426
:104250006AEB00050A21611A75F1000001D23034C1
:1042600009E00A21601A65F10001169909B141219E
:1042700000E061214418DDE9029A0BF8014B019836
:1042800000F1010001904FF0000189EA01008AEA83
:1042900001010843C9D1019877E7000010B500215A
:1042A0000A4800F02BFB00F0040018B10849086828
:1042B00000F0DAFB1021054800F020FB00F00400BC
:1042C00018B10349086C00F0CFFB10BD00800E4010
:1042D0004800002010B50A210A4800F00FFB00F04A
:1042E000040018B10849886A00F0BEFB1A2105488D
:1042F00000F004FB00F0040018B10349886E00F0E0
:10430000B3FB10BD00800E404800002010B50B210B
:104310000A4800F0F3FA00F0040018B10849C86A2E
:1043200000F0A2FB1B21054800F0E8FA00F00400B1
:1043300018B10349C86E00F097FB10BD00800E4015
:104340004800002010B50C210A4800F0D7FA00F010
:10435000040018B10849086B00F086FB1C210548D1
:1043600000F0CCFA00F0040018B10349086F00F027
:104370007BFB10BD00800E404800002010B50D21D1
:104380000A4800F0BBFA00F0040018B10849486B75
:1043900000F06AFB1D21054800F0B0FA00F00400AF
:1043A00018B10349486F00F05FFB10BD00800E405C
:1043B0004800002010B50E210A4800F09FFA00F0D6
:1043C000040018B10849886B00F04EFB1E21054817
:1043D00000F094FA00F0040018B10349886F00F06F
:1043E00043FB10BD00800E404800002010B50F2197
:1043F0000A4800F083FA00F0040018B10849C86BBD
:1044000000F032FB1F21054800F078FA00F00400AC
:1044100018B10349C86F00F027FB10BD00800E40A3
:104420004800002010B501210A4800F067FA00F0AA
:10443000040018B10849486800F016FB112105482E
:1044400000F05CFA00F0040018B10349486C00F079
:104450000BFB10BD00800E404800002010B502216B
:104460000A4800F04BFA00F0040018B108498868C7
:1044700000F0FAFA1221054800F040FA00F00400BA
:1044800018B10349886C00F0EFFA10BD00800E40AF
:104490004800002010B503210A4800F02FFA00F070
:1044A000040018B10849C86800F0DEFA1321054875
:1044B00000F024FA00F0040018B10349C86C00F0C1
:1044C000D3FA10BD00800E404800002010B5042132
:1044D0000A4800F013FA00F0040018B1084908690E
:1044E00000F0C2FA1421054800F008FA00F00400B8
:1044F00018B10349086D00F0B7FA10BD00800E40F6
:104500004800002010B505210A4800F0F7F900F036
:10451000040018B10849486900F0A6FA15210548B9
:1045200000F0ECF900F0040018B10349486D00F008
:104530009BFA10BD00800E404800002010B50621F7
:104540000A4800F0DBF900F0040018B10849886956
:1045500000F08AFA1621054800F0D0F900F00400B6
:1045600018B10349886D00F07FFA10BD00800E403D
:104570004800002010B507210A4800F0BFF900F0FC
:10458000040018B10849C86900F06EFA17210548FF
:1045900000F0B4F900F0040018B10349C86D00F050
:1045A00063FA10BD00800E404800002010B50821BD
:1045B0000A4800F0A3F900F0040018B10849086A9D
:1045C00000F052FA1821054800F098F900F00400B4
:1045D00018B10349086E00F047FA10BD00800E4084
:1045E0004800002010B509210A4800F087F900F0C2
:1045F000040018B10849486A00F036FA1921054844
:1046000000F07CF900F0040018B10349486E00F096
:104610002BFA10BD00800E404800002070B5054602
:10462000002406E0094850F82400A84200D102E026
:10463000641C002CF6D000BF04B904E0562204A18B
:104640000DA002F0DFFB204670BD0000807C006002
:104650002E2E5C2E2E5C6C69627261726965735CD1
:10466000647269766572735C66736C5F646D616DAC
:1046700075782E6300000000696E7374616E636567
:10468000203C2041525241595F53495A4528735F9B
:10469000646D616D75784261736573290000000077
:1046A00070B505462846FFF7B9FF044931F91040B7
:1046B00003212046FEF77AFF00BF70BD847C0060B6
:1046C0002DE9F04106460D4614461F4604B104E0AC
:1046D000692206A111A002F095FB3B462A4621461D
:1046E000304601F059FABDE8F08100002E2E5C2E14
:1046F0002E5C6C69627261726965735C7574696C59
:1047000069746965735C66736C5F64656275675F25
:10471000636F6E736F6C652E63000000646576696D
:10472000636520213D2044454255475F434F4E532A
:104730004F4C455F4445564943455F545950455F8A
:104740004E4F4E45000000000FB430B5A1B000241C
:10475000002580216846FDF7A0FF25A82090094B81
:104760006A462099249801F015FF044621466846C0
:1047700001F036FA054600202090284621B030BCD2
:104780005DF814FB894700602DE9F04105460C46B1
:1047900016461F464FF0000800BF10E02068401C7E
:1047A000802805D32846216801F01AFA00202060ED
:1047B00020682E542068401C206008F10108B8458C
:1047C000ECDBBDE8F08100BFEFF31081084672B664
:1047D0007047000030B5047C1CB912B10124014DB2
:1047E0002C7030BD1C0000202DE9F04705460F4617
:1047F000164605B105E040F2F71226A12EA002F000
:1048000001FB202E00D205E04FF4FC7221A12EA066
:1048100002F0F8FA18212846FDF73FFFAF602E742A
:10482000384600F0E3F8804600F070FF8146A8EBC0
:10483000090006EB401A2F4840F82A502E4901EB98
:10484000881131F9160010F1800F00D10EE00146F9
:10485000002909DB01F01F0301229A404B099B004C
:1048600003F1E023C3F8002100BF00BFA86800F5F2
:104870008050297C00EB411400202060A080E08063
:10488000A060E0602061A082E082A061A083E0835C
:10489000BDE8F0872E2E5C2E2E5C6C696272617210
:1048A0006965735C647269766572735C66736C5F6C
:1048B00065646D612E63000068616E646C65202123
:1048C0003D204E554C4C00006368616E6E656C2057
:1048D0003C2046534C5F464541545552455F454444
:1048E0004D415F4D4F44554C455F4348414E4E4509
:1048F0004C000000480000208E7C006070B5064629
:104900000C46202C00D205E040F2C1120DA116A0E9
:1049100002F078FA002506F5805000EB4410808BF9
:10492000C0F3C0100543F06AE04000F0010045EA22
:104930004005706AE04000F0010045EA8005284625
:1049400070BD00002E2E5C2E2E5C6C69627261724E
:104950006965735C647269766572735C66736C5FBB
:1049600065646D612E6300006368616E6E656C2026
:104970003C2046534C5F464541545552455F4544A3
:104980004D415F4D4F44554C455F4348414E4E4568
:104990004C00000010B5044604B104E0962206A1C4
:1049A0000EA002F02FFA0020A070012060700020FD
:1049B0002070E07010BD00002E2E5C2E2E5C6C6905
:1049C000627261726965735C647269766572735C48
:1049D00066736C5F65646D612E630000636F6E6665
:1049E000696720213D204E554C4C000070B50546AE
:1049F000002406E0094850F82400A84200D102E053
:104A0000641C002CF6D000BF04B904E05F2204A1AE
:104A10000CA002F0F7F9204670BD0000887C006011
:104A20002E2E5C2E2E5C6C69627261726965735CFD
:104A3000647269766572735C66736C5F65646D61E0
:104A40002E630000696E7374616E6365203C2041C3
:104A5000525241595F53495A4528735F65646D61ED
:104A600042617365732900002DE9F047044604B1E3
:104A700005E04FF455722EA136A002F0C3F9207C58
:104A8000A168C877E06840B9206830B100230122EE
:104A90002046D4E90051A84747E0A06800F58050BF
:104AA000217C00EB4110D0F81880A06800F5805000
:104AB000217C00EB4110808BC0F3C019E068A8EBAB
:104AC00000084FEA5817B9F1000F01D0FEB206E016
:104AD0000FB1781E02E094F91400401EC6B294F99A
:104AE0001100B0420AD194F9130094F914108842CD
:104AF00002D194F9135009E0002507E094F9110060
:104B0000351A002D02DA94F91400054470B260746D
:104B1000E07C401B40B2E074206828B12B464A4636
:104B20002046D4E900C1E04700BFBDE8F08700009F
:104B30002E2E5C2E2E5C6C69627261726965735CEC
:104B4000647269766572735C66736C5F65646D61CF
:104B50002E63000068616E646C6520213D204E5517
:104B60004C4C00002DE9F04105460C4604B104E030
:104B70007C2215A11DA002F045F92846FFF736FF5B
:104B80001E4931F9107003213846FEF747FD00BF7A
:104B90002E6826F05606A078042101EA800061788C
:104BA000102202EA011108432178402202EA811111
:104BB0000843E178022202EA4101084340F0800004
:104BC00006432E60BDE8F0812E2E5C2E2E5C6C69B3
:104BD000627261726965735C647269766572735C36
:104BE00066736C5F65646D612E630000636F6E6653
:104BF000696720213D204E554C4C00008C7C0060A4
:104C000070B506460C461546202C00D204E06622FC
:104C10002EA137A002F0F6F805B104E067222BA11F
:104C20003EA002F0EFF805F01F0000B904E0682292
:104C300026A13DA002F0E6F8296806F5805000EBB9
:104C400044100160A98806F5805000EB4410818073
:104C5000E98806F5805000EB4410C180A96806F58C
:104C6000805000EB44108160E96806F5805000EB4D
:104C70004410C160296906F5805000EB44100161C1
:104C8000A98A06F5805000EB44108182E98A06F576
:104C9000805000EB4410C182A96906F5805000EBFA
:104CA00044108161002106F5805000EB441081839F
:104CB000A98B06F5805000EB44108183E98B06F543
:104CC000805000EB4410C18370BD00002E2E5C2E7E
:104CD0002E5C6C69627261726965735C647269767C
:104CE0006572735C66736C5F65646D612E63000052
:104CF0006368616E6E656C203C2046534C5F464590
:104D000041545552455F45444D415F4D4F44554CCC
:104D1000455F4348414E4E454C000000746364209B
:104D2000213D204E554C4C00282875696E74333255
:104D30005F74297463642026203078314655292019
:104D40003D3D2030000000002DE9F05F04460F4695
:104D5000154698460AAE96E8400E04B105E040F2CA
:104D60003F2252A15AA002F04DF807B105E04FF4DE
:104D700010724EA15AA002F045F8B8F1000F00D011
:104D800005E040F2412249A159A002F03BF8012D73
:104D900007D0022D05D0042D03D0102D01D0202DD9
:104DA00000D105E040F2422240A1564802F02AF824
:104DB000012E07D0022E05D0042E03D0102E01D0D4
:104DC000202E00D105E040F2432238A14E4802F0E7
:104DD00019F8BAFBF9F009FB10A000B905E04FF48F
:104DE000117232A149A002F00DF8C4F804802760C6
:104DF000C4F81090BAFBF9F06061042D10D004DC07
:104E0000012D07D0022D14D107E0102D0BD0202D3D
:104E10000FD10BE0002020720CE00120207209E08D
:104E20000220207206E00420207203E00520207298
:104E300000E000BF00BF042E10D004DC012E07D01C
:104E4000022E14D107E0102E0BD0202E0FD10BE034
:104E5000002060720CE00120607209E002206072A4
:104E600006E00420607203E00520607200E000BFED
:104E700000BFBBF1000F06D0BBF1010F0DD0BBF19D
:104E8000020F0FD104E030B2A08128B260810AE0A5
:104E90000020A08128B2608105E030B2A08100200E
:104EA000608100E000BF00BFBDE8F09F2E2E5C2EA9
:104EB0002E5C6C69627261726965735C647269769A
:104EC0006572735C66736C5F65646D612E63000070
:104ED000636F6E66696720213D204E554C4C000083
:104EE0007372634164647220213D204E554C4C0026
:104EF000646573744164647220213D204E554C4CAE
:104F000000000000807D0060E47D00607472616ECE
:104F100073666572427974657320252062797465C1
:104F2000734561636852657175657374203D3D20FA
:104F30003000000070B504460E46154604B105E089
:104F40004FF40C7203A10CA001F05CFF26606560B9
:104F500070BD00002E2E5C2E2E5C6C696272617238
:104F60006965735C647269766572735C66736C5FA5
:104F700065646D612E63000068616E646C6520215C
:104F80003D204E554C4C00002DE9F04107460C46A3
:104F900015461E46202C00D204E0A7220EA117A021
:104FA00001F030FF05B104E0A8220BA11EA001F022
:104FB00029FF06F01F0000B904E0A92206A11EA0E7
:104FC00001F020FF07F5805101EB441032462946DD
:104FD00000F0E4F9BDE8F0812E2E5C2E2E5C6C69A9
:104FE000627261726965735C647269766572735C22
:104FF00066736C5F65646D612E6300006368616E4B
:105000006E656C203C2046534C5F464541545552DA
:10501000455F45444D415F4D4F44554C455F4348C6
:10502000414E4E454C000000636F6E66696720215B
:105030003D204E554C4C0000282875696E74333263
:105040005F74296E6578745463642026203078314B
:10505000465529203D3D20300000000070B5044633
:1050600004B105E040F2123219A122A001F0CAFEFB
:10507000E06828B9207C00F01F00A168C87626E00F
:10508000A06800F58050217C00EB4115607D40F068
:1050900080006075A869C8B1FFF795FB0646A06857
:1050A000C068227C01219140084060B9A88B00F0C3
:1050B000800018B1A88B00F0100020B1207C00F017
:1050C0001F00A168C876304600F0F4F900BF70BD3B
:1050D0002E2E5C2E2E5C6C69627261726965735C47
:1050E000647269766572735C66736C5F65646D612A
:1050F0002E63000068616E646C6520213D204E5572
:105100004C4C00002DE9F05F04468A4604B105E0EE
:1051100040F287226AA173A001F074FEBAF1000F79
:1051200000D005E04FF4227265A172A001F06AFE82
:10513000A06800F58050217C00EB4115E06888BB39
:10514000A88B38B1A88B00F0800018B941F2ED307F
:10515000BDE8F09F217C00235246A068FFF714FFB2
:10516000A06800F58050217C00EB4110808B40F05E
:105170000801A06800F58050227C00EB421081837A
:10518000A06800F58050217C00EB4110808B40F03E
:105190000201A06800F58050227C00EB4210818360
:1051A0000020D5E7FFE7FFF70EFB834694F91300D5
:1051B00094F91410884205DB584600F07BF941F25F
:1051C000EC30C5E794F91260E07C401C40B2E0741A
:1051D000701C4FFA80F894F91400404501D14FF04B
:1051E000000884F81280584600F064F90EB1701E71
:1051F00002E094F91400401E4FFA80F9E16801EBD7
:10520000461000F07FF8E16801EB4610002251469D
:1052100000F0C4F8E06800EB4610808B40F002001C
:10522000E16801EB46118883E06800EB4810E16813
:1052300001EB461188614E452FD0E06800EB491024
:10524000808B20F0080040F01007E06800EB491068
:105250008783E06800EB4610A969884219D1A88BC2
:1052600040F00800A883A88B40F01007AF83A88BFC
:1052700000F0100028B1A88B20F00800A8830020BF
:1052800066E7E06800EB4810A969884205D1002074
:105290005EE7A86908B100205AE7E36803EB46120D
:1052A000217CA068FFF7ACFC607D00F0800020B19D
:1052B000207C00F01F00A168C876002048E70000AD
:1052C0002E2E5C2E2E5C6C69627261726965735C55
:1052D000647269766572735C66736C5F65646D6138
:1052E0002E63000068616E646C6520213D204E5580
:1052F0004C4C0000636F6E66696720213D204E555F
:105300004C4C000010B5044604B105E04FF4837224
:105310000EA117A001F076FD04F01F0000B905E012
:1053200040F2071209A115A001F06CFD00202060D9
:10533000A080E080A060E0602061A082E082A061A7
:105340000820A0830020E08310BD00002E2E5C2EDC
:105350002E5C6C69627261726965735C64726976F5
:105360006572735C66736C5F65646D612E630000CB
:1053700074636420213D204E554C4C0028287569EB
:105380006E7433325F742974636420262030783160
:10539000465529203D3D20300000000070B50446F0
:1053A0000D46164604B105E04FF48D7220A129A0E8
:1053B00001F028FD04F01F0000B905E040F21B12C7
:1053C0001BA127A001F01EFD05B105E04FF48E7270
:1053D00017A12BA001F016FD06F01F0000B905E093
:1053E00040F21D1212A12AA001F00CFD28682060D5
:1053F00068682061287A4FF4E06101EA0020697A48
:1054000001F007010843E0806889A080A889A08294
:105410002869A060A88AE082A88AE08336B1A661E4
:10542000A08B20F0080040F01000A08370BD0000A9
:105430002E2E5C2E2E5C6C69627261726965735CE3
:10544000647269766572735C66736C5F65646D61C6
:105450002E63000074636420213D204E554C4C00A7
:10546000282875696E7433325F742974636420264A
:1054700020307831465529203D3D20300000000085
:10548000636F6E66696720213D204E554C4C0000CD
:10549000282875696E7433325F74296E6578745488
:1054A0006364202620307831465529203D3D203048
:1054B0000000000000BF80F3108800BF70470000AC
:1054C0002DE9F0438BB004460D4616461F46DDF825
:1054D0004890301B401C791B491C48434FEA400848
:1054E0003B4632462946204600F092FA2C201149CC
:1054F000088000BF02202021CDE900184FF0204392
:105500000A464946CDE9028005A8FFF71DFC05A91A
:105510000948FFF7F7FD0020084908700648FFF723
:105520009DFD00BF054800780128FBD10BB0BDE808
:10553000F0830000000001A0C80000201C00002033
:1055400070B50546002406E0094850F82400A8423A
:1055500000D102E0641C062CF6D300BF062C00D25A
:1055600004E0542203A10CA001F04CFC204670BDC5
:10557000147C00602E2E5C2E2E5C6C69627261724F
:105580006965735C647269766572735C66736C5F7F
:105590006770696F2E630000696E7374616E636576
:1055A000203C2041525241595F53495A4528735F6C
:1055B0006770696F42617365732900002DE9F041DE
:1055C00004460D4616462046FFF7BAFF124931F948
:1055D00010703846FEF75AF860690121A9408843E7
:1055E0006061307828B960680121A9408843606013
:1055F00009E072782946204600F056F861680120DB
:10560000A84001436160B7783A462946204600F039
:1056100005F800BFBDE8F0812C7C0060F0B50346C2
:105620000C462146DD690126A640B543DD61102CFC
:1056300002D203F10C0002E003F110001039062A37
:105640002ED2DFE802F02D030A15202705684F004F
:105650000326BE40B543056023E005684F000326DE
:10566000BE40B5434F000126BE403543056018E0FB
:1056700005684F000326BE40B5434F000226BE40DA
:10568000354305600DE005684F000326BE403543F5
:10569000056006E0DD690126A6403543DD6100E0D6
:1056A00000BF00BFF0BD000070B504460D461646B1
:1056B000202D00D204E0742208A111A001F0A2FB69
:1056C0002EB920680121A9408843206004E02168A8
:1056D0000120A8400143216070BD00002E2E5C2EE9
:1056E0002E5C6C69627261726965735C6472697662
:1056F0006572735C66736C5F6770696F2E63000020
:1057000070696E203C2033320000000010B5044860
:10571000FFF76CF9034908700846007810BD0000D7
:1057200000800E401000002010B5CB2000F096F94C
:10573000392000F099F92C2000F096F9002000F0B3
:1057400093F9342000F090F9022000F08DF9CF2079
:1057500000F084F9002000F087F9C12000F084F9FE
:10576000302000F081F9E82000F078F9852000F081
:105770007BF9002000F078F9782000F075F9EA2034
:1057800000F06CF9002000F06FF9002000F06CF9D7
:10579000ED2000F063F9642000F066F9032000F0CA
:1057A00063F9122000F060F9812000F05DF9F72024
:1057B00000F054F9202000F057F9C02000F04EF915
:1057C000232000F051F9C12000F048F9102000F02A
:1057D0004BF9C52000F042F93E2000F045F92820A1
:1057E00000F042F9C72000F039F9862000F03CF9BA
:1057F000362000F033F9282000F036F93A2000F086
:105800002DF9552000F030F9B12000F027F90020E3
:1058100000F02AF9182000F027F9B62000F01EF950
:10582000082000F021F9822000F01EF9272000F066
:105830001BF9F22000F012F9002000F015F92620E3
:1058400000F00CF9012000F00FF9E02000F006F95B
:105850000F2000F009F9312000F006F92B2000F0AC
:1058600003F90C2000F000F90E2000F0FDF80820EC
:1058700000F0FAF84E2000F0F7F8F12000F0F4F80C
:10588000372000F0F1F8072000F0EEF8102000F0CB
:10589000EBF8032000F0E8F80E2000F0E5F809200E
:1058A00000F0E2F8002000F0DFF8E12000F0D6F888
:1058B000002000F0D9F80E2000F0D6F8142000F0F7
:1058C000D3F8032000F0D0F8112000F0CDF8072025
:1058D00000F0CAF8312000F0C7F8C12000F0C4F889
:1058E000482000F0C1F8082000F0BEF80F2000F0BA
:1058F000BBF80C2000F0B8F8312000F0B5F83620E5
:1059000000F0B2F80F2000F0AFF8112000F0A6F878
:10591000782000F007F8292000F0A0F8C82000F057
:1059200001F810BD08B50AE042F21071009102E0E2
:105930000099491E009100990029F9D1401E0028C4
:10594000F2D108BD2DE9F04704460D4616461F4624
:10595000DDF82090301B401C791B491C00FB01FA2C
:105960003B4632462946204600F052F82C2000F0F3
:1059700075F84FF0000804E0484600F075F808F1AB
:105980000108D045F8D3BDE8F087000008B51548F8
:10599000006800906A4609211348FFF70FFE6A4627
:1059A00019211148FFF70AFE012000F01FF8FEF749
:1059B00023FA002209210C48FFF776FE1920FFF791
:1059C000B1FF002000F050F81920FFF7ABFF0122D3
:1059D00009210548FFF768FE3220FFF7A3FFFFF714
:1059E000A3FE08BDEC7C006000001C4010B504461E
:1059F0002CB1002219210548FFF756FE04E00122D0
:105A000019210248FFF750FE10BD000000001C40A5
:105A10002DE9F04104460D4616461F462A2000F0A7
:105A20001DF8201200F020F8E0B200F01DF830124E
:105A300000F01AF8F0B200F017F82B2000F00EF882
:105A4000281200F011F8E8B200F00EF8381200F059
:105A50000BF8F8B200F008F8BDE8F08101490880C1
:105A600070470000000001A04FF0204108807047FF
:105A700030B5DDE9034504B1256030BDF0B5DDE9A1
:105A8000055401F00706102707EA04173E43066095
:105A900002B11360F0BD0000F0B585B004460D46BC
:105AA00016461F4604B104E0FF221CA125A001F008
:105AB000A9F920792649087120680860084600790C
:105AC000022826D1684600F051F900952049324657
:105AD0000868694600F0CAF91D4A0121106821B121
:105AE000826942F40022826103E0826922F400228A
:105AF000826100BF164A0121106821B1826942F417
:105B00008022826103E0826922F48022826100BFE8
:105B100000E000BF00BF05B0F0BD00002E2E5C2EDF
:105B20002E5C6C69627261726965735C7574696C14
:105B300069746965735C696F5C66736C5F696F2E0D
:105B4000630000004E554C4C20213D20696F000041
:105B5000140000202DE9F04104460D4616460027AA
:105B60000C48007902280FD136B10A492A46086844
:105B7000214600F073FB06E006492A4608682146E4
:105B800000F0EEFA074601E0012700BF00BF3846EB
:105B9000BDE8F081140000202DE9FC4107460C46C9
:105BA00015461E4600978DF80440002332462946CC
:105BB0006846FFF771FF0020BDE8FC8170B505461F
:105BC0000C4600264CB145B1012636B101222146D2
:105BD0002846FFF7BFFF00B10024204670BD00003B
:105BE00070B504460D4604B105E040F23F1204A131
:105BF0000DA001F007F929462046FFF7DFFF70BD31
:105C00002E2E5C2E2E5C6C69627261726965735C0B
:105C10007574696C69746965735C6C6F675C6673D5
:105C20006C5F6C6F672E630062756620213D204EAD
:105C3000554C4C0010B5034841680348034A1268AC
:105C4000904710BD24000020004018400C000020A8
:105C500010B5034881680348034A1268904710BD95
:105C600024000020008018400C00002010B50348DC
:105C7000C1680348034A1268904710BD2400002001
:105C800000C018400C00002010B50348016903480B
:105C9000034A1268904710BD2400002000001940FC
:105CA0000C00002010B5034841690348034A1268FC
:105CB000904710BD24000020004019400C00002037
:105CC00010B5034881690348034A1268904710BD24
:105CD00024000020008019400C00002010B503486B
:105CE000C1690348034A1268904710BD2400002090
:105CF00000C019400C00002010B50348016A034899
:105D0000034A1268904710BD2400002000001A408A
:105D10000C00002070B505460C46AB6A23F44033F6
:105D20004FF4403000EA04400343AB626B6923F058
:105D3000004304F0004003430B480340C14304EA1E
:105D40000100034323F4404304F4404003436B61E8
:105D5000284600F083F8204010B140F21A5600E0C7
:105D60000026304670BD0000FFFFE0BF10B50446BE
:105D700004B105E04FF4F1720BA115A001F042F857
:105D80004FF4E1302060002020716071A071E0715B
:105D900020726072A072E07260732073A073E0736F
:105DA0002074607410BD00002E2E5C2E2E5C6C6979
:105DB000627261726965735C647269766572735C44
:105DC00066736C5F6C70756172742E630000000006
:105DD000636F6E666967000070B50546002406E0D3
:105DE000094850F82400A84200D102E0641C092CA4
:105DF000F6D300BF092C00D204E08E2203A10DA02F
:105E000001F000F8204670BD387C00602E2E5C2E1C
:105E10002E5C6C69627261726965735C647269762A
:105E20006572735C66736C5F6C70756172742E63FF
:105E300000000000696E7374616E6365203C204150
:105E4000525241595F53495A4528735F6C707561CE
:105E5000727442617365732900000000014648694D
:105E60008A6A02F4430240EA124070472DE9F04F7B
:105E700085B004460D46914605B104E0E42284A1B4
:105E80008DA000F0BFFF286800B104E0E52280A1EA
:105E90008BA000F0B7FF287A042800DC04E0E7229A
:105EA0007BA18DA000F0AEFF687A042800DC04E03E
:105EB000E82277A198A000F0A5FF286802904FF093
:105EC000000A00200490042731E028687843B9FBD9
:105ED000F0F01FFA80F8B8F1000F01D14FF001087F
:105EE00007FB08F0B9FBF0F0039029680398A0EBDA
:105EF000010B08F101007843B9FBF0F02968081A9A
:105F000058450BD208F101007843B9FBF0F029683D
:105F1000A1EB000B08F101001FFA80F802988345FD
:105F200004D8CDF808B0BA46CDF810807F1C202FD9
:105F3000CBD964212868B0FBF1F000EB4001029856
:105F4000814204D240F2215005B0BDE8F08F2046D6
:105F5000FFF742FF01908049019831F9100000904D
:105F600003210098FDF7EAFA00BF00BFA06840F0E7
:105F70000200A060A06820F00200A06000BF2669B7
:105F8000BAF1030F04D9BAF1080F01D246F4003672
:105F900026F0F856AAF101004FF0F85101EA00602E
:105FA00006436FF30C060498C0F30C0030432061E5
:105FB000206920F000502061A06940F2177120EAAA
:105FC00001062879E97B4FF4E06202EA01210843E7
:105FD000A97B042202EA810108430643687901286B
:105FE00007D1287910B126F4006606E046F4006671
:105FF00003E0287908B146F01006A661206920F474
:106000000056E8794FF4005101EA403030432061F6
:10601000287A697A40EA0140E062A06A40F088008C
:10602000A062A06A40F44040A0624C4E46F0004698
:1060300046F44046687B102101EA0010297B2022AB
:1060400002EA41110843616A08436062A87A18B104
:10605000606A40F008006062E87A18B1606A40F057
:1060600001006062A87910B146F0005601E026F008
:106070000056606930436061A669287C08B146F427
:106080000026687C08B146F48026A66100205BE704
:106090002E2E5C2E2E5C6C69627261726965735C77
:1060A000647269766572735C66736C5F6C7075613F
:1060B00072742E6300000000636F6E6669670000F3
:1060C000636F6E6669672D3E6261756452617465C7
:1060D0005F4270730000000046534C5F46454154D8
:1060E0005552455F4C50554152545F4649464F5FAB
:1060F00053495A456E286261736529203E3D2063ED
:106100006F6E6669672D3E74784669666F57617475
:1061100065726D61726B000046534C5F4645415499
:106120005552455F4C50554152545F4649464F5F6A
:1061300053495A456E286261736529203E3D2063AC
:106140006F6E6669672D3E72784669666F57617437
:1061500065726D61726B00006E7C006000001F4014
:106160002DE9F04706460C46904604B105E04FF491
:106170002E722EA137A000F045FEB76907F400602B
:1061800028B907F0100020B907F0020008B101207B
:1061900000E00020814642E030E03046FFF75EFE3E
:1061A000054605F4002040B14FF400213046FFF7CA
:1061B000B1FD40F21D50BDE8F08705F4802038B1F4
:1061C0004FF480213046FFF7A5FD40F21E50F2E764
:1061D00005F4003038B14FF400313046FFF79AFD36
:1061E00040F21F50E7E705F4803038B14FF48031BA
:1061F0003046FFF78FFD4FF4A460DCE7F06AC0F390
:1062000002600028C9D0B9F1000F05D0F06900F094
:106210007F0004F8010B02E0F06904F8010BB8F10B
:106220000000A8F10108B7D100BFC4E72E2E5C2EF4
:106230002E5C6C69627261726965735C6472697606
:106240006572735C66736C5F6C70756172742E63DB
:1062500000000000646174610000000070B5054634
:106260000C46164604B105E040F2A92209A113A08C
:1062700000F0C8FD08E000BF686900F400000028D5
:10628000FAD014F8010BE861301EA6F10106F2D134
:1062900070BD00002E2E5C2E2E5C6C6962726172E5
:1062A0006965735C647269766572735C66736C5F52
:1062B0006C70756172742E6300000000646174611B
:1062C0000000000010B50023244C236000BF00BF75
:1062D00000BFBFF34F8F00BF00BF00BF1F4B703B1D
:1062E0001B6823F480331D4C703C236000BF00BF4B
:1062F00000BFBFF34F8F00BF00BF00BF174B1B1F76
:106300001868C0F34E3100BFC0F3C90200BF43F6A6
:10631000E07303EA41134FF0404404EA82742343DC
:106320000F4C236000BF00BF131EA2F10102EED18B
:106330000B1EA1F10101E7D100BF00BF00BFBFF3F9
:106340004F8F00BF00BF00BF00BF00BF00BFBFF343
:106350006F8F00BF00BF00BF10BD000084ED00E0E4
:1063600074EF00E010B50023234C236000BF00BF92
:1063700000BFBFF34F8F00BF00BF00BF231F1868CF
:10638000C0F34E3100BFC0F3C90200BF43F6E07353
:1063900003EA41134FF0404404EA82742343174C4C
:1063A000236000BF00BF131EA2F10102EED10B1E3D
:1063B000A1F10101E7D100BF00BF00BFBFF34F8FC4
:1063C00000BF00BF00BF0C4B703B1B6843F4803321
:1063D000094C703C236000BF00BF00BFBFF34F8F6C
:1063E00000BF00BF00BF00BF00BF00BFBFF36F8F83
:1063F00000BF00BF00BF10BD84ED00E060EF00E013
:1064000010B50023234C236000BF00BF00BFBFF3C3
:106410004F8F00BF00BF00BF231F1868C0F34E316D
:1064200000BFC0F3C90200BF43F6E07303EA4113A3
:106430004FF0404404EA82742343174C236000BFAA
:1064400000BF131EA2F10102EED10B1EA1F101014A
:10645000E7D100BF00BF00BFBFF34F8F00BF00BF39
:1064600000BF0C4B703B1B6843F48033094C703CFD
:10647000236000BF00BF00BFBFF34F8F00BF00BF4E
:1064800000BF00BF00BF00BFBFF36F8F00BF00BFE2
:1064900000BF10BD84ED00E060EF00E000BF00BF72
:1064A00000BFBFF34F8F00BF00BF00BF00BF00BFE2
:1064B00000BFBFF36F8F00BF00BF00BF00201449B3
:1064C000086000BF00BF00BFBFF34F8F00BF00BF19
:1064D00000BF00BF00BF00BFBFF36F8F00BF00BF92
:1064E00000BF0C48006840F400300A49086000BF53
:1064F00000BF00BFBFF34F8F00BF00BF00BF00BF92
:1065000000BF00BFBFF36F8F00BF00BF00BF704769
:1065100050EF00E014ED00E000BF00BF00BFBFF38C
:106520004F8F00BF00BF00BF00BF00BF00BFBFF361
:106530006F8F00BF00BF00BF00201449086000BF7C
:1065400000BF00BFBFF34F8F00BF00BF00BF00BF41
:1065500000BF00BFBFF36F8F00BF00BF00BF0C487C
:10656000006840F400300A49086000BF00BF00BF67
:10657000BFF34F8F00BF00BF00BF00BF00BF00BF11
:10658000BFF36F8F00BF00BF00BF704750EF00E048
:1065900014ED00E02DE9FF4F9BB01E460020119046
:1065A00000270F900B9006900790DDF86C80FCE2BE
:1065B000252C05D0E2B201230FA91D98B047F2E2C5
:1065C00001200C9000250020109025E008F101002A
:1065D000804600782B280DD004DC20280DD02328FD
:1065E00014D110E02D2802D030280FD108E045F05A
:1065F000010510E045F002050DE045F004050AE054
:1066000045F0080507E045F0100504E0A8F1010891
:106610000120109000BF00BF10980028D6D04FF086
:1066200000090020109019E008F10100804604786C
:10663000302C08DB392C06DCA4F1300009EB890191
:1066400000EB41090AE02A2C04D11C9850F8049B65
:106650001C9003E0A8F10108012010901098002878
:10666000E2D006200E900020059008F1010080463F
:1066700000782E2829D100200E90109021E008F1FA
:10668000010080460478302C0CDB392C0ADCA4F1A4
:1066900030000E9901EB810100EB41000E900120CA
:1066A00005900EE02A2C08D11C9800680E901C98CA
:1066B000001D1C900120059003E0A8F101080120B5
:1066C000109010980028DAD001E0A8F1010808F134
:1066D000010080460078682802D06C281CD10DE0AB
:1066E00008F1010080460078682804D045F0400594
:1066F000A8F1010801E045F0200510E008F10100D3
:10670000804600786C2804D045F08005A8F1010887
:1067100001E045F4807502E0A8F1010800BF00BF68
:1067200008F1010080460478642C11D0692C0FD048
:10673000662C0DD0462C0BD0782C09D0582C07D0C5
:106740006F2C05D0622C03D0702C01D0752C7DD11C
:10675000642C01D0692C76D105F4807068B11C9846
:10676000C01D20F0070001461C90006849681C9A73
:1067700008321C92CDE9080107E01C9800681C99BA
:10678000091D1C91C117CDE908010C980A230122AB
:1067900008A9009012A8FDF7DAFC074612A83844B1
:1067A000119000210A46DDE90830591A904103DAB8
:1067B0004FF02D0A7F1C0FE005F0020018B14FF0DA
:1067C0002B0A7F1C08E005F0040018B14FF0200AE6
:1067D0007F1C01E04FF0000A00200A9005F008003D
:1067E00090B1BAF1000F05D00AF0FF0201230FA902
:1067F0001D98B04701200A90A9EB070330220FA98A
:106800001D98B0474F4613E005F0010080B9A9EB91
:10681000070320220FA91D98B047BAF1000F05D039
:106820000AF0FF0201230FA91D98B04701200A902A
:106830000A9840B9BAF1000F05D00AF0FF0201230F
:106840000FA91D98B047662C03D000E055E1462CF7
:1068500065D11C98C01D20F007001C90B0EC020B05
:106860001C908DED020B0A2202A912A80E9BFDF7C7
:1068700097FB074612A8384411909DED020BB5EE28
:10688000C00BF1EE10FA03D24FF02D0A7F1C0FE07F
:1068900005F0020018B14FF02B0A7F1C08E005F04C
:1068A000040018B14FF0200A7F1C01E04FF0000AED
:1068B00000200A9005F0080090B1BAF1000F05D051
:1068C0000AF0FF0201230FA91D98B04701200A908A
:1068D000A9EB070330220FA91D98B0474F4613E0DC
:1068E00005F0010080B9A9EB070320220FA91D982C
:1068F000B047BAF1000F05D00AF0FF0201230FA93B
:106900001D98B04701200A900A9840B9BAF1000FCB
:1069100005D00AF0FF0201230FA91D98B047582C9B
:1069200001D0782C7FD1782C01D100200C9005F477
:10693000807060B11C98C01D20F007001C90D0E949
:1069400000201C990831CDE906201C9107E01C9815
:1069500000681C99091D1C910021CDE906010C98C5
:106960001023002206A9009012A8FDF7F0FB0746AD
:1069700012A83844119000200A9005F00800D8B100
:1069800005F0100080B1012330220FA91D98B047F7
:106990000C9808B1582000E07820024601230FA986
:1069A0001D98B04701200A90A9EB070330220FA9D8
:1069B0001D98B0474F4620E005F00100E8B905F00A
:1069C000100000B1BF1CA9EB070320220FA91D98DE
:1069D000B04705F0100080B1012330220FA91D98A7
:1069E000B0470C9808B1582000E0782002460123F7
:1069F0000FA91D98B04701200A9005F0100050B172
:106A00000A9840B9012330220FA91D98B0470C986D
:106A100010B1582001E006E07820024601230FA9BA
:106A20001D98B047BF1C6F2C05D0622C03D0702C72
:106A300001D0752C48D105F4807060B11C98C01D40
:106A400020F007001C90D0E900101C9A08321C921C
:106A5000CDE9061007E01C9800681C99091D1C91DF
:106A60000021CDE906016F2C02D108200B900BE02C
:106A7000622C02D102200B9006E0702C02D1102073
:106A80000B9001E00A200B900C980090002206A9C0
:106A900012A80B9BFDF75BFB074612A83844119028
:106AA00005F0080038B1A9EB070330220FA91D98A3
:106AB000B0474F4608E005F0010028B9A9EB0703ED
:106AC00020220FA91D98B047119860B107E01198D6
:106AD00010F8012901230FA911901D98B0471198B2
:106AE00000780028F3D105F0010088B3A9EB070373
:106AF00020220FA91D98B04754E0632C0BD11C989D
:106B000010F8041B1C90C8B20D9001230FA90D9A18
:106B10001D98B04746E0732C3FD11C9850F804BB39
:106B20001C90BBF1000F3DD0059808B10E9F03E00B
:106B30005846FBF7BDFD074605F0010028B9A9EB53
:106B4000070320220FA91D98B047059880B107E0E0
:106B500028E01BF8012B01230FA91D98B0477F1EC9
:106B60009BF8000008B1002FF3DC0E98C71B0AE069
:106B700005E01BF8012B01230FA91D98B0479BF8D6
:106B800000000028F5D105F0010058B1A9EB07037A
:106B900020220FA91D98B04704E0E2B201230FA9FB
:106BA0001D98B04700BF08F1010898F80000041EC6
:106BB0007FF4FEAC0F981FB0BDE8F08F2DE9F041D7
:106BC0004A48006B00F4803008B1494D0AE047485C
:106BD000006B00F0010008B1162000E014204449C9
:106BE00000FB01F54148D0F860C041483F49096DBC
:106BF000A0FB01700146624600233846FBF7E4FC27
:106C000045193A48006900F4803008B1384E0AE06E
:106C10003648006900F0020008B1162000E0142098
:106C2000334900FB01F63348406900F0007000B3BF
:106C30003048806900F4405048B1B0F5805F08D01A
:106C4000B0F5005F07D0B0F5405F06D106E03446EE
:106C500006E0274C04E0264C00BF00BF002400BF24
:106C600000BF24484069C0F3C260401CB4FBF0F48C
:106C700031E02048806900F4402048B1B0F5802F11
:106C800008D0B0F5002F10D0B0F5402F20D116E07D
:106C90002C461FE01548F0300068C0F30560B6FBD5
:106CA000F0F000EBC000440014E013480068C0F3AB
:106CB0000560B5FBF0F000EBC00044000AE00D48B1
:106CC000006900F00700401C0C49B1FBF0F401E042
:106CD000002400BF00BF07484069C0F38220401C69
:106CE000B4FBF0F006490860BDE8F08100800D407B
:106CF00000366E0100C00F4000810D400065CD1DC3
:106D00000000002010B52D48006840F470002B49A9
:106D100008602B48008920F0010029490881294892
:106D2000008920F00100274908812548008800F0EB
:106D3000040028B12248008820F00400204908807F
:106D40002048008800F0040028B11E48008820F088
:106D500004001C4908801C481C4948604FF6FF701D
:106D600088600846006820F0800040F0200008603D
:106D70004FF0E020006900F0010038B14FF0E02052
:106D8000006920F001004FF0E02108610B487438E1
:106D9000006800F40030B0F5003F01D0FFF77EFB43
:106DA00006487438006800F48030B0F5803F01D0A8
:106DB000FFF7D8FA00F00CF810BD000088ED00E0F5
:106DC00000800B4000000D4020C528D900C00B40BA
:106DD000704703B401984100009850EAC12018BFE1
:106DE00004204A0D18BF40F0010040F2FF72B2EBE0
:106DF000515F08BF40F00200012808BF052002B023
:106E00007047000004460D46164633462A46214682
:106E100002A0FDF799FC00BF00BEFDE741535345BA
:106E20005254204552524F52202220257320223A9C
:106E30002066696C652022257322204C696E6520CE
:106E400022256422200A000071B42DED020BDDE939
:106E500000C2BCF1000F14BF0121002141EA420130
:106E600011F5001F08D99DED000B80ED000B9DED85
:106E7000000B03B070BC7047C2F30A510024A1F2AA
:106E8000FF3102F00043142919DA0029B8BFC0E924
:106E9000004324DB1B4D25FA01F102EA010555EA06
:106EA0000C0C16D022EA0101C0E9004190ED000B64
:106EB0009DED001B03B031EE400B70BC70473329D1
:106EC00007DC4FF0FF35143925FA01F11CEA010FF8
:106ED0000AD19DED000B80ED000BCDE900439DED47
:106EE000000B03B070BC70472CEA0101C0E900122E
:106EF00090ED000B9DED001B03B031EE400B70BC1C
:106F000070470000FFFF0F002DE9F04D2DED040B41
:106F10002DED0A8B9AB0DDE92550279CDDF890A075
:106F200025F0004624F00048BAF1000F14BF0121FB
:106F3000002101EB4502F84953184A1093422AD325
:106F4000002814BF0123002303EB44030B44F3493F
:106F50008B4220D358EA00019FEDF19B72D0DFF8FD
:106F6000C8B35D4503D1BAF1000F05D184E0BAF191
:106F7000000F08BF002100D0012101EB450111F5F0
:106F8000001F08D8002814BF0121002101EB440193
:106F900011F5001F0BD99DED261B9DED240B1AB09A
:106FA000BDEC0A8B04B0BDE8F04D00F071BC0027C9
:106FB000002DBCBFDD49884521DADD498845A8BFE1
:106FC00002271CDAC3451ADCDA4901EB28511429DF
:106FD00008DDC1F1340220FA02F101FA02F2824224
:106FE0000DD108E058B9C1F1140228FA02F101FAF2
:106FF00002F2424503D101F00101C1F1020756EA54
:107000000A0120D1002C1EDA002D18BF022F01D05A
:10701000012F0AD0022000F073FC1AB0BDEC0A8BDD
:1070200004B0BDE8F04D00F023BC022000F068FC85
:1070300000F01EFCB1EE400B1AB0BDEC0A8B04B0A0
:10704000BDE8F08D18E09FEDBCAB9FEDBD8B002837
:107050007DD1B64880451CD105F1804010F58010E7
:1070600008BFBAF1000F07D0B34508DC002CA8BF59
:107070009DED260BE0DA07E0B0EE490BDCE7002CD3
:10708000B8BF9DED260BD5DBAF48784490ED000BE3
:10709000D2E7D84548D1002C43DA2EB186423AD106
:1070A000BAF1000F3DD126E0BAF1000F13D0022053
:1070B00000F026FC00F0FCFB8DED020B9DED240B97
:1070C0008DED000B10EE900A039961F31E00039002
:1070D0009DED020BB0E78DED02AB9DED240B1AEE9A
:1070E000901A10EE900A8DED000B61F31E000390D4
:1070F0009DED020BA0E78DED028B9DED240B18EEAC
:10710000901A10EE900A8DED000B61F31E000390B3
:107110009DED020B90E704DA9DED241B89EE010B37
:107120008AE79DED240B87E786421ADAB4F1804F97
:1071300004BF9DED240B20EE000B3FF47DAFA4F1C6
:107140000050B0F1FF500CD1002D0ADB00E008E048
:107150009DED240B51EC100B00F01EFD41EC100BCB
:107160006AE79DED240B51EC100B00F0CFFBBAF158
:10717000000FCDE90E0140D19FED750B46B3A6F18E
:10718000E040B0F17F600ED05E4536D1002D00DAD0
:1071900097B3022F0CBF01204FF0FF3000EE100A12
:1071A000B8EEC00B48E7002D01DD002C0DDA002DF4
:1071B00001DD002C1DDB002D14DA002C12DB012F69
:1071C00008BF9FED650B3FF437AFB0EE4A0B33E7D6
:1071D000022F18BF002D0CD0012F0AD1002DFFF671
:1071E0002BAF06E0002DB8BF002C06DA012F3FF4CC
:1071F00023AFB0EE480B1FE719E0012000EBE5706C
:1072000050EA070113D0791EB0EE498B084308BF3E
:107210009FED538B5448002580457ADD53495448EF
:10722000884514DDB0420DDB002C19DB2CE0012079
:1072300000F066FB1AB0BDEC0A8B04B0BDE8F04D5F
:1072400000F02ABBB34502DC002C09DC1CE08642BE
:1072500002DA002C18DA03E05E4528DD002C13DD8D
:10726000022000F04DFB00F023FB8DED020B28EE19
:107270000A0B8DED000B10EE900A039961F31E00CE
:1072800003909DED020BD7E6022000F039FB00F0E1
:107290001BFB10EE901A18EE900A8DED020B8DED8F
:1072A000008B61F31E0003909DED020BC4E69DED83
:1072B0000E0B9FED313B30EE490B8DED040B20EEB4
:1072C000002B9DED041B9FED2E0B01EE430B9DED5E
:1072D000043B9FED2D1B03EE401B9DED040B9FED2A
:1072E0002E3B22EE012B9FED2A1B20EE011B20EEF0
:1072F000030B9FED2B3B02EE430B31EE002B8DED8C
:10730000022B02959DED022B32EE411B30EE411B0C
:1073100021E149E000000000FFFF1F00FFFF0F0018
:10732000000000000000F03F0000F03F0000F07F90
:107330000000404301FCFFFF000000000000F07F60
:107340000000000000000000EA0C00000000000047
:107350000000000000000080000000000000F0FFBE
:10736000000000000000F0BF0000E0410000F0431A
:10737000FFFFEF3F00000000000000000000D03FD2
:10738000555555555555D53F000000000000E03FCC
:10739000000000604715F73F44DF5DF80BAE543E38
:1073A000FE822B654715F73F0020B6F5801F0BDAEC
:1073B0009DED0E0B9FEDEC1B6FF0340020EE010BEA
:1073C00010EE906A8DED0E0BE94A00EB2650C6F3E5
:1073D0001301A0F2FF3741F07F6040F0405091422E
:1073E000D8BF002408DDE34A8A42C8BF012403DC79
:1073F0000024A0F580107F1CDF49794401EBC40113
:107400000F9091ED001B9DED0E2B9DED0E0BDB49BA
:1074100031EE023B30EE410B89EE032B20EE02AB46
:107420008DED02AB7944029591ED003B4FF0005198
:1074300041EA600000EB84408DED043B00F5002044
:1074400005909DED043B9DED044B2AEE0ACB33EEF7
:10745000411B9DED0E3BCA48062133EE411B9DEDBD
:10746000023B03EE440B03EE410B20EE02BBB0EEF9
:107470004C0B784400F0C4F92CEE0C1B20EE010BF1
:107480009DED021B31EE0A1B0BEE010B9DED021B65
:1074900021EE011B9FEDBC2B31EE023B33EE003B96
