:0200000460009A
:10000000464346420004015600000000000303007E
:1000100001010000010400000002000000000000D7
:1000200000000000000000000000000000000000D0
:1000300000000000000000000000000000000000C0
:1000400000000000010407000000000000000000A4
:10005000000000020000000000000000000000009E
:100060000000000000000000000000000000000090
:100070000000000000000000000000000000000080
:10008000EC04200A063204260000000000000000F4
:10009000050404240000000000000000000000002F
:1000A0000000000000000000000000000000000050
:1000B0000000000000000000000000000000000040
:1000C0000000000000000000000000000000000030
:1000D0000000000000000000000000000000000020
:1000E0000000000000000000000000000000000010
:1000F0000000000000000000000000000000000000
:1001000000000000000000000000000000000000EF
:1001100000000000000000000000000000000000DF
:1001200000000000000000000000000000000000CF
:1001300000000000000000000000000000000000BF
:1001400000000000000000000000000000000000AF
:10015000000000000000000000000000000000009F
:10016000000000000000000000000000000000008F
:10017000000000000000000000000000000000007F
:10018000000000000000000000000000000000006F
:10019000000000000000000000000000000000005F
:1001A000000000000000000000000000000000004F
:1001B000000000000000000000000000000000003F
:1001C000000100000010000000000000000000001E
:1001D000000000000000000000000000000000001F
:1001E000000000000000000000000000000000000F
:1001F00000000000000000000000000000000000FF
:0200000460009A
:10100000D10020410020006000000000301000608E
:1010100020100060001000600000000000000000D0
:10102000000000600000000200000000FFFFFFFF62
:10103000D2040041CC037C04400FC068FFFFFFFFD7
:10104000400FC06CFFFFFFFF400FC070FFFFFFFFAE
:10105000400FC074FFFFFFFF400FC078FFFFFFFF8E
:10106000400FC07CFFFFFFFF400FC080FFFFFFFF6E
:10107000400D803000002001400D8100001D000067
:10108000400FC01400010D40401F801400000000FC
:10109000401F801800000000401F801C000000005E
:1010A000401F802000000000401F8024000000003E
:1010B000401F802800000000401F802C000000001E
:1010C000401F803000000000401F803400000000FE
:1010D000401F803800000000401F803C00000000DE
:1010E000401F804000000000401F804400000000BE
:1010F000401F804800000000401F804C000000009E
:10110000401F805000000000401F8054000000007D
:10111000401F805800000000401F805C000000005D
:10112000401F806000000000401F8064000000003D
:10113000401F806800000000401F806C000000001D
:10114000401F807000000000401F807400000000FD
:10115000401F807800000000401F807C00000000DD
:10116000401F808000000000401F808400000010AD
:10117000401F808800000000401F808C000000009D
:10118000401F809000000000401F8094000000007D
:10119000401F809800000000401F809C000000005D
:1011A000401F80A000000000401F80A4000000003D
:1011B000401F80A800000000401F80AC000000001D
:1011C000401F80B000000000401F80B400000000FD
:1011D000401F80B800000000401F8204000000E1B2
:1011E000401F8208000000E1401F820C000000E167
:1011F000401F8210000000E1401F8214000000E147
:10120000401F8218000000E1401F821C000000E126
:10121000401F8220000000E1401F8224000000E106
:10122000401F8228000000E1401F822C000000E1E6
:10123000401F8230000000E1401F8234000000E1C6
:10124000401F8238000000E1401F823C000000E1A6
:10125000401F8240000000E1401F8244000000E186
:10126000401F8248000000E1401F824C000000E166
:10127000401F8250000000E1401F8254000000E146
:10128000401F8258000000E1401F825C000000E126
:10129000401F8260000000E1401F8264000000E106
:1012A000401F8268000000E1401F826C000000E1E6
:1012B000401F8270000000E1401F8274000000E1C6
:1012C000401F8278000000E1401F827C000000E1A6
:1012D000401F8280000000E1401F8284000000E186
:1012E000401F8288000000E1401F828C000000E166
:1012F000401F8290000000E1401F8294000000E146
:10130000401F8298000000E1401F829C000000E125
:10131000401F82A0000000E1401F82A4000000E105
:10132000401F82A8000000E1402F000010000004D0
:10133000402F000800030524402F000C060305245D
:10134000402F00108000001B402F00148200001B63
:10135000402F00188400001B402F000400007988F3
:10136000402F004000000F37402F00440065292225
:10137000402F004800010920402F004C50210A084E
:10138000402F008000000021402F008400888888C2
:10139000402F009400000002402F00980000000041
:1013A000402F009080000000402F009CA55A000FA5
:1013B000CF000C1C402F003C00000001CC001404A6
:1013C000402F009080000000402F009CA55A000C88
:1013D000CF000C1C402F003C00000001CC00140486
:1013E000402F009080000000402F009CA55A000C68
:1013F000CF000C1C402F003C00000001CC001C045E
:10140000402F00A000000033402F0090800000001B
:10141000402F009CA55A000ACF000C1C402F003C16
:1014200000000001CC000C04402F004C50210A09A0
:0200000460009A
:1020000000000120152400602D2400602F240060B2
:10201000312400603324006035240060000000009B
:1020200000000000000000000000000037240060F5
:1020300039240060000000003B2400603D24006063
:102040003F24006043240060472400604B2400606C
:102050004F24006053240060572400605B2400601C
:102060005F24006063240060672400606B240060CC
:102070006F24006073240060772400607B2400607C
:102080007F240060F7240060F7240060F7240060DC
:1020900083240060872400608B2400608F2400600C
:1020A00093240060972400609B2400609F240060BC
:1020B000A3240060A7240060AB240060AF2400606C
:1020C000B3240060B7240060BB240060BF2400601C
:1020D000C3240060C7240060F7240060F724006078
:1020E000F7240060F7240060F7240060F724006004
:1020F000F7240060F7240060F7240060F7240060F4
:10210000F7240060F7240060F7240060F7240060E3
:10211000F7240060F7240060F7240060F7240060D3
:10212000CB240060CF240060D3240060D72400605B
:10213000DB240060F7240060F7240060F7240060CF
:10214000F7240060F7240060F7240060F7240060A3
:10215000F7240060F7240060F7240060F724006093
:10216000F7240060F7240060F7240060F724006083
:10217000F7240060F7240060F7240060F724006073
:10218000F7240060F7240060F7240060F724006063
:10219000F7240060F7240060F7240060F724006053
:1021A000F7240060F7240060DF240060F72400605B
:1021B000F7240060F7240060F7240060F724006033
:1021C000F7240060F7240060F7240060F724006023
:1021D000F7240060F7240060F7240060F724006013
:1021E000F7240060F7240060F7240060F724006003
:1021F000E3240060F7240060E7240060EB24006023
:10220000F7240060F7240060EF240060F3240060EE
:10221000F7240060F7240060F7240060F7240060D2
:10222000F7240060F7240060F7240060F7240060C2
:10223000F7240060F7240060F7240060F7240060B2
:10224000F7240060F7240060F7240060F7240060A2
:10225000F7240060F7240060F7240060F724006092
:10226000F7240060F7240060F7240060F724006082
:10227000F7240060F7240060F7240060F724006072
:10228000F7240060F7240060F7240060F724006062
:10229000F7240060F7240060F7240060F724006052
:1022A000F7240060F7240060F7240060F724006042
:1022B000F7240060F7240060F7240060F724006032
:1022C000F7240060F7240060F7240060F724006022
:1022D000F7240060F7240060F7240060F724006012
:1022E000F7240060F7240060F7240060F724006002
:1022F000F7240060F7240060F7240060F7240060F2
:10230000F7240060F7240060F7240060F7240060E1
:10231000F7240060F7240060F7240060F7240060D1
:10232000F7240060F7240060F7240060F7240060C1
:10233000F7240060F7240060F7240060F7240060B1
:10234000F7240060F7240060F7240060F7240060A1
:10235000F7240060F7240060F7240060F724006091
:10236000F7240060F7240060F7240060F724006081
:10237000F7240060F7240060F7240060F724006071
:10238000F7240060F7240060F7240060F724006061
:10239000F7240060F7240060F7240060F724006051
:1023A000F7240060F7240060F7240060F724006041
:1023B000F7240060F7240060F7240060F724006031
:1023C000F7240060F7240060F7240060F724006021
:1023D000F7240060F7240060F7240060F724006011
:1023E000F7240060F7240060F7240060F724006001
:1023F000F7240060F7240060F7240060FFFFFFFF70
:10240000DFF80CD000F05EFA00480047D1AB006066
:102410000000012072B63948394901600A6882F328
:1024200008883848804762B637480047FEE7FEE72D
:10243000FEE7FEE7FEE7FEE7FEE7FEE7FEE73348DE
:102440000047334800473348004733480047334884
:102450000047334800473348004733480047334874
:102460000047334800473348004733480047334864
:102470000047334800473348004733480047334854
:102480000047334800473348004733480047334844
:102490000047334800473348004733480047334834
:1024A0000047334800473348004733480047334824
:1024B0000047334800473348004733480047334814
:1024C0000047334800473348004733480047334804
:1024D00000473348004733480047334800473348F4
:1024E00000473348004733480047334800473348E4
:1024F00000473348004733480047000008ED00E03C
:1025000000200060B18A006001240060094600607C
:1025100091470060C9470060014800603948006089
:1025200071480060A9480060E148006019490060F6
:10253000514900604146006079460060B146006044
:10254000E94600602147006059470060F7240060B9
:102550003973006055730060717300608D730060A3
:10256000A9730060C5730060E1730060FD730060D3
:10257000956A0060A56A0060B56A0060C56A00607F
:10258000F7240060F7240060F7240060F72400605F
:10259000F7240060F7240060F7240060F72400604F
:1025A000F7240060F7240060F7240060F72400603F
:1025B000F7240060F7240060F7240060F72400602F
:1025C000F7240060F72400602DE9F05F0546002045
:1025D00092469B4688460646814640241BE0284694
:1025E00041464746224600F0E8F853465A46C01A8C
:1025F000914110D311461846224600F0CFF82D1A0B
:1026000067EB01084F4622460120002100F0C6F882
:1026100017EB00094E41201EA4F10104DFDC4846FF
:1026200031462A464346BDE8F09F2DE9F04100249B
:10263000061B254671F1000605DA01240027D0EBC0
:10264000070067EB0101161E73F1000605DA00278B
:10265000D2EB0702012567EB0303FFF7B5FF8646C0
:102660000E4617469C46AC4204D00025D0EB050E22
:1026700065EB010624B10020D2EB000760EB030CF0
:10268000704631463A466346BDE8F08110B5431ABC
:10269000934209D28318881803E010F8011D03F84B
:1026A000011D521EF9D210BD40EA01039B0703D061
:1026B00009E008C9121F08C0042AFAD203E011F881
:1026C000013B00F8013B521EF9D210BDD2B201E02D
:1026D00000F8012B491EFBD270470022F6E710B527
:1026E00013460A4604461946FFF7F0FF204610BD80
:1026F000421C10F8011B0029FBD1801A70473EB51F
:10270000CA17CB0F002450405140C0186141DA076E
:1027100040F233430094CDE901232246234600F0E2
:102720006BF803B030BD70B5C1F30A5201F000453B
:102730000024C1F3130140F2FF3341F480119A42A7
:1027400002DA0020014670BD40F233439A42A2F201
:10275000334203DC524200F030F801E000F01EF892
:102760002C43F0D00023D0EB030063EB010170BDDC
:1027700030B50B46014600202022012409E021FA51
:1027800002F59D4205D303FA02F5491B04FA02F54E
:102790002844151EA2F10102F1DC30BD202A04DB21
:1027A000203A00FA02F1002070479140C2F1200364
:1027B00020FA03F3194390407047202A04DB203AA3
:1027C00021FA02F00021704721FA02F3D040C2F151
:1027D0002002914008431946704710B5141E73F14A
:1027E000000408DA401C41F1000192185B411A43D1
:1027F00001D120F0010010BD2DE9F04D92469B461D
:1028000011B1B1FA81F202E0B0FA80F220329046C2
:10281000FFF7C4FF04460F4640EA0A0041EA0B01F5
:1028200053465A46084313D0114653EA010019D0C3
:10283000C8F140025046FFF7C0FF05460E4650461D
:1028400059464246FFF7AAFF084305D0012004E09D
:1028500020463946BDE8F08D0020054346EAE07683
:102860002C4337430A986305E40AA0EB08000022D2
:10287000FD0A44EA47540A3002D500200146E9E740
:10288000010510196941DDE9084500196941BDE8F4
:10289000F04DA2E770B521F0004303430CD0C1F323
:1028A0000A550024D5EB040564EB0403D617AD1AD2
:1028B000B34102DB0020014670BD201841EB0251FC
:1028C00070BD0000064C074D06E0E06840F00103D3
:1028D00094E8070098471034AC42F6D3FFF794FD14
:1028E00008EA046028EA046070B58C1810F8015BEF
:1028F00015F0070301D110F8013B2A1106D110F899
:10290000012B03E010F8016B01F8016B5B1EF9D19C
:102910002B0705D40023521E0DD401F8013BFAE722
:1029200010F8013BCB1A921C03E013F8015B01F88D
:10293000015B521EF9D5A142D8D3002070BD000022
:1029400010B54FF400406249086000BF6148624919
:10295000086000BF0121614801F0D2FA01216048FE
:1029600001F0CEFA5F48C06820F01F0040F012006E
:102970005C49C8605C4801F0FBF900215B4801F04C
:1029800031FA00215A4801F02DFA0321594801F08B
:1029900029FA0321584801F0B3FA0021504801F008
:1029A000AFFA0021554801F01DFA00214B4801F013
:1029B000A7FA0121524801F015FA0021514801F00F
:1029C0009FFA0221504801F00DFA00214F4801F012
:1029D00097FA02214E4801F005FA00214D4801F016
:1029E0008FFA04214548FC3801F0FCF902214A48DD
:1029F00001F086FA0221494801F0F4F90221484821
:102A000001F07EFA0321474801F0ECF901213C482E
:102A10000C3001F0E7F90021434801F071FA03217D
:102A20004048001D01F0DEF901213548103001F069
:102A3000D9F900212948001D01F062FA03213B4821
:102A400001F0D0F901213A4801F0CCF900213448D5
:102A5000001D01F055FA0021364801F0C3F90021AC
:102A6000354801F04DFA0121344801F0BBF902214B
:102A700020480C3001F044FA0121314801F0B2F94C
:102A800007212A48083001F0ADF903212D4801F053
:102A900037FA01212C4801F0A5F907212848083808
:102AA00001F0A0F90321294801F02AFA0021284861
:102AB00001F026FA00211248083001F093F90021B4
:102AC0001048083001F01CFA05F04EFF10BD000060
:102AD0000800002000366E0104000020186C008001
:102AE0001439001400000840B4AF006014EA000478
:102AF00010E00040146800801872008014FB008011
:102B00001CE007801C26008024EB00801C30008025
:102B100024F000801C31008018640080247900803B
:102B2000186E008028E600801C6A008028F600806D
:102B300028F0078038F307803832008020E20780D1
:102B400030F900803074008028E900802073008014
:102B50000C20008010B56148006800F40030B0F52A
:102B6000003F2BD100BF00BF00BF00BF00BFBFF3BD
:102B70004F8F00BF00BF00BF00BF00BF00BFBFF34B
:102B80006F8F00BF00BF00BF5448006820F40030C2
:102B90005249086000205249086000BF00BF00BFD2
:102BA000BFF34F8F00BF00BF00BF00BF00BF00BF1B
:102BB000BFF36F8F00BF00BF00BF00BF4748006872
:102BC00000F48030B0F5803F01D104F033FF00BF46
:102BD00000BF00BF00BF00BFBFF34F8F00BF00BFEB
:102BE00000BF00BF00BF00BFBFF36F8F00BF00BFBB
:102BF00000BF3A481030006820F480303749103167
:102C0000086036488030006820F001003349803188
:102C1000086000BF33483149883108603248091DD7
:102C200008603248091F08602F48801C091D086091
:102C30002F48091F08602F48091D08601320091F2D
:102C400008602948801C091D08601420091F0860BD
:102C500028481A38091D08602748091F08602548B8
:102C60001A38091D08602548091F086021481838CE
:102C7000091D08601D48801D091F08601D4808388F
:102C8000091D08601E48091F08601E48091D0860CC
:102C9000042000BF00BF00BF00BFBFF34F8F00BFC5
:102CA00000BF00BF00BF00BF00BFBFF36F8F00BFFA
:102CB00000BF00BF40F00101084A8032116007499F
:102CC0001031096841F48031044A1032116000BFAC
:102CD00004F04EFF04F0D8FF10BD000014ED00E03A
:102CE00050EF00E0100000C0390010031100008018
:102CF0001200006039000303150000201600202098
:102D00001800E0812900080370B51648C1B2164AC0
:102D10008958C0F34C32C0F304239A401140C0F3E9
:102D20000422D14061B9114800F0F2FE0621B0FB47
:102D3000F1F50F4800F0C4FD401CB5FBF0F40FE0C6
:102D400000BF0C48006800F0100008B10A4D01E017
:102D50000A480568064800F0B3FD401CB5FBF0F4D6
:102D6000204670BD2426008000C00F400D001000DA
:102D700024E0078070820D4000366E0104000020C0
:102D800010B5FFF7C1FF0446234602224FF4E1319C
:102D9000014801F04BFE10BD004018401CB540F248
:102DA000024000F051FD0020FE4903460246CDE9F5
:102DB00000100221FC4803F0A3FC0020F949091D82
:102DC00003460246CDE900100221F748001D03F03A
:102DD00097FC0020F449B43103460246CDE90010C7
:102DE0000146F148C03803F08BFC0020EE49B831B1
:102DF00003460246CDE900100146EB48BC3803F01B
:102E00007FFC0020E749B83903460246CDE90010AF
:102E10000146E548B83803F073FC0020E149B439B5
:102E200003460246CDE900100146DF48B43803F0FE
:102E300067FC0020DB49B03903460246CDE90010AB
:102E40000146D948B03803F05BFC0020D549AC39C5
:102E500003460246CDE900100146D348AC3803F0E2
:102E60004FFC0020CF49A83903460246CDE90010A7
:102E70000146CD48A83803F043FC0020C949A439D5
:102E800003460246CDE900100146C748A43803F0C6
:102E900037FC0020C349A03903460246CDE90010A3
:102EA0000146C148A03803F02BFC0020BD499C39E5
:102EB00003460246CDE900100146BB489C3803F0AA
:102EC0001FFC0020B749983903460246CDE900109F
:102ED0000146B548983803F013FC0020B1499439F5
:102EE00003460246CDE900100146AF48943803F08E
:102EF00007FC0020AB49903903460246CDE900109B
:102F00000146A948903803F0FBFB0020A5498C3905
:102F100003460246CDE900100146A3488C3803F071
:102F2000EFFB00209F49883903460246CDE9001097
:102F300001469D48883803F0E3FB00209949843915
:102F400003460246CDE9001001469748843803F055
:102F5000D7FB00209349803903460246CDE9001093
:102F600001469148803803F0CBFB00208D497C3925
:102F700003460246CDE9001001468B487C3803F039
:102F8000BFFB00208749783903460246CDE900108F
:102F900001468548783803F0B3FB00208149743935
:102FA00003460246CDE9001001467F48743803F01D
:102FB000A7FB00207B49703903460246CDE900108B
:102FC00001467948703803F09BFB002075496C3945
:102FD00003460246CDE90010014673486C3803F001
:102FE0008FFB00206F49683903460246CDE9001087
:102FF00001466D48683803F083FB00206949643955
:1030000003460246CDE9001001466748643803F0E4
:1030100077FB00206349603903460246CDE9001082
:1030200001466148603803F06BFB00205D495C3964
:1030300003460246CDE9001001465B485C3803F0C8
:103040005FFB00205749583903460246CDE900107E
:1030500001465548583803F053FB00205149543974
:1030600003460246CDE9001001464F48543803F0AC
:1030700047FB01204B49503900231A46CDE9001087
:1030800019464948503803F03BFB002045494C396C
:1030900003460246CDE90010014643484C3803F090
:1030A0002FFB00203F49483903460246CDE9001076
:1030B00001463D48483803F023FB00203949443994
:1030C00003460246CDE9001001463748443803F074
:1030D00017FB00203349403903460246CDE9001072
:1030E00001463148403803F00BFB00202D493C39A4
:1030F00003460246CDE9001001462B483C3803F058
:10310000FFFA00202749383903460246CDE900106E
:1031100001462548383803F0F3FA002021493439B4
:1031200003460246CDE9001001461F48343803F03B
:10313000E7FA00201B49303903460246CDE900106A
:1031400001461948303803F0DBFA002015492C39C4
:1031500003460246CDE90010014613482C3803F01F
:10316000CFFA00200F49283903460246CDE9001066
:1031700001460D48283803F0C3FA002009492439D4
:1031800003460246CDE9001001460748243803F003
:10319000B7FA00200349203903460246CDE9001062
:1031A000014603E048821F40D4801F40FE4820387B
:1031B00003F0A6FA0020FD4903460246CDE90010BF
:1031C0000521F9481C3803F09BFA41F2B000F74999
:1031D0001C3100231A46CDE900100221F24803F009
:1031E0007DFA41F2B000F149203100231A46CDE9C1
:1031F00000100221EC48001D03F070FAE120EB49B9
:10320000A43900231A46CDE900101946E648C03813
:1032100003F064FAE120E549A03900231A46CDE91C
:1032200000101946E048BC3803F058FAE120DF49A5
:103230009C3900231A46CDE900101946DA48B838FF
:1032400003F04CFAE120D949983900231A46CDE918
:1032500000101946D448B43803F040FAE120D349AD
:10326000943900231A46CDE900101946CE48B038EB
:1032700003F034FAE120CD49903900231A46CDE914
:1032800000101946C848AC3803F028FAE120C749B5
:103290008C3900231A46CDE900101946C248A838D7
:1032A00003F01CFAE120C149883900231A46CDE910
:1032B00000101946BC48A43803F010FAE120BB49BD
:1032C000843900231A46CDE900101946B648A038C3
:1032D00003F004FAE120B549803900231A46CDE90C
:1032E00000101946B0489C3803F0F8F9E120AF49C6
:1032F0007C3900231A46CDE900101946AA489838AF
:1033000003F0ECF9E120A949783900231A46CDE908
:1033100000101946A448943803F0E0F9E120A349CD
:10332000743900231A46CDE9001019469E4890389A
:1033300003F0D4F9E1209D49703900231A46CDE904
:103340000010194698488C3803F0C8F9E1209749D5
:103350006C3900231A46CDE9001019469248883886
:1033600003F0BCF9E1209149683900231A46CDE900
:10337000001019468C48843803F0B0F9E1208B49DD
:10338000643900231A46CDE9001019468648803872
:1033900003F0A4F9E1208549603900231A46CDE9FC
:1033A0000010194680487C3803F098F9E1207F49E5
:1033B0005C3900231A46CDE9001019467A4878385E
:1033C00003F08CF9E1207949583900231A46CDE9F8
:1033D000001019467448743803F080F9E1207349ED
:1033E000543900231A46CDE9001019466E4870384A
:1033F00003F074F9E1206D49503900231A46CDE9F4
:103400000010194668486C3803F068F9E1206749F4
:103410004C3900231A46CDE9001019466248683835
:1034200003F05CF9E1206149483900231A46CDE9EF
:10343000001019465C48643803F050F9E1205B49FC
:10344000443900231A46CDE9001019465648603821
:1034500003F044F9E1205549403900231A46CDE9EB
:103460000010194650485C3803F038F9E1204F4904
:103470003C3900231A46CDE9001019464A4858380D
:1034800003F02CF9E1204949383900231A46CDE9E7
:10349000001019464448543803F020F9E12043490C
:1034A000343900231A46CDE9001019463E485038F9
:1034B00003F014F9E1203D49303900231A46CDE9E3
:1034C0000010194638484C3803F008F9E120374914
:1034D0002C3900231A46CDE90010194632484838E5
:1034E00003F0FCF8E1203149283900231A46CDE9E0
:1034F000001019462C48443803F0F0F8E1202B491D
:10350000243900231A46CDE90010194626484038D0
:1035100003F0E4F8E1202549203900231A46CDE9DB
:103520000010194620483C3803F0D8F8E1201F4924
:103530001C3900231A46CDE9001019461A483838BC
:1035400003F0CCF8E1201949183900231A46CDE9D7
:10355000001019461448343803F0C0F8E12013492C
:10356000143900231A46CDE9001019460E483038A8
:1035700003F0B4F8E1200D49103900231A46CDE9D3
:103580000010194608482C3803F0A8F8E120074934
:103590000C3900231A46CDE9001019460248283894
:1035A00003F09CF8E12003E0D4801F402C821F40F0
:1035B0001149083900231A46CDE9001019460F4871
:1035C00003F08CF8E1200C49091F00231A46CDE9CD
:1035D000001019460948001D03F080F847F2A000CA
:1035E000054900231A46CDE900100521034808309B
:1035F00003F074F81CBD00002C821F40B0801F40F7
:103600002DE9F04104460E46270A04F01F08062F54
:1036100000D805E040F2873208A111A006F0A0FB17
:10362000124800EB87052868032101FA08F1884356
:1036300006FA08F108432860BDE8F0812E2E5C2EC2
:103640002E5C6C69627261726965735C6472697622
:103650006572735C66736C5F636C6F636B2E68007E
:10366000696E646578203C3D2036000068C00F40DC
:103670002DE9F04104460E46270A04F01F08062FE4
:1036800000D805E040F2873208A111A006F068FBDF
:10369000124800EB87052868032101FA08F18843E6
:1036A00006FA08F108432860BDE8F0812E2E5C2E52
:1036B0002E5C6C69627261726965735C64726976B2
:1036C0006572735C66736C5F636C6F636B2E68000E
:1036D000696E646578203C3D2036000068C00F406C
:1036E0002DE9F04104460E46270A04F01F08062F74
:1036F00000D805E040F2873208A111A006F030FBA7
:10370000124800EB87052868032101FA08F1884375
:1037100006FA08F108432860BDE8F0812E2E5C2EE1
:103720002E5C6C69627261726965735C6472697641
:103730006572735C66736C5F636C6F636B2E68009D
:10374000696E646578203C3D2036000068C00F40FB
:103750002DE9F04104460E46270A04F01F08062F03
:1037600000D805E040F2873208A111A006F0F8FA6F
:10377000124800EB87052868032101FA08F1884305
:1037800006FA08F108432860BDE8F0812E2E5C2E71
:103790002E5C6C69627261726965735C64726976D1
:1037A0006572735C66736C5F636C6F636B2E68002D
:1037B000696E646578203C3D2036000068C00F408B
:1037C0002DE9F0470446254603274FEA152805F062
:1037D0001F09B8F1060F00D805E040F2873209A1B1
:1037E00011A006F0BDFA134800EB880630680321EB
:1037F00001FA09F1884307FA09F10843306000BF74
:10380000BDE8F0872E2E5C2E2E5C6C6962726172B0
:103810006965735C647269766572735C66736C5F0C
:10382000636C6F636B2E6800696E646578203C3D45
:103830002036000068C00F4010B504460321204622
:10384000FFF786FF10BD00002DE9F047044625462E
:1038500003274FEA152805F01F09B8F1060F00D815
:1038600005E040F2873209A111A006F079FA134869
:1038700000EB88063068032101FA09F1884307FA52
:1038800009F10843306000BFBDE8F0872E2E5C2EA2
:103890002E5C6C69627261726965735C64726976D0
:1038A0006572735C66736C5F636C6F636B2E68002C
:1038B000696E646578203C3D2036000068C00F408A
:1038C0000146C8B2054A8058C1F34C32C1F3042303
:1038D0009A401040C1F30422D040704700C00F400E
:1038E00070B50546142D72D2DFE805F00A0B1534C9
:1038F00045494E53585D62676C72777C81868C9225
:1039000000BF00F0A9F847494969C1F38221491C69
:10391000B0FBF1F483E04348406900F0400070B12F
:103920004048406900F0800020B1012000F0EAF931
:10393000044607E0022000F0AFF9044602E000F080
:103940008BF8044637484069C0F30240401CB4FB82
:10395000F0F464E000F080F832494969C1F3822153
:10396000491CB0FBF1F42F484069C0F30120401C12
:10397000B4FBF0F453E000F05FF804464FE000BF02
:103980004FF4004400BF4AE0274800F0C1F8044665
:1039900045E0002000F0B6F9044640E0012000F0C8
:1039A000B1F904463BE0022000F0ACF9044636E0F1
:1039B000032000F0A7F9044631E01C4800F0A8F805
:1039C00004462CE0002000F067F9044627E024E0DC
:1039D000012000F061F9044621E0022000F05CF9CA
:1039E00004461CE0032000F057F9044617E0104895
:1039F00000F08EF8044612E00D48083000F088F818
:103A000004460CE00A48093000F082F8044606E05B
:103A1000084800F07DF8044601E0002400BF00BF24
:103A2000204670BD00C00F400D0010000D0030009A
:103A30000D00E0000D0070000448006800F0100068
:103A400008B10348704703480068FBE770820D40E7
:103A500000366E010400002010B52948406900F0CE
:103A6000007040B32648806900F4405048B1B0F57A
:103A7000805F0BD0B0F5005F0CD0B0F5405F0ED189
:103A80000EE0204800F044F804460BE0FFF7D4FFB6
:103A9000044607E01C4800F03BF8044602E000BF83
:103AA000002400BF00BF16484069C0F3C260401C3C
:103AB000B4FBF0F422E01248806900F4402048B1E1
:103AC000B0F5802F0BD0B0F5002F0DD0B0F5402F02
:103AD00011D10EE00C4800F01BF804460DE0032065
:103AE00000F010F9044608E0032000F0D5F8044681
:103AF00003E0064C01E0002400BF00BF204610BDDB
:103B000000C00F400D0010000D0030000065CD1DFD
:103B10002DE9FF478146594BD3E901021968DB685B
:103B200001AC0DC4009156494846C0F30B428A5877
:103B300000F01F070123BB401A400AB1012200E038
:103B400000221AB9002004B0BDE8F0874C4FC846E7
:103B5000C8F30B403858C0F3813010B9FFF76CFF41
:103B600000E0002004464648C9F30B414158C1F328
:103B7000004109B12046E6E74249A9EB0100894529
:103B80006BD00BDCA9F58010A0F10D0028B3B0F5C7
:103B9000001F08D0B0F5C00F6BD128E0082864D012
:103BA000092866D163E03648D0F860C0006DA4FBF8
:103BB00000700146624600233846FEF705FD0546C3
:103BC0002F48006B00F0010010B11620444302E0C2
:103BD00004EB840084002C444DE02948006900F087
:103BE000020008B1162000E01420444343E02448BA
:103BF000006F00F07F0A22489030D0F800C02048C3
:103C0000D0F88000A4FB00700146624600233846CD
:103C1000FEF7DAFC054604FB0A541948006F00F46D
:103C2000C01018B1B0F5002F04D101E0A40802E0E3
:103C3000640800E000BF00BF134800681349084053
:103C4000B0F5004F04D04942084418B9A40802E076
:103C5000640800E000BF00BF0DE00B48903800682A
:103C600000F0030A5DF82A4005E0094C03E0094C26
:103C700001E0002400BF00BF204664E7C0AE006042
:103C800000800D400D00E00070810D40008080003C
:103C900040787D010065CD1D70B505461748FFF7DA
:103CA00037FF044635B1012D0BD0022D10D0032D66
:103CB0001CD114E01248006800F03F00B4FBF0F49F
:103CC00016E00F480068C0F30520B4FBF0F40FE0E5
:103CD0000B480068C0F30540B4FBF0F408E0084866
:103CE0000068C0F30560B4FBF0F401E0002400BFFD
:103CF00000BF04EBC4004400204670BD0D0030003E
:103D000000810D4070B505461748FFF701FF0446D6
:103D100035B1012D0BD0022D10D0032D1CD114E094
:103D20001248006800F03F00B4FBF0F416E00F48C2
:103D30000068C0F30520B4FBF0F40FE00B48006806
:103D4000C0F30540B4FBF0F408E008480068C0F395
:103D50000560B4FBF0F401E0002400BF00BF04EBF9
:103D6000C4004400204670BD0D001000F0800D40DE
:103D700010B5C27802F00301194A126822F44042D9
:103D800042F4803203794FF4404404EA83331A4307
:103D9000134B1A6002780AB141F4005182780AB1DB
:103DA00041F4001142780AB141F480010C4A1268D2
:103DB00041F203039A430A43094BE03BC3F8E02076
:103DC00000BF074A126802F00042002AF9D0044AF4
:103DD000126822F48032024BE03BC3F8E02010BDB1
:103DE000E0800D4070B504460E463F2000EA946521
:103DF000E0B215494158C4F34C30C4F3042290405A
:103E000021EA0000C4F3042206FA02F1C4F34C32A2
:103E1000C4F304239A4011400843E1B20A4A88508F
:103E2000202D00D805E040F2653208A110A005F071
:103E300097FF202D07D000BF0348806C0121A940C7
:103E400008400028F8D170BD00C00F402E2E5C2E17
:103E50002E5C6C69627261726965735C647269760A
:103E60006572735C66736C5F636C6F636B2E680066
:103E7000627573795368696674203C3D2043434DF5
:103E80005F4E4F5F425553595F5741495400000000
:103E900070B504460E463F2000EA9465E0B216492C
:103EA0004158C4F34C30C4F30422904021EA00008E
:103EB000C4F3042206FA02F1C4F34C32C4F304231F
:103EC0009A4011400843E1B20B4A8850202D00D897
:103ED00006E040F26532094901F1240005F040FF97
:103EE000202D07D000BF0448806C0121A940084064
:103EF0000028F8D170BD000000C00F4014400060E1
:103F000070B504460E463F2000EA9465E0B21549BC
:103F10004158C4F34C30C4F30422904021EA00001D
:103F2000C4F3042206FA02F1C4F34C32C4F30423AE
:103F30009A4011400843E1B20A4A8850202D00D827
:103F400005E04FF4507208A110A005F009FF202DE4
:103F500007D000BF0348806C0121A9400840002819
:103F6000F8D170BD00C00F402E2E5C2E2E5C6C6907
:103F7000627261726965735C647269766572735CA2
:103F800066736C5F636C6F636B2E68006275737928
:103F90005368696674203C3D2043434D5F4E4F5F3C
:103FA000425553595F5741495400000070B50446CB
:103FB0000E463F2000EA9465E0B215494158C4F32B
:103FC0004C30C4F30422904021EA0000C4F30422E0
:103FD00006FA02F1C4F34C32C4F304239A401140B0
:103FE0000843E1B20A4A8850202D00D805E04FF47A
:103FF000507208A110A005F0B3FE202D07D000BF1D
:104000000348806C0121A94008400028F8D170BD08
:1040100000C00F402E2E5C2E2E5C6C6962726172A5
:104020006965735C647269766572735C66736C5FF4
:10403000636C6F636B2E6800627573795368696691
:1040400074203C3D2043434D5F4E4F5F42555359D2
:104050005F574149540000000748006840F08070F5
:10406000054908600020054948600846006840F09E
:104070000100086070470000FCED00E0001000E067
:104080000148406870470000001000E02DE9F04151
:1040900007460026FFF7E0FF0020FFF721FC10494C
:1040A000B0FBF1F000FB07F800BFFFF7E9FF0546A2
:1040B00011E0FFF7E5FF0446AC420CD0AC4202D958
:1040C000601B064403E0C5F1FF302044064425464A
:1040D000464500D300E0ECE700BFBDE8F0810000FA
:1040E00040420F0038B505460C460020009001F014
:1040F00065FD01236A460A21A12001F089FC9DF893
:104100000000A52801D0012000E00020012C01D1F1
:10411000012100E00021084300B39DF80000A5281C
:1041200007D1012C05D1C023104A1421A12001F090
:104130006FFC00BF284605F05FFB0028FAD0A520E1
:10414000009001236A460A21A02001F08DFCC023C3
:10415000064A1421A02001F087FC05E0C023034A91
:104160001421A12001F054FC38BD000050000020B3
:1041700038B504464FF6FF71084602F027FC0120CF
:1041800000900648008883B205480088523882B201
:104190000021512002F016F838BD00002A0000204E
:1041A0002800002070B504462546287A0449087185
:1041B000098888B24FF6FF7102F008FC70BD00005C
:1041C0002001002070B5044625460849A86808600B
:1041D000098888B24FF6FF7102F0F8FB03480079B6
:1041E000082802D100200149087170BD200100207B
:1041F000F8B5204800F00AFC684601F041F969462C
:104200001D4801F025FA1B4D00240126202C00D268
:1042100004E0B72219A123A005F0A2FD36B155F89C
:10422000240040F0005045F8240005E055F8240033
:1042300020F0005045F8240000BF0E4D0024202C33
:1042400000D204E068220DA116A005F089FD55F802
:10425000240040F0004045F8240000BF0022064939
:104260001B4801F037F800221A49194801F03EFABC
:10427000F8BD000000C00E4000800E402E2E5C2EC7
:104280002E5C6C69627261726965735C64726976D6
:104290006572735C66736C5F646D616D75782E68B2
:1042A000000000006368616E6E656C203C20465320
:1042B0004C5F464541545552455F444D414D55581C
:1042C0005F4D4F44554C455F4348414E4E454C0071
:1042D000F8810020C15200600948406840F0380071
:1042E0000749486007490648C16261200449803196
:1042F000086005480249C1F88400002070470000AA
:1043000000002F40110000A0888888002DE9FF4F91
:104310002DED0A8B87B0834616461F464FF00009E5
:104320005D46002005F8010B129890ED000BB0EEF1
:1043300040BBB5EEC0BBF1EE10FA0AD130202870B8
:1043400009F10109484607B0BDEC0A8B04B0BDE88D
:10435000F08F02A8B0EE4B0B05F024FDB0EE409BB1
:104360004FF0000A09E000EE106AB8EEC00B29EE2B
:10437000000BB0EE409B0AF1010ABA45F3D3B5EE4B
:10438000C0BBF1EE10FA19DBB6EE000B39EE008B74
:1043900000EE107AB8EE401BB2EE040B05F064FD9F
:1043A000B4EEC80BF1EE10FA23D89DED020BB7EE78
:1043B000001B30EE010B8DED020B1AE0B6EE000B88
:1043C00039EE408B00EE107AB8EE401BB2EE040BD3
:1043D00005F04AFDB1EE400BB4EEC80BF1EE10FA59
:1043E00007DB9DED020BB7EE001B30EE410B8DEDB0
:1043F000020B4FF0000A2FE000EE106AB8EEC00B7F
:1044000088EE00AB51EC1A0BFEF78DF9F317A0FB09
:10441000062C01FB06C100FB0310CDE9002010466D
:104420000199FEF76CF941EC100B38EE40CBBDEE74
:10443000CC0B10EE104A002C05DA0494049CE043E7
:1044400000F1310400E03034B0EE4A8B05F8014B46
:1044500009F101090AF1010ABA45CDD32E2005F868
:10446000010B09F101099DED020BBDEEC00B10EE31
:10447000108AB8F1000F05D1302005F8010B09F1C1
:10448000010918E014E098FBF6F00590059800FB90
:104490001684002C05DA0494049CE04300F13104F6
:1044A00000E03034DDF8148005F8014B09F1010912
:1044B000B8F1000FE7D1484645E72DE9FF4F89B035
:1044C0001E4600200190DDF824B00BF8010B0B987C
:1044D00000284DD00A98D0E90078002187EA010031
:1044E00088EA0101084309D130208BF800000198C7
:1044F000401C019001980DB0BDE8F08F2FE03246CE
:10450000F31738464146FEF790F8CDE90601F31758
:10451000DDE90601A0FB062C01FB06C103FB00132D
:10452000B91A68EB0300CDE904100023DDE904109B
:10453000C91A984107DA049CE143491C4FF0300046
:104540000818049002E0049830300490DDE9067801
:1045500004980BF8010B019800F1010001904FF055
:10456000000187EA010088EA01010843C7D148E059
:104570000A98D0E9009A002189EA01008AEA01013B
:10458000084307D130208BF800000198401C0190AF
:104590000198B0E72DE03246F31748465146FEF742
:1045A00013F8CDE90201F317DDE90201A0FB062CA7
:1045B00001FB06C100FB0310B9EB02046AEB000526
:1045C0000A21611A75F1000001D2303409E00A2194
:1045D000601A65F10001169909B1412100E06121DD
:1045E0004418DDE9029A0BF8014B019800F1010033
:1045F00001904FF0000189EA01008AEA01010843B5
:10460000C9D1019877E7000010B500210A4800F0F1
:10461000EBFE00F0040018B10849086800F09AFFAA
:104620001021054800F0E0FE00F0040018B1034935
:10463000086C00F08FFF10BD00800E40500100207C
:1046400010B50A210A4800F0CFFE00F0040018B1AE
:104650000849886A00F07EFF1A21054800F0C4FE70
:1046600000F0040018B10349886E00F073FF10BD1C
:1046700000800E405001002010B50B210A4800F0C8
:10468000B3FE00F0040018B10849C86A00F062FFE8
:104690001B21054800F0A8FE00F0040018B10349F2
:1046A000C86E00F057FF10BD00800E405001002082
:1046B00010B50C210A4800F097FE00F0040018B174
:1046C0000849086B00F046FF1C21054800F08CFEED
:1046D00000F0040018B10349086F00F03BFF10BD63
:1046E00000800E405001002010B50D210A4800F056
:1046F0007BFE00F0040018B10849486B00F02AFF67
:104700001D21054800F070FE00F0040018B10349B7
:10471000486F00F01FFF10BD00800E4050010020C8
:1047200010B50E210A4800F05FFE00F0040018B139
:104730000849886B00F00EFF1E21054800F054FE6A
:1047400000F0040018B10349886F00F003FF10BDAA
:1047500000800E405001002010B50F210A4800F0E3
:1047600043FE00F0040018B10849C86B00F0F2FEE7
:104770001F21054800F038FE00F0040018B103497D
:10478000C86F00F0E7FE10BD00800E405001002011
:1047900010B501210A4800F027FE00F0040018B10E
:1047A0000849486800F0D6FE1121054800F01CFEBB
:1047B00000F0040018B10349486C00F0CBFE10BDB6
:1047C00000800E405001002010B502210A4800F080
:1047D0000BFE00F0040018B10849886800F0BAFE2A
:1047E0001221054800F000FE00F0040018B1034952
:1047F000886C00F0AFFE10BD00800E40500100201C
:1048000010B503210A4800F0EFFD00F0040018B1D4
:104810000849C86800F09EFE1321054800F0E4FD39
:1048200000F0040018B10349C86C00F093FE10BDFD
:1048300000800E405001002010B504210A4800F00D
:10484000D3FD00F0040018B10849086900F082FEA9
:104850001421054800F0C8FD00F0040018B1034918
:10486000086D00F077FE10BD00800E405001002062
:1048700010B505210A4800F0B7FD00F0040018B19A
:104880000849486900F066FE1521054800F0ACFDB6
:1048900000F0040018B10349486D00F05BFE10BD44
:1048A00000800E405001002010B506210A4800F09B
:1048B0009BFD00F0040018B10849886900F04AFE29
:1048C0001621054800F090FD00F0040018B10349DE
:1048D000886D00F03FFE10BD00800E4050010020AA
:1048E00010B507210A4800F07FFD00F0040018B160
:1048F0000849C86900F02EFE1721054800F074FD34
:1049000000F0040018B10349C86D00F023FE10BD8B
:1049100000800E405001002010B508210A4800F028
:1049200063FD00F0040018B10849086A00F012FEA7
:104930001821054800F058FD00F0040018B10349A3
:10494000086E00F007FE10BD00800E4050010020F0
:1049500010B509210A4800F047FD00F0040018B125
:104960000849486A00F0F6FD1921054800F03CFDB1
:1049700000F0040018B10349486E00F0EBFD10BDD3
:1049800000800E405001002070B50546002406E06E
:10499000094850F82400A84200D102E0641C002C11
:1049A000F6D000BF04B904E0562204A10DA005F022
:1049B000D7F9204670BD00003CAF00602E2E5C2E63
:1049C0002E5C6C69627261726965735C647269768F
:1049D0006572735C66736C5F646D616D75782E6370
:1049E00000000000696E7374616E6365203C2041B5
:1049F000525241595F53495A4528735F646D616D46
:104A000075784261736573290000000070B5054632
:104A10002846FFF7B9FF044931F910400321204629
:104A2000FEF726FE00BF70BD40AF00602DE9F041EB
:104A300006460D4614461F4604B104E0692206A14D
:104A400011A005F08DF93B462A462146304601F07B
:104A5000D3FFBDE8F08100002E2E5C2E2E5C6C6929
:104A6000627261726965735C7574696C6974696599
:104A7000735C66736C5F64656275675F636F6E73AA
:104A80006F6C652E630000006465766963652021A4
:104A90003D2044454255475F434F4E534F4C455F81
:104AA0004445564943455F545950455F4E4F4E4526
:104AB000000000000FB430B5A1B000240025802113
:104AC0006846FDF70AFE25A82090094B6A46209902
:104AD000249803F035FC04462146684601F0B0FFF7
:104AE000054600202090284621B030BC5DF814FB1C
:104AF000F54A00602DE9F04105460C4616461F4672
:104B00004FF0000800BF10E02068401C802805D34B
:104B10002846216801F094FF0020206020682E5470
:104B20002068401C206008F10108B845ECDBBDE8B6
:104B3000F0810000F8B505462C46207BA0BB4FF65F
:104B4000FF714CF2186001F041FF01200090E688EF
:104B50006788F61BB3B2A6882788F61BB2B26188B5
:104B6000384601F02FFB4CF218614FF4784001F009
:104B70002DFF324801F034FFE2886388D21AA2F197
:104B8000100606EBD67203EB620291B2A28823886C
:104B9000D21AA2F1200707EBD77203EB620290B2A0
:104BA00027A201F0B3F933E0FFE74FF6FF710846A3
:104BB00001F00CFF01200090E6886788F61BB3B275
:104BC000A6882788F61BB2B26188384601F0FAFA47
:104BD0004FF6FF714FF4784001F0F8FE174801F0EE
:104BE000FFFEE2886388D21AA2F1100606EBD672A5
:104BF00003EB620291B2A2882388D21AA2F12007A5
:104C000007EBD77203EB620290B20DA201F07EF9BE
:104C10004FF6FF714FF4047001F0D8FE00200090B1
:104C2000E6886788F61BB3B2A6882788F61BB2B25F
:104C30006188384601F0C6FAF8BD0000380000204F
:104C4000C7E5C6C100000000F8B505462C46207B2C
:104C5000A0B9218988B24FF6FF7101F0B7FE01209B
:104C60000090E6886788F61BB3B2A6882788F61BF3
:104C7000B2B26188384601F0A5FA12E04FF6FF7132
:104C8000084601F0A3FE01200090E6886788F61B25
:104C9000B3B2A6882788F61BB2B26188384601F005
:104CA00091FA4FF6FF714FF4047001F08FFE00206F
:104CB0000090E6886788F61BB3B2A6882788F61BA3
:104CC000B2B26188384601F07DFAF8BD2DE9F843AB
:104CD00006463446207B80BB4FF6FF714CF21860CD
:104CE00001F074FE01200090E788B4F802C0A7EB41
:104CF0000C07BBB2A788B4F800C0A7EB0C07BAB288
:104D00006188604601F05EFA4CF218614FF404705D
:104D100001F05CFE00200090E788B4F802C0A7EB29
:104D20000C07BBB2A788B4F800C0A7EB0C07BAB257
:104D30006188604601F046FA2FE0FFE74FF6FF7109
:104D4000084601F043FE01200090E788B4F802C055
:104D5000A7EB0C07BBB2A788B4F800C0A7EB0C0701
:104D6000BAB26188604601F02DFA4FF6FF714FF438
:104D7000047001F02BFE00200090E788B4F802C018
:104D8000A7EB0C07BBB2A788B4F800C0A7EB0C07D1
:104D9000BAB26188604601F015FA4FF6FF71002043
:104DA00001F014FEA06809282FD2DFE800F0052FDB
:104DB000567DA4CBF5F3F2004FF6FF71002001F011
:104DC00005FEB4F806C0B4F80290ACEB090707EB97
:104DD000D77C09EB6C0C1FFA8CF3B4F806C0ACEB73
:104DE000090808EBD87C09EB6C0C1FFA8CF1B4F8BD
:104DF00004C0ACF1140C1FFA8CF2B4F800C00CF132
:104E0000140C1FFA8CF001F08DF977E1012000906D
:104E1000B4F806C0B4F80290ACEB090808EBD87CF3
:104E200009EB6C0C1FFA8CF3B4F806C0ACEB090765
:104E300007EBD77C09EB6C0C1FFA8CF1B4F804C0BB
:104E4000ACF1140C1FFA8CF2B4F800C00CF1140C85
:104E50001FFA8CF001F0FCFC50E102200090B4F845
:104E600006C0B4F80290ACEB090707EBD77C09EB5E
:104E70006C0C1FFA8CF3B4F806C0ACEB090808EB15
:104E8000D87C09EB6C0C1FFA8CF1B4F804C0ACF1BF
:104E9000140C1FFA8CF2B4F800C00CF1140C1FFAB9
:104EA0008CF001F0D5FC29E103200090B4F806C095
:104EB000B4F80290ACEB090707EBD77C09EB6C0C5C
:104EC0001FFA8CF3B4F806C0ACEB090808EBD87CE9
:104ED00009EB6C0C1FFA8CF1B4F804C0ACF1140CA3
:104EE0001FFA8CF2B4F800C00CF1140C1FFA8CF00D
:104EF00001F0AEFC02E104200090B4F806C0B4F862
:104F00000290ACEB090808EBD87C09EB6C0C1FFA9B
:104F10008CF3B4F806C0ACEB090707EBD77C09EBC0
:104F20006C0C1FFA8CF1B4F804C0ACF1140C1FFA2D
:104F30008CF2B4F800C00CF1140C1FFA8CF001F0E4
:104F400087FCDBE008200090B4F806C0B4F80290BB
:104F5000ACEB090707EBD77C09EB6C0C1FFA8CF361
:104F6000B4F806C0ACEB090808EBD87C09EB6C0C74
:104F70001FFA8CF1B4F804C0ACF1140C1FFA8CF2D7
:104F8000B4F800C00CF1140C1FFA8CF001F060FCB6
:104F9000B4E072E027E0FFE70A200090B4F806C012
:104FA000B4F80290ACEB090808EBD87C09EB6C0C68
:104FB0001FFA8CF3B4F806C0ACEB090707EBD77CFB
:104FC00009EB6C0C1FFA8CF1B4F804C0ACF1140CB2
:104FD0001FFA8CF2B4F800C00CF1140C1FFA8CF01C
:104FE00001F036FC8AE04FF6FF71002001F0EEFC84
:104FF000B4F806C0B4F80290ACEB090707EBD77C15
:1050000009EB6C0C1FFA8CF3B4F806C0ACEB090882
:1050100008EBD87C09EB6C0C1FFA8CF1B4F804C0D7
:10502000ACF1050C1FFA8CF2B4F800C00CF1050CC1
:105030001FFA8CF001F076F8002514E0E28863880E
:10504000D71A07EBD77203EB620291B22288521D86
:1050500005EB850302EB430290B20123032200F02B
:10506000AFFF681C85B2A0882188401A0A380A213F
:1050700090FBF1F0A842E1DC40E000214FF6FF7028
:1050800001F0A4FC01200090E2886388D21AA2F10A
:10509000280707EBD77203EB620291B2A28823883C
:1050A000D21AA2F1180808EBD87203EB620290B290
:1050B00018231A4601F086F84CF218614FF4784034
:1050C00001F084FC0F4801F08BFCE2886388D21A5F
:1050D000A2F1280707EBD77203EB6202183291B2F4
:1050E000A2882388D21AA2F1200808EBD87203EB19
:1050F000620290B204A200F009FF00BF00BFBDE849
:10510000F883000038000020CFF0C6A400000000A3
:105110002DE9F84305460F4614461E46DDF820806B
:10512000512C6EDD512DFCDD98F80400092815D2B4
:10513000DFE800F0051525354555687A9700002D04
:1051400001DB002F04DAB1B2A0B201F0A1FA05E050
:10515000B3B2A2B2B9B2A8B200F0E4FFA9E0601EF7
:10516000512802DB681E512800DAA2E00120B3B208
:10517000A2B2B9B20090A8B201F06AFB99E0A01EF9
:10518000512802DBA81E512800DA92E00220B3B2B7
:10519000A2B2B9B20090A8B201F05AFB89E0E01EB9
:1051A000512802DBE81E512800DA82E00320B3B266
:1051B000A2B2B9B20090A8B201F04AFB79E0201F78
:1051C000512802DB281F512800DA72E00420B3B214
:1051D000A2B2B9B20090A8B201F03AFB69E0A4F122
:1051E0000800512803DBA5F10800512800DA60E02F
:1051F0000820B3B2A2B2B9B20090A8B201F028FB65
:1052000057E057E0A4F10A00512803DBA5F10A009A
:10521000512800DA4DE00A20B3B2A2B2B9B2009030
:10522000A8B201F015FB44E0E01E512802DBE81EA5
:10523000512800DA3DE0002D01DB002F04DAB1B285
:10524000A0B201F025FA0BE0B3B2A2B2B9B2A8B293
:1052500000F068FFB1B2A0B20123032200F0B0FE5B
:1052600027E0A4F11400512810DB283012490988E6
:1052700088420BDC2838002808D406F114000F49B6
:105280000988884202DC2838002800D511E04FF652
:10529000FF71084601F09AFB0120A6F1140291B2B9
:1052A000A4F11402009090B228231A4600F08AFF5D
:1052B00000BF00BFBDE8F883280000202A000020BE
:1052C00030B5047C1CB912B10124014D2C7030BDE5
:1052D000240000202DE9F04705460F46164605B18B
:1052E00005E040F2F71226A12EA004F039FD202E91
:1052F00000D205E04FF4FC7221A12EA004F030FD95
:1053000018212846FDF7E9F9AF602E74384600F001
:10531000E3F8804600F06EFB8146A8EB090006EB3F
:10532000401A2F4840F82A502E4901EB881131F9D4
:10533000160010F1800F00D10EE00146002909DBB4
:1053400001F01F0301229A404B099B0003F1E02367
:10535000C3F8002100BF00BFA86800F58050297C79
:1053600000EB411400202060A080E080A060E0609D
:105370002061A082E082A061A083E083BDE8F08785
:105380002E2E5C2E2E5C6C69627261726965735C94
:10539000647269766572735C66736C5F65646D6177
:1053A0002E63000068616E646C6520213D204E55BF
:1053B0004C4C00006368616E6E656C203C20465367
:1053C0004C5F464541545552455F45444D415F4D04
:1053D0004F44554C455F4348414E4E454C000000FC
:1053E000500100204AAF006070B506460C46202CE4
:1053F00000D205E040F2C1120DA116A004F0B0FCED
:10540000002506F5805000EB4410808BC0F3C010DF
:105410000543F06AE04000F0010045EA4005706A8B
:10542000E04000F0010045EA8005284670BD00001C
:105430002E2E5C2E2E5C6C69627261726965735CE3
:10544000647269766572735C66736C5F65646D61C6
:105450002E6300006368616E6E656C203C204653CD
:105460004C5F464541545552455F45444D415F4D63
:105470004F44554C455F4348414E4E454C0000005B
:1054800010B5044604B104E0962206A10EA004F073
:1054900067FC0020A0700120607000202070E07088
:1054A00010BD00002E2E5C2E2E5C6C696272617243
:1054B0006965735C647269766572735C66736C5F50
:1054C00065646D612E630000636F6E6669672021FD
:1054D0003D204E554C4C000070B50546002406E0BA
:1054E000094850F82400A84200D102E0641C002CB6
:1054F000F6D000BF04B904E05F2204A10CA004F0C0
:105500002FFC204670BD000044AF00602E2E5C2EA4
:105510002E5C6C69627261726965735C6472697633
:105520006572735C66736C5F65646D612E63000009
:10553000696E7374616E6365203C2041525241591B
:105540005F53495A4528735F65646D6142617365B5
:10555000732900002DE9F047044604B105E04FF43B
:1055600055722EA136A004F0FBFB207CA168C87701
:10557000E06840B9206830B1002301222046D4E918
:105580000051A84747E0A06800F58050217C00EB5F
:105590004110D0F81880A06800F58050217C00EB05
:1055A0004110808BC0F3C019E068A8EB00084FEAF7
:1055B0005817B9F1000F01D0FEB206E00FB1781E06
:1055C00002E094F91400401EC6B294F91100B042F2
:1055D0000AD194F9130094F91410884202D194F975
:1055E000135009E0002507E094F91100351A002D49
:1055F00002DA94F91400054470B26074E07C401B38
:1056000040B2E074206828B12B464A462046D4E9CF
:1056100000C1E04700BFBDE8F08700002E2E5C2EE1
:105620002E5C6C69627261726965735C6472697622
:105630006572735C66736C5F65646D612E630000F8
:1056400068616E646C6520213D204E554C4C000015
:105650002DE9F04105460C4604B104E07C2215A179
:105660001DA004F07DFB2846FFF736FF1E4931F9E7
:10567000107003213846FEF733F800BF2E6826F07D
:105680005606A078042101EA80006178102202EA1F
:10569000011108432178402202EA81110843E17890
:1056A000022202EA4101084340F0800006432E60D6
:1056B000BDE8F0812E2E5C2E2E5C6C6962726172E8
:1056C0006965735C647269766572735C66736C5F3E
:1056D00065646D612E630000636F6E6669672021EB
:1056E0003D204E554C4C000048AF006070B504465C
:1056F0000E46154604B105E04FF40C7203A10CA050
:1057000004F02EFB2660656070BD00002E2E5C2E1E
:105710002E5C6C69627261726965735C6472697631
:105720006572735C66736C5F65646D612E63000007
:1057300068616E646C6520213D204E554C4C000024
:1057400010B588B000210D48FEF730FC05210C484B
:10575000FEF79EFB01A801F0CFFA0A48039006204D
:10576000FEF7BEF8C0080621B0FBF1F4224601A9FD
:10577000054801F0E7FA08B010BD0000383200809B
:1057800038F30780801A060000003F4070B50546D8
:10579000002406E0094850F82400A84200D102E0A5
:1057A000641C062CF6D300BF062C00D204E0542261
:1057B00003A10CA004F0D4FA204670BDD0AE006066
:1057C0002E2E5C2E2E5C6C69627261726965735C50
:1057D000647269766572735C66736C5F6770696F1B
:1057E0002E630000696E7374616E6365203C204116
:1057F000525241595F53495A4528735F6770696F28
:1058000042617365732900002DE9F04104460D469D
:1058100016462046FFF7BAFF124931F91070384694
:10582000FDF7CEFF60690121A940884360613078AF
:1058300028B960680121A9408843606009E0727856
:105840002946204600F056F861680120A84001432F
:105850006160B7783A462946204600F005F800BF57
:10586000BDE8F081E8AE0060F0B503460C46214685
:10587000DD690126A640B543DD61102C02D203F19B
:105880000C0002E003F110001039062A2ED2DFE8E6
:1058900002F02D030A15202705684F000326BE409D
:1058A000B543056023E005684F000326BE40B543BD
:1058B0004F000126BE403543056018E005684F00E3
:1058C0000326BE40B5434F000226BE403543056067
:1058D0000DE005684F000326BE403543056006E035
:1058E000DD690126A6403543DD6100E000BF00BF51
:1058F000F0BD000070B504460D461646202D00D2BE
:1059000004E0742208A111A004F02AFA2EB920683C
:105910000121A9408843206004E021680120A840BB
:105920000143216070BD00002E2E5C2E2E5C6C6940
:10593000627261726965735C647269766572735CC8
:1059400066736C5F6770696F2E63000070696E200C
:105950003C2033320000000070B506460C46254658
:10596000202D00D204E0E72204A10DA004F0F8F9F4
:10597000B068E84000F0010070BD00002E2E5C2EE3
:105980002E5C6C69627261726965735C64726976BF
:105990006572735C66736C5F6770696F2E68000078
:1059A00070696E203C203332000000002DE9F04782
:1059B00005460C462612E7B2A6F1A101C1EB011281
:1059C00002EB411107EB4101A1390802C11700EBBD
:1059D00051714FEAE1094FF02008054800EB090139
:1059E00042462846FCF752FE0020BDE8F087000042
:1059F00033EB006010B50448FFF76EFD03490870F3
:105A00000846007810BD000000800E401000002005
:105A10002DE9F04186B004460D4617461E46182172
:105A20006846FCF75AFE4FF0010800BF00BF601047
:105A3000ADF8040001208DF806000295039004974C
:105A40000596002000906946064801F085FB8046D7
:105A5000B8F1000F03D0012006B0BDE8F0810020AE
:105A6000FAE7000000003F402DE9FF5F0C4690463A
:105A70001F464FF00009CA46CB460025FEB220461D
:105A8000E11704EB5171C910A4EBC10101F0FF0B48
:105A9000CBF10800C5B2AF4201DD781B00E038460B
:105AA000C6B23046F11706EB51714FEAE109F11722
:105AB00006EB5171C910A6EBC10101F0FF0A6DB1EF
:105AC000AF420BDD2B4642462146009800F080F89D
:105AD000009800F0CDF86019C4B2A844B9F1000FE5
:105AE00009D1534642462146009800F071F80098CB
:105AF00000F0BEF821E00DE0082342462146009860
:105B000000F066F8009800F0B3F804F10800C4B2A1
:105B100008F10808B9F10000A9F1010101F0FF093D
:105B2000EAD1BAF1000F08D0534642462146009808
:105B300000F04EF8009800F09BF8BDE8FF9F0000D1
:105B40001CB501200B4903460A4AD432CDE90010A6
:105B50000021094800F0EEFD01200649091D034619
:105B6000044AD832CDE9001000210348001D00F09E
:105B7000E1FD1CBDA8821F4034811F401CB54DF6BD
:105B800070000C4901230B4AD432CDE900100021EA
:105B9000094800F0AFFD4DF670000649091D0123CC
:105BA000044AD832CDE9001000210348001D00F05E
:105BB000A1FD1CBDA8821F4034811F4010B500BF4D
:105BC00000BFFFF7BDFFFFF7D9FFFFF7B9FD10BD1D
:105BD0002DE9F04186B005460F4616461C461821B1
:105BE0006846FCF77AFD4FF0010800BF00BF082CA3
:105BF00006DD10A0FEF75EFF012006B0BDE8F081D3
:105C00006810ADF8040000208DF80600029701200E
:105C1000039004960594002000906946134801F013
:105C20009BFA8046B8F1000F01D00120E5E7002083
:105C3000E3E700003C3C2D454550524F4D2D455269
:105C4000524F522D3E3E204E756D42797465546F11
:105C500057726974653E454550524F4D5F506167BC
:105C60006553697A650D0A0A0000000000003F4094
:105C700070B504464FF4206600BF4FF480611548AC
:105C800001F032F861100022124801F01BFA0546BB
:105C90002820FEF7FBF90F48406900F4806018B136
:105CA000301EA6F10106E8D14FF48061094801F0E9
:105CB0001BF8084801F02AFA05460A20FEF7E6F923
:105CC00006B125B1032000F007F8012070BD0020C7
:105CD000FCE7000000003F4010B50446214602A04A
:105CE000FEF7E8FEFF2010BD3C3C2D454550524FCD
:105CF0004D2D4552524F522D3E3E2049324320B544
:105D0000C8B4FDB3ACCAB1216572726F72436F64DF
:105D100065203D2025640A0010B504462CB1002200
:105D200019210548FFF7E6FD04E001221921024888
:105D3000FFF7E0FD10BD000000001C402DE9F04120
:105D400006460F4614461D462B4622463946304627
:105D500000F00AFB04FB05F00249098800F076FA1E
:105D6000BDE8F0813600002008B50AE042F210716B
:105D7000009102E00099491E009100990029F9D193
:105D8000401E0028F2D108BD2DE9F04389B08046BD
:105D90008946174610231A464946404600F0E4FA61
:105DA0002C2000F091FC394601A8FFF7FFFD0024EC
:105DB00022E001A810F814604FF6FF7000EA0626F2
:105DC000012000EB440001A9085C064300250FE018
:105DD0004FF400402841304020B10A48008800F0CC
:105DE00079FC03E00848008800F074FC681CC5B228
:105DF000102DEDDB601CC4B2102CDADB09B0BDE85D
:105E0000F083000034000020360000202DE9F05F10
:105E1000804689461646A6F120001FFA80FA1E49E0
:105E2000096889881C4A1268D28801FB02F0C117F0
:105E300000EB5171C1F3C7071748006800680AFBFF
:105E4000070B15480068C3881348006882884946D4
:105E5000404600F089FA2C2000F036FC002416E0C1
:105E6000002510E01BF8040080212941084020B1E2
:105E70000A48008800F02EFC03E00948008800F082
:105E800029FC681CC5B2082DECDB601CC4B2BC4206
:105E9000E6DBBDE8F09F0000300000203400002069
:105EA0003600002070B504460D46002624E030463A
:105EB000134909688988084412490988884205DD20
:105EC00000260F480068C088204484B220460C4950
:105ED0000968C98808440C490988884201DD002600
:105EE00000242A7821463046FFF790FF6D1C0448B5
:105EF00000688088304486B228780028D7D170BDE9
:105F000030000020280000202A0000202DE9F04168
:105F100005460E46144648E020787E2825DC2846B3
:105F2000244909688988084423490988884205DD8D
:105F3000002520480068C088304486B230461D499C
:105F40000968C98808441D490988884201DD00257F
:105F50000026227831462846FFF758FF154800688A
:105F60008088284485B2641C1FE0284610301249FE
:105F70000988884203DD002506F1100086B230460C
:105F800010300E490988884201DD00250026278847
:105F9000380200EB272087B23A4631462846FFF701
:105FA000F3FE05F1100085B2A41C20780028B3D1BF
:105FB000BDE8F08130000020280000202A000020E9
:105FC0002DE9F05F05460E4691469B4600240FFAE8
:105FD00089F70320A0EB49000FFA80FA87E0BBF1B4
:105FE000000F40D0A0463BE006EB080291B22A1910
:105FF00090B200F04DFB06EB080291B22A1B90B262
:1060000000F046FB321991B2A5EB080290B200F005
:106010003FFB321B91B2A5EB080290B200F038FBB7
:10602000A6EB080291B22A1B90B200F031FBA6EB5E
:10603000080291B22A1990B200F02AFB321B91B2E9
:1060400005EB080290B200F023FB321991B205EB88
:10605000080290B200F01CFB08F101000FFA80F872
:10606000B845C1DD2FE0F21991B22A1990B200F0C3
:106070000FFBF21991B22A1B90B200F009FB321902
:1060800091B2EA1B90B200F003FB321B91B2EA1B03
:1060900090B200F0FDFAF21B91B22A1B90B200F010
:1060A000F7FAF21B91B22A1990B200F0F1FA321B02
:1060B00091B2EA1990B200F0EBFA321991B2EA19F2
:1060C00090B200F0E5FA601C04B2BAF1000F05DAF4
:1060D000A000801D50440FFA80FA07E0E01B80000A
:1060E0000A3050440FFA80FA781E07B200BFBC4253
:1060F0007FF775AFBDE8F09F70B504460D4604F11B
:106100000A018AB2143988B22B46294600F00AF8EF
:1061100005F10A0083B2143881B22246204600F00D
:1061200001F870BD2DE9FF4F83B081464FF0000AA2
:10613000D3460598A0EB090504990698461ACDF8B0
:10614000049004980090002D01DD012705E00DB9B1
:10615000002702E04FF0FF376D42002E02DD4FF0C6
:10616000010806E016B94FF0000802E04FF0FF38D2
:106170007642B54201DD2C4600E034460020029014
:1061800019E0DDE9001000F083FAAA44B344A24507
:1061900005DDAAEB040A0198384480B20190A345BA
:1061A00005DDABEB040B0098404480B200900298F0
:1061B000401C80B20290611C02988842E1DD07B069
:1061C000BDE8F08F2DE9F04104460D4616461F4606
:1061D000DDF81880B8F1000F0CD03B463246294656
:1061E000204600F0C1F806FB07F01749098800F0C7
:1061F0002DF827E0A019401E82B22B4629462046E2
:10620000FFF790FFE819401E83B2A019401E82B22A
:10621000E819401E81B22046FFF784FFE819401EAE
:1062200083B2224629462046FFF77CFFE919491E22
:106230008BB2A119491E8AB2A119491E88B22946FA
:10624000FFF770FFBDE8F0813400002070B5044610
:106250000D4600262C2000F037FA00BF03E0284648
:1062600000F038FA761CA642F9D370BD10B504468A
:10627000072C00DD10BD28480470204604EBD071C7
:106280004910A4EB410139B9F020244908804FF4AA
:10629000A0702349088006E04FF4A0701F490880D1
:1062A000F0201F490880362000F00EFA082141EA4C
:1062B000441000F00FFA2A2000F006FA002000F047
:1062C00009FA002000F006FA14490988491EC1F3B2
:1062D000072000F0FFF911490978491EC8B200F003
:1062E000F9F92B2000F0F0F9002000F0F3F900207C
:1062F00000F0F0F90A490988491EC1F3072000F0AF
:10630000E9F907490978491EC8B200F0E3F92C20E1
:1063100000F0DAF900BFADE72C00002028000020D3
:106320002A00002008B50D48006800906A4609213F
:106330000B48FFF769FA6A4619210948FFF764FA22
:10634000FDF78AFE00F084F900F03EF80120FFF727
:10635000E3FC04480078FFF789FF08BDD0AF006078
:1063600000001C402C0000202DE9F04104460D46A1
:1063700016461F462A2000F0A7F9201200F0AAF9BD
:10638000E0B200F0A7F9A119491EC1F30F2000F0F7
:10639000A1F9A119491EC8B200F09CF92B2000F008
:1063A00093F9281200F096F9E8B200F093F9E91990
:1063B000491EC1F30F2000F08DF9E919491EC8B23A
:1063C00000F088F9BDE8F08110B51420FFF7CCFC8F
:1063D000CF2000F079F9002000F07CF9812000F056
:1063E00079F9302000F076F91420FFF7BDFCED209C
:1063F00000F06AF9642000F06DF9032000F06AF9FA
:10640000122000F067F9812000F064F91420FFF7F2
:10641000ABFCE82000F058F9852000F05BF9102073
:1064200000F058F9782000F055F91420FFF79CFC93
:10643000CB2000F049F9392000F04CF92C2000F075
:1064400049F9002000F046F9342000F043F9022019
:1064500000F040F91420FFF787FCF72000F034F932
:10646000202000F037F91420FFF77EFCEA2000F02E
:106470002BF9002000F02EF9002000F02BF9142059
:10648000FFF772FCB12000F01FF9002000F022F9A4
:106490001B2000F01FF91420FFF766FCB62000F067
:1064A00013F90A2000F016F9A22000F013F91420C5
:1064B000FFF75AFCC02000F007F9352000F00AF978
:1064C0001420FFF751FCC12000F0FEF8112000F06D
:1064D00001F9C52000F0F8F8452000F0FBF8452050
:1064E00000F0F8F8C72000F0EFF8A22000F0F2F872
:1064F000F22000F0E9F8002000F0ECF8262000F08F
:10650000E3F8012000F0E6F81420FFF72DFCE0206E
:1065100000F0DAF80F2000F0DDF8262000F0DAF8BD
:10652000242000F0D7F80B2000F0D4F80E2000F063
:10653000D1F8092000F0CEF8542000F0CBF8A820C4
:1065400000F0C8F8462000F0C5F80C2000F0C2F8B2
:10655000172000F0BFF8092000F0BCF80F2000F071
:10656000B9F8072000F0B6F8002000F0B3F8E120F9
:1065700000F0AAF8002000F0ADF8192000F0AAF809
:106580001B2000F0A7F8042000F0A4F8102000F071
:10659000A1F8072000F09EF82A2000F09BF8472081
:1065A00000F098F8392000F095F8032000F092F8F8
:1065B000062000F08FF8062000F08CF8302000F064
:1065C00089F8382000F086F80F2000F083F81420B6
:1065D000FFF7CAFB362000F077F8C82000F07AF801
:1065E0001420FFF7C1FB2A2000F06EF8002000F015
:1065F00071F8002000F06EF8002000F06BF8EF203A
:1066000000F068F81420FFF7AFFB2B2000F05CF8D7
:10661000002000F05FF8002000F05CF8012000F09E
:1066200059F83F2000F056F81420FFF79DFB3A2060
:1066300000F04AF8552000F04DF8112000F044F821
:106640001420FFF791FB292000F03EF810BD000058
:1066500010B5002209210848FFF74CF940F6FF2049
:10666000FFF782FB012209210348FFF743F940F6B7
:10667000FF20FFF779FB10BD00001C4070B50446F9
:106680000D4601231A4629462046FFF76DFE70BDD0
:1066900070B505460C460948008885420CDA084862
:1066A0000088844208DA21462846FFF7E7FF0548BC
:1066B00001880120FFF7CAFD70BD000028000020FE
:1066C0002A000020340000200149088070470000A3
:1066D000000001A04FF020410880704730B5DDE98F
:1066E000034504B1256030BD30B5DDE9034504B193
:1066F000256030BD30B5DDE9034504B1256030BD0E
:10670000F0B5DDE9055401F00706102707EA041784
:106710003E43066002B11360F0BDF0B5DDE90554FB
:1067200001F00706102707EA04173E43066002B18E
:106730001360F0BDF0B5DDE9055401F00706102740
:1067400007EA04173E43066002B11360F0BD000083
:10675000F0B585B004460D4616461F4604B104E068
:10676000FF221CA125A003F0FBFA2079264908711D
:106770002068086008460079022826D1684600F0A3
:1067800077FE0095204932460868694600F0F0FE21
:106790001D4A0121106821B1826942F40022826100
:1067A00003E0826922F40022826100BF164A0121BF
:1067B000106821B1826942F48022826103E082691B
:1067C00022F48022826100BF00E000BF00BF05B05C
:1067D000F0BD00002E2E5C2E2E5C6C696272617220
:1067E0006965735C7574696C69746965735C696FFC
:1067F0005C66736C5F696F2E630000004E554C4CF5
:1068000020213D20696F00001C0000202DE9F0418F
:1068100004460D46164600270C48007902280FD181
:1068200036B10A492A460868214601F099F806E07F
:1068300006492A460868214601F014F8074601E097
:10684000012700BF00BF3846BDE8F0811C000020D2
:106850002DE9F04F8BB005460E4691469A46DDF87D
:1068600050B00027B84600200A9009900890079081
:106870000690059000240490039002900190A9EBEB
:106880000500002802DDA9EB050001E0A5EB0900E9
:1068900007B2AAEB0600002802DDAAEB060001E021
:1068A000A6EB0A000FFA80F828B20A9030B20990DD
:1068B000A94503DB01200890079003E04FF0FF306B
:1068C00008900790B24503DB01200690059003E095
:1068D0004FF0FF300690059047450DDB00200890F3
:1068E00005903C46384607EBD071491009B2049137
:1068F000CDF80C8002970CE00020079006904446EB
:10690000404608EBD071491009B204910397CDF8C5
:1069100008800020019041E00A98584423490988E2
:1069200088420DDC0A98B0EB0B0009D40998584452
:106930001F490988884203DC0998B0EB0B0000D599
:1069400028E0099A91B20A9A90B201235A46FFF7B9
:1069500037FBDDE90310084400B204900498A0421C
:106960000DDB0498001B00B2049008990A980844B3
:1069700000B20A9006990998084400B20990079954
:106980000A98084400B20A9005990998084400B290
:10699000099000BF0198401C00B20190DDE901019F
:1069A0008842B9DD0BB0BDE8F08F00002800002060
:1069B0002A000020014800687047000030000020D5
:1069C000014908807047000036000020024A10800C
:1069D000024A118070470000340000203600002079
:1069E000014908607047000030000020014908801C
:1069F00070470000340000202DE9FC4107460C469A
:106A000015461E4600978DF804400023324629465D
:106A10006846FFF79DFE0020BDE8FC8170B5054685
:106A20000C4600264CB145B1012636B10122214663
:106A30002846FFF7EBFE00B10024204670BD0000A1
:106A400070B504460D4604B105E040F23F1204A1C2
:106A50000DA003F085F929462046FFF7DFFF70BD42
:106A60002E2E5C2E2E5C6C69627261726965735C9D
:106A70007574696C69746965735C6C6F675C667367
:106A80006C5F6C6F672E630062756620213D204E3F
:106A9000554C4C0010B50121014800F02DF810BDF7
:106AA00000003F4010B50221014800F025F810BD5C
:106AB00000403F4010B50321014800F01DF810BD13
:106AC00000803F4010B50421014800F015F810BDCA
:106AD00000C03F4070B50546284600F030F9044636
:106AE00004F0007028B104F0807010B94FF46170A8
:106AF00070BD0020FCE7000070B504460D4620691B
:106B000000F0010048B10D48006830B10C4850F861
:106B100025102046094A12689047D4F8100100F069
:106B2000010048B10748006830B1074850F8251007
:106B30002046044A1268904770BD000014000020EF
:106B4000D001002018000020E40100202DE9F047CA
:106B500005460E4691461F4605B104E0D22214A117
:106B60001CA003F0FDF807B104E0D32210A11EA081
:106B700003F0F6F8B5FBF7F04FF47A71B0FBF1F0E3
:106B80001D49B1FBF0F8002400E0641C601C00FB10
:106B900008F0B04202D2601C4845F6D32CB906EB8F
:106BA0008600B8EB400F00D801242046BDE8F087EE
:106BB0002E2E5C2E2E5C6C69627261726965735C4C
:106BC000647269766572735C66736C5F6C7069324F
:106BD000632E6300736F75726365436C6F636B5FE5
:106BE000487A203E203000007072657363616C65E6
:106BF00072203E203000000040420F0070B5054674
:106C0000002407E0074850F82400A84201D120469C
:106C100070BD641C052CF5D3C22203A10BA003F0A8
:106C20009FF800008CAF00602E2E5C2E2E5C6C69ED
:106C3000627261726965735C647269766572735CB5
:106C400066736C5F6C706932632E630066616C738F
:106C50006500000070B505460C46002604F470542B
:106C6000002C26D004F4005010B140F28A3618E00F
:106C700004F4006010B140F2893612E004F4806040
:106C800010B140F286360CE004F4805010B140F2AE
:106C9000873605E04FF4877207A110A003F060F873
:106CA00000BF2146284600F01DF8286940F44070D6
:106CB0002861304670BD00002E2E5C2E2E5C6C6963
:106CC000627261726965735C647269766572735C25
:106CD00066736C5F6C706932632E630066616C73FF
:106CE000650000004161704741617047026961F3CE
:106CF00000020261704700000121017000218170D3
:106D0000012141700021C17001710649816000219B
:106D1000C16001610175417581750022C275012252
:106D200002767047A08601001AB1C36D03F0070315
:106D3000136019B1C36DC3F302430B607047014682
:106D4000486970472DE9F05F05460C469146284694
:106D5000FFF754FF8346474931F91B00FCF76CFDF0
:106D6000284600F0DDF8A078082101EAC00061782B
:106D700009B9012100E00021042202EA810108434F
:106D800028612F6A27F00707A07D00F00100217E0F
:106D9000022202EA41010843E17D042202EA810164
:106DA000084307432F626F6A3348074020794FF04A
:106DB000E06101EA00600743E078D10101EA402088
:106DC00007436F62002001464FF4403202EA01425D
:106DD0000243AA6500BF49462846A26800F0E0F8D1
:106DE000686A00F0070AAE6AE06860B1534640F690
:106DF000FF724846E168FFF7A9FE80466FF30B0675
:106E0000C8F30B000643207D68B1217D01230F22CA
:106E10004846FFF79BFE804626F070664FF0706094
:106E200000EA08600643607D68B1617D01230F229E
:106E30004846FFF78BFE804626F470264FF47020FC
:106E400000EA08400643AE62206960B12069010A89
:106E5000534640F6FF724846FFF778FE8046E86AE0
:106E600068F31320E86221782846FFF73FFFBDE86A
:106E7000F09F0000AAAF0060FFFDFFF82DE9F0478A
:106E800006460F46144607B105E040F2832219A1D9
:106E900021A002F065FF14B90020BDE8F08730465C
:106EA00000F02CFA05460DB12846F6E7601EC0B288
:106EB00040F480703066B84615E000BF3046FFF7FA
:106EC0003EFF824651463046FFF7C4FE05460DB1EF
:106ED0002846E2E7D6F8709009F480400028EDD10A
:106EE00008F8019B00BF201EA4F10104E5D100BFFA
:106EF000D3E700002E2E5C2E2E5C6C6962726172EC
:106F00006965735C647269766572735C66736C5FE5
:106F10006C706932632E6300727842756666000099
:106F20000221016100210161704700002DE9F0415B
:106F300006460C461746254604B105E040F2BF223E
:106F40000CA115A002F00CFF0DE0304600F0D6F9C0
:106F50008046B8F1000F02D04046BDE8F08115F838
:106F6000010B306600BF381EA7F10107EDD100BF4D
:106F7000F3E700002E2E5C2E2E5C6C69627261724B
:106F80006965735C647269766572735C66736C5F65
:106F90006C706932632E6300747842756666000017
:106FA0002DE9F74F84B00546914600240020039058
:106FB000002602904FF0FF3B286900F0010000908E
:106FC00000212846FFF792FE012438E0012732E035
:106FD000012F0AD10598B0FBF4F10220B0FBF4F0C8
:106FE000801DB1FBF0F001900CE00598B0FBF4F1CE
:106FF0000220B0FBF4F207EB4700801C1044B1FB09
:10700000F0F001900198814503D90198A9EB0000A7
:1070100002E00198A0EB090002900298584509D2BD
:1070200003943E46DDF808B0DDF808B0BBF1000F70
:1070300000D102E07F1C202FCAD300BF6400802C47
:1070400002D8BBF1000FC1D14FF47C5000EA062AF0
:10705000022E03D21A484AEA000A0EE0F0064FF464
:107060007C1101EA064141EA906071084FF07C52C0
:1070700002EA0161084340EA0A0AC5F848A04FF055
:1070800000080AE0012000FA08F00399884202D1C2
:10709000CDF80C8004E008F10108B8F1080FF1DB2D
:1070A00000BF0398696A60F302016962009818B131
:1070B00001212846FFF71AFE07B0BDE8F08F000057
:1070C000030002012DE9F04104460E461746204612
:1070D000FFF700FD054615B12846BDE8F0814FF4E5
:1070E000FE412046FFF7FEFD606A20F4807060627A
:1070F000204600F003F905460DB12846EDE747EAC2
:10710000460040F4806020660020E6E770B5054642
:10711000284600F0F3F804460CB1204670BD4FF449
:107120000070286612E02846FFF709FE0646314641
:107130002846FFF78FFD044606F4007028B14FF48F
:1071400000712846FFF7CEFD02E000BF002CEAD018
:1071500000BF2046E2E700002DE9FF4705460C4648
:107160000026002704B105E04FF4367248A151A073
:1071700002F0F6FDE068042800D805E040F2D922CC
:1071800043A14FA002F0ECFD2846FFF7A3FC064602
:107190001EB1304604B0BDE8F0874FF4FE412846EA
:1071A000FFF7A0FD686A20F480706862E06808B1AB
:1071B000002000E0A0798146207800F0010060B94D
:1071C000A0884FF6FF7101EA400040EA090040F450
:1071D000806238467F1C2DF81020E06878B1E068A6
:1071E00008E0C300A268DA40D1B23A467F1C2DF80D
:1071F000121000BF011EA0F10100F2D100BF6069B2
:1072000088B1A07901280ED1B9F1000F0BD1A08867
:107210004FF6FF7101EA4000401C40F4806238469E
:107220007F1C2DF810204FF000080BE0284600F0DE
:1072300065F806460EB13046ACE73DF81800286602
:1072400008F10108381EA7F10107EFD1A07938B97C
:10725000606928B12846D4E90412FFF767FE0646A4
:10726000A079012807D1606928B12846D4E9041221
:10727000FFF704FE06460EB130468BE7207800F09B
:10728000040018B92846FFF741FF0646304681E75B
:107290002E2E5C2E2E5C6C69627261726965735C65
:1072A000647269766572735C66736C5F6C70693268
:1072B000632E63007472616E736665720000000075
:1072C0007472616E736665722D3E7375626164647B
:1072D0007265737353697A65203C3D2073697A65E2
:1072E0006F66287472616E736665722D3E73756287
:1072F000616464726573732900000000F8B5054687
:10730000042600BF6A4600212846FFF70DFD0098BD
:10731000301A00902846FFF712FD074639462846E6
:10732000FFF798FC04460CB12046F8BD00980028F1
:10733000E8D00020F9E7000010B503484168034891
:10734000034A1268904710BD2C01002000401840ED
:107350000C00002010B5034881680348034A1268F6
:10736000904710BD2C010020008018400C00002028
:1073700010B50348C1680348034A1268904710BD1E
:107380002C01002000C018400C00002010B503485C
:1073900001690348034A1268904710BD2C01002080
:1073A000000019400C00002010B503484169034853
:1073B000034A1268904710BD2C010020004019407C
:1073C0000C00002010B5034881690348034A126885
:1073D000904710BD2C010020008019400C000020B7
:1073E00010B50348C1690348034A1268904710BDAD
:1073F0002C01002000C019400C00002010B50348EB
:10740000016A0348034A1268904710BD2C0100200E
:1074100000001A400C00002070B505460C46AB6A0F
:1074200023F440334FF4403000EA04400343AB629E
:107430006B6923F0004304F0004003430B48034012
:10744000C14304EA0100034323F4404304F44040F1
:1074500003436B61284600F083F8204010B140F2EE
:107460001A5600E00026304670BD0000FFFFE0BF66
:1074700010B5044604B105E04FF4F1720BA115A05C
:1074800002F06EFC4FF4E13020600020207160714A
:10749000A071E07120726072A072E072607320735C
