:0200000460009A
:10000000464346420004015600000000000303007E
:1000100001010000010400000002000000000000D7
:1000200000000000000000000000000000000000D0
:1000300000000000000000000000000000000000C0
:1000400000000000010407000000000000000000A4
:10005000000000020000000000000000000000009E
:100060000000000000000000000000000000000090
:100070000000000000000000000000000000000080
:10008000EC04200A063204260000000000000000F4
:10009000050404240000000000000000000000002F
:1000A0000000000000000000000000000000000050
:1000B0000000000000000000000000000000000040
:1000C0000000000000000000000000000000000030
:1000D0000000000000000000000000000000000020
:1000E0000000000000000000000000000000000010
:1000F0000000000000000000000000000000000000
:1001000000000000000000000000000000000000EF
:1001100000000000000000000000000000000000DF
:1001200000000000000000000000000000000000CF
:1001300000000000000000000000000000000000BF
:1001400000000000000000000000000000000000AF
:10015000000000000000000000000000000000009F
:10016000000000000000000000000000000000008F
:10017000000000000000000000000000000000007F
:10018000000000000000000000000000000000006F
:10019000000000000000000000000000000000005F
:1001A000000000000000000000000000000000004F
:1001B000000000000000000000000000000000003F
:1001C000000100000010000000000000000000001E
:1001D000000000000000000000000000000000001F
:1001E000000000000000000000000000000000000F
:1001F00000000000000000000000000000000000FF
:0200000460009A
:10100000D10020410020006000000000301000608E
:1010100020100060001000600000000000000000D0
:10102000000000600000000200000000FFFFFFFF62
:10103000D2040041CC037C04400FC068FFFFFFFFD7
:10104000400FC06CFFFFFFFF400FC070FFFFFFFFAE
:10105000400FC074FFFFFFFF400FC078FFFFFFFF8E
:10106000400FC07CFFFFFFFF400FC080FFFFFFFF6E
:10107000400D803000002001400D8100001D000067
:10108000400FC01400020D40401F801400000000FB
:10109000401F801800000000401F801C000000005E
:1010A000401F802000000000401F8024000000003E
:1010B000401F802800000000401F802C000000001E
:1010C000401F803000000000401F803400000000FE
:1010D000401F803800000000401F803C00000000DE
:1010E000401F804000000000401F804400000000BE
:1010F000401F804800000000401F804C000000009E
:10110000401F805000000000401F8054000000007D
:10111000401F805800000000401F805C000000005D
:10112000401F806000000000401F8064000000003D
:10113000401F806800000000401F806C000000001D
:10114000401F807000000000401F807400000000FD
:10115000401F807800000000401F807C00000000DD
:10116000401F808000000000401F808400000010AD
:10117000401F808800000000401F808C000000009D
:10118000401F809000000000401F8094000000007D
:10119000401F809800000000401F809C000000005D
:1011A000401F80A000000000401F80A4000000003D
:1011B000401F80A800000000401F80AC000000001D
:1011C000401F80B000000000401F80B400000000FD
:1011D000401F80B800000000401F8204000000E1B2
:1011E000401F8208000000E1401F820C000000E167
:1011F000401F8210000000E1401F8214000000E147
:10120000401F8218000000E1401F821C000000E126
:10121000401F8220000000E1401F8224000000E106
:10122000401F8228000000E1401F822C000000E1E6
:10123000401F8230000000E1401F8234000000E1C6
:10124000401F8238000000E1401F823C000000E1A6
:10125000401F8240000000E1401F8244000000E186
:10126000401F8248000000E1401F824C000000E166
:10127000401F8250000000E1401F8254000000E146
:10128000401F8258000000E1401F825C000000E126
:10129000401F8260000000E1401F8264000000E106
:1012A000401F8268000000E1401F826C000000E1E6
:1012B000401F8270000000E1401F8274000000E1C6
:1012C000401F8278000000E1401F827C000000E1A6
:1012D000401F8280000000E1401F8284000000E186
:1012E000401F8288000000E1401F828C000000E166
:1012F000401F8290000000E1401F8294000000E146
:10130000401F8298000000E1401F829C000000E125
:10131000401F82A0000000E1401F82A4000000E105
:10132000401F82A8000000E1402F000010000004D0
:10133000402F000800030524402F000C060305245D
:10134000402F00108000001B402F00148200001B63
:10135000402F00188400001B402F000400007988F3
:10136000402F004000000F37402F00440065292225
:10137000402F004800010920402F004C50210A084E
:10138000402F008000000021402F008400888888C2
:10139000402F009400000002402F00980000000041
:1013A000402F009080000000402F009CA55A000FA5
:1013B000CF000C1C402F003C00000001CC001404A6
:1013C000402F009080000000402F009CA55A000C88
:1013D000CF000C1C402F003C00000001CC00140486
:1013E000402F009080000000402F009CA55A000C68
:1013F000CF000C1C402F003C00000001CC001C045E
:10140000402F00A000000033402F0090800000001B
:10141000402F009CA55A000ACF000C1C402F003C16
:1014200000000001CC000C04402F004C50210A09A0
:0200000460009A
:1020000000000120192400603124006033240060A6
:10201000352400603724006039240060000000008F
:102020000000000000000000000000003B240060F1
:102030003D240060000000003F24006095790060AE
:1020400043240060472400604B2400604F2400605C
:1020500053240060572400605B2400605F2400600C
:1020600063240060672400606B2400606F240060BC
:1020700073240060772400607B2400607F2400606C
:1020800083240060FB240060FB240060FB240060CC
:10209000872400608B2400608F24006093240060FC
:1020A000972400609B2400609F240060A3240060AC
:1020B000A7240060AB240060AF240060B32400605C
:1020C000B7240060BB240060BF240060C32400600C
:1020D000C7240060CB240060FB240060FB24006068
:1020E000FB240060FB240060FB240060FB240060F4
:1020F000FB240060FB240060FB240060FB240060E4
:10210000FB240060FB240060FB240060FB240060D3
:10211000FB240060FB240060FB240060FB240060C3
:10212000CF240060D3240060D7240060DB2400604B
:10213000DF240060FB240060FB240060FB240060BF
:10214000FB240060FB240060FB240060FB24006093
:10215000FB240060FB240060FB240060FB24006083
:10216000FB240060FB240060FB240060FB24006073
:10217000FB240060FB240060FB240060FB24006063
:10218000FB240060FB240060FB240060FB24006053
:10219000FB240060FB240060FB240060FB24006043
:1021A000FB240060FB240060E3240060FB2400604B
:1021B000FB240060FB240060FB240060FB24006023
:1021C000FB240060FB240060FB240060FB24006013
:1021D000FB240060FB240060FB240060FB24006003
:1021E000FB240060FB240060FB240060FB240060F3
:1021F000E7240060FB240060EB240060EF24006013
:10220000FB240060FB240060F3240060F7240060DE
:10221000FB240060FB240060FB240060FB240060C2
:10222000FB240060FB240060FB240060FB240060B2
:10223000FB240060FB240060FB240060FB240060A2
:10224000FB240060FB240060FB240060FB24006092
:10225000FB240060FB240060FB240060FB24006082
:10226000FB240060FB240060FB240060FB24006072
:10227000FB240060FB240060FB240060FB24006062
:10228000FB240060FB240060FB240060FB24006052
:10229000FB240060FB240060FB240060FB24006042
:1022A000FB240060FB240060FB240060FB24006032
:1022B000FB240060FB240060FB240060FB24006022
:1022C000FB240060FB240060FB240060FB24006012
:1022D000FB240060FB240060FB240060FB24006002
:1022E000FB240060FB240060FB240060FB240060F2
:1022F000FB240060FB240060FB240060FB240060E2
:10230000FB240060FB240060FB240060FB240060D1
:10231000FB240060FB240060FB240060FB240060C1
:10232000FB240060FB240060FB240060FB240060B1
:10233000FB240060FB240060FB240060FB240060A1
:10234000FB240060FB240060FB240060FB24006091
:10235000FB240060FB240060FB240060FB24006081
:10236000FB240060FB240060FB240060FB24006071
:10237000FB240060FB240060FB240060FB24006061
:10238000FB240060FB240060FB240060FB24006051
:10239000FB240060FB240060FB240060FB24006041
:1023A000FB240060FB240060FB240060FB24006031
:1023B000FB240060FB240060FB240060FB24006021
:1023C000FB240060FB240060FB240060FB24006011
:1023D000FB240060FB240060FB240060FB24006001
:1023E000FB240060FB240060FB240060FB240060F1
:1023F000FB240060FB240060FB240060FFFFFFFF64
:10240000DFF80CD000F056FA00480047BD98006095
:102410000000012040BA704772B63948394901605E
:102420000A6882F308883848804762B63748004710
:10243000FEE7FEE7FEE7FEE7FEE7FEE7FEE7FEE774
:10244000FEE73348004733480047334800473348E6
:102450000047334800473348004733480047334874
:102460000047334800473348004733480047334864
:102470000047334800473348004733480047334854
:102480000047334800473348004733480047334844
:102490000047334800473348004733480047334834
:1024A0000047334800473348004733480047334824
:1024B0000047334800473348004733480047334814
:1024C0000047334800473348004733480047334804
:1024D00000473348004733480047334800473348F4
:1024E00000473348004733480047334800473348E4
:1024F000004733480047334800473348004700004F
:1025000008ED00E000200060ED7A0060012400602A
:10251000FB240060FB240060FB240060FB240060BF
:10252000FB240060FB240060FB240060FB240060AF
:10253000FB240060FB240060FB240060FB2400609F
:10254000FB240060FB240060FB240060FB2400608F
:10255000FB240060314500604D4500606945006026
:1025600085450060A1450060BD450060D94500601B
:10257000F54500609D440060AD440060BD440060CE
:10258000CD440060FB240060FB240060FB2400605D
:10259000FB240060FB240060FB240060FB2400603F
:1025A000FB240060FB240060FB240060FB2400602F
:1025B000FB240060FB240060BD7B0060DD7B0060CD
:1025C000FB240060FB240060FB2400602DE9F05F29
:1025D0000546002092469B46884606468146402492
:1025E0001BE0284641464746224600F0DFF85346A6
:1025F0005A46C01A914110D311461846224600F09F
:10260000C6F82D1A67EB01084F462246012000212B
:1026100000F0BDF817EB00094E41201EA4F10104A3
:10262000DFDC484631462A464346BDE8F09F2DE9A7
:10263000F0410024061B254671F1000605DA01244D
:102640000027D0EB070067EB0101161E73F10006AF
:1026500005DA0027D2EB0702012567EB0303FFF73A
:10266000B5FF86460E4617469C46AC4204D0002570
:10267000D0EB050E65EB010624B10020D2EB00077C
:1026800060EB030C704631463A466346BDE8F08184
:1026900010B5431A934209D28318881803E010F842
:1026A000011D03F8011D521EF9D210BD40EA0103BD
:1026B0009B0703D009E008C9121F08C0042AFAD2F8
:1026C00003E011F8013B00F8013B521EF9D210BDA6
:1026D000D2B201E000F8012B491EFBD27047002264
:1026E000F6E710B513460A4604461946FFF7F0FF11
:1026F000204610BD421C10F8011B0029FBD1801A96
:10270000704730B504460020034600E05B1C93424E
:1027100003D2E05CCD5C401BF8D030BD3EB5CA179B
:10272000CB0F002450405140C0186141DA0740F2FD
:1027300033430094CDE901232246234600F055F8A7
:1027400003B030BD70B5C1F30A5201F0004500245A
:10275000C1F3130140F2FF3341F480119A4202DACF
:102760000020014670BD40F233439A42A2F2334248
:1027700003DC524200F01AF801E000F008F82C43A4
:10278000F0D00023D0EB030063EB010170BD202AE1
:1027900004DB203A00FA02F1002070479140C2F1B8
:1027A000200320FA03F3194390407047202A04DBEA
:1027B000203A21FA02F00021704721FA02F3D040BA
:1027C000C2F12002914008431946704710B5141E0B
:1027D00073F1000408DA401C41F1000192185B41DA
:1027E0001A4301D120F0010010BD2DE9F04D9246B1
:1027F0009B4611B1B1FA81F202E0B0FA80F22032C8
:102800009046FFF7C4FF04460F4640EA0A0041EA3B
:102810000B0153465A46084313D0114653EA0100B0
:1028200019D0C8F140025046FFF7C0FF05460E46DA
:10283000504659464246FFF7AAFF084305D00120FB
:1028400004E020463946BDE8F08D0020054346EA05
:10285000E0762C4337430A986305E40AA0EB0800AE
:102860000022FD0A44EA47540A3002D500200146FE
:10287000E9E7010510196941DDE9084500196941D9
:10288000BDE8F04DA2E770B521F0004303430CD042
:10289000C1F30A550024D5EB040564EB0403D617F5
:1028A000AD1AB34102DB0020014670BD201841EB98
:1028B000025170BD064C074D06E0E06840F0010390
:1028C00094E8070098471034AC42F6D3FFF79CFD1C
:1028D000E49C0060049D006010B5ADF5A05D044669
:1028E0005A224FF420610DF52060FFF7F1FE3DA064
:1028F00001F024FB012302220DF52061204604F0A3
:1029000083FC30B13FA001F019FB01200DF5A05D63
:1029100010BD4FF420616846FFF7E1FE012302225B
:102920006946204603F078FC20B13CA001F006FB8C
:102930000120EBE73EA001F001FB4FF400720DF522
:1029400020616846FFF7DDFE20B140A001F0F6FAF5
:102950000120DBE743A001F0F1FA47A001F0EEFA15
:10296000052302220DF52061204604F04DFC20B124
:1029700048A001F0E3FA0120C8E74FF4206168465F
:10298000FFF7ADFE052302226946204603F044FC12
:1029900020B146A001F0D2FA0120B7E724A001F04F
:1029A000CDFA4FF400720DF520616846FFF7A9FEDD
:1029B00020B126A001F0C2FA0120A7E741A001F052
:1029C000BDFA46A001F0BAFA05220221204603F022
:1029D00063FA20B147A001F0B1FA012096E7002088
:1029E00094E700000D0AD0B4C8EB2FB6C1C8A1D23D
:1029F000BBB8F6CAFDBEDDBFE92E2E2E2E2E2E0D43
:102A00000A000000D0B4C8EBD2BBB8F6CAFDBEDDE8
:102A1000BFE9CAA7B0DC2E0D0A000000B6C1C8A1EC
:102A2000D2BBB8F6CAFDBEDDBFE92E0D0A0000001C
:102A3000B1C8BDCFB6C1C8A12FD0B4C8EBC4DAC8E5
:102A4000DD2E2E2E2E2E2E0D0A000000B6C1C8A19E
:102A50002FD0B4C8EBC4DAC8DDB2BBD2BBD6C22E0D
:102A60000D0A0000B6C1C8A12FD0B4C8EBC4DAC8A3
:102A7000DDD2BBD6C20D0A00D0B4C8EB2FB6C1C898
:102A8000A1B6E0B8F6CAFDBEDDBFE92E2E2E2E2E71
:102A90002E0D0A00D0B4C8EBB6E0B8F6CAFDBEDD14
:102AA000BFE9CAA7B0DC2E0D0A000000B6C1C8A15C
:102AB000B6E0B8F6CAFDBEDDBFE9CAA7B0DC2E0D90
:102AC0000A000000B6C1C8A12FD0B4C8EBC4DAC850
:102AD000DDD2BBD6C22E0D0A00000000B2C1B3FD8C
:102AE000B6E0B8F6CAFDBEDDBFE92E2E2E2E2E2E84
:102AF0000D0A0000B2C1B3FDB6E0B8F6CAFDBEDDF6
:102B0000BFE9CAA7B0DC2E0D0A00000010B54FF4D3
:102B100000406249086000BF61486249086000BF28
:102B20000121614800F090FE0121604800F08CFE18
:102B30005F48C06820F01F0040F012005C49C86088
:102B40005C4800F09BFD00215B4800F0EFFD002198
:102B50005A4800F0EBFD0321594800F0E7FD03213E
:102B6000584800F071FE0021504800F06DFE002131
:102B7000554800F0DBFD00214B4800F065FE0121C7
:102B8000524800F0D3FD0021514800F05DFE0221C3
:102B9000504800F0CBFD00214F4800F055FE0221C7
:102BA0004E4800F0C3FD00214D4800F04DFE0421C9
:102BB0004548FC3800F0BAFD02214A4800F044FEC6
:102BC0000221494800F0B2FD0221484800F03CFED5
:102BD0000321474800F0AAFD01213C480C3000F0D9
:102BE000A5FD0021434800F02FFE03214048001DB1
:102BF00000F09CFD01213548103000F097FD0021C8
:102C00002948001D00F020FE03213B4800F08EFD06
:102C100001213A4800F08AFD00213448001D00F0EF
:102C200013FE0021364800F081FD0021354800F0F8
:102C30000BFE0121344800F079FD022120480C30C0
:102C400000F002FE0121314800F070FD07212A4802
:102C5000083000F06BFD03212D4800F0F5FD012147
:102C60002C4800F063FD07212848083800F05EFD7D
:102C70000321294800F0E8FD0021284800F0E4FD88
:102C800000211248083000F051FD002110480830A2
:102C900000F0DAFD04F086FE10BD00000800002000
:102CA00000366E0104000020186C008014390014F6
:102CB000000008408C9B006014EA000410E0004013
:102CC000146800801872008014FB00801CE00780EC
:102CD0001C26008024EB00801C30008024F0008043
:102CE0001C3100801864008024790080186E0080F8
:102CF00028E600801C6A008028F6008028F0078003
:102D000038F307803832008020E2078030F90080F5
:102D10003074008028E90080207300800C2000803F
:102D200010B56148006800F40030B0F5003F2BD1C9
:102D300000BF00BF00BF00BF00BFBFF34F8F00BF89
:102D400000BF00BF00BF00BF00BFBFF36F8F00BF59
:102D500000BF00BF5448006820F4003052490860AA
:102D600000205249086000BF00BF00BFBFF34F8F73
:102D700000BF00BF00BF00BF00BF00BFBFF36F8F29
:102D800000BF00BF00BF00BF4748006800F48030AC
:102D9000B0F5803F01D101F013FF00BF00BF00BFBD
:102DA00000BF00BFBFF34F8F00BF00BF00BF00BF19
:102DB00000BF00BFBFF36F8F00BF00BF00BF3A4826
:102DC0001030006820F480303749103108603648F0
:102DD0008030006820F0010033498031086000BF76
:102DE00033483149883108603248091D086032484B
:102DF000091F08602F48801C091D08602F48091F03
:102E000008602F48091D08601320091F0860294821
:102E1000801C091D08601420091F086028481A3802
:102E2000091D08602748091F086025481A38091D30
:102E300008602548091F086021481838091D0860E6
:102E40001D48801D091F08601D480838091D0860BD
:102E50001E48091F08601E48091D0860042000BFA5
:102E600000BF00BF00BFBFF34F8F00BF00BF00BF58
:102E700000BF00BF00BFBFF36F8F00BF00BF00BF28
:102E800040F00101084A8032116007491031096899
:102E900041F48031044A1032116000BF01F02EFF6E
:102EA00001F0B8FF10BD000014ED00E050EF00E0AD
:102EB000100000C0390010031100008012000060F3
:102EC0003900030315000020160020201800E081BF
:102ED0002900080370B51648C1B2164A8958C0F3D4
:102EE0004C32C0F304239A401140C0F30422D14075
:102EF00061B9114800F092FA0621B0FBF1F50F48D4
:102F000000F064F9401CB5FBF0F40FE000BF0C4882
:102F1000006800F0100008B10A4D01E00A48056899
:102F2000064800F053F9401CB5FBF0F4204670BD94
:102F30002426008000C00F400D00100024E0078010
:102F400070820D4000366E010400002010B5FFF7BE
:102F5000C1FF0446234602224FF4E131014800F04C
:102F6000A9FF10BD004018401CB540F2024000F01F
:102F7000F1F80020164903460246CDE9001002216F
:102F8000144801F013F900201149091D03460246B7
:102F9000CDE9001002210F48001D01F007F941F2B0
:102FA000B0000B4900231A46CDE900100221094860
:102FB00001F0EAF841F2B0000549091D00231A4664
:102FC000CDE9001002210348001D01F0DDF81CBD11
:102FD00048821F40D4801F4010B51221002000F00D
:102FE00087FB0021034800F0F7FB0121024800F0B5
:102FF00081FC10BD24EB00801C3000802DE9F041E5
:1030000004460E46270A04F01F08062F00D805E0E4
:1030100040F2873208A111A005F0BEFE124800EB75
:1030200087052868032101FA08F1884306FA08F1A8
:1030300008432860BDE8F0812E2E5C2E2E5C6C6962
:10304000627261726965735C647269766572735CE1
:1030500066736C5F636C6F636B2E6800696E64658A
:1030600078203C3D2036000068C00F402DE9F0413B
:1030700004460E46270A04F01F08062F00D805E074
:1030800040F2873208A111A005F086FE124800EB3D
:1030900087052868032101FA08F1884306FA08F138
:1030A00008432860BDE8F0812E2E5C2E2E5C6C69F2
:1030B000627261726965735C647269766572735C71
:1030C00066736C5F636C6F636B2E6800696E64651A
:1030D00078203C3D2036000068C00F402DE9F047C5
:1030E0000446254603274FEA152805F01F09B8F1C5
:1030F000060F00D805E040F2873209A111A005F0C3
:103100004BFE134800EB88063068032101FA09F1F1
:10311000884307FA09F10843306000BFBDE8F08733
:103120002E2E5C2E2E5C6C69627261726965735C16
:10313000647269766572735C66736C5F636C6F63EF
:103140006B2E6800696E646578203C3D2036000077
:1031500068C00F402DE9F0470446254603274FEA93
:10316000152805F01F09B8F1060F00D805E040F258
:10317000873209A111A005F00FFE134800EB880665
:103180003068032101FA09F1884307FA09F108437D
:10319000306000BFBDE8F0872E2E5C2E2E5C6C697F
:1031A000627261726965735C647269766572735C80
:1031B00066736C5F636C6F636B2E6800696E646529
:1031C00078203C3D2036000068C00F400146C8B260
:1031D000054A8058C1F34C32C1F304239A40104091
:1031E000C1F30422D040704700C00F4070B50546BF
:1031F000142D72D2DFE805F00A0B153445494E5301
:10320000585D62676C72777C81868C9200BF00F09B
:10321000A9F847494969C1F38221491CB0FBF1F47F
:1032200083E04348406900F0400070B14048406985
:1032300000F0800020B1012000F0EAF9044607E028
:10324000022000F0AFF9044602E000F08BF80446DB
:1032500037484069C0F30240401CB4FBF0F464E01E
:1032600000F080F832494969C1F38221491CB0FB62
:10327000F1F42F484069C0F30120401CB4FBF0F486
:1032800053E000F05FF804464FE000BF4FF4004405
:1032900000BF4AE0274800F0C1F8044645E000209E
:1032A00000F0B6F9044640E0012000F0B1F9044610
:1032B0003BE0022000F0ACF9044636E0032000F0C9
:1032C000A7F9044631E01C4800F0A8F804462CE0B9
:1032D000002000F067F9044627E024E0012000F018
:1032E00061F9044621E0022000F05CF904461CE08C
:1032F000032000F057F9044617E0104800F08EF85C
:10330000044612E00D48083000F088F804460CE04E
:103310000A48093000F082F8044606E0084800F048
:103320007DF8044601E0002400BF00BF204670BDC8
:1033300000C00F400D0010000D0030000D00E00037
:103340000D0070000448006800F0100008B1034848
:10335000704703480068FBE770820D4000366E013D
:103360000400002010B52948406900F0007040B307
:103370002648806900F4405048B1B0F5805F0BD01A
:10338000B0F5005F0CD0B0F5405F0ED10EE02048E4
:1033900000F044F804460BE0FFF7D4FF044607E0D2
:1033A0001C4800F03BF8044602E000BF002400BFC8
:1033B00000BF16484069C0F3C260401CB4FBF0F483
:1033C00022E01248806900F4402048B1B0F5802F17
:1033D0000BD0B0F5002F0DD0B0F5402F11D10EE07D
:1033E0000C4800F01BF804460DE0032000F010F933
:1033F000044608E0032000F0D5F8044603E0064C3C
:1034000001E0002400BF00BF204610BD00C00F40F7
:103410000D0010000D0030000065CD1D2DE9FF47A7
:103420008146594BD3E901021968DB6801AC0DC430
:10343000009156494846C0F30B428A5800F01F07D6
:103440000123BB401A400AB1012200E000221AB950
:10345000002004B0BDE8F0874C4FC846C8F30B40CD
:103460003858C0F3813010B9FFF76CFF00E000203E
:1034700004464648C9F30B414158C1F3004109B124
:103480002046E6E74249A9EB010089456BD00BDCF9
:10349000A9F58010A0F10D0028B3B0F5001F08D0E9
:1034A000B0F5C00F6BD128E0082864D0092866D198
:1034B00063E03648D0F860C0006DA4FB00700146A0
:1034C000624600233846FFF781F805462F48006B17
:1034D00000F0010010B11620444302E004EB840028
:1034E00084002C444DE02948006900F0020008B136
:1034F000162000E01420444343E02448006F00F00D
:103500007F0A22489030D0F800C02048D0F88000D0
:10351000A4FB00700146624600233846FFF756F8C8
:10352000054604FB0A541948006F00F4C01018B196
:10353000B0F5002F04D101E0A40802E0640800E027
:1035400000BF00BF1348006813490840B0F5004FA2
:1035500004D04942084418B9A40802E0640800E015
:1035600000BF00BF0DE00B489038006800F0030A70
:103570005DF82A4005E0094C03E0094C01E0002415
:1035800000BF00BF204664E7F89A006000800D404D
:103590000D00E00070810D400080800040787D01CA
:1035A0000065CD1D70B505461748FFF737FF044687
:1035B00035B1012D0BD0022D10D0032D1CD114E0FC
:1035C0001248006800F03F00B4FBF0F416E00F482A
:1035D0000068C0F30520B4FBF0F40FE00B4800686E
:1035E000C0F30540B4FBF0F408E008480068C0F3FD
:1035F0000560B4FBF0F401E0002400BF00BF04EB61
:10360000C4004400204670BD0D00300000810D4014
:1036100070B505461748FFF701FF044635B1012D87
:103620000BD0022D10D0032D1CD114E012480068DD
:1036300000F03F00B4FBF0F416E00F480068C0F360
:103640000520B4FBF0F40FE00B480068C0F3054020
:10365000B4FBF0F408E008480068C0F30560B4FB70
:10366000F0F401E0002400BF00BF04EBC4004400FC
:10367000204670BD0D001000F0800D4010B5C278DE
:1036800002F00301194A126822F4404242F48032E7
:1036900003794FF4404404EA83331A43134B1A600E
:1036A00002780AB141F4005182780AB141F4001164
:1036B00042780AB141F480010C4A126841F20303D6
:1036C0009A430A43094BE03BC3F8E02000BF074A96
:1036D000126802F00042002AF9D0044A126822F46B
:1036E0008032024BE03BC3F8E02010BDE0800D408B
:1036F00070B50A4601460B4C2468CE00BF25B54084
:1037000024EA0503CD008024AC401C43064DC5F8D7
:10371000004102F03F04CD00AC401C43014D2C6041
:1037200070BD000000810D4000800D4070B5044662
:103730000E463F2000EA9465E0B215494158C4F3B3
:103740004C30C4F30422904021EA0000C4F3042268
:1037500006FA02F1C4F34C32C4F304239A40114038
:103760000843E1B20A4A8850202D00D805E040F213
:10377000653208A110A005F00FFB202D07D000BF77
:103780000348806C0121A94008400028F8D170BD91
:1037900000C00F402E2E5C2E2E5C6C69627261722E
:1037A0006965735C647269766572735C66736C5F7D
:1037B000636C6F636B2E680062757379536869661A
:1037C00074203C3D2043434D5F4E4F5F425553595B
:1037D0005F5741495400000070B504460E463F2033
:1037E00000EA9465E0B216494158C4F34C30C4F382
:1037F0000422904021EA0000C4F3042206FA02F1F8
:10380000C4F34C32C4F304239A4011400843E1B29C
:103810000B4A8850202D00D806E040F26532094955
:1038200001F1240005F0B8FA202D07D000BF0448AC
:10383000806C0121A94008400028F8D170BD00002B
:1038400000C00F405C39006070B504460E463F2052
:1038500000EA9465E0B215494158C4F34C30C4F312
:103860000422904021EA0000C4F3042206FA02F187
:10387000C4F34C32C4F304239A4011400843E1B22C
:103880000A4A8850202D00D805E04FF4507208A154
:1038900010A005F081FA202D07D000BF0348806CEE
:1038A0000121A94008400028F8D170BD00C00F4098
:1038B0002E2E5C2E2E5C6C69627261726965735C7F
:1038C000647269766572735C66736C5F636C6F6358
:1038D0006B2E6800627573795368696674203C3D8D
:1038E0002043434D5F4E4F5F425553595F57414907
:1038F0005400000070B504460E463F2000EA94656F
:10390000E0B215494158C4F34C30C4F3042290404E
:1039100021EA0000C4F3042206FA02F1C4F34C3297
:10392000C4F304239A4011400843E1B20A4A885084
:10393000202D00D805E04FF4507208A110A005F02A
:103940002BFA202D07D000BF0348806C0121A9402D
:1039500008400028F8D170BD00C00F402E2E5C2E0C
:103960002E5C6C69627261726965735C64726976FF
:103970006572735C66736C5F636C6F636B2E68005B
:10398000627573795368696674203C3D2043434DEA
:103990005F4E4F5F425553595F57414954000000F5
:1039A00010B5044604B104E058222DA135A005F05D
:1039B000F3F9B03435A0D4E9001200F0BFFA3AA010
:1039C00000F0BCFAE07AB03C012803D13AA000F044
:1039D000B5FA06E094F8BB00032802D13DA000F040
:1039E000ADFA94F8B80078B994F8BB00012803D177
:1039F0003FA000F0A3FA2EE094F8BB0003282AD1E0
:103A000042A000F09BFA26E094F8B80001280BD100
:103A100094F8BB00032803D143A000F08FFA1AE00A
:103A200047A000F08BFA16E094F8B800022803D102
:103A30004AA000F083FA0EE094F8B800032803D1FE
:103A40004CA000F07BFA06E094F8B800042802D1FC
:103A50004EA000F073FA53A0A16B00F06FFA10BDF6
:103A60002E2E5C2E2E5C757365725C6273705C73B7
:103A7000646D6D635C7372635C6273705F73642EFC
:103A80006300000063617264000000000D0ABFA8BB
:103A9000B4F3D0A1202564202A2025642062797403
:103AA00065730D0A000000000D0AB9A4D7F7CCF524
:103AB000BCFE3A0D0A0000000D0A20205344BFA8A6
:103AC000B2D9D7F7B5E7D1B9203A20332E33560D06
:103AD0000A0000000D0A20205344BFA8B2D9D7F72E
:103AE000B5E7D1B9203A20312E38560D0A00000032
:103AF0000D0A2020CAB1D0F2C4A3CABD3A20B3A394
:103B0000B9E6C4A3CABD0D0A000000000D0A2020BA
:103B1000CAB1D0F2C4A3CABD3A20534452313220B4
:103B2000C4A3CABD0D0A00000D0A2020CAB1D0F2FC
:103B3000C4A3CABD3A2053445232350D0A000000D6
:103B40000D0A2020CAB1D0F2C4A3CABD3A204869E8
:103B500067682053706565640D0A00000D0A202017
:103B6000CAB1D0F2C4A3CABD3A2053445235300D75
:103B70000A0000000D0A2020CAB1D0F2C4A3CABDB9
:103B80003A205344523130340D0A00000D0A2020EF
:103B9000CAB1D0F2C4A3CABD3A2044445235300D54
:103BA0000A0000000D0A202046726571203A202587
:103BB0006420485A0D0A00002DE9FF4F2DED0A8BB5
:103BC00087B0834616461F464FF000095D46002029
:103BD00005F8010B129890ED000BB0EE40BBB5EE6E
:103BE000C0BBF1EE10FA0AD13020287009F10109AA
:103BF000484607B0BDEC0A8B04B0BDE8F08F02A8C0
:103C0000B0EE4B0B05F0EAF8B0EE409B4FF0000A27
:103C100009E000EE106AB8EEC00B29EE000BB0EE22
:103C2000409B0AF1010ABA45F3D3B5EEC0BBF1EEF1
:103C300010FA19DBB6EE000B39EE008B00EE107AAD
:103C4000B8EE401BB2EE040B05F02AF9B4EEC80B37
:103C5000F1EE10FA23D89DED020BB7EE001B30EE0B
:103C6000010B8DED020B1AE0B6EE000B39EE408B26
:103C700000EE107AB8EE401BB2EE040B05F010F91E
:103C8000B1EE400BB4EEC80BF1EE10FA07DB9DED80
:103C9000020BB7EE001B30EE410B8DED020B4FF027
:103CA000000A2FE000EE106AB8EEC00B88EE00AB01
:103CB00051EC1A0BFEF746FDF317A0FB062C01FB97
:103CC00006C100FB0310CDE9002010460199FEF764
:103CD00025FD41EC100B38EE40CBBDEECC0B10EEC9
:103CE000104A002C05DA0494049CE04300F13104EE
:103CF00000E03034B0EE4A8B05F8014B09F10109C0
:103D00000AF1010ABA45CDD32E2005F8010B09F1BD
:103D100001099DED020BBDEEC00B10EE108AB8F14B
:103D2000000F05D1302005F8010B09F1010918E059
:103D300014E098FBF6F00590059800FB1684002C23
:103D400005DA0494049CE04300F1310400E03034CF
:103D5000DDF8148005F8014B09F10109B8F1000FF5
:103D6000E7D1484645E72DE9FF4F89B01E460020C0
:103D70000190DDF824B00BF8010B0B9800284DD012
:103D80000A98D0E90078002187EA010088EA010159
:103D9000084309D130208BF800000198401C0190A5
:103DA00001980DB0BDE8F08F2FE03246F31738468A
:103DB0004146FEF73CFCCDE90601F317DDE90601BB
:103DC000A0FB062C01FB06C103FB0013B91A68EB2C
:103DD0000300CDE904100023DDE90410C91A98415D
:103DE00007DA049CE143491C4FF0300008180490A6
:103DF00002E0049830300490DDE9067804980BF86E
:103E0000010B019800F1010001904FF0000187EAD9
:103E1000010088EA01010843C7D148E00A98D0E9C7
:103E2000009A002189EA01008AEA0101084307D1CA
:103E300030208BF800000198401C01900198B0E7F9
:103E40002DE03246F31748465146FEF7BFFBCDE959
:103E50000201F317DDE90201A0FB062C01FB06C1FC
:103E600000FB0310B9EB02046AEB00050A21611A9A
:103E700075F1000001D2303409E00A21601A65F1C1
:103E80000001169909B1412100E061214418DDE9E2
:103E9000029A0BF8014B019800F1010001904FF0DC
:103EA000000189EA01008AEA01010843C9D10198A9
:103EB00077E700002DE9F04106460D4614461F46FF
:103EC00004B104E0692206A111A004F065FF3B469D
:103ED0002A462146304600F093FABDE8F081000002
:103EE0002E2E5C2E2E5C6C69627261726965735C49
:103EF0007574696C69746965735C66736C5F64651D
:103F00006275675F636F6E736F6C652E6300000090
:103F100064657669636520213D2044454255475FCD
:103F2000434F4E534F4C455F4445564943455F54BC
:103F30005950455F4E4F4E45000000000FB430B55C
:103F4000A1B00024002580216846FEF7C8FB25A803
:103F50002090094B6A462099249803F007FA0446FA
:103F60002146684600F070FA054600202090284659
:103F700021B030BC5DF814FB7D3F00602DE9F041BD
:103F800005460C4616461F464FF0000800BF10E0DD
:103F90002068401C802805D32846216800F054FA88
:103FA0000020206020682E542068401C206008F10A
:103FB0000108B845ECDBBDE8F081000070B50546AE
:103FC000002406E0094850F82400A84200D102E08D
:103FD000641C062CF6D300BF062C00D204E0542249
:103FE00003A10CA004F0D8FE204670BD089B006021
:103FF0002E2E5C2E2E5C6C69627261726965735C38
:10400000647269766572735C66736C5F6770696F02
:104010002E630000696E7374616E6365203C2041FD
:10402000525241595F53495A4528735F6770696F0F
:1040300042617365732900002DE9F04104460D4685
:1040400016462046FFF7BAFF124931F9107038467C
:10405000FFF744F860690121A94088436061307826
:1040600028B960680121A9408843606009E072783E
:104070002946204600F056F861680120A840014317
:104080006160B7783A462946204600F005F800BF3F
:10409000BDE8F081209B0060F0B503460C46214648
:1040A000DD690126A640B543DD61102C02D203F183
:1040B0000C0002E003F110001039062A2ED2DFE8CE
:1040C00002F02D030A15202705684F000326BE4085
:1040D000B543056023E005684F000326BE40B543A5
:1040E0004F000126BE403543056018E005684F00CB
:1040F0000326BE40B5434F000226BE40354305604F
:104100000DE005684F000326BE403543056006E01C
:10411000DD690126A6403543DD6100E000BF00BF38
:10412000F0BD000070B504460D461646202D00D2A5
:1041300004E0742208A111A004F02EFE2EB920681C
:104140000121A9408843206004E021680120A840A3
:104150000143216070BD00002E2E5C2E2E5C6C6928
:10416000627261726965735C647269766572735CB0
:1041700066736C5F6770696F2E63000070696E20F4
:104180003C2033320000000030B5DDE9034504B1C6
:10419000256030BD30B5DDE9034504B1256030BD93
:1041A00030B5DDE9034504B1256030BDF0B5DDE98A
:1041B000055401F00706102707EA04173E4306607E
:1041C00002B11360F0BDF0B5DDE9055401F007065A
:1041D000102707EA04173E43066002B11360F0BDE2
:1041E000F0B585B004460D4616461F4604B104E0FE
:1041F000FF221CA125A004F0CFFD207926490871DB
:104200002068086008460079022826D1684600F038
:104210002BFA0095204932460868694600F0A4FA56
:104220001D4A0121106821B1826942F40022826195
:1042300003E0826922F40022826100BF164A012154
:10424000106821B1826942F48022826103E08269B0
:1042500022F48022826100BF00E000BF00BF05B0F1
:10426000F0BD00002E2E5C2E2E5C6C6962726172B5
:104270006965735C7574696C69746965735C696F91
:104280005C66736C5F696F2E630000004E554C4C8A
:1042900020213D20696F00001C0000202DE9F04125
:1042A00004460D46164600270C48007902280FD117
:1042B00036B10A492A460868214600F04DFC06E05E
:1042C00006492A460868214600F0C8FB074601E077
:1042D000012700BF00BF3846BDE8F0811C00002068
:1042E00010B500F025F800F057F800F001F810BD07
:1042F00008B501208DF800008DF8010000208DF830
:1043000002006A461D210948FFF796FE6A461821F9
:104310000648FFF791FE6A4619210448FFF78CFE14
:104320006A461A210148FFF787FE08BD00801B403E
:104330001CB50020164903460246CDE900100521B0
:104340001448FFF740FF0020114914390346024684
:10435000CDE9001005210F481438FFF734FF002085
:104360000B490C3903460246CDE9001005210948E6
:104370000C38FFF728FF0020054910390346024694
:10438000CDE90010052103481038FFF71CFF1CBDC4
:10439000A4821F4030811F401CB5B0201649002365
:1043A0001A46CDE9001005211448FFF7F3FEB020AE
:1043B0001149143900231A46CDE9001005210F4890
:1043C0001438FFF7E7FEB0200B49103900231A46D6
:1043D000CDE90010052109481038FFF7DBFEB020B9
:1043E00005490C3900231A46CDE900100521034880
:1043F0000C38FFF7CFFE1CBDA4821F4030811F4048
:104400002DE9FC4107460C4615461E4600978DF8DF
:1044100004400023324629466846FFF7E1FE0020AB
:10442000BDE8FC8170B505460C4600264CB145B18F
:10443000012636B1012221462846FFF72FFF00B1A1
:104440000024204670BD000070B504460D4604B13E
:1044500005E040F23F1204A10DA004F09DFC2946A6
:104460002046FFF7DFFF70BD2E2E5C2E2E5C6C69A0
:10447000627261726965735C7574696C697469658F
:10448000735C6C6F675C66736C5F6C6F672E630048
:1044900062756620213D204E554C4C0010B501211F
:1044A000014800F01BF810BD00003F4010B502218C
:1044B000014800F013F810BD00403F4010B5032143
:1044C000014800F00BF810BD00803F4010B50421FA
:1044D000014800F003F810BD00C03F4070B504462D
:1044E0000D46206900F0010048B10D48006830B168
:1044F0000C4850F825102046094A12689047D4F815
:10450000100100F0010048B10748006830B10748C9
:1045100050F825102046044A1268904770BD0000EC
:10452000100000205C00002014000020700000201B
:1045300010B5034841680348034A1268904710BD0C
:1045400038000020004018400C00002010B503483F
:1045500081680348034A1268904710BD3800002064
:10456000008018400C00002010B50348C1680348C3
:10457000034A1268904710BD3800002000C0184060
:104580000C00002010B5034801690348034A126873
:10459000904710BD38000020000019400C0000209A
:1045A00010B5034841690348034A1268904710BD9B
:1045B00038000020004019400C00002010B50348CE
:1045C00081690348034A1268904710BD38000020F3
:1045D000008019400C00002010B50348C169034851
:1045E000034A1268904710BD3800002000C01940EF
:1045F0000C00002010B50348016A0348034A126802
:10460000904710BD3800002000001A400C00002028
:1046100070B505460C46AB6A23F440334FF4403086
:1046200000EA04400343AB626B6923F0004304F0EB
:10463000004003430B480340C14304EA0100034325
:1046400023F4404304F4404003436B61284600F0E8
:1046500083F8204010B140F21A5600E000263046A0
:1046600070BD0000FFFFE0BF10B5044604B105E0D7
:104670004FF4F1720BA115A004F08EFB4FF4E13062
:104680002060002020716071A071E0712072607262
:10469000A072E07260732073A073E0732074607482
:1046A00010BD00002E2E5C2E2E5C6C696272617251
:1046B0006965735C647269766572735C66736C5F5E
:1046C0006C70756172742E6300000000636F6E661B
:1046D0006967000070B50546002406E0094850F8F7
:1046E0002400A84200D102E0641C092CF6D300BFCC
:1046F000092C00D204E08E2203A10DA004F04CFB93
:10470000204670BD2C9B00602E2E5C2E2E5C6C69AA
:10471000627261726965735C647269766572735CFA
:1047200066736C5F6C70756172742E6300000000BC
:10473000696E7374616E6365203C20415252415929
:104740005F53495A4528735F6C707561727442619A
:104750007365732900000000014648698A6A02F403
:10476000430240EA124070472DE9F04F85B00446FD
:104770000D46914605B104E0E42284A18DA004F029
:104780000BFB286800B104E0E52280A18BA004F0B7
:1047900003FB287A042800DC04E0E7227BA18DA03B
:1047A00004F0FAFA687A042800DC04E0E82277A131
:1047B00098A004F0F1FA286802904FF0000A002057
:1047C0000490042731E028687843B9FBF0F01FFA21
:1047D00080F8B8F1000F01D14FF0010807FB08F095
:1047E000B9FBF0F0039029680398A0EB010B08F1E6
:1047F00001007843B9FBF0F02968081A58450BD23C
:1048000008F101007843B9FBF0F02968A1EB000B37
:1048100008F101001FFA80F80298834504D8CDF80A
:1048200008B0BA46CDF810807F1C202FCBD9642168
:104830002868B0FBF1F000EB40010298814204D2FD
:1048400040F2215005B0BDE8F08F2046FFF742FF4F
:1048500001908049019831F91000009003210098DF
:10486000FEF7CCFB00BF00BFA06840F00200A060D4
:10487000A06820F00200A06000BF2669BAF1030F13
:1048800004D9BAF1080F01D246F4003626F0F856E2
:10489000AAF101004FF0F85101EA006006436FF3FE
:1048A0000C060498C0F30C0030432061206920F00E
:1048B00000502061A06940F2177120EA01062879B2
:1048C000E97B4FF4E06202EA01210843A97B04225C
:1048D00002EA8101084306436879012807D1287953
:1048E00010B126F4006606E046F4006603E028797D
:1048F00008B146F01006A661206920F40056E87958
:104900004FF4005101EA403030432061287A697A3F
:1049100040EA0140E062A06A40F08800A062A06A1C
:1049200040F44040A0624C4E46F0004646F44046FB
:10493000687B102101EA0010297B202202EA411144
:104940000843616A08436062A87A18B1606A40F05F
:1049500008006062E87A18B1606A40F001006062A5
:10496000A87910B146F0005601E026F000566069C3
:1049700030436061A669287C08B146F40026687C53
:1049800008B146F48026A66100205BE72E2E5C2E3F
:104990002E5C6C69627261726965735C64726976BF
:1049A0006572735C66736C5F6C70756172742E6394
:1049B00000000000636F6E6669670000636F6E66DB
:1049C00069672D3E62617564526174655F42707300
:1049D0000000000046534C5F464541545552455F28
:1049E0004C50554152545F4649464F5F53495A45D2
:1049F0006E286261736529203E3D20636F6E666993
:104A0000672D3E74784669666F57617465726D6193
:104A1000726B000046534C5F464541545552455F0A
:104A20004C50554152545F4649464F5F53495A4591
:104A30006E286261736529203E3D20636F6E666952
:104A4000672D3E72784669666F57617465726D6155
:104A5000726B0000629B006000001F402DE9F04770
:104A600006460C46904604B105E04FF42E722EA186
:104A700037A004F091F9B76907F4006028B907F08E
:104A8000100020B907F0020008B1012000E000206A
:104A9000814642E030E03046FFF75EFE054605F411
:104AA000002040B14FF400213046FFF7B1FD40F245
:104AB0001D50BDE8F08705F4802038B14FF4802107
:104AC0003046FFF7A5FD40F21E50F2E705F4003036
:104AD00038B14FF400313046FFF79AFD40F21F50D5
:104AE000E7E705F4803038B14FF480313046FFF706
:104AF0008FFD4FF4A460DCE7F06AC0F30260002889
:104B0000C9D0B9F1000F05D0F06900F07F0004F8BA
:104B1000010B02E0F06904F8010BB8F10000A8F104
:104B20000108B7D100BFC4E72E2E5C2E2E5C6C6945
:104B3000627261726965735C647269766572735CD6
:104B400066736C5F6C70756172742E630000000098
:104B5000646174610000000070B505460C4616469D
:104B600004B105E040F2A92209A113A004F014F950
:104B700008E000BF686900F400000028FAD014F8CB
:104B8000010BE861301EA6F10106F2D170BD0000F4
:104B90002E2E5C2E2E5C6C69627261726965735C8C
:104BA000647269766572735C66736C5F6C70756154
:104BB00072742E63000000006461746100000000E4
:104BC00010B50023244C236000BF00BF00BFBFF31B
:104BD0004F8F00BF00BF00BF1F4B703B1B6823F40B
:104BE00080331D4C703C236000BF00BF00BFBFF38B
:104BF0004F8F00BF00BF00BF174B1B1F1868C0F3CB
:104C00004E3100BFC0F3C90200BF43F6E07303EAB0
:104C100041134FF0404404EA827423430F4C236055
:104C200000BF00BF131EA2F10102EED10B1EA1F1C5
:104C30000101E7D100BF00BF00BFBFF34F8F00BF2E
:104C400000BF00BF00BF00BF00BFBFF36F8F00BF3A
:104C500000BF00BF10BD000084ED00E074EF00E075
:104C600010B50023234C236000BF00BF00BFBFF37B
:104C70004F8F00BF00BF00BF231F1868C0F34E3125
:104C800000BFC0F3C90200BF43F6E07303EA41135B
:104C90004FF0404404EA82742343174C236000BF62
:104CA00000BF131EA2F10102EED10B1EA1F1010102
:104CB000E7D100BF00BF00BFBFF34F8F00BF00BFF1
:104CC00000BF0C4B703B1B6843F48033094C703CB5
:104CD000236000BF00BF00BFBFF34F8F00BF00BF06
:104CE00000BF00BF00BF00BFBFF36F8F00BF00BF9A
:104CF00000BF10BD84ED00E060EF00E010B50023C0
:104D0000234C236000BF00BF00BFBFF34F8F00BF25
:104D100000BF00BF231F1868C0F34E3100BFC0F3AF
:104D2000C90200BF43F6E07303EA41134FF0404469
:104D300004EA82742343174C236000BF00BF131E94
:104D4000A2F10102EED10B1EA1F10101E7D100BFDA
:104D500000BF00BFBFF34F8F00BF00BF00BF0C4BB1
:104D6000703B1B6843F48033094C703C236000BFE8
:104D700000BF00BFBFF34F8F00BF00BF00BF00BF29
:104D800000BF00BFBFF36F8F00BF00BF00BF10BDEB
:104D900084ED00E060EF00E000BF00BF00BFBFF3A4
:104DA0004F8F00BF00BF00BF00BF00BF00BFBFF3F9
:104DB0006F8F00BF00BF00BF00201449086000BF14
:104DC00000BF00BFBFF34F8F00BF00BF00BF00BFD9
:104DD00000BF00BFBFF36F8F00BF00BF00BF0C4814
:104DE000006840F400300A49086000BF00BF00BFFF
:104DF000BFF34F8F00BF00BF00BF00BF00BF00BFA9
:104E0000BFF36F8F00BF00BF00BF704750EF00E0DF
:104E100014ED00E000BF00BF00BFBFF34F8F00BF25
:104E200000BF00BF00BF00BF00BFBFF36F8F00BF58
:104E300000BF00BF00201449086000BF00BF00BFD2
:104E4000BFF34F8F00BF00BF00BF00BF00BF00BF58
:104E5000BFF36F8F00BF00BF00BF0C48006840F475
:104E600000300A49086000BF00BF00BFBFF34F8F8A
:104E700000BF00BF00BF00BF00BF00BFBFF36F8F08
:104E800000BF00BF00BF704750EF00E014ED00E02E
:104E900010B50AA0FFF752F800F038F80E48FEF7F8
:104EA0007FFD0D48FDF718FD18B90CA0FFF746F877
:104EB00002E010A0FFF742F810BD00000D0A5344B5
:104EC0004341524420B6C1D0B4B2E2CAD4C0FDB30B
:104ED000CC2E0D0A00000000900000200D0A534463
:104EE0004341524420B2E2CAD4CDEAB3C92E0D0ADE
:104EF000000000000D0A53444341524420B2E2CA6C
:104F0000D4CAA7B0DC2E0D0A0000000070B5184C02
:104F1000FEF762F8174820600020FEF743FB0246C8
:104F20001548C1B2154BC958C0F34C33C0F3042522
:104F3000AB401940C0F30423D940491CB2FBF1F047
:104F40006060204601F070F828B10DA0FEF7F6FF72
:104F50004FF0FF3070BD204600F022FC28B10EA0BB
:104F6000FEF7ECFF4FF0FF30F4E70020F2E700001F
:104F70009000002000002C4024EB008000C00F4077
:104F80000D0A5344D6F7BBFAB3F5CABCBBAFCAA7E8
:104F9000B0DC0D0A000000000D0A5344B3F5CABC92
:104FA000BBAFCAA7B0DC0D0A00000000044B1A68B2
:104FB000002102E0024B1B68991A8142FAD3704724
:104FC0002C00002070B50020FEF710F94FF47A7124
:104FD000B0FBF1F4601EB0F1807F00D31BE0601ED7
:104FE0004FF0E021486148170F21002804DB0A0731
:104FF000130E094A135406E00A07150E074A00F07B
:105000000F031B1FD55400BF00204FF0E021886123
:105010000720086100BF70BD00E400E018ED00E06B
:10502000F8B504460D46002605B12E78C6B91948D4
:10503000006800906A4613211748FEF7FDFF4FF401
:105040000020154949690143134A516100BF4FF0DF
:10505000FF301146886100BF284600F025F816E0B1
:10506000022E0CD1012020B1A16A41F00801A162F9
:1050700003E0A16A21F00801A16200BF00BF402146
:10508000204602F005FE8021204602F001FE0020AD
:10509000F8BD0000A89B006000001C4010B504464D
:1050A0002046FFF783FF10BD70B504461325202D61
:1050B00000D204E0CA2210A118A003F06DFE1A4825
:1050C0000068E84000F0010001280AD000201749DC
:1050D000087084B1E06870B10020D4E903219047E2
:1050E00009E00120114908702CB1A06818B1012015
:1050F000A2682169904770BD2E2E5C2E2E5C6C69D3
:10510000627261726965735C647269766572735C00
:1051100066736C5F6770696F2E68000070696E203F
:105120003C2033320000000000001C403000002012
:1051300070B50446002500BF606A054605F0010011
:1051400028B164224FF00071204602F0E0FF05F024
:10515000020028B164224FF08061204602F0D7FFA0
:1051600070BD0000F8B504460E4625461748006895
:1051700000906A4618211648FEF75EFF1348001D8E
:10518000006800906A4618211148FEF755FF012279
:1051900018210F48FEF7C6FF0F20A86002212973CF
:1051A00080216973A9730821E973297405F1080145
:1051B000286802F033FE0748A862FFF703FF314674
:1051C0002868FFF72DFF0020F8BD0000AC9B0060B1
:1051D00000001C40D9510060FEB506460C46002573
:1051E000206868B1002000900190029002208DF8A4
:1051F000000001208DF8010007480190082002906E
:1052000022466946304603F003FC054615B1304698
:10521000FFF78EFF2846FEBD500300202DE9F04128
:10522000B0B004460D4616461F4600202E902F9023
:10523000242125A8FDF753FA142120A8FDF74FFAE1
:1052400080216846FDF74BFA4FF0010825960020B3
:10525000269001208DF89D0021972290CDF88CD0CA
:105260008DF8830025A82F9020A82E9001230222DC
:105270000A21204602F010FD28E02EA92046A8476A
:1052800020B140F2097030B0BDE8F0810120FFF795
:1052900005FF00BFE06B00F4800000B116E000BF26
:1052A000A06E00F0802078B1B8F1000F0CD04FF064
:1052B0000008012302220A21204602F0EDFC0A2107
:1052C000204602F09BFC00E001E000BFD5E700BFF4
:1052D0006420FFF7E3FE00BFE06B00F4000010B9AC
:1052E00040F22970CFE70020216C21F47061216425
:1052F000216C4FF4706202EA00221143216400BF66
:1053000000BFC0E730B58BB005460C4604B104E0E1
:1053100080220DA117A003F03FFD002009900A9004
:1053200024216846FDF7DBF900200090CDF828D055
:10533000099009A92846A04718B140F209700BB09E
:1053400030BD0020FBE700002E2E5C2E2E5C757316
:1053500065725C6273705C73646D6D635C737263C1
:105360005C66736C5F73646D6D635F636F6D6D6FAF
:105370006E2E63007472616E7366657200000000C9
:10538000F0B58BB007460C4615461E4604B104E046
:10539000312215A11FA003F0FFFC002009900A9004
:1053A00024216846FDF79BF9072000902EB12804C0
:1053B000019001208DF8090003E0002001908DF894
:1053C0000900CDF828D00020099009A93846A04747
:1053D00018B913490398084018B140F209700BB08E
:1053E000F0BD0020FBE700002E2E5C2E2E5C7573B6
:1053F00065725C6273705C73646D6D635C73726321
:105400005C66736C5F73646D6D635F636F6D6D6F0E
:105410006E2E63007472616E736665720000000028
:105420000800F9FF70B58CB006460C46154604B16D
:1054300004E0512215A120A003F0AEFC00200A9048
:105440000B90242101A8FDF74AF937200190280488
:10545000029001208DF80D0001A80B9000200A9009
:105460000AA93046A04718B916490498084018B14F
:1054700040F209700CB070BD049800F0200010B923
:1054800040F20C70F6E70020F4E700002E2E5C2EB0
:105490002E5C757365725C6273705C73646D6D63B2
:1054A0005C7372635C66736C5F73646D6D635F6382
:1054B0006F6D6D6F6E2E63007472616E73666572D0
:1054C000000000000800F9FF70B58CB006460C46DD
:1054D000154604B104E0932211A11CA003F05CFC6A
:1054E00000200A900B90242101A8FDF7F8F8102065
:1054F0000190029501208DF80D0001A80B9000206D
:105500000A900AA93046A04718B9134904980840E0
:1055100018B140F209700CB070BD0020FBE700002C
:105520002E2E5C2E2E5C757365725C6273705C73DC
:10553000646D6D635C7372635C66736C5F73646DE2
:105540006D635F636F6D6D6F6E2E63007472616E5D
:1055500073666572000000000800F9FF30B58BB07B
:1055600004460D4605B104E0BD2227A131A003F099
:1055700013FC002009900A9024216846FDF7AFF83B
:105580000B2000900020019001208DF80900CDF83B
:1055900028D00020099009A92046A84718B140F258
:1055A00009700BB030BD00BF606A00F0706010B1D0
:1055B00040F22A70F5E7012030B1D4F8C01041F074
:1055C0000201C4F8C01005E0D4F8C01021F00201B7
:1055D000C4F8C01000BF6420FFF760FD0121204621
:1055E00002F084FB0A20FFF759FD0021204602F05B
:1055F0007DFB00BF606A00F0706010B940F22A7055
:10560000CFE70020CDE700002E2E5C2E2E5C7573B8
:1056100065725C6273705C73646D6D635C737263FE
:105620005C66736C5F73646D6D635F636F6D6D6FEC
:105630006E2E63007472616E736665720000000006
:1056400010B58CB0044604B105E04FF46C7215A19E
:105650001DA003F0A1FB00200A900B90242101A8BB
:10566000FDF73DF8022001900020029003208DF804
:105670000D0001A80B9000200A900AA9A26A2068D8
:10568000904758B904A80FC848340FC4583C04A91F
:10569000204600F07BF900200CB010BD40F20970EC
:1056A000FAE700002E2E5C2E2E5C757365725C622C
:1056B00073705C73646D6D635C7372635C66736C52
:1056C0005F73642E63000000636172640000000079
:1056D000F0B58BB004460D4604B105E04FF472728C
:1056E00024A12DA003F058FB002009900A9024214A
:1056F0006846FCF7F4FF01264FF47A7729200090E2
:10570000019504208DF809002CE00021204601F0CD
:10571000D9F800B126E0CDF828D00020099009A9D9
:10572000A26A2068904718B140F209700BB0F0BD32
:10573000039800F0004098B1039800F0804018B141
:10574000606C40F002006064039800F0807018B153
:10575000606C40F02000606400260398206705E03C
:10576000052600BF381EA7F10107CED100BF304685
:10577000DCE700002E2E5C2E2E5C757365725C6279
:1057800073705C73646D6D635C7372635C66736C81
:105790005F73642E630000006361726400000000A8
:1057A0002DE9F041044604B105E040F20E625FA12C
:1057B00067A003F0F1FA002594F8340018B940F21C
:1057C0002E70BDE8F081002060640021206802F0A6
:1057D00048FF614AD4E9000103F01AF8A06364218C
:1057E000206802F029FF04F11401206802F08EFA0B
:1057F000204600F0F3FB10B140F21370E1E745F4EE
:105800004015012084F8BB0045F08075204601F06A
:10581000C9F830B945F08045606C40F0080060641C
:1058200006E0204600F0DAFB10B140F21370C8E742
:1058300029462046FFF74CFF10B140F21470C0E734
:1058400094F8440000F0200048B1204601F01EFB0F
:1058500010B140F22570B4E7032084F8BB00204665
:10586000FFF7EEFE10B140F20D70AAE7204601F0FE
:10587000E7F810B140F20E70A3E7204601F04AF8B5
:1058800010B140F20F709CE70121204600F014FF98
:1058900010B14FF4E26094E7204601F013F910B123
:1058A00040F211708DE72D4AD4E9000102F0B0FFFB
:1058B000A0632420005D00F0100080B194F8440043
:1058C00000F0040058B10121204601F07BF910B12D
:1058D00040F2127075E70121206802F0C2FE94F8D0
:1058E000B910204601F0C6F994F8BA10204601F02C
:1058F000EDF926464FF4007706B105E040F2631259
:1059000017A120A003F048FA3A46B16A3068FFF7C1
:10591000DBFD10B140F20A7053E7204600F030FD85
:1059200010B140F21B704CE700204AE72E2E5C2E8F
:105930002E5C757365725C6273705C73646D6D630D
:105940005C7372635C66736C5F73642E630000004B
:105950006361726400000000801A060040787D01D7
:105960002E2E5C2E2E5C757365725C6273705C7398
:10597000646D6D635C7372635C66736C5F73642EDD
:1059800063000000636172640000000070B50646A9
:105990000C4606B105E040F2973219A121A003F0B0
:1059A000FBF904B105E04FF4667215A11FA003F0E6
:1059B000F3F906F17405E068000E2870E068C0F3A2
:1059C0000F206880207B2871A068010E6971A06893
:1059D000010CA9712089010AE971217A2972606894
:1059E000000E687260680002E860E868216840EABA
:1059F0001160E8602068C0F30B20288270BD0000B1
:105A00002E2E5C2E2E5C757365725C6273705C73F7
:105A1000646D6D635C7372635C66736C5F73642E3C
:105A200063000000636172640000000072617743EC
:105A30006964000070B506460D4606B105E040F207
:105A4000193276A17EA003F0A7F905B105E040F276
:105A50001A3272A17CA003F09FF906F18804E8686D
:105A6000800F2070E868000C6070A889000AA070A0
:105A7000287BE070A868000DA080A868C0F30340F0
:105A8000A071288900F4004018B1208940F001007D
:105A90002081288900F4804018B1208940F001005D
:105AA0002081288900F4005018B1208940F00400BA
:105AB0002081288900F4805018B1208940F0080026
:105AC0002081207810B1012859D13CE02889800537
:105AD000000DE060E068696840EA9170E060686825
:105AE000C0F3C26020746868C0F3026060746868C4
:105AF00000F46000000DA0746868C0F38240E07498
:105B00006868C0F3C2302075E068401C217D891CA4
:105B1000884046F8B00FA179012088407060706815
:105B2000B03EB0F5007F0DD056F8B00F7168484315
:105B300030604FF400707060D6E90001B0FBF1F006
:105B400046F8B0091CE04FF40070C6F8B400287A9B
:105B50008006800AE060E068696840EA1140E06021
:105B60004FF6FF71E068884203D3706C40F010007C
:105B70007064E068401C8002C6F8B00000E000BF1E
:105B800000BFA888C0F3803018B1208940F0100011
:105B90002081A888C0F3C6106075287900F07F00C6
:105BA000A0752878002018B1208940F020002081BD
:105BB0002868C0F38260E0752868C0F383502076BF
:105BC0002868C0F3405018B1208940F0400020817F
:105BD0002888C0F3C03018B1208940F080002081AF
:105BE0002888C0F3803018B1208940F4807020816B
:105BF0002888C0F3403018B1208940F4007020811B
:105C00002888C0F3003018B1208940F480602081DA
:105C10002888C0F38120607670BD00002E2E5C2E97
:105C20002E5C757365725C6273705C73646D6D631A
:105C30005C7372635C66736C5F73642E6300000058
:105C40006361726400000000726177437364000056
:105C500070B504460E4604B105E040F2122236A1AA
:105C60003EA003F099F806B105E040F2132232A1FC
:105C70003CA003F091F804F1A4053068000F2870EF
:105C80003068C0F3036068703068C0F3C05018B16A
:105C9000688840F0010068803068C0F302502871C5
:105CA0003068C0F3034068713088C0F3C03018B169
:105CB000688840F002006880308800F4F040800A74
:105CC000A871307800F00300E8717068A860687807
:105CD00020B1012805D0022810D105E00120206460
:105CE0000DE0022020640AE004202064A620005D6C
:105CF00000F0020008B10820206400E000BF00BFEF
:105D0000A920005D00F0040018B1606C40F00400B0
:105D10006064AB20005D00F0010018B1606C40F0E1
:105D200080006064AB20005D00F0020018B1606C80
:105D300040F04000606470BD2E2E5C2E2E5C7573AA
:105D400065725C6273705C73646D6D635C737263C7
:105D50005C66736C5F73642E630000006361726441
:105D60000000000072617753637200002DE9F0417A
:105D70008CB004460F46164604B105E040F22D52A1
:105D800036A13FA003F008F806B105E040F22E521C
:105D900032A13DA003F000F800200A900B902421CE
:105DA00001A8FCF79CFC00BF2068416A01F08070EC
:105DB000B0F1807FF8D1204601F004F920B14FF412
:105DC000E3600CB0BDE8F0813D46A819A0F10108E0
:105DD00094F8440000F0020010B96D024FEA482820
:105DE00020200190029501208DF80D00294808908F
:105DF00001A80B9000200A9001220AA9204601F078
:105E00006BF810B140F20970DBE721200190CDF86A
:105E1000088001A80B9000200A9000220AA92046C1
:105E200001F05AF810B140F20970CAE7262001903B
:105E30000020029002208DF80D001648089001A85D
:105E40000B9000200A9000220AA9204601F044F895
:105E500010B140F20970B4E70020B2E72E2E5C2E9C
:105E60002E5C757365725C6273705C73646D6D63D8
:105E70005C7372635C66736C5F73642E6300000016
:105E80006361726400000000626C6F636B436F7546
:105E90006E7400000800F9FF2DE9F04704460F4634
:105EA000164604B105E040F2E9521EA126A002F018
:105EB00073FF06B105E040F2EA521AA124A002F0F5
:105EC0006BFFF019D4F8B010884200D805E040F21A
:105ED000EB5214A121A002F05FFF4FF000093546FC
:105EE0001BE09D20005D401CA84206D29D20005D65
:105EF00000F10108A5EB080501E0A846002507EB25
:105F0000090142462046FFF731FF8246BAF1000FF1
:105F100002D05046BDE8F087C144002DE1D10020F9
:105F2000F8E700002E2E5C2E2E5C757365725C62A5
:105F300073705C73646D6D635C7372635C66736CC9
:105F40005F73642E630000006361726400000000F0
:105F5000626C6F636B436F756E74000028626C6FC8
:105F6000636B436F756E74202B207374617274427F
:105F70006C6F636B29203C3D20636172642D3E622F
:105F80006C6F636B436F756E7400000010B5044650
:105F900004B105E04FF4B57205A10EA002F0FCFEBD
:105FA00040231322A16A2068FFF738F910BD0000D2
:105FB0002E2E5C2E2E5C757365725C6273705C7342
:105FC000646D6D635C7372635C66736C5F73642E87
:105FD00063000000636172640000000010B50446B5
:105FE00004B105E04FF4AE7204A10DA002F0D4FE9E
:105FF000A16A2068FFF786F910BD00002E2E5C2EE6
:106000002E5C757365725C6273705C73646D6D6336
:106010005C7372635C66736C5F73642E6300000074
:10602000636172640000000010B5044604B105E02D
:106030004FF4D36209A112A002F0AEFE94F834002E
:1060400030B92046E16AFFF78DF808B1012010BD94
:10605000012084F834000020F9E700002E2E5C2E89
:106060002E5C757365725C6273705C73646D6D63D6
:106070005C7372635C66736C5F73642E6300000014
:1060800063617264000000002DE9F04391B00546A1
:106090000E4690461C46DDF8609005B105E040F2E2
:1060A000A94241A149A002F077FE06B105E040F205
:1060B000AA423DA147A002F06FFEB9F1000F00D047
:1060C00005E040F2AB4238A144A002F065FEB4F511
:1060D000007F00D105E040F2AC4233A142A002F0C3
:1060E0005BFE00200F901090242106A8FCF7F7FA21
:1060F000142101A8FCF7F3FA95F8440000F002001F
:1061000010B1B4F5007F09D1D5F8B400A04205D391
:10611000E869A04202D304F0030020B140F20C7001
:1061200011B0BDE8F083284600F04CFF10B14FF4E9
:10613000E360F5E70294CDF80C90049601208DF809
:106140000400122006900398012801D11120069026
:10615000CDF81C8095F8440000F0020018B90299AF
:1061600007984843079001208DF8210029480D9099
:1061700006A8109001A80F9001220FA9284600F050
:10618000ABFE07460FB13846CAE70398012809D984
:106190009DF8040030B9284600F0C4FD10B140F26B
:1061A0001770BDE70020BBE72E2E5C2E2E5C7573AA
:1061B00065725C6273705C73646D6D635C73726353
:1061C0005C66736C5F73642E6300000063617264CD
:1061D000000000006275666665720000626C6F63A5
:1061E0006B436F756E740000626C6F636B53697AFA
:1061F00065203D3D2046534C5F53444D4D435F4425
:10620000454641554C545F424C4F434B5F53495AAE
:10621000450000000800F9FF2DE9FC5F04460F4629
:106220009246984604B105E040F27B5237A140A067
:1062300002F0B2FD07B105E040F27C5233A13EA06E
:1062400002F0AAFDB8F1000F00D005E040F27D5247
:106250002EA13BA002F0A0FD08EB0A00D4F8B0107C
:10626000884200D805E040F27E5228A137A002F013
:1062700093FD0026BB464FF00109454641E007EB80
:10628000462B94F8350078B9B9F1000F02D00BF025
:10629000030048B16D1E0120019041023748FCF710
:1062A0001EFA4FF0000909E0206AA84204D2206AD1
:1062B0002D1A206A019001E00195002501980AEB52
:1062C00006020090B9F1000F01D0584600E02B48BB
:1062D00001464FF400732046FFF7D6FE18B140F296
:1062E0000970BDE8FC9F0198064494F8350040B958
:1062F000B9F1000F05D14FF4007220495846FCF760
:10630000C7F9002DBBD10020EBE700002E2E5C2E3C
:106310002E5C757365725C6273705C73646D6D6323
:106320005C7372635C66736C5F73642E6300000061
:106330006361726400000000627566666572000049
:10634000626C6F636B436F756E74000028626C6FD4
:10635000636B436F756E74202B207374617274428B
:106360006C6F636B29203C3D20636172642D3E623B
:106370006C6F636B436F756E740000004C010020FE
:106380007CB5044604B105E040F21F42B9A1C2A0A9
:1063900002F002FD40F21B7594F8BB0003281BD0ED
:1063A000606A00F40010A8B101220021204600F02C
:1063B000ABF905464DB9012084F8B800B84AD4E9D4
:1063C000000102F025FAA0635CE0B5F5E16F59D158
:1063D00000207CBD0020FCE794F8B80005284FD2CF
:1063E000DFE800F0033D2C04160000BF032200216B
:1063F000204600F089F905464DB9032084F8B8001D
:10640000A84AD4E9000102F003FAA06339E000BF12
:1064100004220021204600F077F905466DB90420DA
:1064200084F8B8009E4AD4E9000102F0F1F9A063B3
:1064300000220121206801F0FBFB22E00222002162
:10644000204600F061F9054645B9022084F8B800FD
:10645000944AD4E9000102F0DBF9A06311E00122C3
:106460000021204600F050F9054645B9012084F886
:10647000B8008B4AD4E9000102F0CAF9A06300E039
:1064800000BF00BF94F8B800022803D094F8B80009
:1064900003287DD194F8B800022846D18248834968
:1064A00000231A46CDE9001019468148FDF778FE11
:1064B00080487E49091D00231A46CDE9001019467F
:1064C0007B48001DFDF76CFE7748784908310023B2
:1064D0001A46CDE90010194675480830FDF760FEF0
:1064E000714872490C3100231A46CDE90010194653
:1064F0006F480C30FDF754FE6B486C490839002397
:106500001A46CDE90010194669480838FDF748FEDB
:1065100065486649091F00231A46CDE9001019464F
:106520006348001FFDF73CFE4DE05F4840305F4987
:1065300000231A46CDE9001019465D48FDF730FEEC
:106540005C4840305949091D00231A46CDE9001026
:1065500019465748001DFDF723FE53484030534964
:10656000083100231A46CDE900101946504808307A
:10657000FDF716FE4C4840304C490C3100231A46BA
:10658000CDE9001019464A480C30FDF709FE00E03D
:1065900020E0454840304549083900231A46CDE9F6
:1065A0000010194642480838FDF7FAFD3E484030D1
:1065B0003E49091F00231A46CDE9001019463C4800
:1065C000001FFDF7EDFD2046FFF7E0FCF0B340F2C1
:1065D0002970FEE634481838344900231A46CDE9BC
:1065E000001019463248FDF7DBFD324818382F49B4
:1065F000091D00231A46CDE9001019462C48001D3C
:10660000FDF7CEFD284818382849083100231A46DE
:10661000CDE90010194626480830FDF7C1FD224893
:10662000183822490C3100231A46CDE900101946CA
:106630001F480C30FDF7B4FD1B4818381B490839BA
:1066400000231A46CDE90010194600E010E0184872
:106650000838FDF7A5FD144818381449091F002310
:106660001A46CDE9001019461148001FFDF798FDA4
:106670002846AEE62E2E5C2E2E5C757365725C622B
:1066800073705C73646D6D635C7372635C66736C72
:106690005F73642E63000000636172640000000099
:1066A00080F0FA0200E1F505B9700100B8821F40E0
:1066B00044811F40B900010070B504460D4604B185
:1066C00005E04FF4A77205A10DA002F065FB2B4673
:1066D000E26BA16A2068FEF753FE70BD2E2E5C2E81
:1066E0002E5C757365725C6273705C73646D6D6350
:1066F0005C7372635C66736C5F73642E630000008E
:1067000063617264000000002DE9FF4105460E46FA
:10671000174605B105E040F286225EA166A002F0B0
:106720003BFB674C002001900290039080464FF4A1
:1067300000712046FBF7D3FF286C012804D98C2078
:10674000405B00F4806020B94FF4E16004B0BDE824
:10675000F0813B46324600212846009400F028FB99
:1067600010B140F20970F1E7287B98B1012812D0EE
:10677000022825D1206800BA2060606800BA6060F5
:10678000A06800BAA060E06800BAE060206900BAC2
:10679000206118E017E02068FBF73CFE206060688D
:1067A000FBF738FE6060A068FBF734FEA060E0688D
:1067B000FBF730FEE0602069FBF72CFE206102E071
:1067C0004FF4E160C2E700BF208880B2ADF80E0050
:1067D0006068000CADF80C00A08880B2ADF80A002B
:1067E000A068000CADF80800208980B2ADF8060062
:1067F000E068000CADF80400207B0002216940EA4B
:10680000116801A830F816000121B940084030B1E4
:10681000B00028FA00F000F00F00B84202D04FF4A8
:10682000E16093E73B46324601212846009400F0A0
:10683000BFFA10B140F2097088E7287B50B10128F7
:1068400009D0022810D1E06800BAE060206900BADF
:1068500020610CE00BE0E068FBF7DCFDE060206904
:10686000FBF7D8FD206102E04FF4E1606EE700BF66
:10687000207B0002216940EA1168B00028FA00F08C
:1068800000F00F00B84202D040F216705EE7002020
:106890005CE700002E2E5C2E2E5C757365725C62C8
:1068A00073705C73646D6D635C7372635C66736C50
:1068B0005F73642E63000000636172640000000077
:1068C0004C01002070B504460D4604B105E040F2CD
:1068D000551205A10DA002F05FFA2A46A16A2068B0
:1068E000FEF7A0FD70BD00002E2E5C2E2E5C757391
:1068F00065725C6273705C73646D6D635C7372630C
:106900005C66736C5F73642E630000006361726485
:106910000000000010B58CB0044604B105E040F260
:106920007E3215A11DA002F037FA00200A900B90CC
:10693000242101A8FBF7D3FE09200190A08F0004B9
:10694000029003208DF80D0001A80B9000200A9002
:106950000AA9A26A2068904758B904A80FC85834F9
:106960000FC4683C04A92046FFF764F800200CB06F
:1069700010BD40F20970FAE72E2E5C2E2E5C757366
:1069800065725C6273705C73646D6D635C7372637B
:106990005C66736C5F73642E6300000063617264F5
:1069A0000000000070B58CB0044604B105E040F270
:1069B000FA3218A120A002F0EFF900200A900B9003
:1069C000242101A8FBF78BFE0A25082001904FF433
:1069D000D570029009208DF80D0001A80B900020C1
:1069E0000A9000BF0AA9A26A2068904710B140F23D
:1069F000097607E00498C0B2AA2802D040F20C76CB
:106A000000E00026681E051E01D0002EEAD13046A7
:106A10000CB070BD2E2E5C2E2E5C757365725C62A0
:106A200073705C73646D6D635C7372635C66736CCE
:106A30005F73642E630000006361726400000000F5
:106A400010B58CB0044604B105E04FF4EF7212A10A
:106A50001AA002F0A1F900200A900B90242101A8AD
:106A6000FBF73DFE032001900020029008208DF8E6
:106A70000D0001A80B9000200A900AA9A26A2068C4
:106A8000904728B90498000CE06300200CB010BDBA
:106A900040F20970FAE700002E2E5C2E2E5C757312
:106AA00065725C6273705C73646D6D635C7372635A
:106AB0005C66736C5F73642E6300000063617264D4
:106AC0000000000030B591B0054605B105E04FF477
:106AD00013722FA137A002F05FF900200F901090E1
:106AE000242106A8FBF7FBFD142101A8FBF7F7FD05
:106AF000324C4FF400712046FBF7F1FD2846E96B5C
:106B0000FFF7E0FE18B140F2157011B030BD332030
:106B1000069001208DF821000020079008200290A7
:106B200001200390049401A80F9006A810900FA9CB
:106B3000AA6A2868904718B921490998084010B1F5
:106B400040F20970E1E7287B50B1012809D0022802
:106B500010D1206800BA2060606800BA60600CE064
:106B60000BE02068FBF756FC20606068FBF752FCE6
:106B7000606002E04FF4E160C7E700BFD4E90001C4
:106B8000C5E91A0121462846FFF762F80020BCE754
:106B90002E2E5C2E2E5C757365725C6273705C7356
:106BA000646D6D635C7372635C66736C5F73642E9B
:106BB0006300000063617264000000004C0100206B
:106BC0000800F9FF30B58BB004460D4604B105E06E
:106BD0004FF43D721BA124A002F0DEF800200990C2
:106BE0000A9024216846FBF77AFD2046E16BFFF707
:106BF00069FE18B140F215700BB030BD0620009050
:106C000001208DF8090015B1012D06D102E0002008
:106C1000019004E00220019001E00420ECE700BFB5
:106C2000CDF828D00020099009A9A26A20689047D1
:106C300018B90F490398084010B140F20970DBE71A
:106C40000020D9E72E2E5C2E2E5C757365725C6277
:106C500073705C73646D6D635C7372635C66736C9C
:106C60005F73642E630000006361726400000000C3
:106C70000800F9FF2DE9F04104460D4604B105E096
:106C800040F2914206A10FA002F086F82E4632464D
:106C900002212046FFF738FD07463846BDE8F0815F
:106CA0002E2E5C2E2E5C757365725C6273705C7345
:106CB000646D6D635C7372635C66736C5F73642E8A
:106CC0006300000063617264000000002DE9F04180
:106CD00004460D4604B105E040F29D4206A10FA016
:106CE00002F05AF82E46324603212046FFF70CFDEB
:106CF00007463846BDE8F0812E2E5C2E2E5C75735B
:106D000065725C6273705C73646D6D635C737263F7
:106D10005C66736C5F73642E630000006361726471
:106D20000000000010B58CB0044604B105E040F24C
:106D3000C71213A11BA002F02FF800200A900B909D
:106D4000242101A8FBF7CBFC0C200190002002902D
:106D500003208DF80C0002208DF80D0013480890D8
:106D600001A80B9000200A9001220AA9204600F0F9
:106D7000B3F818B140F209700CB010BD0020FBE769
:106D80002E2E5C2E2E5C757365725C6273705C7364
:106D9000646D6D635C7372635C66736C5F73642EA9
:106DA0006300000063617264000000000800F9FFE6
:106DB0002DE9F04190B004460E4615469846169FC0
:106DC00004B105E04FF4FA7222A12BA001F0E4FF18
:106DD00007B105E040F2F5121EA129A001F0DCFF89
:106DE00000200E900F90242105A8FBF778FC1421B9
:106DF0006846FBF774FC062005906FF07F4040EA80
:106E0000C6700690AA000F2191400698884306900C
:106E1000A90008FA01F106980843069001208DF8B0
:106E20001D004020019001200290039705A80F90BB
:106E3000CDF838D00EA9A26A2068904718B9124937
:106E40000898084020B140F2097010B0BDE8F08108
:106E50000020FAE72E2E5C2E2E5C757365725C6244
:106E600073705C73646D6D635C7372635C66736C8A
:106E70005F73642E630000006361726400000000B1
:106E800073746174757300000800F9FF10B504464F
:106E900004B105E040F2711204A10DA001F07CFFE5
:106EA000A16A2068FEF75AFB10BD00002E2E5C2E52
:106EB0002E5C757365725C6273705C73646D6D6378
:106EC0005C7372635C66736C5F73642E63000000B6
:106ED00063617264000000002DE9F04104460E4633
:106EE0001746A06A00B105E04FF4BC7224A12DA0A2
:106EF00001F052FF06B105E040F2791220A12EA068
:106F000001F04AFF00BF3146A26A2068904705465B
:106F100041F66910854207D0401C854204D0706854
:106F2000C06827490840C8B194F8B800032803D0C6
:106F300094F8B800022811D141F66A10854205D1B3
:106F400064224FF0B051206801F0E1F82046FFF7CD
:106F50001DF810B140F2297503E007E00DB140F2D1
:106F600009750FB17F1E00E005E000BF1DB140F2C2
:106F700029708542C7D100BF2846BDE8F0810000D6
:106F80002E2E5C2E2E5C757365725C6273705C7362
:106F9000646D6D635C7372635C66736C5F73642EA7
:106FA00063000000636172642D3E686F73742E7419
:106FB00072616E7366657200636F6E74656E7400E5
:106FC0000800F9FF10B58CB0044604B105E04FF499
:106FD000D47219A121A001F0DFFE00200A900B90CD
:106FE000242101A8FBF77BFB0D200190A08F00045A
:106FF000029001208DF80D001A48089000BF01A8EA
:107000000B9000200A9002220AA92046FFF764FF95
:1070100018B140F209700CB010BD049800F48070F3
:1070200028B10498C0F34320072800D000E0E6E729
:1070300000BF0020EFE700002E2E5C2E2E5C757343
:1070400065725C6273705C73646D6D635C737263B4
:107050005C66736C5F73642E63000000636172642E
:10706000000000000800F9FF2DE9F04391B004464C
:107070000E4690461D46DDF8609004B105E040F2F2
:10708000E94245A14DA001F087FE06B105E040F2BE
:10709000EA4241A14BA001F07FFEB9F1000F00D000
:1070A00005E040F2EB423CA148A001F075FEB5F5C9
:1070B000007F00D105E040F2EC4237A146A001F08C
:1070C0006BFE00200F901090242106A8FBF707FB11
:1070D000142101A8FBF703FB94F8440000F0020020
:1070E00010B1B5F5007F09D1D4F8B400A84205D39A
:1070F000E069A84202D305F0030020B140F20C7011
:1071000011B0BDE8F08300BF2068416A01F08070D3
:10711000B0F1807FF8D12046FFF754FF10B14FF453
:10712000E360EDE70295CDF80C90059601208DF80F
:107130000400192006900398012801D11820069018
:10714000CDF81C8094F8440000F0020018B90299B0
:1071500007984843079001208DF8210029480D9099
:1071600006A8109001A80F9001220FA92046FFF752
:10717000B3FE07460FB13846C2E70398012809D984
:107180009DF8040030B92046FFF7CCFD10B140F265
:107190001770B5E70020B3E72E2E5C2E2E5C7573BA
:1071A00065725C6273705C73646D6D635C73726353
:1071B0005C66736C5F73642E6300000063617264CD
:1071C000000000006275666665720000626C6F63A5
:1071D0006B436F756E740000626C6F636B53697AFA
:1071E00065203D3D2046534C5F53444D4D435F4425
:1071F000454641554C545F424C4F434B5F53495AAF
:10720000450000000800F9FF2DE9FC5F04468946AF
:1072100092461F4604B105E040F2B35236A13FA0AA
:1072200001F0BAFDB9F1000F00D005E040F2B45210
:1072300031A13CA001F0B0FD07B105E040F2B5522C
:107240002DA13AA001F0A8FD07EB0A00D4F8B01078
:10725000884200D805E040F2B65227A136A001F0DE
:107260009BFD00264FF001083D4641E009EB462B0F
:1072700094F8350080B9B8F1000F02D00BF003008C
:1072800050B16D1E01200190420259463648FBF76D
:10729000FFF94FF0000809E0206AA84204D2206AF2
:1072A0002D1A206A019001E00195002501980AEB52
:1072B00006020090B8F1000F01D0584600E02A48BD
:1072C00001464FF400732046FFF7CEFE18B140F29E
:1072D0000970BDE8FC9F0198064494F8350038B960
:1072E000B8F1000F04D14FF400711F48FBF7F7F914
:1072F000002DBBD10020ECE72E2E5C2E2E5C75738A
:1073000065725C6273705C73646D6D635C737263F1
:107310005C66736C5F73642E63000000636172646B
:10732000000000006275666665720000626C6F6343
:107330006B436F756E74000028626C6F636B436FF4
:10734000756E74202B207374617274426C6F636B62
:1073500029203C3D20636172642D3E626C6F636B3B
:10736000436F756E740000004C0100202DE9FF4F43
:107370009BB01E460020119000270F900B900690A6
:107380000790DDF86C80FCE2252C05D0E2B20123E9
:107390000FA91D98B047F2E201200C9000250020B3
:1073A000109025E008F10100804600782B280DD0D0
:1073B00004DC20280DD0232814D110E02D2802D081
:1073C00030280FD108E045F0010510E045F0020536
:1073D0000DE045F004050AE045F0080507E045F03A
:1073E000100504E0A8F101080120109000BF00BFC3
:1073F00010980028D6D04FF000090020109019E016
:1074000008F1010080460478302C08DB392C06DCBA
:10741000A4F1300009EB890100EB41090AE02A2CB4
:1074200004D11C9850F8049B1C9003E0A8F10108BB
:107430000120109010980028E2D006200E90002025
:10744000059008F10100804600782E2829D10020FF
:107450000E90109021E008F1010080460478302C55
:107460000CDB392C0ADCA4F130000E9901EB810110
:1074700000EB41000E90012005900EE02A2C08D16F
:107480001C9800680E901C98001D1C90012005900F
:1074900003E0A8F101080120109010980028DAD02C
