:0200000460009A
:10000000464346420004015600000000000303007E
:1000100001010000010400000002000000000000D7
:1000200000000000000000000000000000000000D0
:1000300000000000000000000000000000000000C0
:1000400000000000010407000000000000000000A4
:10005000000000020000000000000000000000009E
:100060000000000000000000000000000000000090
:100070000000000000000000000000000000000080
:10008000EC04200A063204260000000000000000F4
:10009000050404240000000000000000000000002F
:1000A0000000000000000000000000000000000050
:1000B0000000000000000000000000000000000040
:1000C0000000000000000000000000000000000030
:1000D0000000000000000000000000000000000020
:1000E0000000000000000000000000000000000010
:1000F0000000000000000000000000000000000000
:1001000000000000000000000000000000000000EF
:1001100000000000000000000000000000000000DF
:1001200000000000000000000000000000000000CF
:1001300000000000000000000000000000000000BF
:1001400000000000000000000000000000000000AF
:10015000000000000000000000000000000000009F
:10016000000000000000000000000000000000008F
:10017000000000000000000000000000000000007F
:10018000000000000000000000000000000000006F
:10019000000000000000000000000000000000005F
:1001A000000000000000000000000000000000004F
:1001B000000000000000000000000000000000003F
:1001C000000100000010000000000000000000001E
:1001D000000000000000000000000000000000001F
:1001E000000000000000000000000000000000000F
:1001F00000000000000000000000000000000000FF
:0200000460009A
:10100000D10020410020006000000000301000608E
:1010100020100060001000600000000000000000D0
:10102000000000600000000200000000FFFFFFFF62
:10103000D2040041CC037C04400FC068FFFFFFFFD7
:10104000400FC06CFFFFFFFF400FC070FFFFFFFFAE
:10105000400FC074FFFFFFFF400FC078FFFFFFFF8E
:10106000400FC07CFFFFFFFF400FC080FFFFFFFF6E
:10107000400D803000002001400D8100001D000067
:10108000400FC01400020D40401F801400000000FB
:10109000401F801800000000401F801C000000005E
:1010A000401F802000000000401F8024000000003E
:1010B000401F802800000000401F802C000000001E
:1010C000401F803000000000401F803400000000FE
:1010D000401F803800000000401F803C00000000DE
:1010E000401F804000000000401F804400000000BE
:1010F000401F804800000000401F804C000000009E
:10110000401F805000000000401F8054000000007D
:10111000401F805800000000401F805C000000005D
:10112000401F806000000000401F8064000000003D
:10113000401F806800000000401F806C000000001D
:10114000401F807000000000401F807400000000FD
:10115000401F807800000000401F807C00000000DD
:10116000401F808000000000401F808400000010AD
:10117000401F808800000000401F808C000000009D
:10118000401F809000000000401F8094000000007D
:10119000401F809800000000401F809C000000005D
:1011A000401F80A000000000401F80A4000000003D
:1011B000401F80A800000000401F80AC000000001D
:1011C000401F80B000000000401F80B400000000FD
:1011D000401F80B800000000401F8204000000E1B2
:1011E000401F8208000000E1401F820C000000E167
:1011F000401F8210000000E1401F8214000000E147
:10120000401F8218000000E1401F821C000000E126
:10121000401F8220000000E1401F8224000000E106
:10122000401F8228000000E1401F822C000000E1E6
:10123000401F8230000000E1401F8234000000E1C6
:10124000401F8238000000E1401F823C000000E1A6
:10125000401F8240000000E1401F8244000000E186
:10126000401F8248000000E1401F824C000000E166
:10127000401F8250000000E1401F8254000000E146
:10128000401F8258000000E1401F825C000000E126
:10129000401F8260000000E1401F8264000000E106
:1012A000401F8268000000E1401F826C000000E1E6
:1012B000401F8270000000E1401F8274000000E1C6
:1012C000401F8278000000E1401F827C000000E1A6
:1012D000401F8280000000E1401F8284000000E186
:1012E000401F8288000000E1401F828C000000E166
:1012F000401F8290000000E1401F8294000000E146
:10130000401F8298000000E1401F829C000000E125
:10131000401F82A0000000E1401F82A4000000E105
:10132000401F82A8000000E1402F000010000004D0
:10133000402F000800030524402F000C060305245D
:10134000402F00108000001B402F00148200001B63
:10135000402F00188400001B402F000400007988F3
:10136000402F004000000F37402F00440065292225
:10137000402F004800010920402F004C50210A084E
:10138000402F008000000021402F008400888888C2
:10139000402F009400000002402F00980000000041
:1013A000402F009080000000402F009CA55A000FA5
:1013B000CF000C1C402F003C00000001CC001404A6
:1013C000402F009080000000402F009CA55A000C88
:1013D000CF000C1C402F003C00000001CC00140486
:1013E000402F009080000000402F009CA55A000C68
:1013F000CF000C1C402F003C00000001CC001C045E
:10140000402F00A000000033402F0090800000001B
:10141000402F009CA55A000ACF000C1C402F003C16
:1014200000000001CC000C04402F004C50210A09A0
:0200000460009A
:1020000000000120152400602D2400602F240060B2
:10201000312400603324006035240060000000009B
:1020200000000000000000000000000037240060F5
:1020300039240060000000003B240060F161006072
:102040003F24006043240060472400604B2400606C
:102050004F24006053240060572400605B2400601C
:102060005F24006063240060672400606B240060CC
:102070006F24006073240060772400607B2400607C
:102080007F240060F7240060F7240060F7240060DC
:1020900083240060872400608B2400608F2400600C
:1020A00093240060972400609B2400609F240060BC
:1020B000A3240060A7240060AB240060AF2400606C
:1020C000B3240060B7240060BB240060BF2400601C
:1020D000C3240060C7240060F7240060F724006078
:1020E000F7240060F7240060F7240060F724006004
:1020F000F7240060F7240060F7240060F7240060F4
:10210000F7240060F7240060F7240060F7240060E3
:10211000F7240060F7240060F7240060F7240060D3
:10212000CB240060CF240060D3240060D72400605B
:10213000DB240060F7240060F7240060F7240060CF
:10214000F7240060F7240060F7240060F7240060A3
:10215000F7240060F7240060F7240060F724006093
:10216000F7240060F7240060F7240060F724006083
:10217000F7240060F7240060F7240060F724006073
:10218000F7240060F7240060F7240060F724006063
:10219000F7240060F7240060F7240060F724006053
:1021A000F7240060F7240060DF240060F72400605B
:1021B000F7240060F7240060F7240060F724006033
:1021C000F7240060F7240060F7240060F724006023
:1021D000F7240060F7240060F7240060F724006013
:1021E000F7240060F7240060F7240060F724006003
:1021F000E3240060F7240060E7240060EB24006023
:10220000F7240060F7240060EF240060F13C0060D8
:10221000F7240060F7240060F7240060F7240060D2
:10222000F7240060F7240060F7240060F7240060C2
:10223000F7240060F7240060F7240060F7240060B2
:10224000F7240060F7240060F7240060F7240060A2
:10225000F7240060F7240060F7240060F724006092
:10226000F7240060F7240060F7240060F724006082
:10227000F7240060F7240060F7240060F724006072
:10228000F7240060F7240060F7240060F724006062
:10229000F7240060F7240060F7240060F724006052
:1022A000F7240060F7240060F7240060F724006042
:1022B000F7240060F7240060F7240060F724006032
:1022C000F7240060F7240060F7240060F724006022
:1022D000F7240060F7240060F7240060F724006012
:1022E000F7240060F7240060F7240060F724006002
:1022F000F7240060F7240060F7240060F7240060F2
:10230000F7240060F7240060F7240060F7240060E1
:10231000F7240060F7240060F7240060F7240060D1
:10232000F7240060F7240060F7240060F7240060C1
:10233000F7240060F7240060F7240060F7240060B1
:10234000F7240060F7240060F7240060F7240060A1
:10235000F7240060F7240060F7240060F724006091
:10236000F7240060F7240060F7240060F724006081
:10237000F7240060F7240060F7240060F724006071
:10238000F7240060F7240060F7240060F724006061
:10239000F7240060F7240060F7240060F724006051
:1023A000F7240060F7240060F7240060F724006041
:1023B000F7240060F7240060F7240060F724006031
:1023C000F7240060F7240060F7240060F724006021
:1023D000F7240060F7240060F7240060F724006011
:1023E000F7240060F7240060F7240060F724006001
:1023F000F7240060F7240060F7240060FFFFFFFF70
:10240000DFF80CD000F054FA00480047C5AD00607A
:102410000000012072B63948394901600A6882F328
:1024200008883848804762B637480047FEE7FEE72D
:10243000FEE7FEE7FEE7FEE7FEE7FEE7FEE73348DE
:102440000047334800473348004733480047334884
:102450000047334800473348004733480047334874
:102460000047334800473348004733480047334864
:102470000047334800473348004733480047334854
:102480000047334800473348004733480047334844
:102490000047334800473348004733480047334834
:1024A0000047334800473348004733480047334824
:1024B0000047334800473348004733480047334814
:1024C0000047334800473348004733480047334804
:1024D00000473348004733480047334800473348F4
:1024E00000473348004733480047334800473348E4
:1024F00000473348004733480047000008ED00E03C
:10250000002000604163006001240060F724006047
:10251000F7240060F7240060F7240060F7240060CF
:10252000F7240060F7240060F7240060F7240060BF
:10253000F7240060F7240060F7240060F7240060AF
:10254000F7240060F7240060F7240060F72400609F
:10255000A94F0060C54F0060E14F0060FD4F006073
:102560001950006035500060515000606D5000609F
:10257000F7240060F7240060F7240060F72400606F
:10258000F7240060F7240060F7240060F72400605F
:10259000F7240060F7240060F7240060F72400604F
:1025A000F7240060F7240060F7240060F72400603F
:1025B000F7240060F7240060F7240060F93D006014
:1025C000F7240060F72400602DE9F05F0546002045
:1025D00092469B4688460646814640241BE0284694
:1025E00041464746224600F0DFF853465A46C01A95
:1025F000914110D311461846224600F0C6F82D1A14
:1026000067EB01084F4622460120002100F0BDF88B
:1026100017EB00094E41201EA4F10104DFDC4846FF
:1026200031462A464346BDE8F09F2DE9F04100249B
:10263000061B254671F1000605DA01240027D0EBC0
:10264000070067EB0101161E73F1000605DA00278B
:10265000D2EB0702012567EB0303FFF7B5FF8646C0
:102660000E4617469C46AC4204D00025D0EB050E22
:1026700065EB010624B10020D2EB000760EB030CF0
:10268000704631463A466346BDE8F08110B5431ABC
:10269000934209D28318881803E010F8011D03F84B
:1026A000011D521EF9D210BD40EA01039B0703D061
:1026B00009E008C9121F08C0042AFAD203E011F881
:1026C000013B00F8013B521EF9D210BDD2B201E02D
:1026D00000F8012B491EFBD270470022F6E710B527
:1026E00013460A4604461946FFF7F0FF204610BD80
:1026F000421C10F8011B0029FBD1801A704730B52D
:1027000004460020034600E05B1C934203D2E05CD9
:10271000CD5C401BF8D030BD3EB5CA17CB0F0024AE
:1027200050405140C0186141DA0740F233430094F1
:10273000CDE901232246234600F055F803B030BD11
:1027400070B5C1F30A5201F000450024C1F3130132
:1027500040F2FF3341F480119A4202DA0020014630
:1027600070BD40F233439A42A2F2334203DC52423C
:1027700000F01AF801E000F008F82C43F0D0002334
:10278000D0EB030063EB010170BD202A04DB203A8B
:1027900000FA02F1002070479140C2F1200320FAB4
:1027A00003F3194390407047202A04DB203A21FAB2
:1027B00002F00021704721FA02F3D040C2F120025A
:1027C000914008431946704710B5141E73F1000478
:1027D00008DA401C41F1000192185B411A4301D113
:1027E00020F0010010BD2DE9F04D92469B4611B13D
:1027F000B1FA81F202E0B0FA80F220329046FFF79F
:10280000C4FF04460F4640EA0A0041EA0B01534662
:102810005A46084313D0114653EA010019D0C8F1B3
:1028200040025046FFF7C0FF05460E465046594647
:102830004246FFF7AAFF084305D0012004E02046E6
:102840003946BDE8F08D0020054346EAE0762C438A
:1028500037430A986305E40AA0EB08000022FD0A4A
:1028600044EA47540A3002D500200146E9E7010551
:1028700010196941DDE9084500196941BDE8F04DCD
:10288000A2E770B521F0004303430CD0C1F30A5511
:102890000024D5EB040564EB0403D617AD1AB3414D
:1028A00002DB0020014670BD201841EB025170BDD3
:1028B000064C074D06E0E06840F0010394E807008D
:1028C00098471034AC42F6D3FFF79EFD0C1F016011
:1028D0002C1F016010B54FF400406249086000BF32
:1028E00061486249086000BF0121614800F0A8FF0B
:1028F0000121604800F0A4FF5F48C06820F01F007D
:1029000040F012005C49C8605C4800F009FF0021FB
:102910005B4800F03FFF00215A4800F03BFF0321D5
:10292000594800F037FF0321584800F089FF002183
:10293000504800F085FF0021554800F02BFF002192
:102940004B4800F07DFF0121524800F023FF002199
:10295000514800F075FF0221504800F01BFF002194
:102960004F4800F06DFF02214E4800F013FF002198
:102970004D4800F065FF04214548FC3800F00AFF8F
:1029800002214A4800F05CFF0221494800F002FFA2
:102990000221484800F054FF0321474800F0FAFEA6
:1029A00001213C480C3000F0F5FE0021434800F0C6
:1029B00047FF03214048001D00F0ECFE012135488F
:1029C000103000F0E7FE00212948001D00F038FF1C
:1029D00003213B4800F0DEFE01213A4800F0DAFE18
:1029E00000213448001D00F02BFF0021364800F084
:1029F000D1FE0021354800F023FF0121344800F0CA
:102A0000C9FE022120480C3000F01AFF0121314894
:102A100000F0C0FE07212A48083000F0BBFE032169
:102A20002D4800F00DFF01212C4800F0B3FE0721D6
:102A30002848083800F0AEFE0321294800F000FFC6
:102A40000021284800F0FCFE00211248083000F068
:102A5000A1FE00211048083000F0F2FE03F0CCFB8C
:102A600010BD00000800002000366E0104000020A8
:102A7000186C0080143900140000084074130160C1
:102A800014EA000410E0004014680080187200800E
:102A900014FB00801CE007801C26008024EB0080D3
:102AA0001C30008024F000801C31008018640080FD
:102AB00024790080186E008028E600801C6A00805F
:102AC00028F6008028F0078038F30780383200802D
:102AD00020E2078030F900803074008028E900800F
:102AE000207300800C20008010B56148006800F45D
:102AF0000030B0F5003F2BD100BF00BF00BF00BFCA
:102B000000BFBFF34F8F00BF00BF00BF00BF00BFBB
:102B100000BFBFF36F8F00BF00BF00BF5448006805
:102B200020F400305249086000205249086000BF7C
:102B300000BF00BFBFF34F8F00BF00BF00BF00BF8B
:102B400000BF00BFBFF36F8F00BF00BF00BF00BF5B
:102B50004748006800F48030B0F5803F01D102F0B2
:102B6000CBFE00BF00BF00BF00BF00BFBFF34F8F51
:102B700000BF00BF00BF00BF00BF00BFBFF36F8F2B
:102B800000BF00BF00BF3A481030006820F480301A
:102B900037491031086036488030006820F0010065
:102BA00033498031086000BF3348314988310860BB
:102BB0003248091D08603248091F08602F48801CF0
:102BC000091D08602F48091F08602F48091D08606B
:102BD0001320091F08602948801C091D0860142063
:102BE000091F086028481A38091D08602748091F6E
:102BF000086025481A38091D08602548091F086023
:102C000021481838091D08601D48801D091F0860EB
:102C10001D480838091D08601E48091F08601E4825
:102C2000091D0860042000BF00BF00BF00BFBFF344
:102C30004F8F00BF00BF00BF00BF00BF00BFBFF38A
:102C40006F8F00BF00BF00BF40F00101084A803213
:102C5000116007491031096841F48031044A10328B
:102C6000116000BF02F0E6FE02F070FF10BD000030
:102C700014ED00E050EF00E0100000C03900100338
:102C800011000080120000603900030315000020CD
:102C9000160020201800E0812900080370B51648AE
:102CA000C1B2164A8958C0F34C32C0F304239A408B
:102CB0001140C0F30422D14061B9114800F000FC7A
:102CC0000621B0FBF1F50F4800F0D2FA401CB5FB2D
:102CD000F0F40FE000BF0C48006800F0100008B1ED
:102CE0000A4D01E00A480568064800F0C1FA401C98
:102CF000B5FBF0F4204670BD2426008000C00F40D4
:102D00000D00100024E0078070820D4000366E0137
:102D10000400002010B5FFF7C1FF0446234602223D
:102D20004FF4E131014800F05FFF10BD0040184052
:102D30001CB5044903C9CDE90001684600F0F0FC68
:102D40001CBD0000901301601CB540F2024000F071
:102D500017FA0020B24903460246CDE900100521CA
:102D6000B04802F045F80020AD490C310346024658
:102D7000CDE900100221AB480C3002F039F80020F8
:102D8000A749103103460246CDE900100221A548AB
:102D9000103002F02DF80120A14914310346A04A59
:102DA000C832CDE9001004219E48143002F020F80A
:102DB00000209B4918310123994AD432CDE90010F3
:102DC00001469848183002F013F8002094491C314D
:102DD0000123934AD032CDE90010014691481C30BE
:102DE00002F006F800208E49203101238C4AD832A7
:102DF000CDE9001001468B48203001F0F9FF00209A
:102E0000874924310123864ADC32CDE9001001468E
:102E10008448243001F0ECFF00208149283103462A
:102E20000246CDE9001001467E48283001F0E0FF5F
:102E300000207B492C3103460246CDE900100146B3
:102E400078482C3001F0D4FF00207549303103461A
:102E50000246CDE9001001467248303001F0C8FF4B
:102E600000206F49603103460246CDE9001005217C
:102E70006C48603001F0BCFF00206949091D012346
:102E8000674ACC32CDE9001004216648001D01F0EC
:102E9000AFFF00206249083103460246CDE9001029
:102EA00004216048083001F0A3FF4BF2A9005C49FF
:102EB00000231A46CDE9001005215A4801F092FF7F
:102EC00041F2B00056490C3100231A46CDE90010FA
:102ED000022154480C3001F085FF41F2B000504906
:102EE000103100231A46CDE9001002214D48103060
:102EF00001F078FF4BF2E900494914310123484AB7
:102F0000C832CDE9001004214648143001F06AFFB0
:102F10004BF2E900424918310123414AD432CDE94C
:102F2000001000213F48183001F05CFF4BF2E9002F
:102F30003B491C3101233A4AD032CDE9001000212F
:102F400038481C3001F04EFF4BF2E9003449203183
:102F50000123334AD832CDE9001000213148203016
:102F600001F040FF4BF2E9002D49243101232C4AA6
:102F7000DC32CDE9001000212A48243001F032FF74
:102F80004BF2E9002649283100231A46CDE900100A
:102F900019462448283001F025FF4BF2E90020496A
:102FA0002C3100231A46CDE9001019461D482C305B
:102FB00001F018FF4BF2E9001949303100231A469D
:102FC000CDE9001019461748303001F00BFF4BF2E5
:102FD000A9001349603100231A46CDE900100521EC
:102FE0001048603001F0FEFE4BF2E9000C49091D6B
:102FF00001230B4ACC32CDE9001004210948001D01
:1030000001F0F0FE4BF2E9000549083100231A46B1
:10301000CDE9001004210348083001F0E3FE1CBD97
:103020003C821F40C8801F402DE9F04104460E46F7
:10303000270A04F01F08062F00D805E040F2873267
:1030400008A111A003F0FCF9124800EB87052868DD
:10305000032101FA08F1884306FA08F108432860C1
:10306000BDE8F0812E2E5C2E2E5C6C69627261725E
:103070006965735C647269766572735C66736C5FB4
:10308000636C6F636B2E6800696E646578203C3DED
:103090002036000068C00F402DE9F04104460E467E
:1030A000270A04F01F08062F00D805E040F28732F7
:1030B00008A111A003F0C4F9124800EB87052868A5
:1030C000032101FA08F1884306FA08F10843286051
:1030D000BDE8F0812E2E5C2E2E5C6C6962726172EE
:1030E0006965735C647269766572735C66736C5F44
:1030F000636C6F636B2E6800696E646578203C3D7D
:103100002036000068C00F402DE9F04704462546F0
:1031100003274FEA152805F01F09B8F1060F00D85C
:1031200005E040F2873209A111A003F089F91348A4
:1031300000EB88063068032101FA09F1884307FA99
:1031400009F10843306000BFBDE8F0872E2E5C2EE9
:103150002E5C6C69627261726965735C6472697617
:103160006572735C66736C5F636C6F636B2E680073
:10317000696E646578203C3D2036000068C00F40D1
:103180002DE9F0470446254603274FEA152805F0A8
:103190001F09B8F1060F00D805E040F2873209A1F7
:1031A00011A003F04DF9134800EB880630680321A5
:1031B00001FA09F1884307FA09F10843306000BFBA
:1031C000BDE8F0872E2E5C2E2E5C6C6962726172F7
:1031D0006965735C647269766572735C66736C5F53
:1031E000636C6F636B2E6800696E646578203C3D8C
:1031F0002036000068C00F402DE9F0470446254600
:1032000003274FEA152805F01F09B8F1060F00D86B
:1032100005E040F2873209A111A003F011F913482B
:1032200000EB88063068032101FA09F1884307FAA8
:1032300009F10843306000BFBDE8F0872E2E5C2EF8
:103240002E5C6C69627261726965735C6472697626
:103250006572735C66736C5F636C6F636B2E680082
:10326000696E646578203C3D2036000068C00F40E0
:103270000146C8B2054A8058C1F34C32C1F3042359
:103280009A401040C1F30422D040704700C00F4064
:1032900070B50546142D72D2DFE805F00A0B15341F
:1032A00045494E53585D62676C72777C81868C927B
:1032B00000BF00F0A9F847494969C1F38221491CC0
:1032C000B0FBF1F483E04348406900F0400070B186
:1032D0004048406900F0800020B1012000F0EAF988
:1032E000044607E0022000F0AFF9044602E000F0D7
:1032F0008BF8044637484069C0F30240401CB4FBD9
:10330000F0F464E000F080F832494969C1F38221A9
:10331000491CB0FBF1F42F484069C0F30120401C68
:10332000B4FBF0F453E000F05FF804464FE000BF58
:103330004FF4004400BF4AE0274800F0C1F80446BB
:1033400045E0002000F0B6F9044640E0012000F01E
:10335000B1F904463BE0022000F0ACF9044636E047
:10336000032000F0A7F9044631E01C4800F0A8F85B
:1033700004462CE0002000F067F9044627E024E032
:10338000012000F061F9044621E0022000F05CF920
:1033900004461CE0032000F057F9044617E01048EB
:1033A00000F08EF8044612E00D48083000F088F86E
:1033B00004460CE00A48093000F082F8044606E0B2
:1033C000084800F07DF8044601E0002400BF00BF7B
:1033D000204670BD00C00F400D0010000D003000F1
:1033E0000D00E0000D0070000448006800F01000BF
:1033F00008B10348704703480068FBE770820D403E
:1034000000366E010400002010B52948406900F024
:10341000007040B32648806900F4405048B1B0F5D0
:10342000805F0BD0B0F5005F0CD0B0F5405F0ED1DF
:103430000EE0204800F044F804460BE0FFF7D4FF0C
:10344000044607E01C4800F03BF8044602E000BFD9
:10345000002400BF00BF16484069C0F3C260401C92
:10346000B4FBF0F422E01248806900F4402048B137
:10347000B0F5802F0BD0B0F5002F0DD0B0F5402F58
:1034800011D10EE00C4800F01BF804460DE00320BB
:1034900000F010F9044608E0032000F0D5F80446D7
:1034A00003E0064C01E0002400BF00BF204610BD31
:1034B00000C00F400D0010000D0030000065CD1D54
:1034C0002DE9FF478146594BD3E901021968DB68B2
:1034D00001AC0DC4009156494846C0F30B428A58CE
:1034E00000F01F070123BB401A400AB1012200E08F
:1034F00000221AB9002004B0BDE8F0874C4FC8463E
:10350000C8F30B403858C0F3813010B9FFF76CFF97
:1035100000E0002004464648C9F30B414158C1F37E
:10352000004109B12046E6E74249A9EB010089457F
:103530006BD00BDCA9F58010A0F10D0028B3B0F51D
:10354000001F08D0B0F5C00F6BD128E0082864D068
:10355000092866D163E03648D0F860C0006DA4FB4E
:1035600000700146624600233846FFF72DF80546F5
:103570002F48006B00F0010010B11620444302E018
:1035800004EB840084002C444DE02948006900F0DD
:10359000020008B1162000E01420444343E0244810
:1035A000006F00F07F0A22489030D0F800C0204819
:1035B000D0F88000A4FB0070014662460023384624
:1035C000FFF702F8054604FB0A541948006F00F49F
:1035D000C01018B1B0F5002F04D101E0A40802E03A
:1035E000640800E000BF00BF1348006813490840AA
:1035F000B0F5004F04D04942084418B9A40802E0CD
:10360000640800E000BF00BF0DE00B489038006880
:1036100000F0030A5DF82A4005E0094C03E0094C7C
:1036200001E0002400BF00BF204664E7EC12016007
:1036300000800D400D00E00070810D400080800092
:1036400040787D010065CD1D70B505461748FFF730
:1036500037FF044635B1012D0BD0022D10D0032DBC
:103660001CD114E01248006800F03F00B4FBF0F4F5
:1036700016E00F480068C0F30520B4FBF0F40FE03B
:103680000B480068C0F30540B4FBF0F408E00848BC
:103690000068C0F30560B4FBF0F401E0002400BF53
:1036A00000BF04EBC4004400204670BD0D00300094
:1036B00000810D4070B505461748FFF701FF04462D
:1036C00035B1012D0BD0022D10D0032D1CD114E0EB
:1036D0001248006800F03F00B4FBF0F416E00F4819
:1036E0000068C0F30520B4FBF0F40FE00B4800685D
:1036F000C0F30540B4FBF0F408E008480068C0F3EC
:103700000560B4FBF0F401E0002400BF00BF04EB4F
:10371000C4004400204670BD0D001000F0800D4034
:1037200010B5C27802F00301194A126822F440422F
:1037300042F4803203794FF4404404EA83331A435D
:10374000134B1A6002780AB141F4005182780AB131
:1037500041F4001142780AB141F480010C4A126828
:1037600041F203039A430A43094BE03BC3F8E020CC
:1037700000BF074A126802F00042002AF9D0044A4A
:10378000126822F48032024BE03BC3F8E02010BD07
:10379000E0800D4070B504460E463F2000EA946577
:1037A000E0B215494158C4F34C30C4F304229040B0
:1037B00021EA0000C4F3042206FA02F1C4F34C32F9
:1037C000C4F304239A4011400843E1B20A4A8850E6
:1037D000202D00D805E040F2653208A110A002F0CB
:1037E0002FFE202D07D000BF0348806C0121A94087
:1037F00008400028F8D170BD00C00F402E2E5C2E6E
:103800002E5C6C69627261726965735C6472697660
:103810006572735C66736C5F636C6F636B2E6800BC
:10382000627573795368696674203C3D2043434D4B
:103830005F4E4F5F425553595F5741495400000056
:1038400070B504460E463F2000EA9465E0B2154983
:103850004158C4F34C30C4F30422904021EA0000E4
:10386000C4F3042206FA02F1C4F34C32C4F3042375
:103870009A4011400843E1B20A4A8850202D00D8EE
:1038800005E04FF4507208A110A002F0D9FD202DE0
:1038900007D000BF0348806C0121A94008400028E0
:1038A000F8D170BD00C00F402E2E5C2E2E5C6C69CE
:1038B000627261726965735C647269766572735C69
:1038C00066736C5F636C6F636B2E680062757379EF
:1038D0005368696674203C3D2043434D5F4E4F5F03
:1038E000425553595F574149540000002DE9FF4F9D
:1038F0002DED0A8B87B0834616461F464FF0000910
:103900005D46002005F8010B129890ED000BB0EE1B
:1039100040BBB5EEC0BBF1EE10FA0AD130202870E2
:1039200009F10109484607B0BDEC0A8B04B0BDE8B7
:10393000F08F02A8B0EE4B0B02F0A4FDB0EE409B5E
:103940004FF0000A09E000EE106AB8EEC00B29EE55
:10395000000BB0EE409B0AF1010ABA45F3D3B5EE75
:10396000C0BBF1EE10FA19DBB6EE000B39EE008B9E
:1039700000EE107AB8EE401BB2EE040B02F0E4FD4C
:10398000B4EEC80BF1EE10FA23D89DED020BB7EEA2
:10399000001B30EE010B8DED020B1AE0B6EE000BB2
:1039A00039EE408B00EE107AB8EE401BB2EE040BFD
:1039B00002F0CAFDB1EE400BB4EEC80BF1EE10FA06
:1039C00007DB9DED020BB7EE001B30EE410B8DEDDA
:1039D000020B4FF0000A2FE000EE106AB8EEC00BA9
:1039E00088EE00AB51EC1A0BFEF7AAFEF317A0FB12
:1039F000062C01FB06C100FB0310CDE90020104698
:103A00000199FEF789FE41EC100B38EE40CBBDEE7C
:103A1000CC0B10EE104A002C05DA0494049CE04311
:103A200000F1310400E03034B0EE4A8B05F8014B70
:103A300009F101090AF1010ABA45CDD32E2005F892
:103A4000010B09F101099DED020BBDEEC00B10EE5B
:103A5000108AB8F1000F05D1302005F8010B09F1EB
:103A6000010918E014E098FBF6F00590059800FBBA
:103A70001684002C05DA0494049CE04300F1310420
:103A800000E03034DDF8148005F8014B09F101093C
:103A9000B8F1000FE7D1484645E72DE9FF4F89B05F
:103AA0001E4600200190DDF824B00BF8010B0B98A6
:103AB00000284DD00A98D0E90078002187EA01005B
:103AC00088EA0101084309D130208BF800000198F1
:103AD000401C019001980DB0BDE8F08F2FE03246F8
:103AE000F31738464146FEF7A0FDCDE90601F3176E
:103AF000DDE90601A0FB062C01FB06C103FB001358
:103B0000B91A68EB0300CDE904100023DDE90410C5
:103B1000C91A984107DA049CE143491C4FF0300070
:103B20000818049002E0049830300490DDE906782B
:103B300004980BF8010B019800F1010001904FF07F
:103B4000000187EA010088EA01010843C7D148E083
:103B50000A98D0E9009A002189EA01008AEA010165
:103B6000084307D130208BF800000198401C0190D9
:103B70000198B0E72DE03246F31748465146FEF76C
:103B800023FDCDE90201F317DDE90201A0FB062CBC
:103B900001FB06C100FB0310B9EB02046AEB000550
:103BA0000A21611A75F1000001D2303409E00A21BE
:103BB000601A65F10001169909B1412100E0612107
:103BC0004418DDE9029A0BF8014B019800F101005D
:103BD00001904FF0000189EA01008AEA01010843DF
:103BE000C9D1019877E700002DE9F04106460D465E
:103BF00014461F4604B104E0692206A111A002F098
:103C00001FFC3B462A462146304601F07FF9BDE8BD
:103C1000F08100002E2E5C2E2E5C6C696272617247
:103C20006965735C7574696C69746965735C6673E6
:103C30006C5F64656275675F636F6E736F6C652E32
:103C40006300000064657669636520213D2044457A
:103C50004255475F434F4E534F4C455F444556498D
:103C600043455F545950455F4E4F4E45000000009C
:103C70000FB430B5A1B00024002580216846FEF7BE
:103C80002CFD25A82090094B6A462099249801F024
:103C90009BFF04462146684601F05CF9054600207A
:103CA0002090284621B030BC5DF814FBB13C006088
:103CB0002DE9F04105460C4616461F464FF0000818
:103CC00000BF10E02068401C802805D328462168EA
:103CD00001F040F90020206020682E542068401C2C
:103CE000206008F10108B845ECDBBDE8F081000078
:103CF00010B5034801680348034A1268904710BD95
:103D00001000002000802D402000002070B50446E7
:103D10000D4605B905E040F2513207A10FA002F0AF
:103D20008FFB1DB94FF08070606103E04FF0807031
:103D3000606100BF00BF70BD2E2E5C2E2E5C6C69D2
:103D4000627261726965735C647269766572735CD4
:103D500066736C5F656E65742E63000072696E67D2
:103D60004964203C2046534C5F46454154555245DA
:103D70005F454E45545F515545554500416070477C
:103D800070B506467468304600F0BAF8054604F08F
:103D9000406030B1124850F825103046114A126880
:103DA000904704F0407030B10D4850F8251030466F
:103DB0000D4A1268904704F4C03030B1084850F8FA
:103DC00025103046094A126890470948204030B112
:103DD000034850F825103046064A1268904770BDD7
:103DE00010000020140000201800002020000020F7
:103DF00000007C601C00002010B50248FFF7C0FFE7
:103E000010BD000000802D402DE9F04104460D4614
:103E100005B105E040F6612216A11FA002F010FBDB
:103E20001F4E606800F40030B8B14FF4003060609D
:103E3000002020B1616A41F00C01616203E0616A17
:103E400021F00C01616200BFE86988B103222946B4
:103E50002046D5E90773B8470AE060680640666007
:103E6000E86928B1022229462046D5E90773B847F8
:103E7000BDE8F0812E2E5C2E2E5C6C696272617240
:103E80006965735C647269766572735C66736C5F96
:103E9000656E65742E63000068616E646C65000079
:103EA00000007C6010B5044604B105E04FF4AC722C
:103EB00008A111A002F0C4FA20212046FEF70DFC53
:103EC0000120A072E0722073207740F2EE50208132
:103ED00010BD00002E2E5C2E2E5C6C696272617229
:103EE0006965735C647269766572735C66736C5F36
:103EF000656E65742E630000636F6E66696700000F
:103F000070B50546002406E0094850F82400A84290
:103F100000D102E0641C002CF6D000BF04B905E01B
:103F20004FF4A87203A10CA002F08AFA204670BDDB
:103F3000701301602E2E5C2E2E5C6C6962726172B1
:103F40006965735C647269766572735C66736C5FD5
:103F5000656E65742E630000696E7374616E6365CF
:103F6000203C2041525241595F53495A4528735FC2
:103F7000656E657442617365732900002DE9F04137
:103F800005460E4605B105E040F24D4224A12DA0A4
:103F900002F056FA686800B105E040F24E4220A1F6
:103FA0002AA002F04DFA06B105E040F24F421CA1F2
:103FB0002CA002F045FA002030604FF408476C68EE
:103FC000608800F4004018B140F6A270BDE8F081AE
:103FD00000BF608800F4004020B9208810B94FF479
:103FE0007A60F3E760883840B0F5006F0AD16088E6
:103FF00000F0370010B14FF47A60E7E720883060B6
:104000000020E3E7608800F4005008B12C6800E06D
:1040100008346868A042DCD140F6A270D6E7000000
:104020002E2E5C2E2E5C6C69627261726965735C07
:10403000647269766572735C66736C5F656E6574D5
:104040002E63000068616E646C65000068616E64D8
:104050006C652D3E7278426443757272656E745B56
:10406000305D00006C656E67746800002DE9FC5FD0
:1040700005460E4614461F46DDE90C8B06B105E0E9
:104080004FF4BA7229A132A002F0DAF904B105E0C6
:1040900040F2751225A130A002F0D2F907B105E077
:1040A0004FF4BB7221A12EA002F0CAF9B8F1000FA3
:1040B00000D005E040F277121CA12DA002F0C0F95B
:1040C000207F012800DC05E04FF4BC7217A12AA074
:1040D00002F0B6F92846FFF713FF8146314830F960
:1040E00019A003215046FEF7D7FF00BF00BF686A42
:1040F00040F00100686200BF3A462146304600F0B9
:1041000037FC3A462146304600F060FB3B462246EB
:1041100031462846CDE9008B00F05EFA3B46224648
:104120003146284600F0ACF9BDE8FC9F2E2E5C2EEF
:104130002E5C6C69627261726965735C6472697627
:104140006572735C66736C5F656E65742E630000E8
:1041500068616E646C650000636F6E66696700007D
:10416000627566666572436F6E666967000000007F
:104170006D61634164647200636F6E6669672D3EB2
:1041800072696E674E756D203C3D2046534C5F460C
:104190004541545552455F454E45545F515545552F
:1041A00045000000681301602DE9FF4F83B00C4605
:1041B0001746984604B105E040F2874232A13BA081
:1041C00002F03EF9606800B105E04FF491622EA163
:1041D00038A002F035F94FF000090026B3466568B3
:1041E00000200290A7B900BF6068B0F802A00022CA
:1041F0002146039800F082FC0AF4006000B102E05E
:104200006068A842F0D100BF029807B0BDE8F08F07
:104210006868019031E0688800F40060C8B14FF030
:10422000010B288840450ED12888A0EB0609B81953
:104230004A460199FEF72AFA00222146039800F027
:104240005DFC0298E1E700222146039800F056FC4D
:1042500010E04FF0000B464500D311E0B819226979
:104260000199FEF713FA20690644002221460398BB
:1042700000F044FC656868680190BBF1000FCAD08B
:1042800000BF40F6A170C0E72E2E5C2E2E5C6C693C
:10429000627261726965735C647269766572735C7F
:1042A00066736C5F656E65742E63000068616E6492
:1042B0006C65000068616E646C652D3E72784264C6
:1042C00043757272656E745B305D00002DE9F041DC
:1042D00005460C4604B105E040F63C220AA113A0B5
:1042E00002F0AEF84FF0407608E06E60E06928B169
:1042F000002221462846D4E90773B8476868304051
:104300000028F2D1BDE8F0812E2E5C2E2E5C6C6967
:10431000627261726965735C647269766572735CFE
:1043200066736C5F656E65742E63000068616E6411
:104330006C6500002DE9F05F83460D4617461E466A
:1043400005B105E040F2255240A149A002F078F8FD
:1043500007B105E040F226523CA147A002F070F8F8
:104360004FF00008C14640F2EE50864203D940F6B5
:10437000A370BDE8F09FEC68608800F4004010B1C5
:1043800040F6A470F5E76869B0421BD3D4F804A0E6
:10439000324639465046FEF779F92680608840F467
:1043A00008406080608800F4005010B1A868E860A0
:1043B00002E0E8680830E86000215846FFF7A6FCF4
:1043C0000020D6E700BF608800F4005010B1A86854
:1043D000E86002E0E8680830E860A6EB0809D4F875
:1043E00004A06869484516D207EB080150466A697F
:1043F000FEF74CF9A88A208068698044608820F420
:1044000000606080608840F4004060800021584671
:10441000FFF77CFC11E007EB08014A465046FEF727
:1044200035F9A4F80090608840F4084060800021CD
:104430005846FFF76BFC00209BE7EC68608800F4AF
:1044400000400028BFD040F6A47092E72E2E5C2ECC
:104450002E5C6C69627261726965735C6472697604
:104460006572735C66736C5F656E65742E630000C5
:1044700068616E646C650000646174610000000036
:104480002DE9F04782460C46174699465046FFF7FD
:1044900037FD80464E4624212046FEF71EF9387F20
:1044A000012801DD012000E0387F2076002526E08C
:1044B0003188706848433989884200D905E040F264
:1044C000B71225A12D4801F0BBFFF06844F8250084
:1044D000201DF16840F825100C30716840F8251057
:1044E0000838316940F82510001D316940F8251061
:1044F0000830B16840F825101C36681CC5B2207E13
:10450000A842D5DC1E4840F82840786800F040609A
:1045100038B11C481C4908601C4931F9180000F0EA
:104520005BFB786800F0407038B1194819490860A1
:10453000194931F9180000F04FFB18497868084014
:1045400038B1174817490860174931F9180000F0C9
:1045500043FBBDE8F08700002E2E5C2E2E5C6C69BC
:10456000627261726965735C647269766572735CAC
:1045700066736C5F656E65742E630000C01B01601E
:1045800010000020954A0060140000206A130160AA
:10459000CD420060180000206C13016000007C60B8
:1045A000093E00601C0000206E13016010B50B78FE
:1045B0001B064C7843EA04438C7843EA0423CC7806
:1045C00043EA0402C0F8E4204B790C7943EA042260
:1045D0001304C0F8E83010BD2DE9F05F044615461D
:1045E00098460027B946D4F824A02E68B5F808B03C
:1045F00006F4007028B140F2EE50834501D840F235
:10460000F25B06F0020010B14FF0804000E00020A5
:1046100006F0010111B14FF4004100E00021084310
:1046200006F0010109B1202100E00021084306F055
:10463000040111B14FF4805100E00021084306F05D
:10464000080109B1102100E00021084306F08001B3
:1046500009B1082100E0002108435B4901EA0B4150
:10466000084340F4804747F00407A87A012801D1A5
:1046700047F48077E87A08B947F40077287B08B9CF
:1046800047F00207288800F4807030B1A87A01282A
:1046900003D047F0010727F00207C4F88470D4F86C
:1046A000C40020F48279287B08B1042000E00020B7
:1046B00006F0100111B14FF4807100E000210843B1
:1046C00040EA0909C4F8C490A87BC4F8C001687B1B
:1046D000C4F8C40106F0010030B1298AC4F8EC1016
:1046E000A87CC4F8940100BF06F0200040B1287DEA
:1046F00000F03F00C4F84401E87CC4F8900106E0F3
:104700004FF48070C4F844010020C4F89001A87BE5
:1047100000F0180018B14FF48070C4F84401687BB1
:1047200000F0060010B10020C4F89001D8F8100085
:10473000C4F88401D8F80C00C4F88001D8F804004B
:10474000C4F8880120460A99FFF730FF00BF606C6B
:1047500000F07E0008B1012000E0002030B9287888
:10476000C0F3801220460B9900F0B6F8A869F8B1A2
:104770004FF0A060A1688143A160A96909784FF05A
:104780007F6202EA0151AA695288114341F0404117
:10479000C4F8F010A96909794FF07F6202EA01516B
:1047A000AA69D288114341F04041C4F8001100BF0A
:1047B0006868A1680143A16000BF4AF4817AC4F827
:1047C00024A0BDE8F09F00000000FF3F2DE9F05F4E
:1047D00083460E46174606B105E040F2013222A19B
:1047E0002AA001F02DFE07B105E040F202321EA121
:1047F00028A001F025FE3C464FF000082FE060683D
:10480000FF2800D905E040F2113217A125A001F0E0
:1048100017FEE068F0B16069E0B1E068D4F8049098
:10482000D4F814A0002511E005FB09A14160002186
:1048300001804FF4004141802188491EA94203D1E3
:10484000418841F40051418008306D1C2188A94203
:10485000EAD800BF1C3408F1010000F0FF08307FE7
:104860004045CCDCBDE8F09F2E2E5C2E2E5C6C69A2
:10487000627261726965735C647269766572735C99
:1048800066736C5F656E65742E630000636F6E66A1
:1048900069670000627566666572436F6E66696778
:1048A00000000000627566664366672D3E727842BE
:1048B00075666653697A65416C69676E203E3D2076
:1048C000454E45545F52585F4D494E5F42554646EE
:1048D000455253495A4500002DE9F04705460C461C
:1048E000164604B105E040F2B63213A11BA001F058
:1048F000A7FD4FF00008C14600271B48B4FBF0F9A4
:104900001A48B0FBF4F009301849B1FBF4F1B0FBE0
:10491000F1F0A0F101087E2000EA49004FF4E061C7
:1049200001EA082108430EB1802100E0002140EA9D
:1049300001076F64BDE8F0872E2E5C2E2E5C6C693B
:10494000627261726965735C647269766572735CC8
:1049500066736C5F656E65742E63000073726343EB
:104960006C6F636B5F487A00404B4C0000CA9A3B07
:104970002DE9F05F83460E46174606B105E040F28A
:10498000CB221DA125A001F05BFD07B105E04FF48E
:10499000337219A123A001F053FD3C464FF00008EB
:1049A00025E02069F0B1A069E0B12069D4F8089051
:1049B000D4F818A0002511E005FB09A141600021F1
:1049C00001804FF4806141806188491EA94203D172
:1049D000418841F40051418008306D1C6188A94232
:1049E000EAD800BF1C3408F1010000F0FF08307F56
:1049F0004045D6DCBDE8F09F2E2E5C2E2E5C6C6907
:104A0000627261726965735C647269766572735C07
:104A100066736C5F656E65742E630000636F6E660F
:104A200069670000627566666572436F6E666967E6
:104A30000000000070B500244FF0405505EA0375F2
:104A400045F080454FF0786606EAC15635434FF48D
:104A5000F80606EA8246354345F40034046470BD26
:104A6000F0B5059C00254FF0405606EA037646F067
:104A700080464FF0786707EAC1573E434FF4F80786
:104A800007EA82473E4346F40036A7B246EA0705E6
:104A90000564F0BD2DE9F04105460C4604B105E082
:104AA00040F607220AA113A001F0CAFC4FF04066AD
:104AB00008E06E60E06928B1012221462846D4E969
:104AC0000773B847686830400028F2D1BDE8F0812C
:104AD0002E2E5C2E2E5C6C69627261726965735C4D
:104AE000647269766572735C66736C5F656E65741B
:104AF0002E63000068616E646C65000070B5064648
:104B00000D46144605B105E040F2FD421FA128A064
:104B100001F096FC04B905E040F2FE421BA126A07C
:104B200001F08EFC281D50F82400408800F400514C
:104B3000281D50F824004180281D50F8240040888A
:104B400040F40041281D50F824004180281D50F8F1
:104B50002400408800F4005028B155F82410281D86
:104B600040F8241006E0281D50F824000830291DC4
:104B700041F824001CB94FF08070306103E04FF021
:104B80008070306100BF00BF70BD00002E2E5C2E13
:104B90002E5C6C69627261726965735C64726976BD
:104BA0006572735C66736C5F656E65742E6300007E
:104BB00068616E646C65000072696E674964203CD0
:104BC0002046534C5F464541545552455F454E453E
:104BD000545F515545554500014611F1800F01D1F3
:104BE000012070470846002809DB00F01F0301225E
:104BF0009A4043099B0003F1E023C3F8002100BF62
:104C00000020EEE770B50546002406E0094850F89C
:104C10002400A84200D102E0641C062CF6D300BF99
:104C2000062C00D204E0542203A10CA001F008FCE1
:104C3000204670BDFC1201602E2E5C2E2E5C6C692D
:104C4000627261726965735C647269766572735CC5
:104C500066736C5F6770696F2E630000696E7374B2
:104C6000616E6365203C2041525241595F53495A5D
:104C70004528735F6770696F42617365732900002F
:104C80002DE9F04104460D4616462046FFF7BAFFCF
:104C9000124931F910703846FEF736FA6069012181
:104CA000A94088436061307828B960680121A94033
:104CB0008843606009E072782946204600F056F883
:104CC00061680120A84001436160B7783A462946EF
:104CD000204600F005F800BFBDE8F0811413016024
:104CE000F0B503460C462146DD690126A640B543D2
:104CF000DD61102C02D203F10C0002E003F1100080
:104D00001039062A2ED2DFE802F02D030A152027DB
:104D100005684F000326BE40B543056023E00568E3
:104D20004F000326BE40B5434F000126BE40354329
:104D3000056018E005684F000326BE40B5434F00EC
:104D40000226BE40354305600DE005684F0003268E
:104D5000BE403543056006E0DD690126A6403543C7
:104D6000DD6100E000BF00BFF0BD000070B504468B
:104D70000D461646202D00D204E0742208A111A091
:104D800001F05EFB2EB920680121A9408843206014
:104D900004E021680120A8400143216070BD0000AB
:104DA0002E2E5C2E2E5C6C69627261726965735C7A
:104DB000647269766572735C66736C5F6770696F45
:104DC0002E63000070696E203C203332000000002A
:104DD00070B504460D461646324629462046FFF772
:104DE000C5FF70BD30B5DDE9034504B1256030BDB8
:104DF000F0B5DDE9055401F00706102707EA0417AE
:104E00003E43066002B11360F0BD0000F0B585B00E
:104E100004460D4616461F4604B104E0FF221CA1BD
:104E200025A001F00DFB2079264908712068086053
:104E300008460079022826D1684600F051F900950D
:104E4000204932460868694600F0CAF91D4A012126
:104E5000106821B1826942F40022826103E0826914
:104E600022F40022826100BF164A0121106821B19C
:104E7000826942F48022826103E0826922F4802206
:104E8000826100BF00E000BF00BF05B0F0BD0000C0
:104E90002E2E5C2E2E5C6C69627261726965735C89
:104EA0007574696C69746965735C696F5C66736C51
:104EB0005F696F2E630000004E554C4C20213D2051
:104EC000696F0000240000202DE9F04104460D46E2
:104ED000164600270C48007902280FD136B10A493E
:104EE0002A460868214600F073FB06E006492A4678
:104EF0000868214600F0EEFA074601E0012700BFEE
:104F000000BF3846BDE8F081240000202DE9FC41B7
:104F100007460C4615461E4600978DF804400023B0
:104F2000324629466846FFF771FF0020BDE8FC8144
:104F300070B505460C4600264CB145B1012636B188
:104F4000012221462846FFF7BFFF00B1002420467A
:104F500070BD000070B504460D4604B105E040F296
:104F60003F1204A10DA001F06BFA29462046FFF77D
:104F7000DFFF70BD2E2E5C2E2E5C6C69627261723A
:104F80006965735C7574696C69746965735C6C6F71
:104F9000675C66736C5F6C6F672E6300627566207A
:104FA000213D204E554C4C0010B503484168034844
:104FB000034A1268904710BD2401002000401840A9
:104FC0000C00002010B5034881680348034A1268AA
:104FD000904710BD24010020008018400C000020E4
:104FE00010B50348C1680348034A1268904710BDD2
:104FF0002401002000C018400C00002010B5034818
:1050000001690348034A1268904710BD240100203B
:10501000000019400C00002010B503484169034806
:10502000034A1268904710BD240100200040194037
:105030000C00002010B5034881690348034A126838
:10504000904710BD24010020008019400C00002072
:1050500010B50348C1690348034A1268904710BD60
:105060002401002000C019400C00002010B50348A6
:10507000016A0348034A1268904710BD24010020CA
:1050800000001A400C00002070B505460C46AB6AC3
:1050900023F440334FF4403000EA04400343AB6252
:1050A0006B6923F0004304F0004003430B480340C6
:1050B000C14304EA0100034323F4404304F44040A5
:1050C00003436B61284600F083F8204010B140F2A2
:1050D0001A5600E00026304670BD0000FFFFE0BF1A
:1050E00010B5044604B105E04FF4F1720BA115A010
:1050F00001F0A6F94FF4E1302060002020716071CA
:10510000A071E07120726072A072E072607320730F
:10511000A073E0732074607410BD00002E2E5C2E0E
:105120002E5C6C69627261726965735C6472697627
:105130006572735C66736C5F6C70756172742E63FC
:1051400000000000636F6E666967000070B5054679
:10515000002406E0094850F82400A84200D102E0EB
:10516000641C092CF6D300BF092C00D204E08E2267
:1051700003A10DA001F064F9204670BD2013016069
:105180002E2E5C2E2E5C6C69627261726965735C96
:10519000647269766572735C66736C5F6C7075615E
:1051A00072742E6300000000696E7374616E636533
:1051B000203C2041525241595F53495A4528735F60
:1051C0006C70756172744261736573290000000030
:1051D000014648698A6A02F4430240EA1240704775
:1051E0002DE9F04F85B004460D46914605B104E027
:1051F000E42284A18DA001F023F9286800B104E025
:10520000E52280A18BA001F01BF9287A042800DC9C
:1052100004E0E7227BA18DA001F012F9687A04284E
:1052200000DC04E0E82277A198A001F009F92868E1
:1052300002904FF0000A00200490042731E0286813
:105240007843B9FBF0F01FFA80F8B8F1000F01D1F4
:105250004FF0010807FB08F0B9FBF0F00390296854
:105260000398A0EB010B08F101007843B9FBF0F0C3
:105270002968081A58450BD208F101007843B9FB98
:10528000F0F02968A1EB000B08F101001FFA80F88B
:105290000298834504D8CDF808B0BA46CDF81080FE
:1052A0007F1C202FCBD964212868B0FBF1F000EBE4
:1052B00040010298814204D240F2215005B0BDE87D
:1052C000F08F2046FFF742FF01908049019831F9A5
:1052D0001000009003210098FDF7A6FE00BF00BF5C
:1052E000A06840F00200A060A06820F00200A0606A
:1052F00000BF2669BAF1030F04D9BAF1080F01D231
:1053000046F4003626F0F856AAF101004FF0F851A5
:1053100001EA006006436FF30C060498C0F30C002A
:1053200030432061206920F000502061A06940F2E4
:10533000177120EA01062879E97B4FF4E06202EA5E
:1053400001210843A97B042202EA810108430643A4
:105350006879012807D1287910B126F4006606E0A3
:1053600046F4006603E0287908B146F01006A6610D
:10537000206920F40056E8794FF4005101EA4030EA
:1053800030432061287A697A40EA0140E062A06AED
:1053900040F08800A062A06A40F44040A0624C4EF9
:1053A00046F0004646F44046687B102101EA0010B2
:1053B000297B202202EA41110843616A08436062A6
:1053C000A87A18B1606A40F008006062E87A18B103
:1053D000606A40F001006062A87910B146F00056A2
:1053E00001E026F00056606930436061A669287CC0
:1053F00008B146F40026687C08B146F48026A66110
:1054000000205BE72E2E5C2E2E5C6C69627261724E
:105410006965735C647269766572735C66736C5FF0
:105420006C70756172742E6300000000636F6E66AD
:1054300069670000636F6E6669672D3E626175641F
:10544000526174655F4270730000000046534C5F08
:10545000464541545552455F4C50554152545F4664
:1054600049464F5F53495A456E286261736529204A
:105470003E3D20636F6E6669672D3E7478466966AF
:105480006F57617465726D61726B000046534C5FBB
:10549000464541545552455F4C50554152545F4624
:1054A00049464F5F53495A456E286261736529200A
:1054B0003E3D20636F6E6669672D3E727846696671
:1054C0006F57617465726D61726B000056130160F5
:1054D00000001F402DE9F04706460C46904604B1F7
:1054E00005E04FF42E722EA137A000F0A9FFB76996
:1054F00007F4006028B907F0100020B907F0020097
:1055000008B1012000E00020814642E030E0304652
:10551000FFF75EFE054605F4002040B14FF4002180
:105520003046FFF7B1FD40F21D50BDE8F08705F4AD
:10553000802038B14FF480213046FFF7A5FD40F2BE
:105540001E50F2E705F4003038B14FF40031304618
:10555000FFF79AFD40F21F50E7E705F4803038B1BD
:105560004FF480313046FFF78FFD4FF4A460DCE745
:10557000F06AC0F302600028C9D0B9F1000F05D06D
:10558000F06900F07F0004F8010B02E0F06904F814
:10559000010BB8F10000A8F10108B7D100BFC4E7C2
:1055A0002E2E5C2E2E5C6C69627261726965735C72
:1055B000647269766572735C66736C5F6C7075613A
:1055C00072742E63000000006461746100000000CA
:1055D00070B505460C46164604B105E040F2A92216
:1055E00009A113A000F02CFF08E000BF686900F4D7
:1055F00000000028FAD014F8010BE861301EA6F173
:105600000106F2D170BD00002E2E5C2E2E5C6C695E
:10561000627261726965735C647269766572735CEB
:1056200066736C5F6C70756172742E6300000000AD
:1056300064617461000000002DE9F84380468946EA
:1056400016461D4605B105E04FF4917213A11CA04A
:1056500000F0F6FE00276B461F224946404600F048
:10566000D3F80746BFB9009800F01C04142C01D0F1
:10567000182C02D10120287001E000202870009829
:1056800000F01C04082C01D0182C02D1012030702D
:1056900001E0002030703846BDE8F8832E2E5C2EE5
:1056A0002E5C757365725C6273705C6C616E38370A
:1056B0003230615C66736C5F7068792E6300000045
:1056C0006475706C65780000F8B506460F461446A0
:1056D00004B105E040F209120BA114A000F0B0FEE5
:1056E00000256B4601223946304600F08DF805460C
:1056F00045B9009800F0040010B90020207001E0C6
:10570000012020702846F8BD2E2E5C2E2E5C75736D
:1057100065725C6273705C6C616E38373230615CEC
:1057200066736C5F7068792E630000007374617437
:10573000757300002DE9FC478046894617466FF0D7
:105740007C440020009000254046FEF7D9FB8246AD
:105750002C4931F91A00FDF74FFD00223946404629
:10576000FFF7BAF806E06B4602224946404600F0D1
:105770004BF8641E0098072801D0002CF3D114B90F
:105780000120BDE8FC876FF07C444FF40043002209
:105790004946404600F084F8054685BB40F2E113D7
:1057A00004224946404600F07BF805463DBB4FF4D5
:1057B000905300224946404600F072F80546F5B97C
:1057C00018E001AB01224946404600F01DF80546AD
:1057D00065B9019800F0200040B1002601E000BF4B
:1057E000761C6FF07C408642F9D307E014B941F291
:1057F0000600C6E7201EA4F10104E2D100BF28463E
:10580000BFE70000681301602DE9F04105460F462F
:1058100090461E4606B104E0AD2216A11EA000F07F
:105820000FFE4FF400012846FEF7A8FA0223424675
:1058300039462846FFF7FEF86FF07C4406E000BFCB
:10584000686800F4000000B102E0641E002CF6D18C
:1058500000BF1CB941F20500BDE8F08100BF286C13
:1058600080B230604FF400012846FEF787FA00202E
:10587000F2E700002E2E5C2E2E5C757365725C6262
:1058800073705C6C616E38373230615C66736C5F6C
:105890007068792E63000000646174615074720056
:1058A0002DE9F84305460F4690461E464FF4000189
:1058B0002846FEF763FA01234246394628460096F9
:1058C000FFF7CEF86FF07C4406E000BF686800F494
:1058D000000000B102E0641E002CF6D100BF1CB92C
:1058E00041F20500BDE8F8834FF400012846FEF7B9
:1058F00045FA0020F6E7000010B50023244C236091
:1059000000BF00BF00BFBFF34F8F00BF00BF00BF8D
:105910001F4B703B1B6823F480331D4C703C23608D
:1059200000BF00BF00BFBFF34F8F00BF00BF00BF6D
:10593000174B1B1F1868C0F34E3100BFC0F3C902DC
:1059400000BF43F6E07303EA41134FF0404404EA1A
:10595000827423430F4C236000BF00BF131EA2F1CB
:105960000102EED10B1EA1F10101E7D100BF00BF82
:1059700000BFBFF34F8F00BF00BF00BF00BF00BF1D
:1059800000BFBFF36F8F00BF00BF00BF10BD00009E
:1059900084ED00E074EF00E010B50023234C236099
:1059A00000BF00BF00BFBFF34F8F00BF00BF00BFED
:1059B000231F1868C0F34E3100BFC0F3C90200BFF7
:1059C00043F6E07303EA41134FF0404404EA827463
:1059D0002343174C236000BF00BF131EA2F1010236
:1059E000EED10B1EA1F10101E7D100BF00BF00BF46
:1059F000BFF34F8F00BF00BF00BF0C4B703B1B6855
:105A000043F48033094C703C236000BF00BF00BFEB
:105A1000BFF34F8F00BF00BF00BF00BF00BF00BF7C
:105A2000BFF36F8F00BF00BF00BF10BD84ED00E06B
:105A300060EF00E010B50023234C236000BF00BFDF
:105A400000BFBFF34F8F00BF00BF00BF231F186808
:105A5000C0F34E3100BFC0F3C90200BF43F6E0738C
:105A600003EA41134FF0404404EA82742343174C85
:105A7000236000BF00BF131EA2F10102EED10B1E76
:105A8000A1F10101E7D100BF00BF00BFBFF34F8FFD
:105A900000BF00BF00BF0C4B703B1B6843F480335A
:105AA000094C703C236000BF00BF00BFBFF34F8FA5
:105AB00000BF00BF00BF00BF00BF00BFBFF36F8FBC
:105AC00000BF00BF00BF10BD84ED00E060EF00E04C
:105AD00000BF00BF00BFBFF34F8F00BF00BF00BFBC
:105AE00000BF00BF00BFBFF36F8F00BF00BF00BF8C
:105AF00000201449086000BF00BF00BFBFF34F8FF4
:105B000000BF00BF00BF00BF00BF00BFBFF36F8F6B
:105B100000BF00BF00BF0C48006840F400300A49D5
:105B2000086000BF00BF00BFBFF34F8F00BF00BFC2
:105B300000BF00BF00BF00BFBFF36F8F00BF00BF3B
:105B400000BF704750EF00E014ED00E000BF00BF61
:105B500000BFBFF34F8F00BF00BF00BF00BF00BF3B
:105B600000BFBFF36F8F00BF00BF00BF002014490C
:105B7000086000BF00BF00BFBFF34F8F00BF00BF72
:105B800000BF00BF00BF00BFBFF36F8F00BF00BFEB
:105B900000BF0C48006840F400300A49086000BFAC
:105BA00000BF00BFBFF34F8F00BF00BF00BF00BFEB
:105BB00000BF00BFBFF36F8F00BF00BF00BF7047C3
:105BC00050EF00E014ED00E02DE9FF4F9BB01E46C2
:105BD0000020119000270F900B9006900790DDF8A1
:105BE0006C80FCE2252C05D0E2B201230FA91D98A0
:105BF000B047F2E201200C9000250020109025E033
:105C000008F10100804600782B280DD004DC202804
:105C10000DD0232814D110E02D2802D030280FD128
:105C200008E045F0010510E045F002050DE045F003
:105C300004050AE045F0080507E045F0100504E01A
:105C4000A8F101080120109000BF00BF10980028A3
:105C5000D6D04FF000090020109019E008F10100A3
:105C600080460478302C08DB392C06DCA4F13000A7
:105C700009EB890100EB41090AE02A2C04D11C98A8
:105C800050F8049B1C9003E0A8F10108012010903B
:105C900010980028E2D006200E900020059008F110
:105CA0000100804600782E2829D100200E90109007
:105CB00021E008F1010080460478302C0CDB392CFF
:105CC0000ADCA4F130000E9901EB810100EB4100E8
:105CD0000E90012005900EE02A2C08D11C98006837
:105CE0000E901C98001D1C900120059003E0A8F167
:105CF00001080120109010980028DAD001E0A8F1E6
:105D0000010808F1010080460078682802D06C285C
:105D10001CD10DE008F1010080460078682804D00D
:105D200045F04005A8F1010801E045F0200510E02C
:105D300008F10100804600786C2804D045F0800509
:105D4000A8F1010801E045F4807502E0A8F101081E
:105D500000BF00BF08F1010080460478642C11D018
:105D6000692C0FD0662C0DD0462C0BD0782C09D086
:105D7000582C07D06F2C05D0622C03D0702C01D08A
:105D8000752C7DD1642C01D0692C76D105F48070FE
:105D900068B11C98C01D20F0070001461C900068E7
:105DA00049681C9A08321C92CDE9080107E01C984A
:105DB00000681C99091D1C91C117CDE908010C98B8
:105DC0000A23012208A9009012A8FDF766FE0746E3
:105DD00012A83844119000210A46DDE90830591A0A
:105DE000904103DA4FF02D0A7F1C0FE005F002000E
:105DF00018B14FF02B0A7F1C08E005F0040018B121
:105E00004FF0200A7F1C01E04FF0000A00200A90AA
:105E100005F0080090B1BAF1000F05D00AF0FF02BA
:105E200001230FA91D98B04701200A90A9EB070391
:105E300030220FA91D98B0474F4613E005F001002E
:105E400080B9A9EB070320220FA91D98B047BAF12A
:105E5000000F05D00AF0FF0201230FA91D98B047DB
:105E600001200A900A9840B9BAF1000F05D00AF053
:105E7000FF0201230FA91D98B047662C03D000E054
:105E800055E1462C65D11C98C01D20F007001C90E0
:105E9000B0EC020B1C908DED020B0A2202A912A895
:105EA0000E9BFDF723FD074612A8384411909DED87
:105EB000020BB5EEC00BF1EE10FA03D24FF02D0A33
:105EC0007F1C0FE005F0020018B14FF02B0A7F1C79
:105ED00008E005F0040018B14FF0200A7F1C01E033
:105EE0004FF0000A00200A9005F0080090B1BAF1C6
:105EF000000F05D00AF0FF0201230FA91D98B0473B
:105F000001200A90A9EB070330220FA91D98B04782
:105F10004F4613E005F0010080B9A9EB07032022EA
:105F20000FA91D98B047BAF1000F05D00AF0FF0283
:105F300001230FA91D98B04701200A900A9840B983
:105F4000BAF1000F05D00AF0FF0201230FA91D9836
:105F5000B047582C01D0782C7FD1782C01D100206B
:105F60000C9005F4807060B11C98C01D20F00700F3
:105F70001C90D0E900201C990831CDE906201C9125
:105F800007E01C9800681C99091D1C910021CDE9AF
:105F900006010C981023002206A9009012A8FDF714
:105FA0007CFD074612A83844119000200A9005F0A5
:105FB0000800D8B105F0100080B1012330220FA9EC
:105FC0001D98B0470C9808B1582000E07820024690
:105FD00001230FA91D98B04701200A90A9EB0703E0
:105FE00030220FA91D98B0474F4620E005F0010070
:105FF000E8B905F0100000B1BF1CA9EB070320228F
:106000000FA91D98B04705F0100080B10123302280
:106010000FA91D98B0470C9808B1582000E07820CF
:10602000024601230FA91D98B04701200A9005F0F0
:10603000100050B10A9840B9012330220FA91D98D1
:10604000B0470C9810B1582001E006E078200246D5
:1060500001230FA91D98B047BF1C6F2C05D0622CDF
:1060600003D0702C01D0752C48D105F4807060B13C
:106070001C98C01D20F007001C90D0E900101C9A4D
:1060800008321C92CDE9061007E01C9800681C99A4
:10609000091D1C910021CDE906016F2C02D10820B9
:1060A0000B900BE0622C02D102200B9006E0702CCA
:1060B00002D110200B9001E00A200B900C98009068
:1060C000002206A912A80B9BFDF7E7FC074612A8C1
:1060D0003844119005F0080038B1A9EB07033022CD
:1060E0000FA91D98B0474F4608E005F0010028B9F8
:1060F000A9EB070320220FA91D98B047119860B1A2
:1061000007E0119810F8012901230FA911901D989B
:10611000B047119800780028F3D105F0010088B34A
:10612000A9EB070320220FA91D98B04754E0632C68
:106130000BD11C9810F8041B1C90C8B20D900123C1
:106140000FA90D9A1D98B04746E0732C3FD11C98BB
:1061500050F804BB1C90BBF1000F3DD0059808B16E
:106160000E9F03E05846FCF7C3FA074605F001000E
:1061700028B9A9EB070320220FA91D98B04705985D
:1061800080B107E028E01BF8012B01230FA91D981F
:10619000B0477F1E9BF8000008B1002FF3DC0E987B
:1061A000C71B0AE005E01BF8012B01230FA91D986E
:1061B000B0479BF800000028F5D105F0010058B168
:1061C000A9EB070320220FA91D98B04704E0E2B213
:1061D00001230FA91D98B04700BF08F1010898F8E6
:1061E0000000041E7FF4FEAC0F981FB0BDE8F08FD6
:1061F00010B50AF005FE10BD2DE9F0414A48006BCC
:1062000000F4803008B1494D0AE04748006B00F0C7
:10621000010008B1162000E01420444900FB01F5FC
:106220004148D0F860C041483F49096DA0FB01706A
:106230000146624600233846FCF7C6F945193A483C
:10624000006900F4803008B1384E0AE03648006931
:1062500000F0020008B1162000E01420334900FBD2
:1062600001F63348406900F0007000B3304880699F
:1062700000F4405048B1B0F5805F08D0B0F5005F41
:1062800007D0B0F5405F06D106E0344606E0274C63
:1062900004E0264C00BF00BF002400BF00BF24481C
:1062A0004069C0F3C260401CB4FBF0F431E0204808
:1062B000806900F4402048B1B0F5802F08D0B0F5D7
:1062C000002F10D0B0F5402F20D116E02C461FE053
:1062D0001548F0300068C0F30560B6FBF0F000EB45
:1062E000C000440014E013480068C0F30560B5FB2B
:1062F000F0F000EBC00044000AE00D48006900F037
:106300000700401C0C49B1FBF0F401E0002400BF81
:1063100000BF07484069C0F38220401CB4FBF0F086
:1063200006490860BDE8F08100800D4000366E012E
:1063300000C00F4000810D400065CD1D0000002011
:1063400010B52D48006840F470002B4908602B48B8
:10635000008920F00100294908812948008920F09E
:106360000100274908812548008800F0040028B171
:106370002248008820F00400204908802048008836
:1063800000F0040028B11E48008820F004001C49D9
:1063900008801C481C4948604FF6FF70886008461A
:1063A000006820F0800040F0200008604FF0E020FE
:1063B000006900F0010038B14FF0E020006920F0E2
:1063C00001004FF0E02108610B487438006800F4C8
:1063D0000030B0F5003F01D0FFF77AFB0648743873
:1063E000006800F48030B0F5803F01D0FFF7D4FAA8
:1063F00000F00CF810BD000088ED00E000800B40BC
:1064000000000D4020C528D900C00B40704703B4E0
:1064100001984100009850EAC12018BF04204A0D9D
:1064200018BF40F0010040F2FF72B2EB515F08BFAD
:1064300040F00200012808BF052002B070470000AC
:1064400004460D46164633462A46214602A0FDF76D
:106450000FFC00BF00BEFDE7415353455254204599
:1064600052524F52202220257320223A2066696C16
:10647000652022257322204C696E65202225642226
:10648000200A000071B42DED020BDDE900C2BCF161
:10649000000F14BF0121002141EA420111F5001F44
:1064A00008D99DED000B80ED000B9DED000B03B0B6
:1064B00070BC7047C2F30A510024A1F2FF3102F010
:1064C0000043142919DA0029B8BFC0E9004324DBCE
:1064D0001B4D25FA01F102EA010555EA0C0C16D014
:1064E00022EA0101C0E9004190ED000B9DED001B87
:1064F00003B031EE400B70BC7047332907DC4FF01E
:10650000FF35143925FA01F11CEA010F0AD19DED7E
:10651000000B80ED000BCDE900439DED000B03B0B7
:1065200070BC70472CEA0101C0E9001290ED000B2D
:106530009DED001B03B031EE400B70BC70470000B6
:10654000FFFF0F00000000002DE9F04D2DED040BC2
:106550002DED0A8B9AB0DDE92550279CDDF890A03F
:1065600025F0004624F00048BAF1000F14BF0121C5
:10657000002101EB4502F84953184A1093422AD3EF
:10658000002814BF0123002303EB44030B44F34909
:106590008B4220D358EA00019FEDF19B72D0DFF8C7
:1065A000C8B35D4503D1BAF1000F05D184E0BAF15B
:1065B000000F08BF002100D0012101EB450111F5BA
:1065C000001F08D8002814BF0121002101EB44015D
:1065D00011F5001F0BD99DED261B9DED240B1AB064
:1065E000BDEC0A8B04B0BDE8F04D00F071BC002793
:1065F000002DBCBFDD49884521DADD498845A8BFAB
:1066000002271CDAC3451ADCDA4901EB28511429A8
:1066100008DDC1F1340220FA02F101FA02F28242ED
:106620000DD108E058B9C1F1140228FA02F101FABB
:1066300002F2424503D101F00101C1F1020756EA1D
:106640000A0120D1002C1EDA002D18BF022F01D024
:10665000012F0AD0022000F073FC1AB0BDEC0A8BA7
:1066600004B0BDE8F04D00F023BC022000F068FC4F
:1066700000F01EFCB1EE400B1AB0BDEC0A8B04B06A
:10668000BDE8F08D18E09FEDBCAB9FEDBD8B002801
:106690007DD1B64880451CD105F1804010F58010B1
:1066A00008BFBAF1000F07D0B34508DC002CA8BF23
:1066B0009DED260BE0DA07E0B0EE490BDCE7002C9D
:1066C000B8BF9DED260BD5DBAF48784490ED000BAD
:1066D000D2E7D84548D1002C43DA2EB186423AD1D0
:1066E000BAF1000F3DD126E0BAF1000F13D002201D
:1066F00000F026FC00F0FCFB8DED020B9DED240B61
:106700008DED000B10EE900A039961F31E000390CB
:106710009DED020BB0E78DED02AB9DED240B1AEE63
:10672000901A10EE900A8DED000B61F31E0003909D
:106730009DED020BA0E78DED028B9DED240B18EE75
:10674000901A10EE900A8DED000B61F31E0003907D
:106750009DED020B90E704DA9DED241B89EE010B01
:106760008AE79DED240B87E786421ADAB4F1804F61
:1067700004BF9DED240B20EE000B3FF47DAFA4F190
:106780000050B0F1FF500CD1002D0ADB00E008E012
:106790009DED240B51EC100B05F088FF41EC100B24
:1067A0006AE79DED240B51EC100B02F0C7FBBAF128
:1067B000000FCDE90E0140D19FED750B46B3A6F158
:1067C000E040B0F17F600ED05E4536D1002D00DA9A
:1067D00097B3022F0CBF01204FF0FF3000EE100ADC
:1067E000B8EEC00B48E7002D01DD002C0DDA002DBE
:1067F00001DD002C1DDB002D14DA002C12DB012F33
:1068000008BF9FED650B3FF437AFB0EE4A0B33E79F
:10681000022F18BF002D0CD0012F0AD1002DFFF63A
:106820002BAF06E0002DB8BF002C06DA012F3FF495
:1068300023AFB0EE480B1FE719E0012000EBE57035
:1068400050EA070113D0791EB0EE498B084308BF08
:106850009FED538B5448002580457ADD53495448B9
:10686000884514DDB0420DDB002C19DB2CE0012043
:1068700000F066FB1AB0BDEC0A8B04B0BDE8F04D29
:1068800000F02ABBB34502DC002C09DC1CE0864288
:1068900002DA002C18DA03E05E4528DD002C13DD57
:1068A000022000F04DFB00F023FB8DED020B28EEE3
:1068B0000A0B8DED000B10EE900A039961F31E0098
:1068C00003909DED020BD7E6022000F039FB00F0AB
:1068D0001BFB10EE901A18EE900A8DED020B8DED59
:1068E000008B61F31E0003909DED020BC4E69DED4D
:1068F0000E0B9FED313B30EE490B8DED040B20EE7E
:10690000002B9DED041B9FED2E0B01EE430B9DED27
:10691000043B9FED2D1B03EE401B9DED040B9FEDF3
:106920002E3B22EE012B9FED2A1B20EE011B20EEB9
:10693000030B9FED2B3B02EE430B31EE002B8DED55
:10694000022B02959DED022B32EE411B30EE411BD6
:1069500021E149E000000000FFFF1F00FFFF0F00E2
:10696000000000000000F03F0000F03F0000F07F5A
:106970000000404301FCFFFF000000000000F07F2A
:106980000000000000000000EAB400000000000069
:106990000000000000000080000000000000F0FF88
:1069A000000000000000F0BF0000E0410000F043E4
:1069B000FFFFEF3F00000000000000000000D03F9C
:1069C000555555555555D53F000000000000E03F96
:1069D000000000604715F73F44DF5DF80BAE543E02
:1069E000FE822B654715F73F0020B6F5801F0BDAB6
:1069F0009DED0E0B9FEDEC1B6FF0340020EE010BB4
:106A000010EE906A8DED0E0BE94A00EB2650C6F3AE
:106A10001301A0F2FF3741F07F6040F040509142F7
:106A2000D8BF002408DDE34A8A42C8BF012403DC42
:106A30000024A0F580107F1CDF49794401EBC401DC
:106A40000F9091ED001B9DED0E2B9DED0E0BDB4984
:106A500031EE023B30EE410B89EE032B20EE02AB10
:106A60008DED02AB7944029591ED003B4FF0005162
:106A700041EA600000EB84408DED043B00F500200E
:106A800005909DED043B9DED044B2AEE0ACB33EEC1
:106A9000411B9DED0E3BCA48062133EE411B9DED87
:106AA000023B03EE440B03EE410B20EE02BBB0EEC3
:106AB0004C0B784400F0C4F92CEE0C1B20EE010BBB
:106AC0009DED021B31EE0A1B0BEE010B9DED021B2F
:106AD00021EE011B9FEDBC2B31EE023B33EE003B60
:106AE0008DED043B04959DED043B33EE422B32EEDD
:106AF000411B30EE412B9DED020B9DED041B20EE62
:106B0000011B9DED040B2BEE000B02EE0A0B31EE88
:106B1000002B8DED022B02959DED022B32EE411BD9
:106B200030EE410B9DED021B9FEDA92B21EE021BC8
:106B30009DED022B9FEDA83B22EE032B9FEDA83B82
:106B4000A94800EE032B784400EBC40090ED000B45
:106B5000A64832EE000B02EE107AB8EEC22B8DED95
:106B6000042B31EE003B784400EBC4009DED044B58
:106B700090ED002B33EE023B33EE043B8DED023BF8
:106B800002959DED023B33EE443B33EE422B32EE59
:106B9000411B30EE411B9DED260B954A8DED000B00
:106BA00000959DED260B9DED002B30EE420B9DEDEB
:106BB000022B20EE020B9DED262B02EE010B9DED2C
:106BC000001B9DED022B21EE021B8DED021B30EE12
:106BD000011B11EE900A11EE101A8DED001B904270
:106BE00024DB821A11430ED19FED831B9DED002BF8
:106BF0009DED023B30EE011B32EE432BB4EEC21B87
:106C0000F1EE10FA26DD022000F09AF900F070F99A
:106C100010EE901A18EE900A8DED020B8DED008BA0
:106C200061F31E0003909DED020B25E5744B20F0EF
:106C300000429A420ED3734A024411437FF444AE99
:106C40009DED022B31EE421BB4EEC01BF1EE10FAAB
:106C5000BFF63AAE20F000416B4A6C4B002402EBC9
:106C600021529942D8BF9DED021B27DD511C4FF4E4
:106C7000801222FA01F10144654BC1F30A527B44B0
:106C8000A2F2FF3293ED001B624B8DED041BD3404B
:106C900021EA0303C1F3130141F48011C2F114028C
:106CA00021FA02F405930028B8BF64429DED021B4F
:106CB0009DED042B31EE421B8DED021B30EE011BCE
:106CC0008DED041B04959DED041B9FED532B9DED55
:106CD000023B21EE021B9DED042B32EE432B30EEE6
:106CE000420B9FED4F2B20EE020B9DED042B9FEDF1
:106CF0004E3B4F48052102EE030B31EE002B8DED8C
:106D0000002B32EE411B30EE41AB9DED000B20EE2F
:106D1000000B8DED040B784400F092F89DED001B04
:106D20009DED042B02EE401B8DED021B9DED000B33
:106D300020EE010B9FED402B31EE422B80EE021B2B
:106D40009DED002BB0EE4A0B02EE0A0B31EE400B2C
:106D50009DED001B30EE410B39EE400B10EE900A1A
:106D60008DED000B00EB045001150029C8BF019008
:106D700013DC224651EC100BFBF783FDFFF747FBBA
:106D8000042808BF00F0C0F822469DED000B51EC2E
:106D9000100BFBF776FDCDE900019DED000B28EE11
:106DA000000B69E400000000000000000000404308
:106DB0008E9803007AB60B00F2B0000050B10000CC
:106DC000AAB0000000000000000000000000084021
:106DD000000000E009C7EE3FF5015B14E02F3EBE66
:106DE000FD033ADC09C7EE3F06B00000D6AF000055
:106DF0000000904000000000FE822B654715973C84
:106E000000CC904000346F3F01FCFFFF0000E03FEA
:106E100036AF0000FFFF0F0000000000432EE63FEA
:106E2000EF39FAFE422EE63F396CA80C615C20BEB9
:106E300076AE0000000000000000000000000040EE
:106E4000491E00EBC102B0EE401B92ED000B31F089
:106E500006020DD0491E00EBC102B0EE403B92EDA0
:106E6000002B31F00602B0EE420B03EE010BF1D124
:106E7000022914D004290AD0062918BF704790EDC2
:106E80000A2B00EE012B90ED080B02EE010B90EDAA
:106E9000062B00EE012B90ED040B02EE010B90EDA2
:106EA000022B00EE012B90ED000B02EE010B704760
:106EB0009FED031B9FED042B81EE020B704700003A
:106EC000000000000000F03F000000000000000093
:106ED00030EE010B704700009FED031B81EE010BAC
:106EE00070470000000000000000000000000000EB
:106EF0009FED030B20EE000B704700000000000028
:106F000000000000000000709FED030B20EE000B5E
:106F100070470000000000000000000000000010AA
:106F200002E008C8121F08C1002AFAD17047704752
:106F3000002001E001C1121F002AFBD170470000B0
:106F400001490860704700002001002070B5044628
:106F500025466868804722460249286805F034FCC7
:106F600070BD00004D6F006008B5002000900090DB
:106F700003E000BF0098401C00900249009888423E
:106F8000F7D308BD40420F0070B505460E4600BF5E
:106F90001DB90CA005F0D0FB70BD00BF2C6A00BF6E
:106FA00000BF6CB1607A08280AD100BF00BF30680A
:106FB000A16A884204D100BF00BF284600F04EFA03
:106FC00000BFE9E76E6574696620213D204E554C8F
:106FD0004C0000007CB5064600BF1EB949A005F074
:106FE000ABFB7CBD00BF346A00BF1CB94CA005F0F0
:106FF000A3FBF6E700BF00BF00BF00202084606B4A
:10700000401C90B100BF00BF606B1E303C21B0FB44
:10701000F1F5B5F5803F01D34FF6FF756584608CBF
:1070200008B90120608400BF00BFA06B401CA0B164
:1070300000BF00BFA06B1E303C21B0FBF1F5B5F5E1
:10704000803F01D34FF6FF752583208B08B90120BF
:10705000208300BF00BF208BA083E06B401CA0B149
:1070600000BF00BFE06B1E303C21B0FBF1F5B5F571
:10707000803F01D34FF6FF756583608B08B901200F
:10708000608300BF00BF608BE083208B618B8842F0
:1070900004DB608B002801DD00202083E07A10B142
:1070A000E06A019010E094F828007F2802DCFF21BC
:1070B000019108E0C02803DB6FF07F41019102E0FD
:1070C0004FF6FF71019100BF206B0090009848B906
:1070D00000BFA06A01990840009000BF009840F0EE
:1070E0008070009000BF00BF0A21204600F05AFEC9
:1070F0006B4601AA04F12801304604F096FB00BF5C
:107100006FE70000646863705F62696E643A206EC6
:107110006574696620213D204E554C4C00000000EE
:10712000646863705F62696E643A206468637020AB
:10713000213D204E554C4C002DE9F0410646346A65
:1071400000BF00BF0821204600F02CFE002204F101
:107150002801304601F0F8FA05460DB100BF00BF26
:10716000A07AFF2802DAA07A401CA0724FF4FA77C6
:1071700007F2F310394690FBF1F0E08200BF00BF48
:10718000BDE8F08170B51C48056800BF00BF30E065
:107190002C6AFCB1607AE8B1608C78B1208C401C1C
:1071A00080B22084618C884208D100BF00BF28468D
:1071B00000F0AAFC284600F0FFF918E0E08B50B17F
:1071C000E18B481EE083012905D100BF00BF28469E
:1071D00000F029FE0BE0A08B48B1A18B481EA083D4
:1071E000012904D100BF00BF284600F0F7FD2D683B
:1071F00000BF002DCCD170BD940000202DE9F041DE
:1072000007460C46164600BF37B95EA005F094FA53
:107210006FF00F00BDE8F08100BF00BF2CB961A086
:1072200005F08AFA6FF00500F4E700BF00BFE068E0
:1072300010B164A005F080FA00BF00BF206910B152
:107240006AA005F079FA00BF00224FF49A71104647
:1072500004F068FBE060E06820B900BF00BF4FF0B9
:10726000FF30D7E700BFE0684089B0F59A7F02D2CF
:1072700068A005F061FA00BF032E02D1607A0328EE
:1072800009D1A07A20B973480068401C7149086090
:1072900070480068206000BF00BFE068406820615F
:1072A0000120216908702169487097F82800216938
:1072B000887000202169C870206803F0D5F8216922
:1072C0004860002021690881216948812169C860DE
:1072D000082E0BD0042E09D0072E07D0032E08D17C
:1072E000607A052802D0607A042802D17868216982
:1072F000C8600020216908612169486121698861AD
:1073000000250FE097F82800A84205DD062D03D2DE
:1073100007F12900405D00E0002021691C3148553B
:10732000681C85B2102DEDD3002505E000212069F1
:107330002C304155681C85B2402DF7D3002505E05F
:10734000002120696C304155681C85B2802DF7D32F
:1073500041482169C1F8EC000020A082002504E02A
:107360002069F0304555681C85B2442DF8D30122C0
:107370003521204600F0BAF93146204600F0D4F914
:10738000002047E7646863705F6372656174655FDE
:107390006D73673A206E6574696620213D204E55F5
:1073A0004C4C0000646863705F6372656174655F74
:1073B0006D73673A206468637020213D204E554C00
:1073C0004C000000646863705F6372656174655FA0
:1073D0006D73673A20646863702D3E705F6F7574DB
:1073E000203D3D204E554C4C000000006468637009
:1073F0005F6372656174655F6D73673A206468638B
:10740000702D3E6D73675F6F7574203D3D204E5546
:107410004C4C0000646863705F6372656174655F03
:107420006D73673A20636865636B207468617420CC
:10743000666972737420706275662063616E20687D
:107440006F6C642073747275637420646863705F1A
:107450006D73670010010020638253632DE9FC41C6
:1074600005462C6A002600BF00BF0C21204600F014
:1074700099FC042221462846FFF7C0FE064626BB9B
:1074800004223221204600F031F9A06A02F0ECFF1C
:1074900080464146204600F077F9204600F0DAF9B0
