:0200000460009A
:10000000464346420004015600000000000303007E
:1000100001010000010400000002000000000000D7
:1000200000000000000000000000000000000000D0
:1000300000000000000000000000000000000000C0
:1000400000000000010407000000000000000000A4
:10005000000000020000000000000000000000009E
:100060000000000000000000000000000000000090
:100070000000000000000000000000000000000080
:10008000EC04200A063204260000000000000000F4
:10009000050404240000000000000000000000002F
:1000A0000000000000000000000000000000000050
:1000B0000000000000000000000000000000000040
:1000C0000000000000000000000000000000000030
:1000D0000000000000000000000000000000000020
:1000E0000000000000000000000000000000000010
:1000F0000000000000000000000000000000000000
:1001000000000000000000000000000000000000EF
:1001100000000000000000000000000000000000DF
:1001200000000000000000000000000000000000CF
:1001300000000000000000000000000000000000BF
:1001400000000000000000000000000000000000AF
:10015000000000000000000000000000000000009F
:10016000000000000000000000000000000000008F
:10017000000000000000000000000000000000007F
:10018000000000000000000000000000000000006F
:10019000000000000000000000000000000000005F
:1001A000000000000000000000000000000000004F
:1001B000000000000000000000000000000000003F
:1001C000000100000010000000000000000000001E
:1001D000000000000000000000000000000000001F
:1001E000000000000000000000000000000000000F
:1001F00000000000000000000000000000000000FF
:0200000460009A
:10100000D10020410020006000000000301000608E
:1010100020100060001000600000000000000000D0
:10102000000000600000000200000000FFFFFFFF62
:10103000D2040041CC037C04400FC068FFFFFFFFD7
:10104000400FC06CFFFFFFFF400FC070FFFFFFFFAE
:10105000400FC074FFFFFFFF400FC078FFFFFFFF8E
:10106000400FC07CFFFFFFFF400FC080FFFFFFFF6E
:10107000400D803000002001400D8100001D000067
:10108000400FC01400020D40401F801400000000FB
:10109000401F801800000000401F801C000000005E
:1010A000401F802000000000401F8024000000003E
:1010B000401F802800000000401F802C000000001E
:1010C000401F803000000000401F803400000000FE
:1010D000401F803800000000401F803C00000000DE
:1010E000401F804000000000401F804400000000BE
:1010F000401F804800000000401F804C000000009E
:10110000401F805000000000401F8054000000007D
:10111000401F805800000000401F805C000000005D
:10112000401F806000000000401F8064000000003D
:10113000401F806800000000401F806C000000001D
:10114000401F807000000000401F807400000000FD
:10115000401F807800000000401F807C00000000DD
:10116000401F808000000000401F808400000010AD
:10117000401F808800000000401F808C000000009D
:10118000401F809000000000401F8094000000007D
:10119000401F809800000000401F809C000000005D
:1011A000401F80A000000000401F80A4000000003D
:1011B000401F80A800000000401F80AC000000001D
:1011C000401F80B000000000401F80B400000000FD
:1011D000401F80B800000000401F8204000000E1B2
:1011E000401F8208000000E1401F820C000000E167
:1011F000401F8210000000E1401F8214000000E147
:10120000401F8218000000E1401F821C000000E126
:10121000401F8220000000E1401F8224000000E106
:10122000401F8228000000E1401F822C000000E1E6
:10123000401F8230000000E1401F8234000000E1C6
:10124000401F8238000000E1401F823C000000E1A6
:10125000401F8240000000E1401F8244000000E186
:10126000401F8248000000E1401F824C000000E166
:10127000401F8250000000E1401F8254000000E146
:10128000401F8258000000E1401F825C000000E126
:10129000401F8260000000E1401F8264000000E106
:1012A000401F8268000000E1401F826C000000E1E6
:1012B000401F8270000000E1401F8274000000E1C6
:1012C000401F8278000000E1401F827C000000E1A6
:1012D000401F8280000000E1401F8284000000E186
:1012E000401F8288000000E1401F828C000000E166
:1012F000401F8290000000E1401F8294000000E146
:10130000401F8298000000E1401F829C000000E125
:10131000401F82A0000000E1401F82A4000000E105
:10132000401F82A8000000E1402F000010000004D0
:10133000402F000800030524402F000C060305245D
:10134000402F00108000001B402F00148200001B63
:10135000402F00188400001B402F000400007988F3
:10136000402F004000000F37402F00440065292225
:10137000402F004800010920402F004C50210A084E
:10138000402F008000000021402F008400888888C2
:10139000402F009400000002402F00980000000041
:1013A000402F009080000000402F009CA55A000FA5
:1013B000CF000C1C402F003C00000001CC001404A6
:1013C000402F009080000000402F009CA55A000C88
:1013D000CF000C1C402F003C00000001CC00140486
:1013E000402F009080000000402F009CA55A000C68
:1013F000CF000C1C402F003C00000001CC001C045E
:10140000402F00A000000033402F0090800000001B
:10141000402F009CA55A000ACF000C1C402F003C16
:1014200000000001CC000C04402F004C50210A09A0
:0200000460009A
:1020000000000120152400602D2400602F240060B2
:10201000312400603324006035240060000000009B
:1020200000000000000000000000000037240060F5
:1020300039240060000000003B2400603D24006063
:102040003F24006043240060472400604B2400606C
:102050004F24006053240060572400605B2400601C
:102060005F24006063240060672400606B240060CC
:102070006F24006073240060772400607B2400607C
:102080007F240060F7240060F7240060F7240060DC
:1020900083240060872400608B2400608F2400600C
:1020A00093240060972400609B2400609F240060BC
:1020B000A3240060A7240060AB240060AF2400606C
:1020C000B3240060B7240060BB240060BF2400601C
:1020D000C3240060C7240060F7240060F724006078
:1020E000F7240060F7240060F7240060F724006004
:1020F000F7240060F7240060F7240060F7240060F4
:10210000F7240060F7240060F7240060F7240060E3
:10211000F7240060F7240060F7240060F7240060D3
:10212000CB240060CF240060D3240060D72400605B
:10213000DB240060F7240060F7240060F7240060CF
:10214000F7240060F7240060F7240060F7240060A3
:10215000F7240060F7240060F7240060F724006093
:10216000F7240060F7240060F7240060F724006083
:10217000F7240060F7240060F7240060F724006073
:10218000F7240060F7240060F7240060F724006063
:10219000F7240060F7240060F7240060F724006053
:1021A000F7240060F7240060DF240060F72400605B
:1021B000F7240060F7240060F7240060F724006033
:1021C000F7240060F7240060F7240060F724006023
:1021D000F7240060F7240060F7240060F724006013
:1021E000F7240060F7240060F7240060F724006003
:1021F000E3240060F7240060E7240060EB24006023
:10220000F7240060F7240060EF240060F3240060EE
:10221000F7240060F7240060F7240060F7240060D2
:10222000F7240060F7240060F7240060F7240060C2
:10223000F7240060F7240060F7240060F7240060B2
:10224000F7240060F7240060F7240060F7240060A2
:10225000F7240060F7240060F7240060F724006092
:10226000F7240060F7240060F7240060F724006082
:10227000F7240060F7240060F7240060F724006072
:10228000F7240060F7240060F7240060F724006062
:10229000F7240060F7240060F7240060F724006052
:1022A000F7240060F7240060F7240060F724006042
:1022B000F7240060F7240060F7240060F724006032
:1022C000F7240060F7240060F7240060F724006022
:1022D000F7240060F7240060F7240060F724006012
:1022E000F7240060F7240060F7240060F724006002
:1022F000F7240060F7240060F7240060F7240060F2
:10230000F7240060F7240060F7240060F7240060E1
:10231000F7240060F7240060F7240060F7240060D1
:10232000F7240060F7240060F7240060F7240060C1
:10233000F7240060F7240060F7240060F7240060B1
:10234000F7240060F7240060F7240060F7240060A1
:10235000F7240060F7240060F7240060F724006091
:10236000F7240060F7240060F7240060F724006081
:10237000F7240060F7240060F7240060F724006071
:10238000F7240060F7240060F7240060F724006061
:10239000F7240060F7240060F7240060F724006051
:1023A000F7240060F7240060F7240060F724006041
:1023B000F7240060F7240060F7240060F724006031
:1023C000F7240060F7240060F7240060F724006021
:1023D000F7240060F7240060F7240060F724006011
:1023E000F7240060F7240060F7240060F724006001
:1023F000F7240060F7240060F7240060FFFFFFFF70
:10240000DFF80CD000F028FA00480047156B006098
:102410000000012072B63948394901600A6882F328
:1024200008883848804762B637480047FEE7FEE72D
:10243000FEE7FEE7FEE7FEE7FEE7FEE7FEE73348DE
:102440000047334800473348004733480047334884
:102450000047334800473348004733480047334874
:102460000047334800473348004733480047334864
:102470000047334800473348004733480047334854
:102480000047334800473348004733480047334844
:102490000047334800473348004733480047334834
:1024A0000047334800473348004733480047334824
:1024B0000047334800473348004733480047334814
:1024C0000047334800473348004733480047334804
:1024D00000473348004733480047334800473348F4
:1024E00000473348004733480047334800473348E4
:1024F00000473348004733480047000008ED00E03C
:1025000000200060F55E006001240060F724006098
:10251000F7240060F7240060F7240060F7240060CF
:10252000F7240060F7240060F7240060F7240060BF
:10253000F7240060F7240060F7240060F7240060AF
:10254000F7240060F7240060F7240060F72400609F
:10255000254E0060414E00605D4E0060794E006087
:10256000954E0060B14E0060CD4E0060E94E0060B7
:102570008145006091450060A1450060B145006063
:10258000F7240060F7240060F7240060F72400605F
:10259000F7240060F7240060F7240060F72400604F
:1025A000F7240060F7240060F7240060F72400603F
:1025B000F7240060F7240060F7240060F72400602F
:1025C000F7240060F72400602DE9F05F0546002045
:1025D00092469B4688460646814640241BE0284694
:1025E00041464746224600F0B2F853465A46C01AC2
:1025F000914110D311461846224600F099F82D1A41
:1026000067EB01084F4622460120002100F090F8B8
:1026100017EB00094E41201EA4F10104DFDC4846FF
:1026200031462A464346BDE8F09F2DE9F04100249B
:10263000061B254671F1000605DA01240027D0EBC0
:10264000070067EB0101161E73F1000605DA00278B
:10265000D2EB0702012567EB0303FFF7B5FF8646C0
:102660000E4617469C46AC4204D00025D0EB050E22
:1026700065EB010624B10020D2EB000760EB030CF0
:10268000704631463A466346BDE8F081D2B201E079
:1026900000F8012B491EFBD270470022F6E710B567
:1026A00013460A4604461946FFF7F0FF204610BDC0
:1026B000421C10F8011B0029FBD1801A70473EB55F
:1026C000CA17CB0F002450405140C0186141DA07AF
:1026D00040F233430094CDE901232246234600F023
:1026E00055F803B030BD70B5C1F30A5201F0004592
:1026F0000024C1F3130140F2FF3341F480119A42E8
:1027000002DA0020014670BD40F233439A42A2F241
:10271000334203DC524200F01AF801E000F008F8FE
:102720002C43F0D00023D0EB030063EB010170BD1C
:10273000202A04DB203A00FA02F100207047914081
:10274000C2F1200320FA03F3194390407047202A76
:1027500004DB203A21FA02F00021704721FA02F34B
:10276000D040C2F12002914008431946704710B58D
:10277000141E73F1000408DA401C41F100019218A4
:102780005B411A4301D120F0010010BD2DE9F04D4D
:1027900092469B4611B1B1FA81F202E0B0FA80F2A2
:1027A00020329046FFF7C4FF04460F4640EA0A0075
:1027B00041EA0B0153465A46084313D0114653EAE7
:1027C000010019D0C8F140025046FFF7C0FF05468E
:1027D0000E46504659464246FFF7AAFF084305D029
:1027E000012004E020463946BDE8F08D0020054375
:1027F00046EAE0762C4337430A986305E40AA0EBE7
:1028000008000022FD0A44EA47540A3002D500209D
:102810000146E9E7010510196941DDE9084500199C
:102820006941BDE8F04DA2E770B521F000430343D4
:102830000CD0C1F30A550024D5EB040564EB040366
:10284000D617AD1AB34102DB0020014670BD201837
:1028500041EB025170BD0000064C074D06E0E068F8
:1028600040F0010394E8070098471034AC42F6D3D7
:10287000FFF7CAFDA86E0060C86E006010B54FF487
:1028800000406249086000BF61486249086000BFBB
:102890000121614800F068FE0121604800F064FEFB
:1028A0005F48C06820F01F0040F012005C49C8601B
:1028B0005C4800F091FD00215B4800F0C7FD00215D
:1028C0005A4800F0C3FD0321594800F0BFFD032121
:1028D000584800F049FE0021504800F045FE002114
:1028E000554800F0B3FD00214B4800F03DFE0121AA
:1028F000524800F0ABFD0021514800F035FE0221A6
:10290000504800F0A3FD00214F4800F02DFE0221A9
:102910004E4800F09BFD00214D4800F025FE0421AB
:102920004548FC3800F092FD02214A4800F01CFEA8
:102930000221494800F08AFD0221484800F014FEB7
:102940000321474800F082FD01213C480C3000F093
:102950007DFD0021434800F007FE03214048001D93
:1029600000F074FD01213548103000F06FFD0021AA
:102970002948001D00F0F8FD03213B4800F066FDEA
:1029800001213A4800F062FD00213448001D00F0AA
:10299000EBFD0021364800F059FD0021354800F0DC
:1029A000E3FD0121344800F051FD022120480C30A4
:1029B00000F0DAFD0121314800F048FD07212A48E6
:1029C000083000F043FD03212D4800F0CDFD01212A
:1029D0002C4800F03BFD07212848083800F036FD60
:1029E0000321294800F0C0FD0021284800F0BCFD6B
:1029F00000211248083000F029FD0021104808305D
:102A000000F0B2FD03F0D2F910BD00000800002074
:102A100000366E0104000020186C00801439001488
:102A200000000840F86D006014EA000410E0004067
:102A3000146800801872008014FB00801CE007807E
:102A40001C26008024EB00801C30008024F00080D5
:102A50001C3100801864008024790080186E00808A
:102A600028E600801C6A008028F6008028F0078095
:102A700038F307803832008020E2078030F9008088
:102A80003074008028E90080207300800C200080D2
:102A900010B56148006800F40030B0F5003F2BD15C
:102AA00000BF00BF00BF00BF00BFBFF34F8F00BF1C
:102AB00000BF00BF00BF00BF00BFBFF36F8F00BFEC
:102AC00000BF00BF5448006820F40030524908603D
:102AD00000205249086000BF00BF00BFBFF34F8F06
:102AE00000BF00BF00BF00BF00BF00BFBFF36F8FBC
:102AF00000BF00BF00BF00BF4748006800F480303F
:102B0000B0F5803F01D102F0D5FC00BF00BF00BF8F
:102B100000BF00BFBFF34F8F00BF00BF00BF00BFAB
:102B200000BF00BFBFF36F8F00BF00BF00BF3A48B8
:102B30001030006820F48030374910310860364882
:102B40008030006820F0010033498031086000BF08
:102B500033483149883108603248091D08603248DD
:102B6000091F08602F48801C091D08602F48091F95
:102B700008602F48091D08601320091F08602948B4
:102B8000801C091D08601420091F086028481A3895
:102B9000091D08602748091F086025481A38091DC3
:102BA00008602548091F086021481838091D086079
:102BB0001D48801D091F08601D480838091D086050
:102BC0001E48091F08601E48091D0860042000BF38
:102BD00000BF00BF00BFBFF34F8F00BF00BF00BFEB
:102BE00000BF00BF00BFBFF36F8F00BF00BF00BFBB
:102BF00040F00101084A803211600749103109682C
:102C000041F48031044A1032116000BF02F0F0FC40
:102C100002F07AFD10BD000014ED00E050EF00E07E
:102C2000100000C039001003110000801200006085
:102C30003900030315000020160020201800E08151
:102C40002900080370B51648C1B2164A8958C0F366
:102C50004C32C0F304239A401140C0F30422D14007
:102C600061B9114800F088FA0621B0FBF1F50F4870
:102C700000F05AF9401CB5FBF0F40FE000BF0C481F
:102C8000006800F0100008B10A4D01E00A4805682C
:102C9000064800F049F9401CB5FBF0F4204670BD31
:102CA0002426008000C00F400D00100024E00780A3
:102CB00070820D4000366E010400002010B5FFF751
:102CC000C1FF0446234602224FF4E131014800F0DF
:102CD000BBFE10BD004018401CB540F2024000F0A1
:102CE000E7F80020164903460246CDE9001002210C
:102CF000144801F0BFFA00201149091D034602469D
:102D0000CDE9001002210F48001D01F0B3FA41F295
:102D1000B0000B4900231A46CDE9001002210948F2
:102D200001F096FA41F2B0000549091D00231A4648
:102D3000CDE9001002210348001D01F089FA1CBDF5
:102D400048821F40D4801F402DE9F04104460E46C2
:102D5000270A04F01F08062F00D805E040F287324A
:102D600008A111A003F046F9124800EB8705286876
:102D7000032101FA08F1884306FA08F108432860A4
:102D8000BDE8F0812E2E5C2E2E5C6C696272617241
:102D90006965735C647269766572735C66736C5F97
:102DA000636C6F636B2E6800696E646578203C3DD0
:102DB0002036000068C00F402DE9F04104460E4661
:102DC000270A04F01F08062F00D805E040F28732DA
:102DD00008A111A003F00EF9124800EB870528683E
:102DE000032101FA08F1884306FA08F10843286034
:102DF000BDE8F0812E2E5C2E2E5C6C6962726172D1
:102E00006965735C647269766572735C66736C5F26
:102E1000636C6F636B2E6800696E646578203C3D5F
:102E20002036000068C00F402DE9F04704462546D3
:102E300003274FEA152805F01F09B8F1060F00D83F
:102E400005E040F2873209A111A003F0D3F813483E
:102E500000EB88063068032101FA09F1884307FA7C
:102E600009F10843306000BFBDE8F0872E2E5C2ECC
:102E70002E5C6C69627261726965735C64726976FA
:102E80006572735C66736C5F636C6F636B2E680056
:102E9000696E646578203C3D2036000068C00F40B4
:102EA00010B5044603212046FFF786FF10BD000041
:102EB0002DE9F0470446254603274FEA152805F07B
:102EC0001F09B8F1060F00D805E040F2873209A1CA
:102ED00011A003F08FF8134800EB88063068032137
:102EE00001FA09F1884307FA09F10843306000BF8D
:102EF000BDE8F0872E2E5C2E2E5C6C6962726172CA
:102F00006965735C647269766572735C66736C5F25
:102F1000636C6F636B2E6800696E646578203C3D5E
:102F20002036000068C00F400146C8B2054A8058EC
:102F3000C1F34C32C1F304239A401040C1F3042280
:102F4000D040704700C00F4070B50546142D72D2B6
:102F5000DFE805F00A0B153445494E53585D6267AA
:102F60006C72777C81868C9200BF00F0A9F847498B
:102F70004969C1F38221491CB0FBF1F483E0434865
:102F8000406900F0400070B14048406900F08000A6
:102F900020B1012000F0EAF9044607E0022000F029
:102FA000AFF9044602E000F08BF804463748406968
:102FB000C0F30240401CB4FBF0F464E000F080F881
:102FC00032494969C1F38221491CB0FBF1F42F4811
:102FD0004069C0F30120401CB4FBF0F453E000F062
:102FE0005FF804464FE000BF4FF4004400BF4AE0E2
:102FF000274800F0C1F8044645E0002000F0B6F98B
:10300000044640E0012000F0B1F904463BE0022014
:1030100000F0ACF9044636E0032000F0A7F90446BE
:1030200031E01C4800F0A8F804462CE0002000F035
:1030300067F9044627E024E0012000F061F9044626
:1030400021E0022000F05CF904461CE0032000F0BF
:1030500057F9044617E0104800F08EF8044612E0D5
:103060000D48083000F088F804460CE00A480930A2
:1030700000F082F8044606E0084800F07DF80446B7
:1030800001E0002400BF00BF204670BD00C00F401B
:103090000D0010000D0030000D00E0000D0070006C
:1030A0000448006800F0100008B103487047034866
:1030B0000068FBE770820D4000366E0104000020BE
:1030C00010B52948406900F0007040B32648806977
:1030D00000F4405048B1B0F5805F0BD0B0F5005F10
:1030E0000CD0B0F5405F0ED10EE0204800F044F85F
:1030F00004460BE0FFF7D4FF044607E01C4800F04D
:103100003BF8044602E000BF002400BF00BF1648A1
:103110004069C0F3C260401CB4FBF0F422E01248E6
:10312000806900F4402048B1B0F5802F0BD0B0F595
:10313000002F0DD0B0F5402F11D10EE00C4800F05B
:103140001BF804460DE0032000F010F9044608E0E7
:10315000032000F0D5F8044603E0064C01E000240B
:1031600000BF00BF204610BD00C00F400D00100082
:103170000D0030000065CD1D2DE9FF478146594BFC
:10318000D3E901021968DB6801AC0DC4009156490E
:103190004846C0F30B428A5800F01F070123BB408A
:1031A0001A400AB1012200E000221AB9002004B03E
:1031B000BDE8F0874C4FC846C8F30B403858C0F301
:1031C000813010B9FFF76CFF00E00020044646484C
:1031D000C9F30B414158C1F3004109B12046E6E76C
:1031E0004249A9EB010089456BD00BDCA9F58010A1
:1031F000A0F10D0028B3B0F5001F08D0B0F5C00F46
:103200006BD128E0082864D0092866D163E03648ED
:10321000D0F860C0006DA4FB007001466246002338
:103220003846FFF7D1F905462F48006B00F0010042
:1032300010B11620444302E004EB840084002C44C7
:103240004DE02948006900F0020008B1162000E0B6
:103250001420444343E02448006F00F07F0A2248D2
:103260009030D0F800C02048D0F88000A4FB007057
:103270000146624600233846FFF7A6F9054604FBDF
:103280000A541948006F00F4C01018B1B0F5002FAF
:1032900004D101E0A40802E0640800E000BF00BF20
:1032A0001348006813490840B0F5004F04D0494264
:1032B000084418B9A40802E0640800E000BF00BF99
:1032C0000DE00B489038006800F0030A5DF82A40D2
:1032D00005E0094C03E0094C01E0002400BF00BFF9
:1032E000204664E7546D006000800D400D00E00052
:1032F00070810D400080800040787D010065CD1D0B
:1033000070B505461748FFF737FF044635B1012D64
:103310000BD0022D10D0032D1CD114E012480068F0
:1033200000F03F00B4FBF0F416E00F480068C0F373
:103330000520B4FBF0F40FE00B480068C0F3054033
:10334000B4FBF0F408E008480068C0F30560B4FB83
:10335000F0F401E0002400BF00BF04EBC40044000F
:10336000204670BD0D00300000810D4070B505464F
:103370001748FFF701FF044635B1012D0BD0022D90
:1033800010D0032D1CD114E01248006800F03F005B
:10339000B4FBF0F416E00F480068C0F30520B4FB5E
:1033A000F0F40FE00B480068C0F30540B4FBF0F404
:1033B00008E008480068C0F30560B4FBF0F401E0E1
:1033C000002400BF00BF04EBC4004400204670BDD1
:1033D0000D001000F0800D4010B5C27802F003011E
:1033E000194A126822F4404242F4803203794FF4C1
:1033F000404404EA83331A43134B1A6002780AB13B
:1034000041F4005182780AB141F4001142780AB1C6
:1034100041F480010C4A126841F203039A430A43C3
:10342000094BE03BC3F8E02000BF074A126802F0F6
:103430000042002AF9D0044A126822F48032024B7A
:10344000E03BC3F8E02010BDE0800D4070B50446BD
:103450000E463F2000EA9465E0B215494158C4F396
:103460004C30C4F30422904021EA0000C4F304224B
:1034700006FA02F1C4F34C32C4F304239A4011401B
:103480000843E1B20A4A8850202D00D805E040F2F6
:10349000653208A110A002F0ADFD202D07D000BFBD
:1034A0000348806C0121A94008400028F8D170BD74
:1034B00000C00F402E2E5C2E2E5C6C696272617211
:1034C0006965735C647269766572735C66736C5F60
:1034D000636C6F636B2E68006275737953686966FD
:1034E00074203C3D2043434D5F4E4F5F425553593E
:1034F0005F5741495400000070B504460E463F2016
:1035000000EA9465E0B216494158C4F34C30C4F364
:103510000422904021EA0000C4F3042206FA02F1DA
:10352000C4F34C32C4F304239A4011400843E1B27F
:103530000B4A8850202D00D806E040F26532094938
:1035400001F1240002F056FD202D07D000BF0448F1
:10355000806C0121A94008400028F8D170BD00000E
:1035600000C00F407C36006070B504460E463F2018
:1035700000EA9465E0B215494158C4F34C30C4F3F5
:103580000422904021EA0000C4F3042206FA02F16A
:10359000C4F34C32C4F304239A4011400843E1B20F
:1035A0000A4A8850202D00D805E04FF4507208A137
:1035B00010A002F01FFD202D07D000BF0348806C33
:1035C0000121A94008400028F8D170BD00C00F407B
:1035D0002E2E5C2E2E5C6C69627261726965735C62
:1035E000647269766572735C66736C5F636C6F633B
:1035F0006B2E6800627573795368696674203C3D70
:103600002043434D5F4E4F5F425553595F574149E9
:103610005400000070B504460E463F2000EA946551
:10362000E0B215494158C4F34C30C4F30422904031
:1036300021EA0000C4F3042206FA02F1C4F34C327A
:10364000C4F304239A4011400843E1B20A4A885067
:10365000202D00D805E04FF4507208A110A002F010
:10366000C9FC202D07D000BF0348806C0121A94070
:1036700008400028F8D170BD00C00F402E2E5C2EEF
:103680002E5C6C69627261726965735C64726976E2
:103690006572735C66736C5F636C6F636B2E68003E
:1036A000627573795368696674203C3D2043434DCD
:1036B0005F4E4F5F425553595F57414954000000D8
:1036C0000748006840F080700549086000200549FF
:1036D00048600846006840F001000860704700003C
:1036E000FCED00E0001000E0014840687047000079
:1036F000001000E02DE9F04107460026FFF7E0FF4B
:103700000020FFF721FC1049B0FBF1F000FB07F8A7
:1037100000BFFFF7E9FF054611E0FFF7E5FF0446AC
:10372000AC420CD0AC4202D9601B064403E0C5F1A8
:10373000FF30204406442546464500D300E0ECE730
:1037400000BFBDE8F081000040420F002DE9FF4FAF
:103750002DED0A8B87B0834616461F464FF00009B1
:103760005D46002005F8010B129890ED000BB0EEBD
:1037700040BBB5EEC0BBF1EE10FA0AD13020287084
:1037800009F10109484607B0BDEC0A8B04B0BDE859
:10379000F08F02A8B0EE4B0B02F04EFCB0EE409B57
:1037A0004FF0000A09E000EE106AB8EEC00B29EEF7
:1037B000000BB0EE409B0AF1010ABA45F3D3B5EE17
:1037C000C0BBF1EE10FA19DBB6EE000B39EE008B40
:1037D00000EE107AB8EE401BB2EE040B02F08CFC47
:1037E000B4EEC80BF1EE10FA23D89DED020BB7EE44
:1037F000001B30EE010B8DED020B1AE0B6EE000B54
:1038000039EE408B00EE107AB8EE401BB2EE040B9E
:1038100002F072FCB1EE400BB4EEC80BF1EE10FA00
:1038200007DB9DED020BB7EE001B30EE410B8DED7B
:10383000020B4FF0000A2FE000EE106AB8EEC00B4A
:1038400088EE00AB51EC1A0BFEF74DFFF317A0FB0F
:10385000062C01FB06C100FB0310CDE90020104639
:103860000199FEF72CFF41EC100B38EE40CBBDEE7A
:10387000CC0B10EE104A002C05DA0494049CE043B3
:1038800000F1310400E03034B0EE4A8B05F8014B12
:1038900009F101090AF1010ABA45CDD32E2005F834
:1038A000010B09F101099DED020BBDEEC00B10EEFD
:1038B000108AB8F1000F05D1302005F8010B09F18D
:1038C000010918E014E098FBF6F00590059800FB5C
:1038D0001684002C05DA0494049CE04300F13104C2
:1038E00000E03034DDF8148005F8014B09F10109DE
:1038F000B8F1000FE7D1484645E72DE9FF4F89B001
:103900001E4600200190DDF824B00BF8010B0B9847
:1039100000284DD00A98D0E90078002187EA0100FC
:1039200088EA0101084309D130208BF80000019892
:10393000401C019001980DB0BDE8F08F2FE0324699
:10394000F31738464146FEF770FECDE90601F3173E
:10395000DDE90601A0FB062C01FB06C103FB0013F9
:10396000B91A68EB0300CDE904100023DDE9041067
:10397000C91A984107DA049CE143491C4FF0300012
:103980000818049002E0049830300490DDE90678CD
:1039900004980BF8010B019800F1010001904FF021
:1039A000000187EA010088EA01010843C7D148E025
:1039B0000A98D0E9009A002189EA01008AEA010107
:1039C000084307D130208BF800000198401C01907B
:1039D0000198B0E72DE03246F31748465146FEF70E
:1039E000F3FDCDE90201F317DDE90201A0FB062C8E
:1039F00001FB06C100FB0310B9EB02046AEB0005F2
:103A00000A21611A75F1000001D2303409E00A215F
:103A1000601A65F10001169909B1412100E06121A8
:103A20004418DDE9029A0BF8014B019800F10100FE
:103A300001904FF0000189EA01008AEA0101084380
:103A4000C9D1019877E700002DE9F04106460D46FF
:103A500014461F4604B104E0692206A111A002F039
:103A6000C9FA3B462A462146304600F03BFDBDE8F8
:103A7000F08100002E2E5C2E2E5C6C6962726172E9
:103A80006965735C7574696C69746965735C667388
:103A90006C5F64656275675F636F6E736F6C652ED4
:103AA0006300000064657669636520213D2044451C
:103AB0004255475F434F4E534F4C455F444556492F
:103AC00043455F545950455F4E4F4E45000000003E
:103AD0000FB430B5A1B00024002580216846FEF760
:103AE000DCFD25A82090094B6A462099249801F016
:103AF00049FE04462146684600F018FD05460020B0
:103B00002090284621B030BC5DF814FB113B0060CA
:103B10002DE9F04105460C4616461F464FF00008B9
:103B200000BF10E02068401C802805D3284621688B
:103B300000F0FCFC0020206020682E542068401C0F
:103B4000206008F10108B845ECDBBDE8F081000019
:103B500010B588B000210D48FFF75CFD05210C4829
:103B6000FFF7CAFC01A800F03DFE0A4803900620BA
:103B7000FFF7EAF9C0080621B0FBF1F4224601A9DB
:103B8000054800F055FE08B010BD00003832008036
:103B900038F30780801A060000003F4010B540A0AF
:103BA000FFF796FF002414E045490C550846015DD7
:103BB00044A0FFF78DFF601C0A2190FBF1F201FB8E
:103BC000120008B1FF2C02D140A0FFF781FF601C5A
:103BD00084B2FF2CE8DD4FF48073394A0021A02025
:103BE00000F0DEF93AA0FFF773FF40A0FFF770FF87
:103BF0004FF48073454A0021A12000F0A5F900246C
:103C000032E04248005D2E49095D884219D03F48A4
:103C1000015D2CA0FFF75CFF3D48006820F080703C
:103C20003B4908600846006840F00070086008469C
:103C3000006840F08060086036A0FFF749FF01206F
:103C400010BD3248015D1FA0FFF742FF601C0A2132
:103C500090FBF1F201FB120008B1FF2C02D11BA076
:103C6000FFF736FF601C84B2FF2CCADD28480068CD
:103C700020F00050264908600846006840F0807037
:103C800008600846006820F0007008600846006878
:103C900040F0806008602EA0FFF71AFF0020CFE7F9
:103CA0003C3C2D454550524F4D2D494E464F2D3EE3
:103CB0003E20D0B4C8EBB5C4CAFDBEDD0A0000008A
:103CC0007000002030782530325820000D0A0000A6
:103CD0003C3C2D454550524F4D2D494E464F2D3EB3
:103CE0003E20D0B4B3C9B9A60A0000003C3C2D4523
:103CF0004550524F4D2D494E464F2D3E3E20B6C1A8
:103D0000B3F6B5C4CAFDBEDD0A0000007001002094
:103D100000801B403C3C2D454550524F4D2D455297
:103D2000524F522D3E3E20B4EDCEF33A493243205D
:103D3000454550524F4DD0B4C8EBD3EBB6C1B3F6A6
:103D4000B5C4CAFDBEDDB2BBD2BBD6C20A000000FC
:103D50003C3C2D454550524F4D2D494E464F2D3E32
:103D60003E20493243284154323443303229B6C1CF
:103D7000D0B4B2E2CAD4B3C9B9A60A0070B5054638
:103D8000002406E0094850F82400A84200D102E0CF
:103D9000641C062CF6D300BF062C00D204E054228B
:103DA00003A10CA002F026F9204670BD646D0060EE
:103DB0002E2E5C2E2E5C6C69627261726965735C7A
:103DC000647269766572735C66736C5F6770696F45
:103DD0002E630000696E7374616E6365203C204140
:103DE000525241595F53495A4528735F6770696F52
:103DF00042617365732900002DE9F04104460D46C8
:103E000016462046FFF7BAFF124931F910703846BE
:103E1000FFF70AF860690121A940884360613078A2
:103E200028B960680121A9408843606009E0727880
:103E30002946204600F056F861680120A840014359
:103E40006160B7783A462946204600F005F800BF81
:103E5000BDE8F0817C6D0060F0B503460C4621465C
:103E6000DD690126A640B543DD61102C02D203F1C5
:103E70000C0002E003F110001039062A2ED2DFE810
:103E800002F02D030A15202705684F000326BE40C7
:103E9000B543056023E005684F000326BE40B543E7
:103EA0004F000126BE403543056018E005684F000D
:103EB0000326BE40B5434F000226BE403543056091
:103EC0000DE005684F000326BE403543056006E05F
:103ED000DD690126A6403543DD6100E000BF00BF7B
:103EE000F0BD000070B504460D461646202D00D2E8
:103EF00004E0742208A111A002F07CF82EB9206819
:103F00000121A9408843206004E021680120A840E5
:103F10000143216070BD00002E2E5C2E2E5C6C696A
:103F2000627261726965735C647269766572735CF2
:103F300066736C5F6770696F2E63000070696E2036
:103F40003C203332000000002DE9F04186B00446E9
:103F50000D4617461E4618216846FEF79EFB4FF099
:103F6000010800BF00BF6010ADF8040001208DF80B
:103F7000060002950390049705960020009069467C
:103F8000064800F05FFE8046B8F1000F03D0012024
:103F900006B0BDE8F0810020FAE7000000003F40D5
:103FA0002DE9FF5F0C4690461F464FF00009CA46B8
:103FB000CB460025FEB22046E11704EB5171C91033
:103FC000A4EBC10101F0FF0BCBF10800C5B2AF4279
:103FD00001DD781B00E03846C6B23046F11706EB2B
:103FE00051714FEAE109F11706EB5171C910A6EBC7
:103FF000C10101F0FF0A6DB1AF420BDD2B46424615
:104000002146009800F080F8009800F0CDF8601983
:10401000C4B2A844B9F1000F09D153464246214623
:10402000009800F071F8009800F0BEF821E00DE073
:10403000082342462146009800F066F8009800F0F8
:10404000B3F804F10800C4B208F10808B9F100009F
:10405000A9F1010101F0FF09EAD1BAF1000F08D07E
:10406000534642462146009800F04EF8009800F072
:104070009BF8BDE8FF9F00001CB501200B490346DB
:104080000A4AD432CDE900100021094800F00CF9A9
:1040900001200649091D0346044AD832CDE9001023
:1040A00000210348001D00F0FFF81CBDA8821F403E
:1040B00034811F401CB54DF670000C4901230B4A9A
:1040C000D432CDE900100021094800F0CDF84DF6BA
:1040D00070000649091D0123044AD832CDE90010B9
:1040E00000210348001D00F0BFF81CBDA8821F403E
:1040F00034811F4010B500BF00BFFFF7BDFFFFF7C1
:10410000D9FFFFF725FD10BD2DE9F04186B005462A
:104110000F4616461C4618216846FEF7BEFA4FF0B9
:10412000010800BF00BF082C06DD10A0FFF7D0FC7F
:10413000012006B0BDE8F0816810ADF80400002051
:104140008DF8060002970120039004960594002044
:1041500000906946134800F075FD8046B8F1000FE5
:1041600001D00120E5E70020E3E700003C3C2D45BD
:104170004550524F4D2D4552524F522D3E3E204EEE
:10418000756D42797465546F57726974653E454523
:1041900050524F4D5F5061676553697A650D0A0A49
:1041A0000000000000003F4070B504464FF4206658
:1041B00000BF4FF48061154800F00CFB6110002235
:1041C000124800F0F5FC05462820FFF793FA0F4847
:1041D000406900F4806018B1301EA6F10106E8D1F4
:1041E0004FF48061094800F0F5FA084800F004FD3A
:1041F00005460A20FFF77EFA06B125B1032000F03C
:1042000007F8012070BD0020FCE7000000003F40DF
:1042100010B50446214602A0FFF75AFCFF2010BD4E
:104220003C3C2D454550524F4D2D4552524F522D3D
:104230003E3E2049324320B5C8B4FDB3ACCAB121DB
:104240006572726F72436F6465203D2025640A00B9
:1042500030B5DDE9034504B1256030BD30B5DDE999
:10426000034504B1256030BD30B5DDE9034504B137
:10427000256030BDF0B5DDE9055401F007061027D3
:1042800007EA04173E43066002B11360F0BDF0B5C3
:10429000DDE9055401F00706102707EA04173E433D
:1042A000066002B11360F0BDF0B5DDE9055401F020
:1042B0000706102707EA04173E43066002B11360A1
:1042C000F0BD0000F0B585B004460D4616461F4609
:1042D00004B104E0FF221CA125A001F08BFE20798F
:1042E000264908712068086008460079022826D10E
:1042F000684600F033FE009520493246086869465A
:1043000000F0ACFE1D4A0121106821B1826942F41F
:104310000022826103E0826922F40022826100BFF0
:10432000164A0121106821B1826942F4802282611B
:1043300003E0826922F48022826100BF00E000BFB6
:1043400000BF05B0F0BD00002E2E5C2E2E5C6C6907
:10435000627261726965735C7574696C69746965B0
:10436000735C696F5C66736C5F696F2E630000003D
:104370004E554C4C20213D20696F00001800002054
:104380002DE9F04104460D46164600270C480079F9
:1043900002280FD136B10A492A460868214601F0A1
:1043A00055F806E006492A460868214600F0D0FF85
:1043B000074601E0012700BF00BF3846BDE8F08195
:1043C0001800002010B500F025F800F057F800F0B4
:1043D00001F810BD08B501208DF800008DF801002E
:1043E00000208DF802006A461D210948FFF704FDF0
:1043F0006A4618210648FFF7FFFC6A46192104485F
:10440000FFF7FAFC6A461A210148FFF7F5FC08BDE0
:1044100000801B401CB50020164903460246CDE92A
:10442000001005211448FFF732FF0020114914390C
:1044300003460246CDE9001005210F481438FFF766
:1044400026FF00200B490C3903460246CDE9001037
:10445000052109480C38FFF71AFF002005491039DB
:1044600003460246CDE90010052103481038FFF746
:104470000EFF1CBDA4821F4030811F401CB5B02020
:10448000164900231A46CDE9001005211448FFF70C
:10449000E5FEB0201149143900231A46CDE9001079
:1044A00005210F481438FFF7D9FEB0200B49103909
:1044B00000231A46CDE90010052109481038FFF7FE
:1044C000CDFEB02005490C3900231A46CDE9001075
:1044D000052103480C38FFF7C1FE1CBDA4821F4014
:1044E00030811F402DE9FC4107460C4615461E460B
:1044F00000978DF804400023324629466846FFF7AE
:10450000E1FE0020BDE8FC8170B505460C460026A2
:104510004CB145B1012636B1012221462846FFF7AC
:104520002FFF00B10024204670BD000070B5044686
:104530000D4604B105E040F23F1204A10DA001F0C8
:1045400059FD29462046FFF7DFFF70BD2E2E5C2E59
:104550002E5C6C69627261726965735C7574696CFA
:1045600069746965735C6C6F675C66736C5F6C6FB4
:10457000672E630062756620213D204E554C4C002D
:1045800010B50121014800F02DF810BD00003F409A
:1045900010B50221014800F025F810BD00403F4051
:1045A00010B50321014800F01DF810BD00803F4008
:1045B00010B50421014800F015F810BD00C03F40BF
:1045C00070B50546284600F030F9044604F0007046
:1045D00028B104F0807010B94FF4617070BD0020F4
:1045E000FCE7000070B504460D46206900F00100AC
:1045F00048B10D48006830B10C4850F825102046ED
:10460000094A12689047D4F8100100F0010048B13F
:104610000748006830B1074850F825102046044A82
:104620001268904770BD0000100000204800002074
:10463000140000205C0000202DE9F04705460E46DE
:1046400091461F4605B104E0D22214A11CA001F03E
:10465000D1FC07B104E0D32210A11EA001F0CAFCD6
:10466000B5FBF7F04FF47A71B0FBF1F01D49B1FBE7
:10467000F0F8002400E0641C601C00FB08F0B0426D
:1046800002D2601C4845F6D32CB906EB8600B8EB85
:10469000400F00D801242046BDE8F0872E2E5C2E66
:1046A0002E5C6C69627261726965735C64726976B2
:1046B0006572735C66736C5F6C706932632E630045
:1046C000736F75726365436C6F636B5F487A203EEE
:1046D000203000007072657363616C6572203E204B
:1046E0003000000040420F0070B50546002407E08E
:1046F000074850F82400A84201D1204670BD641C30
:10470000052CF5D3C22203A10BA001F073FC00001D
:10471000D06D00602E2E5C2E2E5C6C696272617210
:104720006965735C647269766572735C66736C5FED
:104730006C706932632E630066616C736500000003
:1047400070B505460C46002604F47054002C26D0A3
:1047500004F4005010B140F28A3618E004F400600E
:1047600010B140F2893612E004F4806010B140F2DA
:1047700086360CE004F4805010B140F2873605E034
:104780004FF4877207A110A001F034FC00BF21464E
:10479000284600F01DF8286940F440702861304632
:1047A00070BD00002E2E5C2E2E5C6C6962726172F0
:1047B0006965735C647269766572735C66736C5F5D
:1047C0006C706932632E630066616C736500000073
:1047D0004161704741617047026961F30002026103
:1047E000704700000121017000218170012141709A
:1047F0000021C1700171064981600021C160016121
:104800000175417581750022C275012202767047DB
:10481000A08601001AB1C36D03F00703136019B13C
:10482000C36DC3F302430B6070470146486970478C
:104830002DE9F05F05460C4691462846FFF754FFE8
:104840008346474931F91B00FEF72AFB284600F052
:10485000DDF8A078082101EAC000617809B90121DA
:1048600000E00021042202EA8101084328612F6A46
:1048700027F00707A07D00F00100217E022202EA56
:1048800041010843E17D042202EA81010843074314
:104890002F626F6A3348074020794FF0E06101EAE8
:1048A00000600743E078D10101EA402007436F62CE
:1048B000002001464FF4403202EA01420243AA6559
:1048C00000BF49462846A26800F0E0F8686A00F098
:1048D000070AAE6AE06860B1534640F6FF72484688
:1048E000E168FFF7A9FE80466FF30B06C8F30B00E3
:1048F0000643207D68B1217D01230F224846FFF742
:104900009BFE804626F070664FF0706000EA0860FB
:104910000643607D68B1617D01230F224846FFF7A1
:104920008BFE804626F470264FF4702000EA084083
:104930000643AE62206960B12069010A534640F621
:10494000FF724846FFF778FE8046E86A68F3132056
:10495000E86221782846FFF73FFFBDE8F09F00009E
:10496000EE6D0060FFFDFFF82DE9F04706460F46AB
:10497000144607B105E040F2832219A121A001F0FD
:1049800039FB14B90020BDE8F087304600F02CFA5E
:1049900005460DB12846F6E7601EC0B240F48070AF
:1049A0003066B84615E000BF3046FFF73EFF82464E
:1049B00051463046FFF7C4FE05460DB12846E2E7F2
:1049C000D6F8709009F480400028EDD108F8019BDA
:1049D00000BF201EA4F10104E5D100BFD3E7000011
:1049E0002E2E5C2E2E5C6C69627261726965735C3E
:1049F000647269766572735C66736C5F6C70693241
:104A0000632E6300727842756666000002210161C0
:104A100000210161704700002DE9F04106460C4677
:104A20001746254604B105E040F2BF220CA115A0AF
:104A300001F0E0FA0DE0304600F0D6F98046B8F11A
:104A4000000F02D04046BDE8F08115F8010B30663A
:104A500000BF381EA7F10107EDD100BFF3E700004A
:104A60002E2E5C2E2E5C6C69627261726965735CBD
:104A7000647269766572735C66736C5F6C706932C0
:104A8000632E630074784275666600002DE9F74F67
:104A900084B0054691460024002003900026029031
:104AA0004FF0FF3B286900F00100009000212846EC
:104AB000FFF792FE012438E0012732E0012F0AD1EE
:104AC0000598B0FBF4F10220B0FBF4F0801DB1FBBF
:104AD000F0F001900CE00598B0FBF4F10220B0FB7F
:104AE000F4F207EB4700801C1044B1FBF0F001909A
:104AF0000198814503D90198A9EB000002E00198D3
:104B0000A0EB090002900298584509D203943E4652
:104B1000DDF808B0DDF808B0BBF1000F00D102E00D
:104B20007F1C202FCAD300BF6400802C02D8BBF1A9
:104B3000000FC1D14FF47C5000EA062A022E03D2A6
:104B40001A484AEA000A0EE0F0064FF47C1101EA26
:104B5000064141EA906071084FF07C5202EA01611F
:104B6000084340EA0A0AC5F848A04FF000080AE0E6
:104B7000012000FA08F00399884202D1CDF80C8098
:104B800004E008F10108B8F1080FF1DB00BF039859
:104B9000696A60F302016962009818B10121284630
:104BA000FFF71AFE07B0BDE8F08F00000300020116
:104BB0002DE9F04104460E4617462046FFF700FD5A
:104BC000054615B12846BDE8F0814FF4FE41204668
:104BD000FFF7FEFD606A20F480706062204600F0FE
:104BE00003F905460DB12846EDE747EA460040F4D3
:104BF000806020660020E6E770B50546284600F094
:104C0000F3F804460CB1204670BD4FF400702866DE
:104C100012E02846FFF709FE064631462846FFF710
:104C20008FFD044606F4007028B14FF40071284649
:104C3000FFF7CEFD02E000BF002CEAD000BF204607
:104C4000E2E700002DE9FF4705460C460026002755
:104C500004B105E04FF4367248A151A001F0CAF941
:104C6000E068042800D805E040F2D92243A14FA013
:104C700001F0C0F92846FFF7A3FC06461EB13046F6
:104C800004B0BDE8F0874FF4FE412846FFF7A0FDD1
:104C9000686A20F480706862E06808B1002000E073
:104CA000A0798146207800F0010060B9A0884FF615
:104CB000FF7101EA400040EA090040F48062384692
:104CC0007F1C2DF81020E06878B1E06808E0C30090
:104CD000A268DA40D1B23A467F1C2DF8121000BF0C
:104CE000011EA0F10100F2D100BF606988B1A07976
:104CF00001280ED1B9F1000F0BD1A0884FF6FF713A
:104D000001EA4000401C40F4806238467F1C2DF8C8
:104D100010204FF000080BE0284600F065F806462A
:104D20000EB13046ACE73DF81800286608F10108DE
:104D3000381EA7F10107EFD1A07938B9606928B111
:104D40002846D4E90412FFF767FE0646A079012839
:104D500007D1606928B12846D4E90412FFF704FEA0
:104D600006460EB130468BE7207800F0040018B9F3
:104D70002846FFF741FF0646304681E72E2E5C2E7F
:104D80002E5C6C69627261726965735C64726976CB
:104D90006572735C66736C5F6C706932632E63005E
:104DA0007472616E73666572000000007472616EE9
:104DB000736665722D3E73756261646472657373A8
:104DC00053697A65203C3D2073697A656F66287463
:104DD00072616E736665722D3E7375626164647292
:104DE0006573732900000000F8B50546042600BF6E
:104DF0006A4600212846FFF70DFD0098301A009002
:104E00002846FFF712FD074639462846FFF798FC6B
:104E100004460CB12046F8BD00980028E8D00020D8
:104E2000F9E7000010B5034841680348034A1268D7
:104E3000904710BD24000020004018400C000020C6
:104E400010B5034881680348034A1268904710BDB3
:104E500024000020008018400C00002010B50348FA
:104E6000C1680348034A1268904710BD240000201F
:104E700000C018400C00002010B503480169034829
:104E8000034A1268904710BD24000020000019401A
:104E90000C00002010B5034841690348034A12681A
:104EA000904710BD24000020004019400C00002055
:104EB00010B5034881690348034A1268904710BD42
:104EC00024000020008019400C00002010B5034889
:104ED000C1690348034A1268904710BD24000020AE
:104EE00000C019400C00002010B50348016A0348B7
:104EF000034A1268904710BD2400002000001A40A9
:104F00000C00002070B505460C46AB6A23F4403314
:104F10004FF4403000EA04400343AB626B6923F076
:104F2000004304F0004003430B480340C14304EA3C
:104F30000100034323F4404304F4404003436B6106
:104F4000284600F083F8204010B140F21A5600E0E5
:104F50000026304670BD0000FFFFE0BF10B50446DC
:104F600004B105E04FF4F1720BA115A001F042F875
:104F70004FF4E1302060002020716071A071E07179
:104F800020726072A072E07260732073A073E0738D
:104F90002074607410BD00002E2E5C2E2E5C6C6997
:104FA000627261726965735C647269766572735C62
:104FB00066736C5F6C70756172742E630000000024
:104FC000636F6E666967000070B50546002406E0F1
:104FD000094850F82400A84200D102E0641C092CC2
:104FE000F6D300BF092C00D204E08E2203A10DA04D
:104FF00001F000F8204670BD886D00602E2E5C2EFA
:105000002E5C6C69627261726965735C6472697648
:105010006572735C66736C5F6C70756172742E631D
:1050200000000000696E7374616E6365203C20416E
:10503000525241595F53495A4528735F6C707561EC
:10504000727442617365732900000000014648696B
:105050008A6A02F4430240EA124070472DE9F04F99
:1050600085B004460D46914605B104E0E42284A1D2
:105070008DA000F0BFFF286800B104E0E52280A108
:105080008BA000F0B7FF287A042800DC04E0E722B8
:105090007BA18DA000F0AEFF687A042800DC04E05C
:1050A000E82277A198A000F0A5FF286802904FF0B1
:1050B000000A00200490042731E028687843B9FBF7
:1050C000F0F01FFA80F8B8F1000F01D14FF001089D
:1050D00007FB08F0B9FBF0F0039029680398A0EBF8
:1050E000010B08F101007843B9FBF0F02968081AB8
:1050F00058450BD208F101007843B9FBF0F029685C
:10510000A1EB000B08F101001FFA80F8029883451B
:1051100004D8CDF808B0BA46CDF810807F1C202FF7
:10512000CBD964212868B0FBF1F000EB4001029874
:10513000814204D240F2215005B0BDE8F08F2046F4
:10514000FFF742FF01908049019831F9100000906B
:1051500003210098FDF7F8FD00BF00BFA06840F0F4
:105160000200A060A06820F00200A06000BF2669D5
:10517000BAF1030F04D9BAF1080F01D246F4003690
:1051800026F0F856AAF101004FF0F85101EA00604C
:1051900006436FF30C060498C0F30C003043206103
:1051A000206920F000502061A06940F2177120EAC8
:1051B00001062879E97B4FF4E06202EA0121084305
:1051C000A97B042202EA8101084306436879012889
:1051D00007D1287910B126F4006606E046F400668F
:1051E00003E0287908B146F01006A661206920F492
:1051F0000056E8794FF4005101EA40303043206115
:10520000287A697A40EA0140E062A06A40F08800AA
:10521000A062A06A40F44040A0624C4E46F00046B6
:1052200046F44046687B102101EA0010297B2022C9
:1052300002EA41110843616A08436062A87A18B122
:10524000606A40F008006062E87A18B1606A40F075
:1052500001006062A87910B146F0005601E026F026
:105260000056606930436061A669287C08B146F445
:105270000026687C08B146F48026A66100205BE722
:105280002E2E5C2E2E5C6C69627261726965735C95
:10529000647269766572735C66736C5F6C7075615D
:1052A00072742E6300000000636F6E666967000011
:1052B000636F6E6669672D3E6261756452617465E5
:1052C0005F4270730000000046534C5F46454154F6
:1052D0005552455F4C50554152545F4649464F5FC9
:1052E00053495A456E286261736529203E3D20630B
:1052F0006F6E6669672D3E74784669666F57617494
:1053000065726D61726B000046534C5F46454154B7
:105310005552455F4C50554152545F4649464F5F88
:1053200053495A456E286261736529203E3D2063CA
:105330006F6E6669672D3E72784669666F57617455
:1053400065726D61726B0000BE6D006000001F40F1
:105350002DE9F04706460C46904604B105E04FF4AF
:105360002E722EA137A000F045FEB76907F4006049
:1053700028B907F0100020B907F0020008B1012099
:1053800000E00020814642E030E03046FFF75EFE5C
:10539000054605F4002040B14FF400213046FFF7E8
:1053A000B1FD40F21D50BDE8F08705F4802038B112
:1053B0004FF480213046FFF7A5FD40F21E50F2E782
:1053C00005F4003038B14FF400313046FFF79AFD54
:1053D00040F21F50E7E705F4803038B14FF48031D8
:1053E0003046FFF78FFD4FF4A460DCE7F06AC0F3AE
:1053F00002600028C9D0B9F1000F05D0F06900F0B3
:105400007F0004F8010B02E0F06904F8010BB8F129
:105410000000A8F10108B7D100BFC4E72E2E5C2E12
:105420002E5C6C69627261726965735C6472697624
:105430006572735C66736C5F6C70756172742E63F9
:1054400000000000646174610000000070B5054652
:105450000C46164604B105E040F2A92209A113A0AA
:1054600000F0C8FD08E000BF686900F400000028F3
:10547000FAD014F8010BE861301EA6F10106F2D152
:1054800070BD00002E2E5C2E2E5C6C696272617203
:105490006965735C647269766572735C66736C5F70
:1054A0006C70756172742E63000000006461746139
:1054B0000000000010B50023244C236000BF00BF93
:1054C00000BFBFF34F8F00BF00BF00BF1F4B703B3B
:1054D0001B6823F480331D4C703C236000BF00BF69
:1054E00000BFBFF34F8F00BF00BF00BF174B1B1F94
:1054F0001868C0F34E3100BFC0F3C90200BF43F6C5
:10550000E07303EA41134FF0404404EA82742343FA
:105510000F4C236000BF00BF131EA2F10102EED1A9
:105520000B1EA1F10101E7D100BF00BF00BFBFF317
:105530004F8F00BF00BF00BF00BF00BF00BFBFF361
:105540006F8F00BF00BF00BF10BD000084ED00E002
:1055500074EF00E010B50023234C236000BF00BFB0
:1055600000BFBFF34F8F00BF00BF00BF231F1868ED
:10557000C0F34E3100BFC0F3C90200BF43F6E07371
:1055800003EA41134FF0404404EA82742343174C6A
:10559000236000BF00BF131EA2F10102EED10B1E5B
:1055A000A1F10101E7D100BF00BF00BFBFF34F8FE2
:1055B00000BF00BF00BF0C4B703B1B6843F480333F
:1055C000094C703C236000BF00BF00BFBFF34F8F8A
:1055D00000BF00BF00BF00BF00BF00BFBFF36F8FA1
:1055E00000BF00BF00BF10BD84ED00E060EF00E031
:1055F00010B50023234C236000BF00BF00BFBFF3E2
:105600004F8F00BF00BF00BF231F1868C0F34E318B
:1056100000BFC0F3C90200BF43F6E07303EA4113C1
:105620004FF0404404EA82742343174C236000BFC8
:1056300000BF131EA2F10102EED10B1EA1F1010168
:10564000E7D100BF00BF00BFBFF34F8F00BF00BF57
:1056500000BF0C4B703B1B6843F48033094C703C1B
:10566000236000BF00BF00BFBFF34F8F00BF00BF6C
:1056700000BF00BF00BF00BFBFF36F8F00BF00BF00
:1056800000BF10BD84ED00E060EF00E000BF00BF90
:1056900000BFBFF34F8F00BF00BF00BF00BF00BF00
:1056A00000BFBFF36F8F00BF00BF00BF00201449D1
:1056B000086000BF00BF00BFBFF34F8F00BF00BF37
:1056C00000BF00BF00BF00BFBFF36F8F00BF00BFB0
:1056D00000BF0C48006840F400300A49086000BF71
:1056E00000BF00BFBFF34F8F00BF00BF00BF00BFB0
:1056F00000BF00BFBFF36F8F00BF00BF00BF704788
:1057000050EF00E014ED00E000BF00BF00BFBFF3AA
:105710004F8F00BF00BF00BF00BF00BF00BFBFF37F
:105720006F8F00BF00BF00BF00201449086000BF9A
:1057300000BF00BFBFF34F8F00BF00BF00BF00BF5F
:1057400000BF00BFBFF36F8F00BF00BF00BF0C489A
:10575000006840F400300A49086000BF00BF00BF85
:10576000BFF34F8F00BF00BF00BF00BF00BF00BF2F
:10577000BFF36F8F00BF00BF00BF704750EF00E066
:1057800014ED00E02DE9FF4F9BB01E460020119064
:1057900000270F900B9006900790DDF86C80FCE2DC
:1057A000252C05D0E2B201230FA91D98B047F2E2E3
:1057B00001200C9000250020109025E008F1010048
:1057C000804600782B280DD004DC20280DD023281B
:1057D00014D110E02D2802D030280FD108E045F078
:1057E000010510E045F002050DE045F004050AE072
:1057F00045F0080507E045F0100504E0A8F10108B0
:105800000120109000BF00BF10980028D6D04FF0A4
:1058100000090020109019E008F10100804604788A
:10582000302C08DB392C06DCA4F1300009EB8901AF
:1058300000EB41090AE02A2C04D11C9850F8049B83
:105840001C9003E0A8F10108012010901098002896
:10585000E2D006200E900020059008F1010080465D
:1058600000782E2829D100200E90109021E008F118
:10587000010080460478302C0CDB392C0ADCA4F1C2
:1058800030000E9901EB810100EB41000E900120E8
:1058900005900EE02A2C08D11C9800680E901C98E8
:1058A000001D1C900120059003E0A8F101080120D3
:1058B000109010980028DAD001E0A8F1010808F152
:1058C000010080460078682802D06C281CD10DE0C9
:1058D00008F1010080460078682804D045F04005B2
:1058E000A8F1010801E045F0200510E008F10100F1
:1058F000804600786C2804D045F08005A8F10108A6
:1059000001E045F4807502E0A8F1010800BF00BF86
:1059100008F1010080460478642C11D0692C0FD066
:10592000662C0DD0462C0BD0782C09D0582C07D0E3
:105930006F2C05D0622C03D0702C01D0752C7DD13A
:10594000642C01D0692C76D105F4807068B11C9864
:10595000C01D20F0070001461C90006849681C9A91
:1059600008321C92CDE9080107E01C9800681C99D8
:10597000091D1C91C117CDE908010C980A230122C9
:1059800008A9009012A8FDF7B8FF074612A83844EE
:10599000119000210A46DDE90830591A904103DAD6
:1059A0004FF02D0A7F1C0FE005F0020018B14FF0F8
:1059B0002B0A7F1C08E005F0040018B14FF0200A04
:1059C0007F1C01E04FF0000A00200A9005F008005B
:1059D00090B1BAF1000F05D00AF0FF0201230FA920
:1059E0001D98B04701200A90A9EB070330220FA9A8
:1059F0001D98B0474F4613E005F0010080B9A9EBB0
:105A0000070320220FA91D98B047BAF1000F05D057
:105A10000AF0FF0201230FA91D98B04701200A9048
:105A20000A9840B9BAF1000F05D00AF0FF0201232D
:105A30000FA91D98B047662C03D000E055E1462C15
:105A400065D11C98C01D20F007001C90B0EC020B23
:105A50001C908DED020B0A2202A912A80E9BFDF7E5
:105A600075FE074612A8384411909DED020BB5EE65
:105A7000C00BF1EE10FA03D24FF02D0A7F1C0FE09D
:105A800005F0020018B14FF02B0A7F1C08E005F06A
:105A9000040018B14FF0200A7F1C01E04FF0000A0B
:105AA00000200A9005F0080090B1BAF1000F05D06F
:105AB0000AF0FF0201230FA91D98B04701200A90A8
:105AC000A9EB070330220FA91D98B0474F4613E0FA
:105AD00005F0010080B9A9EB070320220FA91D984A
:105AE000B047BAF1000F05D00AF0FF0201230FA959
:105AF0001D98B04701200A900A9840B9BAF1000FEA
:105B000005D00AF0FF0201230FA91D98B047582CB9
:105B100001D0782C7FD1782C01D100200C9005F495
:105B2000807060B11C98C01D20F007001C90D0E967
:105B300000201C990831CDE906201C9107E01C9833
:105B400000681C99091D1C910021CDE906010C98E3
:105B50001023002206A9009012A8FDF7CEFE0746EA
:105B600012A83844119000200A9005F00800D8B11E
:105B700005F0100080B1012330220FA91D98B04715
:105B80000C9808B1582000E07820024601230FA9A4
:105B90001D98B04701200A90A9EB070330220FA9F6
:105BA0001D98B0474F4620E005F00100E8B905F028
:105BB000100000B1BF1CA9EB070320220FA91D98FC
:105BC000B04705F0100080B1012330220FA91D98C5
:105BD000B0470C9808B1582000E078200246012315
:105BE0000FA91D98B04701200A9005F0100050B190
:105BF0000A9840B9012330220FA91D98B0470C988C
:105C000010B1582001E006E07820024601230FA9D8
:105C10001D98B047BF1C6F2C05D0622C03D0702C90
:105C200001D0752C48D105F4807060B11C98C01D5E
:105C300020F007001C90D0E900101C9A08321C923A
:105C4000CDE9061007E01C9800681C99091D1C91FD
:105C50000021CDE906016F2C02D108200B900BE04A
:105C6000622C02D102200B9006E0702C02D1102091
:105C70000B9001E00A200B900C980090002206A9DE
:105C800012A80B9BFDF739FE074612A83844119065
:105C900005F0080038B1A9EB070330220FA91D98C1
:105CA000B0474F4608E005F0010028B9A9EB07030B
:105CB00020220FA91D98B047119860B107E01198F4
:105CC00010F8012901230FA911901D98B0471198D0
:105CD00000780028F3D105F0010088B3A9EB070391
:105CE00020220FA91D98B04754E0632C0BD11C98BB
:105CF00010F8041B1C90C8B20D9001230FA90D9A37
:105D00001D98B04746E0732C3FD11C9850F804BB57
:105D10001C90BBF1000F3DD0059808B10E9F03E029
:105D20005846FCF7C5FC074605F0010028B9A9EB69
:105D3000070320220FA91D98B047059880B107E0FE
:105D400028E01BF8012B01230FA91D98B0477F1EE7
:105D50009BF8000008B1002FF3DC0E98C71B0AE087
:105D600005E01BF8012B01230FA91D98B0479BF8F4
:105D700000000028F5D105F0010058B1A9EB070398
:105D800020220FA91D98B04704E0E2B201230FA919
:105D90001D98B04700BF08F1010898F80000041EE4
:105DA0007FF4FEAC0F981FB0BDE8F08F2DE9F041F5
:105DB0004A48006B00F4803008B1494D0AE047487A
:105DC000006B00F0010008B1162000E014204449E7
:105DD00000FB01F54148D0F860C041483F49096DDA
:105DE000A0FB01700146624600233846FCF7ECFB3D
:105DF00045193A48006900F4803008B1384E0AE08D
:105E00003648006900F0020008B1162000E01420B6
:105E1000334900FB01F63348406900F0007000B3DD
:105E20003048806900F4405048B1B0F5805F08D038
:105E3000B0F5005F07D0B0F5405F06D106E034460C
:105E400006E0274C04E0264C00BF00BF002400BF42
:105E500000BF24484069C0F3C260401CB4FBF0F4AA
:105E600031E02048806900F4402048B1B0F5802F2F
:105E700008D0B0F5002F10D0B0F5402F20D116E09B
:105E80002C461FE01548F0300068C0F30560B6FBF3
:105E9000F0F000EBC000440014E013480068C0F3C9
:105EA0000560B5FBF0F000EBC00044000AE00D48CF
:105EB000006900F00700401C0C49B1FBF0F401E060
:105EC000002400BF00BF07484069C0F38220401C87
:105ED000B4FBF0F006490860BDE8F08100800D4099
:105EE00000366E0100C00F4000810D400065CD1DE1
:105EF0000000002010B52D48006840F470002B49C8
:105F000008602B48008920F00100294908812948B0
:105F1000008920F00100274908812548008800F009
:105F2000040028B12248008820F00400204908809D
:105F30002048008800F0040028B11E48008820F0A6
:105F400004001C4908801C481C4948604FF6FF703B
:105F500088600846006820F0800040F0200008605B
:105F60004FF0E020006900F0010038B14FF0E02070
:105F7000006920F001004FF0E02108610B487438FF
:105F8000006800F40030B0F5003F01D0FFF77EFB61
:105F900006487438006800F48030B0F5803F01D0C6
:105FA000FFF7D8FA00F00CF810BD000088ED00E013
:105FB00000800B4000000D4020C528D900C00B40D8
:105FC000704703B401984100009850EAC12018BFFF
:105FD00004204A0D18BF40F0010040F2FF72B2EBFE
:105FE000515F08BF40F00200012808BF052002B041
:105FF0007047000004460D46164633462A462146A1
:1060000002A0FDF765FD00BF00BEFDE7415353450B
:106010005254204552524F52202220257320223ABA
:106020002066696C652022257322204C696E6520EC
:1060300022256422200A000071B42DED020BDDE957
:1060400000C2BCF1000F14BF0121002141EA42014E
:1060500011F5001F08D99DED000B80ED000B9DEDA3
:10606000000B03B070BC7047C2F30A510024A1F2C8
:10607000FF3102F00043142919DA0029B8BFC0E942
:10608000004324DB1B4D25FA01F102EA010555EA24
:106090000C0C16D022EA0101C0E9004190ED000B82
:1060A0009DED001B03B031EE400B70BC70473329EF
:1060B00007DC4FF0FF35143925FA01F11CEA010F16
:1060C0000AD19DED000B80ED000BCDE900439DED65
:1060D000000B03B070BC70472CEA0101C0E900124C
:1060E00090ED000B9DED001B03B031EE400B70BC3A
:1060F00070470000FFFF0F002DE9F04D2DED040B60
:106100002DED0A8B9AB0DDE92550279CDDF890A093
:1061100025F0004624F00048BAF1000F14BF012119
:10612000002101EB4502F84953184A1093422AD343
:10613000002814BF0123002303EB44030B44F3495D
:106140008B4220D358EA00019FEDF19B72D0DFF81B
:10615000C8B35D4503D1BAF1000F05D184E0BAF1AF
:10616000000F08BF002100D0012101EB450111F50E
:10617000001F08D8002814BF0121002101EB4401B1
:1061800011F5001F0BD99DED261B9DED240B1AB0B8
:10619000BDEC0A8B04B0BDE8F04D00F071BC0027E7
:1061A000002DBCBFDD49884521DADD498845A8BFFF
:1061B00002271CDAC3451ADCDA4901EB28511429FD
:1061C00008DDC1F1340220FA02F101FA02F2824242
:1061D0000DD108E058B9C1F1140228FA02F101FA10
:1061E00002F2424503D101F00101C1F1020756EA72
:1061F0000A0120D1002C1EDA002D18BF022F01D079
:10620000012F0AD0022000F073FC1AB0BDEC0A8BFB
:1062100004B0BDE8F04D00F023BC022000F068FCA3
:1062200000F01EFCB1EE400B1AB0BDEC0A8B04B0BE
:10623000BDE8F08D18E09FEDBCAB9FEDBD8B002855
:106240007DD1B64880451CD105F1804010F5801005
:1062500008BFBAF1000F07D0B34508DC002CA8BF77
:106260009DED260BE0DA07E0B0EE490BDCE7002CF1
:10627000B8BF9DED260BD5DBAF48784490ED000B01
:10628000D2E7D84548D1002C43DA2EB186423AD124
:10629000BAF1000F3DD126E0BAF1000F13D0022071
:1062A00000F026FC00F0FCFB8DED020B9DED240BB5
:1062B0008DED000B10EE900A039961F31E00039020
:1062C0009DED020BB0E78DED02AB9DED240B1AEEB8
:1062D000901A10EE900A8DED000B61F31E000390F2
:1062E0009DED020BA0E78DED028B9DED240B18EECA
:1062F000901A10EE900A8DED000B61F31E000390D2
:106300009DED020B90E704DA9DED241B89EE010B55
:106310008AE79DED240B87E786421ADAB4F1804FB5
:1063200004BF9DED240B20EE000B3FF47DAFA4F1E4
:106330000050B0F1FF500CD1002D0ADB00E008E066
:106340009DED240B51EC100B00F0CEFC41EC100B3A
:106350006AE79DED240B51EC100B00F0CFFBBAF176
:10636000000FCDE90E0140D19FED750B46B3A6F1AC
:10637000E040B0F17F600ED05E4536D1002D00DAEE
:1063800097B3022F0CBF01204FF0FF3000EE100A30
:10639000B8EEC00B48E7002D01DD002C0DDA002D12
:1063A00001DD002C1DDB002D14DA002C12DB012F87
:1063B00008BF9FED650B3FF437AFB0EE4A0B33E7F4
:1063C000022F18BF002D0CD0012F0AD1002DFFF68F
:1063D0002BAF06E0002DB8BF002C06DA012F3FF4EA
:1063E00023AFB0EE480B1FE719E0012000EBE5708A
:1063F00050EA070113D0791EB0EE498B084308BF5D
:106400009FED538B5448002580457ADD534954480D
:10641000884514DDB0420DDB002C19DB2CE0012097
:1064200000F066FB1AB0BDEC0A8B04B0BDE8F04D7D
:1064300000F02ABBB34502DC002C09DC1CE08642DC
:1064400002DA002C18DA03E05E4528DD002C13DDAB
:10645000022000F04DFB00F023FB8DED020B28EE37
:106460000A0B8DED000B10EE900A039961F31E00EC
:1064700003909DED020BD7E6022000F039FB00F0FF
:106480001BFB10EE901A18EE900A8DED020B8DEDAD
:10649000008B61F31E0003909DED020BC4E69DEDA1
:1064A0000E0B9FED313B30EE490B8DED040B20EED2
:1064B000002B9DED041B9FED2E0B01EE430B9DED7C
:1064C000043B9FED2D1B03EE401B9DED040B9FED48
:1064D0002E3B22EE012B9FED2A1B20EE011B20EE0E
:1064E000030B9FED2B3B02EE430B31EE002B8DEDAA
:1064F000022B02959DED022B32EE411B30EE411B2B
:1065000021E149E000000000FFFF1F00FFFF0F0036
:10651000000000000000F03F0000F03F0000F07FAE
:106520000000404301FCFFFF000000000000F07F7E
:106530000000000000000000220C0000000000002D
:106540000000000000000080000000000000F0FFDC
:10655000000000000000F0BF0000E0410000F04338
:10656000FFFFEF3F00000000000000000000D03FF0
:10657000555555555555D53F000000000000E03FEA
:10658000000000604715F73F44DF5DF80BAE543E56
:10659000FE822B654715F73F0020B6F5801F0BDA0A
:1065A0009DED0E0B9FEDEC1B6FF0340020EE010B08
:1065B00010EE906A8DED0E0BE94A00EB2650C6F303
:1065C0001301A0F2FF3741F07F6040F0405091424C
:1065D000D8BF002408DDE34A8A42C8BF012403DC97
:1065E0000024A0F580107F1CDF49794401EBC40131
:1065F0000F9091ED001B9DED0E2B9DED0E0BDB49D9
:1066000031EE023B30EE410B89EE032B20EE02AB64
:106610008DED02AB7944029591ED003B4FF00051B6
:1066200041EA600000EB84408DED043B00F5002062
:1066300005909DED043B9DED044B2AEE0ACB33EE15
:10664000411B9DED0E3BCA48062133EE411B9DEDDB
:10665000023B03EE440B03EE410B20EE02BBB0EE17
:106660004C0B784400F0C4F92CEE0C1B20EE010B0F
:106670009DED021B31EE0A1B0BEE010B9DED021B83
:1066800021EE011B9FEDBC2B31EE023B33EE003BB4
:106690008DED043B04959DED043B33EE422B32EE31
:1066A000411B30EE412B9DED020B9DED041B20EEB6
:1066B000011B9DED040B2BEE000B02EE0A0B31EEDD
:1066C000002B8DED022B02959DED022B32EE411B2E
:1066D00030EE410B9DED021B9FEDA92B21EE021B1D
:1066E0009DED022B9FEDA83B22EE032B9FEDA83BD7
:1066F000A94800EE032B784400EBC40090ED000B9A
:10670000A64832EE000B02EE107AB8EEC22B8DEDE9
:10671000042B31EE003B784400EBC4009DED044BAC
:1067200090ED002B33EE023B33EE043B8DED023B4C
:1067300002959DED023B33EE443B33EE422B32EEAD
:10674000411B30EE411B9DED260B954A8DED000B54
:1067500000959DED260B9DED002B30EE420B9DED3F
:10676000022B20EE020B9DED262B02EE010B9DED80
:10677000001B9DED022B21EE021B8DED021B30EE66
:10678000011B11EE900A11EE101A8DED001B9042C4
:1067900024DB821A11430ED19FED831B9DED002B4C
:1067A0009DED023B30EE011B32EE432BB4EEC21BDB
:1067B000F1EE10FA26DD022000F09AF900F070F9EF
:1067C00010EE901A18EE900A8DED020B8DED008BF5
:1067D00061F31E0003909DED020B25E5744B20F044
:1067E00000429A420ED3734A024411437FF444AEEE
:1067F0009DED022B31EE421BB4EEC01BF1EE10FA00
:10680000BFF63AAE20F000416B4A6C4B002402EB1D
:1068100021529942D8BF9DED021B27DD511C4FF438
:10682000801222FA01F10144654BC1F30A527B4404
:10683000A2F2FF3293ED001B624B8DED041BD3409F
:1068400021EA0303C1F3130141F48011C2F11402E0
:1068500021FA02F405930028B8BF64429DED021BA3
:106860009DED042B31EE421B8DED021B30EE011B22
:106870008DED041B04959DED041B9FED532B9DEDA9
:10688000023B21EE021B9DED042B32EE432B30EE3A
:10689000420B9FED4F2B20EE020B9DED042B9FED45
:1068A0004E3B4F48052102EE030B31EE002B8DEDE0
:1068B000002B32EE411B30EE41AB9DED000B20EE84
:1068C000000B8DED040B784400F092F89DED001B59
:1068D0009DED042B02EE401B8DED021B9DED000B88
:1068E00020EE010B9FED402B31EE422B80EE021B80
:1068F0009DED002BB0EE4A0B02EE0A0B31EE400B81
:106900009DED001B30EE410B39EE400B10EE900A6E
:106910008DED000B00EB045001150029C8BF01905C
:1069200013DC224651EC100BFBF77EFFFFF749FB0F
:10693000042808BF00F0C0F822469DED000B51EC82
:10694000100BFBF771FFCDE900019DED000B28EE68
:10695000000B69E40000000000000000000040435C
:106960008E9803007AB60B002A0800008808000001
:10697000E2070000000000000000000000000840E6
:10698000000000E009C7EE3FF5015B14E02F3EBEBA
:10699000FD033ADC09C7EE3F3E0700000E0700008A
:1069A0000000904000000000FE822B654715973CD8
:1069B00000CC904000346F3F01FCFFFF0000E03F3F
:1069C0006E060000FFFF0F0000000000432EE63FB0
:1069D000EF39FAFE422EE63F396CA80C615C20BE0E
:1069E000AE050000000000000000000000000040B4
:1069F000491E00EBC102B0EE401B92ED000B31F0DE
:106A000006020DD0491E00EBC102B0EE403B92EDF4
:106A1000002B31F00602B0EE420B03EE010BF1D178
:106A2000022914D004290AD0062918BF704790ED16
:106A30000A2B00EE012B90ED080B02EE010B90EDFE
:106A4000062B00EE012B90ED040B02EE010B90EDF6
:106A5000022B00EE012B90ED000B02EE010B7047B4
:106A60009FED031B9FED042B81EE020B704700008E
:106A7000000000000000F03F0000000000000000E7
:106A800030EE010B704700009FED031B81EE010B00
:106A9000704700000000000000000000000000003F
:106AA0009FED030B20EE000B70470000000000007C
:106AB00000000000000000709FED030B20EE000BB3
:106AC00070470000000000000000000000000010FF
:106AD00002E008C8121F08C1002AFAD170477047A7
:106AE000002001E001C1121F002AFBD17047000005
:106AF00001490860704700002000002082B0CDE905
:106B0000000121F0004001909DED000B02B051EC1E
:106B1000100B7047FBF7BCFFFCF7DEF8FBF7AEFE8F
:106B2000FCF7CCF828A0FCF7D3FF28A0FCF7D0FF97
:106B30000020FCF709FA044621462FA0FCF7C8FF05
:106B40000120FCF701FA0446214632A0FCF7C0FF01
:106B50000220FCF7F9F90446214635A0FCF7B8FFFE
:106B60000B20FCF7F1F90446214638A0FCF7B0FFF2
:106B70000C20FCF7E9F9044621463BA0FCF7A8FFEE
:106B80000D20FCF7E1F9044621463EA0FCF7A0FFEA
:106B90000E20FCF7D9F90446214641A0FCF798FFE6
:106BA0000F20FCF7D1F90446214644A0FCF790FFE2
:106BB00049A0FCF78DFFFDF705FCFDF79BFAFCF7FC
:106BC000EDFF00BFFEE700000D0A00002A2A2A2A76
:106BD0002ABBB6D3ADCAB9D3C320D2B0BBF0692E9D
:106BE0004D582052543130353220BFAAB7A2B0E5FB
:106BF0002A2A2A2A2A0D0A004350553A202020200A
:106C0000202020202020202020256420487A0D0AE2
:106C1000000000004148423A20202020202020206F
:106C20002020202020256420487A0D0A0000000042
:106C300053454D433A202020202020202020202092
:106C400020256420487A0D0A000000005359535053
:106C50004C4C3A2020202020202020202025642079
:106C6000487A0D0A00000000535953504C4C5046CE
:106C700044303A202020202020256420487A0D0A24
:106C800000000000535953504C4C504644313A20B8
:106C90002020202020256420487A0D0A00000000D2
:106CA000535953504C4C504644323A202020202017
:106CB00020256420487A0D0A0000000053595350E3
:106CC0004C4C504644333A2020202020202564207C
:106CD000487A0D0A00000000B6C1D0B445455052B4
:106CE0004F4D0D0A0000000000B541EC100B2DEDDA
:106CF000028B83B0B1EEC08B18EE100A18EE901A1A
:106D00008DED008B002818BF0120084320F00040C3
:106D1000C0F17F6000F1E040C00F14D010EE101AF7
:106D200010EE900A8DED000B002918BF01210843D9
:106D300020F00040C0F17F6000F1E040C00F04BFD0
:106D40000120FFF7D5FE51EC180B03B0BDEC028B10
:106D500000BD000040787D0180F0FA0200E1F505F9
:106D6000405973070000000000801B4000C01B401A
:106D700000001C400000000000000C40FFFF1A0152
:106D80001E001A02FFFF1E01000000000040184014
:106D90000080184000C01840000019400040194011
:106DA0000080194000C0194000001A4080FF140004
:106DB000150016001700180019001A001B00FFFF2D
:106DC00018051C000C001801020306031A050E0624
:106DD0000000000000003F4000403F4000803F4076
:106DE00000C03F4080FF1C001D001E001F00FFFF71
:106DF000060208020A021806000100000000000056
:106E00000100000000000000000000000000000081
:106E10000000000000000000000000000000F03F43
:106E2000000000000000F83F00000000000000002B
:106E30000000004003B8E23F000000000000000036
:106E400006D0CF43EBFD4C3E033333333333E33FC4
:106E5000FFAB6FDBB66DDB3F4D268F515555D53FF0
:106E600001411DA96074D13F65DBC9934A86CD3FBE
:106E7000EF4E454A287ECA3F3E5555555555C53FAC
:106E800093BDBE166CC166BF2CDE25AF6A56113F9E
:106E9000F16BD2C541BDBBBED0A4BE726937663EA0
:106EA0000000000000000000C86E0060000000202C
:106EB00024000000D06A0060EC6E00602400002016
:106EC0004C020000E06A006040DCB31100000000EA
:106ED00000000000000000000000000000000000B2
:0C6EE000000000000000000000000000A6
:040000056000240172
:00000001FF
