:0200000460009A
:10000000464346420004015600000000000303007E
:1000100001010000010400000002000000000000D7
:1000200000000000000000000000000000000000D0
:1000300000000000000000000000000000000000C0
:1000400000000000010407000000000000000000A4
:10005000000000020000000000000000000000009E
:100060000000000000000000000000000000000090
:100070000000000000000000000000000000000080
:10008000EC04200A063204260000000000000000F4
:10009000050404240000000000000000000000002F
:1000A0000000000000000000000000000000000050
:1000B0000000000000000000000000000000000040
:1000C0000000000000000000000000000000000030
:1000D0000000000000000000000000000000000020
:1000E0000000000000000000000000000000000010
:1000F0000000000000000000000000000000000000
:1001000000000000000000000000000000000000EF
:1001100000000000000000000000000000000000DF
:1001200000000000000000000000000000000000CF
:1001300000000000000000000000000000000000BF
:1001400000000000000000000000000000000000AF
:10015000000000000000000000000000000000009F
:10016000000000000000000000000000000000008F
:10017000000000000000000000000000000000007F
:10018000000000000000000000000000000000006F
:10019000000000000000000000000000000000005F
:1001A000000000000000000000000000000000004F
:1001B000000000000000000000000000000000003F
:1001C000000100000010000000000000000000001E
:1001D000000000000000000000000000000000001F
:1001E000000000000000000000000000000000000F
:1001F00000000000000000000000000000000000FF
:0200000460009A
:10100000D10020410020006000000000301000608E
:1010100020100060001000600000000000000000D0
:10102000000000600000000200000000FFFFFFFF62
:10103000D2040041CC037C04400FC068FFFFFFFFD7
:10104000400FC06CFFFFFFFF400FC070FFFFFFFFAE
:10105000400FC074FFFFFFFF400FC078FFFFFFFF8E
:10106000400FC07CFFFFFFFF400FC080FFFFFFFF6E
:10107000400D803000002001400D8100001D000067
:10108000400FC01400010D40401F801400000000FC
:10109000401F801800000000401F801C000000005E
:1010A000401F802000000000401F8024000000003E
:1010B000401F802800000000401F802C000000001E
:1010C000401F803000000000401F803400000000FE
:1010D000401F803800000000401F803C00000000DE
:1010E000401F804000000000401F804400000000BE
:1010F000401F804800000000401F804C000000009E
:10110000401F805000000000401F8054000000007D
:10111000401F805800000000401F805C000000005D
:10112000401F806000000000401F8064000000003D
:10113000401F806800000000401F806C000000001D
:10114000401F807000000000401F807400000000FD
:10115000401F807800000000401F807C00000000DD
:10116000401F808000000000401F808400000010AD
:10117000401F808800000000401F808C000000009D
:10118000401F809000000000401F8094000000007D
:10119000401F809800000000401F809C000000005D
:1011A000401F80A000000000401F80A4000000003D
:1011B000401F80A800000000401F80AC000000001D
:1011C000401F80B000000000401F80B400000000FD
:1011D000401F80B800000000401F8204000000E1B2
:1011E000401F8208000000E1401F820C000000E167
:1011F000401F8210000000E1401F8214000000E147
:10120000401F8218000000E1401F821C000000E126
:10121000401F8220000000E1401F8224000000E106
:10122000401F8228000000E1401F822C000000E1E6
:10123000401F8230000000E1401F8234000000E1C6
:10124000401F8238000000E1401F823C000000E1A6
:10125000401F8240000000E1401F8244000000E186
:10126000401F8248000000E1401F824C000000E166
:10127000401F8250000000E1401F8254000000E146
:10128000401F8258000000E1401F825C000000E126
:10129000401F8260000000E1401F8264000000E106
:1012A000401F8268000000E1401F826C000000E1E6
:1012B000401F8270000000E1401F8274000000E1C6
:1012C000401F8278000000E1401F827C000000E1A6
:1012D000401F8280000000E1401F8284000000E186
:1012E000401F8288000000E1401F828C000000E166
:1012F000401F8290000000E1401F8294000000E146
:10130000401F8298000000E1401F829C000000E125
:10131000401F82A0000000E1401F82A4000000E105
:10132000401F82A8000000E1402F000010000004D0
:10133000402F000800030524402F000C060305245D
:10134000402F00108000001B402F00148200001B63
:10135000402F00188400001B402F000400007988F3
:10136000402F004000000F37402F00440065292225
:10137000402F004800010920402F004C50210A084E
:10138000402F008000000021402F008400888888C2
:10139000402F009400000002402F00980000000041
:1013A000402F009080000000402F009CA55A000FA5
:1013B000CF000C1C402F003C00000001CC001404A6
:1013C000402F009080000000402F009CA55A000C88
:1013D000CF000C1C402F003C00000001CC00140486
:1013E000402F009080000000402F009CA55A000C68
:1013F000CF000C1C402F003C00000001CC001C045E
:10140000402F00A000000033402F0090800000001B
:10141000402F009CA55A000ACF000C1C402F003C16
:1014200000000001CC000C04402F004C50210A09A0
:0200000460009A
:1020000000000120152400602D2400602F240060B2
:10201000312400603324006035240060000000009B
:1020200000000000000000000000000037240060F5
:1020300039240060000000003B2400603D24006063
:102040003F24006043240060472400604B2400606C
:102050004F24006053240060572400605B2400601C
:102060005F24006063240060672400606B240060CC
:102070006F24006073240060772400607B2400607C
:102080007F240060F7240060F7240060F7240060DC
:1020900083240060872400608B2400608F2400600C
:1020A00093240060972400609B2400609F240060BC
:1020B000A3240060A7240060AB240060AF2400606C
:1020C000B3240060B7240060BB240060BF2400601C
:1020D000C3240060C7240060F7240060F724006078
:1020E000F7240060F7240060F7240060F724006004
:1020F000F7240060F7240060F7240060F7240060F4
:10210000F7240060F7240060F7240060F7240060E3
:10211000F7240060F7240060F7240060F7240060D3
:10212000CB240060CF240060D3240060D72400605B
:10213000DB240060F7240060F7240060F7240060CF
:10214000F7240060F7240060F7240060F7240060A3
:10215000F7240060F7240060F7240060F724006093
:10216000F7240060F7240060F7240060F724006083
:10217000F7240060F7240060F7240060F724006073
:10218000F7240060CD610060F7240060F724006050
:10219000F7240060F7240060F7240060F724006053
:1021A000F7240060F7240060DF240060F72400605B
:1021B000F7240060F7240060F7240060F724006033
:1021C000F7240060F7240060F7240060F724006023
:1021D000F7240060F7240060F7240060F724006013
:1021E000F7240060F7240060F7240060F724006003
:1021F000E3240060F7240060E7240060EB24006023
:10220000F7240060F7240060EF240060F3240060EE
:10221000F7240060F7240060F7240060F7240060D2
:10222000F7240060F7240060F7240060F7240060C2
:10223000F7240060F7240060F7240060F7240060B2
:10224000F7240060F7240060F7240060F7240060A2
:10225000F7240060F7240060F7240060F724006092
:10226000F7240060F7240060F7240060F724006082
:10227000F7240060F7240060F7240060F724006072
:10228000F7240060F7240060F7240060F724006062
:10229000F7240060F7240060F7240060F724006052
:1022A000F7240060F7240060F7240060F724006042
:1022B000F7240060F7240060F7240060F724006032
:1022C000F7240060F7240060F7240060F724006022
:1022D000F7240060F7240060F7240060F724006012
:1022E000F7240060F7240060F7240060F724006002
:1022F000F7240060F7240060F7240060F7240060F2
:10230000F7240060F7240060F7240060F7240060E1
:10231000F7240060F7240060F7240060F7240060D1
:10232000F7240060F7240060F7240060F7240060C1
:10233000F7240060F7240060F7240060F7240060B1
:10234000F7240060F7240060F7240060F7240060A1
:10235000F7240060F7240060F7240060F724006091
:10236000F7240060F7240060F7240060F724006081
:10237000F7240060F7240060F7240060F724006071
:10238000F7240060F7240060F7240060F724006061
:10239000F7240060F7240060F7240060F724006051
:1023A000F7240060F7240060F7240060F724006041
:1023B000F7240060F7240060F7240060F724006031
:1023C000F7240060F7240060F7240060F724006021
:1023D000F7240060F7240060F7240060F724006011
:1023E000F7240060F7240060F7240060F724006001
:1023F000F7240060F7240060F7240060FFFFFFFF70
:10240000DFF80CD000F028FA004800471593006070
:102410000000012072B63948394901600A6882F328
:1024200008883848804762B637480047FEE7FEE72D
:10243000FEE7FEE7FEE7FEE7FEE7FEE7FEE73348DE
:102440000047334800473348004733480047334884
:102450000047334800473348004733480047334874
:102460000047334800473348004733480047334864
:102470000047334800473348004733480047334854
:102480000047334800473348004733480047334844
:102490000047334800473348004733480047334834
:1024A0000047334800473348004733480047334824
:1024B0000047334800473348004733480047334814
:1024C0000047334800473348004733480047334804
:1024D00000473348004733480047334800473348F4
:1024E00000473348004733480047334800473348E4
:1024F00000473348004733480047000008ED00E03C
:1025000000200060FD850060012400604D490060EE
:10251000D54A00600D4B0060454B00607D4B00606C
:10252000B54B0060ED4B0060254C00605D4C0060D9
:10253000954C006085490060BD490060F549006028
:102540002D4A0060654A00609D4A0060F7240060E3
:10255000A96F0060C56F0060E16F0060FD6F0060F3
:102560001970006035700060517000606D7000601F
:10257000B1680060C1680060D1680060E168006017
:10258000F7240060F7240060F7240060F72400605F
:10259000F7240060F7240060F7240060F72400604F
:1025A000F7240060F7240060F72400609B5B006064
:1025B000F7240060F7240060F7240060F72400602F
:1025C000F7240060F72400602DE9F05F0546002045
:1025D00092469B4688460646814640241BE0284694
:1025E00041464746224600F0B2F853465A46C01AC2
:1025F000914110D311461846224600F099F82D1A41
:1026000067EB01084F4622460120002100F090F8B8
:1026100017EB00094E41201EA4F10104DFDC4846FF
:1026200031462A464346BDE8F09F2DE9F04100249B
:10263000061B254671F1000605DA01240027D0EBC0
:10264000070067EB0101161E73F1000605DA00278B
:10265000D2EB0702012567EB0303FFF7B5FF8646C0
:102660000E4617469C46AC4204D00025D0EB050E22
:1026700065EB010624B10020D2EB000760EB030CF0
:10268000704631463A466346BDE8F081D2B201E079
:1026900000F8012B491EFBD270470022F6E710B567
:1026A00013460A4604461946FFF7F0FF204610BDC0
:1026B000421C10F8011B0029FBD1801A70473EB55F
:1026C000CA17CB0F002450405140C0186141DA07AF
:1026D00040F233430094CDE901232246234600F023
:1026E00055F803B030BD70B5C1F30A5201F0004592
:1026F0000024C1F3130140F2FF3341F480119A42E8
:1027000002DA0020014670BD40F233439A42A2F241
:10271000334203DC524200F01AF801E000F008F8FE
:102720002C43F0D00023D0EB030063EB010170BD1C
:10273000202A04DB203A00FA02F100207047914081
:10274000C2F1200320FA03F3194390407047202A76
:1027500004DB203A21FA02F00021704721FA02F34B
:10276000D040C2F12002914008431946704710B58D
:10277000141E73F1000408DA401C41F100019218A4
:102780005B411A4301D120F0010010BD2DE9F04D4D
:1027900092469B4611B1B1FA81F202E0B0FA80F2A2
:1027A00020329046FFF7C4FF04460F4640EA0A0075
:1027B00041EA0B0153465A46084313D0114653EAE7
:1027C000010019D0C8F140025046FFF7C0FF05468E
:1027D0000E46504659464246FFF7AAFF084305D029
:1027E000012004E020463946BDE8F08D0020054375
:1027F00046EAE0762C4337430A986305E40AA0EBE7
:1028000008000022FD0A44EA47540A3002D500209D
:102810000146E9E7010510196941DDE9084500199C
:102820006941BDE8F04DA2E770B521F000430343D4
:102830000CD0C1F30A550024D5EB040564EB040366
:10284000D617AD1AB34102DB0020014670BD201837
:1028500041EB025170BD0000064C074D06E0E068F8
:1028600040F0010394E8070098471034AC42F6D3D7
:10287000FFF7CAFD3C9F00606C9F006070B58C182C
:1028800010F8015B15F0070301D110F8013B2A1184
:1028900006D110F8012B03E010F8016B01F8016B71
:1028A0005B1EF9D12B0705D40023521E0DD401F86D
:1028B000013BFAE710F8013BCB1A921C03E013F836
:1028C000015B01F8015B521EF9D5A142D8D300206B
:1028D00070BD000010B54FF400406249086000BFB1
:1028E00061486249086000BF0121614801F058FD5C
:1028F0000121604801F054FD5F48C06820F01F00CE
:1029000040F012005C49C8605C4801F081FC002185
:102910005B4801F0B7FC00215A4801F0B3FC0321E9
:10292000594801F0AFFC0321584801F039FD00215E
:10293000504801F035FD0021554801F0A3FC00216D
:102940004B4801F02DFD0121524801F09BFC002174
:10295000514801F025FD0221504801F093FC00216F
:102960004F4801F01DFD02214E4801F08BFC002173
:102970004D4801F015FD04214548FC3801F082FC6A
:1029800002214A4801F00CFD0221494801F07AFC7D
:102990000221484801F004FD0321474801F072FC80
:1029A00001213C480C3001F06DFC0021434801F04E
:1029B000F7FC03214048001D01F064FC012135486B
:1029C000103001F05FFC00212948001D01F0E8FCF7
:1029D00003213B4801F056FC01213A4801F052FC2A
:1029E00000213448001D01F0DBFC0021364801F0D5
:1029F00049FC0021354801F0D3FC0121344801F0A5
:102A000041FC022120480C3001F0CAFC0121314870
:102A100001F038FC07212A48083001F033FC03217B
:102A20002D4801F0BDFC01212C4801F02BFC0721B1
:102A30002848083801F026FC0321294801F0B0FCA1
:102A40000021284801F0ACFC00211248083001F0B8
:102A500019FC00211048083001F0A2FC05F02AFD05
:102A600010BD00000800002000366E0104000020A8
:102A7000186C00801439001400000840FC960060B7
:102A800014EA000410E0004014680080187200800E
:102A900014FB00801CE007801C26008024EB0080D3
:102AA0001C30008024F000801C31008018640080FD
:102AB00024790080186E008028E600801C6A00805F
:102AC00028F6008028F0078038F30780383200802D
:102AD00020E2078030F900803074008028E900800F
:102AE000207300800C20008008B513480068009017
:102AF0006A461A21114803F0C3FB4FF0806000BF03
:102B00000E49496901430D4A516100BF00BF512080
:102B100010F1800F00D10EE00146002909DB01F021
:102B20001F0301229A404B099B0003F1E023C3F8E5
:102B3000002100BF00BF08BDF896006000801B4068
:102B400010B56148006800F40030B0F5003F2BD1AB
:102B500000BF00BF00BF00BF00BFBFF34F8F00BF6B
:102B600000BF00BF00BF00BF00BFBFF36F8F00BF3B
:102B700000BF00BF5448006820F40030524908608C
:102B800000205249086000BF00BF00BFBFF34F8F55
:102B900000BF00BF00BF00BF00BF00BFBFF36F8F0B
:102BA00000BF00BF00BF00BF4748006800F480308E
:102BB000B0F5803F01D104F057FF00BF00BF00BF58
:102BC00000BF00BFBFF34F8F00BF00BF00BF00BFFB
:102BD00000BF00BFBFF36F8F00BF00BF00BF3A4808
:102BE0001030006820F480303749103108603648D2
:102BF0008030006820F0010033498031086000BF58
:102C000033483149883108603248091D086032482C
:102C1000091F08602F48801C091D08602F48091FE4
:102C200008602F48091D08601320091F0860294803
:102C3000801C091D08601420091F086028481A38E4
:102C4000091D08602748091F086025481A38091D12
:102C500008602548091F086021481838091D0860C8
:102C60001D48801D091F08601D480838091D08609F
:102C70001E48091F08601E48091D0860042000BF87
:102C800000BF00BF00BFBFF34F8F00BF00BF00BF3A
:102C900000BF00BF00BFBFF36F8F00BF00BF00BF0A
:102CA00040F00101084A803211600749103109687B
:102CB00041F48031044A1032116000BF04F072FF09
:102CC00004F0FCFF10BD000014ED00E050EF00E048
:102CD000100000C0390010031100008012000060D5
:102CE0003900030315000020160020201800E081A1
:102CF0002900080370B51648C1B2164A8958C0F3B6
:102D00004C32C0F304239A401140C0F30422D14056
:102D100061B9114801F04CF90621B0FBF1F50F48FB
:102D200001F01EF8401CB5FBF0F40FE000BF0C48AA
:102D3000006800F0100008B10A4D01E00A4805687B
:102D4000064801F00DF8401CB5FBF0F4204670BDBC
:102D50002426008000C00F400D00100024E00780F2
:102D600070820D4000366E010400002010B500F0A6
:102D700057F800F0FDFD10BD10B588B001A803F0B4
:102D8000C7FE1748039001208DF806008DF8070054
:102D90000121144801F05AFB0021134801F0C8FA40
:102DA00000BF1248006800F0100008B1104801E0B0
:102DB00010480068044600BF224601A90E4803F0EF
:102DC000CDFE0E48006800906A4603210C4803F0CF
:102DD00057FA6A4618210A4803F052FA08B010BDA3
:102DE000A08601003832008038F3078070820D40E1
:102DF00000366E010400002000003F40249900606E
:102E000000801B4010B5FFF775FF044623460222E1
:102E10004FF4E131014801F0ABFF10BD0040184014
:102E20001CB540F2024000F05FFF0020FE4903465F
:102E30000246CDE900100221FC4803F05DFC0020B1
:102E4000F949091D03460246CDE900100221F74861
:102E5000001D03F051FC0020F449B4310346024642
:102E6000CDE900100146F148C03803F045FC0020D0
:102E7000EE49B83103460246CDE900100146EB4861
:102E8000BC3803F039FC0020E749B8390346024654
:102E9000CDE900100146E548B83803F02DFC0020CC
:102EA000E149B43903460246CDE900100146DF4846
:102EB000B43803F021FC0020DB49B0390346024658
:102EC000CDE900100146D948B03803F015FC0020C8
:102ED000D549AC3903460246CDE900100146D34836
:102EE000AC3803F009FC0020CF49A839034602465C
:102EF000CDE900100146CD48A83803F0FDFB0020C5
:102F0000C949A43903460246CDE900100146C74825
:102F1000A43803F0F1FB0020C349A0390346024660
:102F2000CDE900100146C148A03803F0E5FB0020C0
:102F3000BD499C3903460246CDE900100146BB4815
:102F40009C3803F0D9FB0020B74998390346024664
:102F5000CDE900100146B548983803F0CDFB0020BC
:102F6000B149943903460246CDE900100146AF4805
:102F7000943803F0C1FB0020AB4990390346024668
:102F8000CDE900100146A948903803F0B5FB0020B8
:102F9000A5498C3903460246CDE900100146A348F5
:102FA0008C3803F0A9FB00209F498839034602466C
:102FB000CDE9001001469D48883803F09DFB0020B4
:102FC0009949843903460246CDE9001001469748E5
:102FD000843803F091FB0020934980390346024670
:102FE000CDE9001001469148803803F085FB0020B0
:102FF0008D497C3903460246CDE9001001468B48D5
:103000007C3803F079FB0020874978390346024673
:10301000CDE9001001468548783803F06DFB0020AB
:103020008149743903460246CDE9001001467F48C4
:10303000743803F061FB00207B4970390346024677
:10304000CDE9001001467948703803F055FB0020A7
:1030500075496C3903460246CDE9001001467348B4
:103060006C3803F049FB00206F496839034602467B
:10307000CDE9001001466D48683803F03DFB0020A3
:103080006949643903460246CDE9001001466748A4
:10309000643803F031FB002063496039034602467F
:1030A000CDE9001001466148603803F025FB00209F
:1030B0005D495C3903460246CDE9001001465B4894
:1030C0005C3803F019FB0020574958390346024683
:1030D000CDE9001001465548583803F00DFB00209B
:1030E0005149543903460246CDE9001001464F4884
:1030F000543803F001FB01204B49503900231A4694
:10310000CDE9001019464948503803F0F5FA00207F
:1031100045494C3903460246CDE900100146434873
:103120004C3803F0E9FA00203F494839034602468B
:10313000CDE9001001463D48483803F0DDFA002093
:103140003949443903460246CDE900100146374863
:10315000443803F0D1FA002033494039034602468F
:10316000CDE9001001463148403803F0C5FA00208F
:103170002D493C3903460246CDE9001001462B4853
:103180003C3803F0B9FA0020274938390346024693
:10319000CDE9001001462548383803F0ADFA00208B
:1031A0002149343903460246CDE9001001461F4843
:1031B000343803F0A1FA00201B4930390346024697
:1031C000CDE9001001461948303803F095FA002087
:1031D00015492C3903460246CDE900100146134833
:1031E0002C3803F089FA00200F492839034602469B
:1031F000CDE9001001460D48283803F07DFA002083
:103200000949243903460246CDE900100146074822
:10321000243803F071FA002003492039034602469E
:10322000CDE90010014603E048821F40D4801F40D2
:10323000FE48203803F060FA0020FD4903460246AC
:10324000CDE900100521F9481C3803F055FA41F288
:10325000B000F7491C3100231A46CDE900100221C5
:10326000F24803F043FA41F2B000F1492031002363
:103270001A46CDE900100221EC48001D03F036FA91
:10328000E120EB49A43900231A46CDE90010194684
:10329000E648C03803F02AFAE120E549A0390023C6
:1032A0001A46CDE900101946E048BC3803F01EFA72
:1032B000E120DF499C3900231A46CDE90010194668
:1032C000DA48B83803F012FAE120D94998390023D6
:1032D0001A46CDE900101946D448B43803F006FA6E
:1032E000E120D349943900231A46CDE9001019464C
:1032F000CE48B03803F0FAF9E120CD4990390023E7
:103300001A46CDE900101946C848AC3803F0EEF96A
:10331000E120C7498C3900231A46CDE9001019462F
:10332000C248A83803F0E2F9E120C14988390023F6
:103330001A46CDE900101946BC48A43803F0D6F966
:10334000E120BB49843900231A46CDE90010194613
:10335000B648A03803F0CAF9E120B5498039002306
:103360001A46CDE900101946B0489C3803F0BEF962
:10337000E120AF497C3900231A46CDE900101946F7
:10338000AA48983803F0B2F9E120A9497839002316
:103390001A46CDE900101946A448943803F0A6F95E
:1033A000E120A349743900231A46CDE900101946DB
:1033B0009E48903803F09AF9E1209D497039002326
:1033C0001A46CDE90010194698488C3803F08EF95A
:1033D000E12097496C3900231A46CDE900101946BF
:1033E0009248883803F082F9E12091496839002336
:1033F0001A46CDE9001019468C48843803F076F956
:10340000E1208B49643900231A46CDE900101946A2
:103410008648803803F06AF9E12085496039002345
:103420001A46CDE90010194680487C3803F05EF951
:10343000E1207F495C3900231A46CDE90010194686
:103440007A48783803F052F9E12079495839002355
:103450001A46CDE9001019467448743803F046F94D
:10346000E1207349543900231A46CDE9001019466A
:103470006E48703803F03AF9E1206D495039002365
:103480001A46CDE90010194668486C3803F02EF949
:10349000E12067494C3900231A46CDE9001019464E
:1034A0006248683803F022F9E12061494839002375
:1034B0001A46CDE9001019465C48643803F016F945
:1034C000E1205B49443900231A46CDE90010194632
:1034D0005648603803F00AF9E12055494039002385
:1034E0001A46CDE90010194650485C3803F0FEF842
:1034F000E1204F493C3900231A46CDE90010194616
:103500004A48583803F0F2F8E12049493839002395
:103510001A46CDE9001019464448543803F0E6F83D
:10352000E1204349343900231A46CDE900101946F9
:103530003E48503803F0DAF8E1203D4930390023A5
:103540001A46CDE90010194638484C3803F0CEF839
:10355000E12037492C3900231A46CDE900101946DD
:103560003248483803F0C2F8E120314928390023B5
:103570001A46CDE9001019462C48443803F0B6F835
:10358000E1202B49243900231A46CDE900101946C1
:103590002648403803F0AAF8E120254920390023C5
:1035A0001A46CDE90010194620483C3803F09EF831
:1035B000E1201F491C3900231A46CDE900101946A5
:1035C0001A48383803F092F8E120194918390023D5
:1035D0001A46CDE9001019461448343803F086F82D
:1035E000E1201349143900231A46CDE90010194689
:1035F0000E48303803F07AF8E1200D4910390023E5
:103600001A46CDE90010194608482C3803F06EF828
:10361000E12007490C3900231A46CDE9001019466C
:103620000248283803F062F8E12003E0D4801F400C
:103630002C821F40CC49083900231A46CDE90010DE
:103640001946CA4803F052F8E120C749091F002370
:103650001A46CDE900101946C448001D03F046F88B
:1036600047F2A000C04900231A46CDE90010052109
:10367000BE48083003F03AF80020BB49B431034695
:103680000246CDE900100521B848BC3003F034F8FB
:1036900041F2B000B449B43100231A46CDE900101C
:1036A0000521B248BC3003F021F80120AE49683151
:1036B00000231A46CDE900100421AC48703003F015
:1036C0001BF80020A8496C3103460246CDE90010E2
:1036D0000521A648743003F00FF80120A249783183
:1036E00000231A46CDE900100421A048803003F0E1
:1036F00003F800209C49643103460246CDE90010DE
:1037000005219A486C3002F0F7FF002096491031ED
:1037100003460246CDE9001005219448183002F016
:10372000EBFF012090490C3100231A46CDE900102F
:1037300005218E48143002F0DFFF00208A496031F5
:1037400003460246CDE9001004218848683002F0A3
:10375000D3FF002084495C3103460246CDE90010C6
:1037600004218248643002F0C7FF00207E495831AE
:1037700003460246CDE9001004217C48603002F087
:10378000BBFF00207849543103460246CDE90010C2
:10379000042176485C3002F0AFFF002072495031BE
:1037A00003460246CDE9001004217048583002F06B
:1037B000A3FF00206C494C3103460246CDE90010BE
:1037C00004216A48543002F097FF002066494831CE
:1037D00003460246CDE9001004216448503002F04F
:1037E0008BFF00206049443103460246CDE90010BA
:1037F00004215E484C3002F07FFF41F2B0005A498C
:10380000683100231A46CDE9001004215748703072
:1038100002F06CFF41F2B00053496C3100231A46AC
:10382000CDE9001005215148743002F05FFF41F2EC
:10383000B0004D49783100231A46CDE9001004212B
:103840004A48803002F052FF41F2B00046496431EC
:1038500000231A46CDE90010052144486C3002F0DF
:1038600045FF41F2B0004049103100231A46CDE92E
:10387000001005213D48183002F038FF4FF40B606E
:1038800039490C3100231A46CDE90010052137488B
:10389000143002F02BFF41F2B000334960310023B5
:1038A0001A46CDE9001004213048683002F01EFFAE
:1038B00041F2B0002C495C3100231A46CDE90010DA
:1038C00004212A48643002F011FF41F2B000264979
:1038D000583100231A46CDE90010042123486030F6
:1038E00002F004FF41F2B0001F49543100231A4690
:1038F000CDE9001004211D485C3002F0F7FE41F2D2
:10390000B0001949503100231A46CDE900100421B6
:103910001648583002F0EAFE41F2B00012494C312C
:1039200000231A46CDE9001004211048543002F05B
:10393000DDFE41F2B0000C49483100231A46CDE9C2
:10394000001004210948503002F0D0FE41F2B000CE
:103950000549443100231A46CDE9001004210348EB
:103960004C3002F0C3FE1CBD2C821F40B0801F40B3
:103970001CB5012018490346174AD432CDE900107E
:103980000021164802F0B8FE01201349091D034624
:10399000114AD832CDE9001000211048001D02F074
:1039A000ABFE4DF6B0000C4901230B4AD432CDE9F1
:1039B00000100021094802F099FE4DF6B0000649BA
:1039C000091D0123044AD832CDE900100021034823
:1039D000001D02F08BFE1CBDA8821F4034811F40D9
:1039E00010B504462CB101220321054802F0BEFCAB
:1039F00004E000220321024802F0B8FC10BD0000E0
:103A000000801B4010B504462CB101221821054846
:103A100002F0ACFC04E000221821024802F0A6FCEF
:103A200010BD000000801B402DE9F04104460E4609
:103A3000270A04F01F08062F00D805E040F287325D
:103A400008A111A004F05AFE124800EB870528686F
:103A5000032101FA08F1884306FA08F108432860B7
:103A6000BDE8F0812E2E5C2E2E5C6C696272617254
:103A70006965735C647269766572735C66736C5FAA
:103A8000636C6F636B2E6800696E646578203C3DE3
:103A90002036000068C00F402DE9F04104460E4674
:103AA000270A04F01F08062F00D805E040F28732ED
:103AB00008A111A004F022FE124800EB8705286837
:103AC000032101FA08F1884306FA08F10843286047
:103AD000BDE8F0812E2E5C2E2E5C6C6962726172E4
:103AE0006965735C647269766572735C66736C5F3A
:103AF000636C6F636B2E6800696E646578203C3D73
:103B00002036000068C00F402DE9F04104460E4603
:103B1000270A04F01F08062F00D805E040F287327C
:103B200008A111A004F0EAFD124800EB87052868FF
:103B3000032101FA08F1884306FA08F108432860D6
:103B4000BDE8F0812E2E5C2E2E5C6C696272617273
:103B50006965735C647269766572735C66736C5FC9
:103B6000636C6F636B2E6800696E646578203C3D02
:103B70002036000068C00F402DE9F04104460E4693
:103B8000270A04F01F08062F00D805E040F287320C
:103B900008A111A004F0B2FD124800EB87052868C7
:103BA000032101FA08F1884306FA08F10843286066
:103BB000BDE8F0812E2E5C2E2E5C6C696272617203
:103BC0006965735C647269766572735C66736C5F59
:103BD000636C6F636B2E6800696E646578203C3D92
:103BE0002036000068C00F402DE9F0470446254606
:103BF00003274FEA152805F01F09B8F1060F00D872
:103C000005E040F2873209A111A004F077FD1348C6
:103C100000EB88063068032101FA09F1884307FAAE
:103C200009F10843306000BFBDE8F0872E2E5C2EFE
:103C30002E5C6C69627261726965735C647269762C
:103C40006572735C66736C5F636C6F636B2E680088
:103C5000696E646578203C3D2036000068C00F40E6
:103C60002DE9F0470446254603274FEA152805F0BD
:103C70001F09B8F1060F00D805E040F2873209A10C
:103C800011A004F03BFD134800EB880630680321C7
:103C900001FA09F1884307FA09F10843306000BFCF
:103CA000BDE8F0872E2E5C2E2E5C6C69627261720C
:103CB0006965735C647269766572735C66736C5F68
:103CC000636C6F636B2E6800696E646578203C3DA1
:103CD0002036000068C00F4010B50446032120467E
:103CE000FFF74AFF10BD00002DE9F04704462546C6
:103CF00003274FEA152805F01F09B8F1060F00D871
:103D000005E040F2873209A111A004F0F7FC134846
:103D100000EB88063068032101FA09F1884307FAAD
:103D200009F10843306000BFBDE8F0872E2E5C2EFD
:103D30002E5C6C69627261726965735C647269762B
:103D40006572735C66736C5F636C6F636B2E680087
:103D5000696E646578203C3D2036000068C00F40E5
:103D60000146C8B2054A8058C1F34C32C1F304235E
:103D70009A401040C1F30422D040704700C00F4069
:103D800070B50546142D72D2DFE805F00A0B153424
:103D900045494E53585D62676C72777C81868C9280
:103DA00000BF00F0A9F847494969C1F38221491CC5
:103DB000B0FBF1F483E04348406900F0400070B18B
:103DC0004048406900F0800020B1012000F0EAF98D
:103DD000044607E0022000F0AFF9044602E000F0DC
:103DE0008BF8044637484069C0F30240401CB4FBDE
:103DF000F0F464E000F080F832494969C1F38221AF
:103E0000491CB0FBF1F42F484069C0F30120401C6D
:103E1000B4FBF0F453E000F05FF804464FE000BF5D
:103E20004FF4004400BF4AE0274800F0C1F80446C0
:103E300045E0002000F0B6F9044640E0012000F023
:103E4000B1F904463BE0022000F0ACF9044636E04C
:103E5000032000F0A7F9044631E01C4800F0A8F860
:103E600004462CE0002000F067F9044627E024E037
:103E7000012000F061F9044621E0022000F05CF925
:103E800004461CE0032000F057F9044617E01048F0
:103E900000F08EF8044612E00D48083000F088F873
:103EA00004460CE00A48093000F082F8044606E0B7
:103EB000084800F07DF8044601E0002400BF00BF80
:103EC000204670BD00C00F400D0010000D003000F6
:103ED0000D00E0000D0070000448006800F01000C4
:103EE00008B10348704703480068FBE770820D4043
:103EF00000366E010400002010B52948406900F02A
:103F0000007040B32648806900F4405048B1B0F5D5
:103F1000805F0BD0B0F5005F0CD0B0F5405F0ED1E4
:103F20000EE0204800F044F804460BE0FFF7D4FF11
:103F3000044607E01C4800F03BF8044602E000BFDE
:103F4000002400BF00BF16484069C0F3C260401C97
:103F5000B4FBF0F422E01248806900F4402048B13C
:103F6000B0F5802F0BD0B0F5002F0DD0B0F5402F5D
:103F700011D10EE00C4800F01BF804460DE00320C0
:103F800000F010F9044608E0032000F0D5F80446DC
:103F900003E0064C01E0002400BF00BF204610BD36
:103FA00000C00F400D0010000D0030000065CD1D59
:103FB0002DE9FF478146594BD3E901021968DB68B7
:103FC00001AC0DC4009156494846C0F30B428A58D3
:103FD00000F01F070123BB401A400AB1012200E094
:103FE00000221AB9002004B0BDE8F0874C4FC84643
:103FF000C8F30B403858C0F3813010B9FFF76CFF9D
:1040000000E0002004464648C9F30B414158C1F383
:10401000004109B12046E6E74249A9EB0100894584
:104020006BD00BDCA9F58010A0F10D0028B3B0F522
:10403000001F08D0B0F5C00F6BD128E0082864D06D
:10404000092866D163E03648D0F860C0006DA4FB53
:1040500000700146624600233846FEF7B5FA054671
:104060002F48006B00F0010010B11620444302E01D
:1040700004EB840084002C444DE02948006900F0E2
:10408000020008B1162000E01420444343E0244815
:10409000006F00F07F0A22489030D0F800C020481E
:1040A000D0F88000A4FB0070014662460023384629
:1040B000FEF78AFA054604FB0A541948006F00F41B
:1040C000C01018B1B0F5002F04D101E0A40802E03F
:1040D000640800E000BF00BF1348006813490840AF
:1040E000B0F5004F04D04942084418B9A40802E0D2
:1040F000640800E000BF00BF0DE00B489038006886
:1041000000F0030A5DF82A4005E0094C03E0094C81
:1041100001E0002400BF00BF204664E7F095006086
:1041200000800D400D00E00070810D400080800097
:1041300040787D010065CD1D70B505461748FFF735
:1041400037FF044635B1012D0BD0022D10D0032DC1
:104150001CD114E01248006800F03F00B4FBF0F4FA
:1041600016E00F480068C0F30520B4FBF0F40FE040
:104170000B480068C0F30540B4FBF0F408E00848C1
:104180000068C0F30560B4FBF0F401E0002400BF58
:1041900000BF04EBC4004400204670BD0D00300099
:1041A00000810D4070B505461748FFF701FF044632
:1041B00035B1012D0BD0022D10D0032D1CD114E0F0
:1041C0001248006800F03F00B4FBF0F416E00F481E
:1041D0000068C0F30520B4FBF0F40FE00B48006862
:1041E000C0F30540B4FBF0F408E008480068C0F3F1
:1041F0000560B4FBF0F401E0002400BF00BF04EB55
:10420000C4004400204670BD0D001000F0800D4039
:1042100010B5C27802F00301194A126822F4404234
:1042200042F4803203794FF4404404EA83331A4362
:10423000134B1A6002780AB141F4005182780AB136
:1042400041F4001142780AB141F480010C4A12682D
:1042500041F203039A430A43094BE03BC3F8E020D1
:1042600000BF074A126802F00042002AF9D0044A4F
:10427000126822F48032024BE03BC3F8E02010BD0C
:10428000E0800D4070B504460E463F2000EA94657C
:10429000E0B215494158C4F34C30C4F304229040B5
:1042A00021EA0000C4F3042206FA02F1C4F34C32FE
:1042B000C4F304239A4011400843E1B20A4A8850EB
:1042C000202D00D805E040F2653208A110A004F0CE
:1042D00015FA202D07D000BF0348806C0121A940AA
:1042E00008400028F8D170BD00C00F402E2E5C2E73
:1042F0002E5C6C69627261726965735C6472697666
:104300006572735C66736C5F636C6F636B2E6800C1
:10431000627573795368696674203C3D2043434D50
:104320005F4E4F5F425553595F574149540000005B
:1043300070B504460E463F2000EA9465E0B2164987
:104340004158C4F34C30C4F30422904021EA0000E9
:10435000C4F3042206FA02F1C4F34C32C4F304237A
:104360009A4011400843E1B20B4A8850202D00D8F2
:1043700006E040F26532094901F1240004F0BEF97B
:10438000202D07D000BF0448806C0121A9400840BF
:104390000028F8D170BD000000C00F40B444006098
:1043A00070B504460E463F2000EA9465E0B2154918
:1043B0004158C4F34C30C4F30422904021EA000079
:1043C000C4F3042206FA02F1C4F34C32C4F304230A
:1043D0009A4011400843E1B20A4A8850202D00D883
:1043E00005E04FF4507208A110A004F087F9202DC9
:1043F00007D000BF0348806C0121A9400840002875
:10440000F8D170BD00C00F402E2E5C2E2E5C6C6962
:10441000627261726965735C647269766572735CFD
:1044200066736C5F636C6F636B2E68006275737983
:104430005368696674203C3D2043434D5F4E4F5F97
:10444000425553595F5741495400000070B5044626
:104450000E463F2000EA9465E0B215494158C4F386
:104460004C30C4F30422904021EA0000C4F304223B
:1044700006FA02F1C4F34C32C4F304239A4011400B
:104480000843E1B20A4A8850202D00D805E04FF4D5
:10449000507208A110A004F031F9202D07D000BF00
:1044A0000348806C0121A94008400028F8D170BD64
:1044B00000C00F402E2E5C2E2E5C6C696272617201
:1044C0006965735C647269766572735C66736C5F50
:1044D000636C6F636B2E68006275737953686966ED
:1044E00074203C3D2043434D5F4E4F5F425553592E
:1044F0005F574149540000000748006840F0807051
:10450000054908600020054948600846006840F0F9
:104510000100086070470000FCED00E0001000E0C2
:104520000148406870470000001000E010B5FEF739
:1045300023FC10BDF8B5204800F00AFC684600F0E6
:1045400097FD69461D4800F07BFE1B4D0124264661
:10455000202C00D204E0B72219A123A004F0CEF849
:1045600036B155F8240040F0005045F8240005E02D
:1045700055F8240020F0005045F8240000BF0E4DEF
:104580000124202C00D204E068220DA116A004F022
:10459000B5F855F8240040F0004045F8240000BF6D
:1045A000012206491B4800F08DFC00221A491948D7
:1045B00001F02EF8F8BD000000C00E4000800E4053
:1045C0002E2E5C2E2E5C6C69627261726965735C62
:1045D000647269766572735C66736C5F646D616D3D
:1045E00075782E68000000006368616E6E656C204F
:1045F0003C2046534C5F464541545552455F444D1F
:10460000414D55585F4D4F44554C455F4348414ED1
:104610004E454C00C8100020B14E0060094840686B
:1046200040F038000749486007490648C1626120E8
:1046300004498031086005480249C1F8840000201F
:104640007047000000002F40110000A088888800FB
:104650002DE9FF4F2DED0A8B87B0834616461F4686
:104660004FF000095D46002005F8010B129890ED0F
:10467000000BB0EE40BBB5EEC0BBF1EE10FA0AD1B4
:104680003020287009F10109484607B0BDEC0A8BBB
:1046900004B0BDE8F08F02A8B0EE4B0B04F050F868
:1046A000B0EE409B4FF0000A09E000EE106AB8EE51
:1046B000C00B29EE000BB0EE409B0AF1010ABA458F
:1046C000F3D3B5EEC0BBF1EE10FA19DBB6EE000B7A
:1046D00039EE008B00EE107AB8EE401BB2EE040B00
:1046E00004F08EF8B4EEC80BF1EE10FA23D89DED6D
:1046F000020BB7EE001B30EE010B8DED020B1AE042
:10470000B6EE000B39EE408B00EE107AB8EE401B8F
:10471000B2EE040B04F074F8B1EE400BB4EEC80B2B
:10472000F1EE10FA07DB9DED020BB7EE001B30EE49
:10473000410B8DED020B4FF0000A2FE000EE106AE6
:10474000B8EEC00B88EE00AB51EC1A0BFDF7CBFFB7
:10475000F317A0FB062C01FB06C100FB0310CDE9FB
:10476000002010460199FDF7AAFF41EC100B38EE2E
:1047700040CBBDEECC0B10EE104A002C05DA0494B1
:10478000049CE04300F1310400E03034B0EE4A8B89
:1047900005F8014B09F101090AF1010ABA45CDD327
:1047A0002E2005F8010B09F101099DED020BBDEE6C
:1047B000C00B10EE108AB8F1000F05D1302005F8BB
:1047C000010B09F1010918E014E098FBF6F00590DF
:1047D000059800FB1684002C05DA0494049CE04341
:1047E00000F1310400E03034DDF8148005F8014BAD
:1047F00009F10109B8F1000FE7D1484645E72DE975
:10480000FF4F89B01E4600200190DDF824B00BF860
:10481000010B0B9800284DD00A98D0E900780021B0
:1048200087EA010088EA0101084309D130208BF8AA
:1048300000000198401C019001980DB0BDE8F08F78
:104840002FE03246F31738464146FDF7EEFECDE93C
:104850000601F317DDE90601A0FB062C01FB06C1EA
:1048600003FB0013B91A68EB0300CDE90410002321
:10487000DDE90410C91A984107DA049CE143491C98
:104880004FF030000818049002E004983030049093
:10489000DDE9067804980BF8010B019800F101009E
:1048A00001904FF0000187EA010088EA0101084306
:1048B000C7D148E00A98D0E9009A002189EA0100AE
:1048C0008AEA0101084307D130208BF800000198E3
:1048D000401C01900198B0E72DE03246F31748469E
:1048E0005146FDF771FECDE90201F317DDE9020142
:1048F000A0FB062C01FB06C100FB0310B9EB020470
:104900006AEB00050A21611A75F1000001D230340A
:1049100009E00A21601A65F10001169909B14121E7
:1049200000E061214418DDE9029A0BF8014B01987F
:1049300000F1010001904FF0000189EA01008AEACC
:1049400001010843C9D1019877E7000010B50021A3
:104950000A4800F041FB00F0040018B1084908685B
:1049600000F0F0FB1021054800F036FB00F00400D9
:1049700018B10349086C00F0E5FB10BD00800E4043
:104980002010002010B50A210A4800F025FB00F095
:10499000040018B10849886A00F0D4FB1A210548C0
:1049A00000F01AFB00F0040018B10349886E00F013
:1049B000C9FB10BD00800E402010002010B50B2157
:1049C0000A4800F009FB00F0040018B10849C86A61
:1049D00000F0B8FB1B21054800F0FEFA00F00400CF
:1049E00018B10349C86E00F0ADFB10BD00800E4049
:1049F0002010002010B50C210A4800F0EDFA00F05C
:104A0000040018B10849086B00F09CFB1C21054804
:104A100000F0E2FA00F0040018B10349086F00F05A
:104A200091FB10BD00800E402010002010B50D211C
:104A30000A4800F0D1FA00F0040018B10849486BA8
:104A400000F080FB1D21054800F0C6FA00F00400CC
:104A500018B10349486F00F075FB10BD00800E408F
:104A60002010002010B50E210A4800F0B5FA00F021
:104A7000040018B10849886B00F064FB1E2105484A
:104A800000F0AAFA00F0040018B10349886F00F0A2
:104A900059FB10BD00800E402010002010B50F21E2
:104AA0000A4800F099FA00F0040018B10849C86BF0
:104AB00000F048FB1F21054800F08EFA00F00400CA
:104AC00018B10349C86F00F03DFB10BD00800E40D7
:104AD0002010002010B501210A4800F07DFA00F0F6
:104AE000040018B10849486800F02CFB1121054862
:104AF00000F072FA00F0040018B10349486C00F0AD
:104B000021FB10BD00800E402010002010B50221B6
:104B10000A4800F061FA00F0040018B108498868FA
:104B200000F010FB1221054800F056FA00F00400D6
:104B300018B10349886C00F005FB10BD00800E40E1
:104B40002010002010B503210A4800F045FA00F0BB
:104B5000040018B10849C86800F0F4FA13210548A8
:104B600000F03AFA00F0040018B10349C86C00F0F4
:104B7000E9FA10BD00800E402010002010B504217D
:104B80000A4800F029FA00F0040018B10849086941
:104B900000F0D8FA1421054800F01EFA00F00400D5
:104BA00018B10349086D00F0CDFA10BD00800E4029
:104BB0002010002010B505210A4800F00DFA00F081
:104BC000040018B10849486900F0BCFA15210548ED
:104BD00000F002FA00F0040018B10349486D00F03B
:104BE000B1FA10BD00800E402010002010B5062143
:104BF0000A4800F0F1F900F0040018B1084988698A
:104C000000F0A0FA1621054800F0E6F900F00400D3
:104C100018B10349886D00F095FA10BD00800E4070
:104C20002010002010B507210A4800F0D5F900F047
:104C3000040018B10849C86900F084FA1721054832
:104C400000F0CAF900F0040018B10349C86D00F083
:104C500079FA10BD00800E402010002010B5082108
:104C60000A4800F0B9F900F0040018B10849086AD0
:104C700000F068FA1821054800F0AEF900F00400D1
:104C800018B10349086E00F05DFA10BD00800E40B7
:104C90002010002010B509210A4800F09DF900F00D
:104CA000040018B10849486A00F04CFA1921054877
:104CB00000F092F900F0040018B10349486E00F0CA
:104CC00041FA10BD00800E402010002070B505464E
:104CD000002406E0094850F82400A84200D102E070
:104CE000641C002CF6D000BF04B904E0562204A1D5
:104CF0000DA003F003FD204670BD00006C9600601F
:104D00002E2E5C2E2E5C6C69627261726965735C1A
:104D1000647269766572735C66736C5F646D616DF5
:104D200075782E6300000000696E7374616E6365B0
:104D3000203C2041525241595F53495A4528735FE4
:104D4000646D616D757842617365732900000000C0
:104D500070B505462846FFF7B9FF044931F9104000
:104D600003212046FEF798FE00BF70BD70960060DC
:104D70002DE9F04106460D4614461F4604B104E0F5
:104D8000692206A111A003F0B9FC3B462A46214640
:104D9000304601F03FFDBDE8F08100002E2E5C2E74
:104DA0002E5C6C69627261726965735C7574696CA2
:104DB00069746965735C66736C5F64656275675F6F
:104DC000636F6E736F6C652E6300000064657669B7
:104DD000636520213D2044454255475F434F4E5374
:104DE0004F4C455F4445564943455F545950455FD4
:104DF0004E4F4E45000000000FB430B5A1B0002466
:104E0000002580216846FDF748FC25A82090094B25
:104E10006A462099249803F039F8044621466846EA
:104E200001F01CFD054600202090284621B030BC32
:104E30005DF814FB394E00602DE9F04105460C4643
:104E400016461F464FF0000800BF10E02068401CC7
:104E5000802805D32846216801F000FD002020604D
:104E600020682E542068401C206008F10108B845D5
:104E7000ECDBBDE8F081000008B50949096840F69F
:104E8000B833B1FBF3F206E0009200BF00994B1E6D
:104E900000930029FAD1011EA0F10100F4D108BD50
:104EA0000000002000BFEFF31081084672B6704783
:104EB00030B5047C012C02D10AB1014D2C7030BDFB
:104EC0003C0000202DE9F04705460F46164605B187
:104ED00005E040F2F71226A12EA003F00FFC202ED1
:104EE00000D205E04FF4FC7221A12EA003F006FCD5
:104EF00018212846FDF7D1FBAF602E74384600F02C
:104F0000E3F8804601F064FA8146A8EB090006EB5D
:104F1000401A2F4840F82A502E4901EB881131F9E8
:104F2000160010F1800F00D10EE00146002909DBC8
:104F300001F01F0301229A404B099B0003F1E0237B
:104F4000C3F8002100BF00BFA86800F58050297C8D
:104F500000EB411400202060A080E080A060E060B1
:104F60002061A082E082A061A083E083BDE8F08799
:104F70002E2E5C2E2E5C6C69627261726965735CA8
:104F8000647269766572735C66736C5F65646D618B
:104F90002E63000068616E646C6520213D204E55D3
:104FA0004C4C00006368616E6E656C203C2046537B
:104FB0004C5F464541545552455F45444D415F4D18
:104FC0004F44554C455F4348414E4E454C00000010
:104FD000201000207A96006070B506460C46202C02
:104FE00000D205E040F2C1120DA116A003F086FB2D
:104FF000002506F5805000EB4410808BC0F3C010F4
:105000000543F06AE04000F0010045EA4005706A9F
:10501000E04000F0010045EA8005284670BD000030
:105020002E2E5C2E2E5C6C69627261726965735CF7
:10503000647269766572735C66736C5F65646D61DA
:105040002E6300006368616E6E656C203C204653E1
:105050004C5F464541545552455F45444D415F4D77
:105060004F44554C455F4348414E4E454C0000006F
:1050700010B5044604B104E0962206A10EA003F088
:105080003DFB0020A0700120607000202070E070C7
:1050900010BD00002E2E5C2E2E5C6C696272617257
:1050A0006965735C647269766572735C66736C5F64
:1050B00065646D612E630000636F6E666967202111
:1050C0003D204E554C4C000070B50546002406E0CE
:1050D000094850F82400A84200D102E0641C002CCA
:1050E000F6D000BF04B904E05F2204A10CA003F0D5
:1050F00005FB204670BD0000749600602E2E5C2ECD
:105100002E5C6C69627261726965735C6472697647
:105110006572735C66736C5F65646D612E6300001D
:10512000696E7374616E6365203C2041525241592F
:105130005F53495A4528735F65646D6142617365C9
:10514000732900002DE9F047044604B105E04FF44F
:1051500055722EA136A003F0D1FA207CA168C87741
:10516000E06840B9206830B1002301222046D4E92C
:105170000051A84747E0A06800F58050217C00EB73
:105180004110D0F81880A06800F58050217C00EB19
:105190004110808BC0F3C019E068A8EB00084FEA0B
:1051A0005817B9F1000F01D0FEB206E00FB1781E1A
:1051B00002E094F91400401EC6B294F91100B04206
:1051C0000AD194F9130094F91410884202D194F989
:1051D000135009E0002507E094F91100351A002D5D
:1051E00002DA94F91400054470B26074E07C401B4C
:1051F00040B2E074206828B12B464A462046D4E9E4
:1052000000C1E04700BFBDE8F08700002E2E5C2EF5
:105210002E5C6C69627261726965735C6472697636
:105220006572735C66736C5F65646D612E6300000C
:1052300068616E646C6520213D204E554C4C000029
:105240002DE9F04105460C4604B104E07C2215A18D
:105250001DA003F053FA2846FFF736FF1E4931F927
:10526000107003213846FEF74FFC00BF2E6826F071
:105270005606A078042101EA80006178102202EA33
:10528000011108432178402202EA81110843E178A4
:10529000022202EA4101084340F0800006432E60EA
:1052A000BDE8F0812E2E5C2E2E5C6C6962726172FC
:1052B0006965735C647269766572735C66736C5F52
:1052C00065646D612E630000636F6E6669672021FF
:1052D0003D204E554C4C00007896006070B5064657
:1052E0000C461546202C00D204E066222EA137A0E1
:1052F00003F004FA05B104E067222BA13EA003F0FD
:10530000FDF905F01F0000B904E0682226A13DA0C8
:1053100003F0F4F9296806F5805000EB44100160B1
:10532000A98806F5805000EB44108180E98806F5D5
:10533000805000EB4410C180A96806F5805000EB56
:1053400044108160E96806F5805000EB4410C160AC
:10535000296906F5805000EB44100161A98A06F521
:10536000805000EB44108182E98A06F5805000EB02
:105370004410C182A96906F5805000EB4410816198
:10538000002106F5805000EB44108183A98B06F5BF
:10539000805000EB44108183E98B06F5805000EBD0
:1053A0004410C18370BD00002E2E5C2E2E5C6C69F3
:1053B000627261726965735C647269766572735C4E
:1053C00066736C5F65646D612E6300006368616E77
:1053D0006E656C203C2046534C5F46454154555207
:1053E000455F45444D415F4D4F44554C455F4348F3
:1053F000414E4E454C00000074636420213D204E18
:10540000554C4C00282875696E7433325F742974CA
:105410006364202620307831465529203D3D2030D8
:10542000000000002DE9F05F04460F46154698463F
:105430000AAE96E8400E04B105E040F23F2252A1C8
:105440005AA003F05BF907B105E04FF410724EA1CA
:105450005AA003F053F9B8F1000F00D005E040F274
:10546000412249A159A003F049F9012D07D0022D8D
:1054700005D0042D03D0102D01D0202D00D105E042
:1054800040F2422240A1564803F038F9012E07D0DD
:10549000022E05D0042E03D0102E01D0202E00D1D4
:1054A00005E040F2432238A14E4803F027F9BAFB49
:1054B000F9F009FB10A000B905E04FF4117232A118
:1054C00049A003F01BF9C4F804802760C4F81090C9
:1054D000BAFBF9F06061042D10D004DC012D07D077
:1054E000022D14D107E0102D0BD0202D0FD10BE091
:1054F000002020720CE00120207209E002202072BE
:1055000006E00420207203E00520207200E000BFC6
:1055100000BF042E10D004DC012E07D0022E14D1BF
:1055200007E0102E0BD0202E0FD10BE00020607270
:105530000CE00120607209E00220607206E00420A5
:10554000607203E00520607200E000BF00BFBBF1A5
:10555000000F06D0BBF1010F0DD0BBF1020F0FD130
:1055600004E030B2A08128B260810AE00020A0816E
:1055700028B2608105E030B2A0810020608100E0A7
:1055800000BF00BFBDE8F09F2E2E5C2E2E5C6C6924
:10559000627261726965735C647269766572735C6C
:1055A00066736C5F65646D612E630000636F6E6689
:1055B000696720213D204E554C4C000073726341B9
:1055C00064647220213D204E554C4C006465737418
:1055D0004164647220213D204E554C4C0000000077
:1055E000709E0060D49E00607472616E7366657216
:1055F000427974657320252062797465734561630F
:105600006852657175657374203D3D20300000005F
:1056100070B504460E46154604B105E04FF40C7211
:1056200003A10CA003F06AF82660656070BD00005D
:105630002E2E5C2E2E5C6C69627261726965735CE1
:10564000647269766572735C66736C5F65646D61C4
:105650002E63000068616E646C6520213D204E550C
:105660004C4C00002DE9F04107460C4615461E46FD
:10567000202C00D204E0A7220EA117A003F03EF8D0
:1056800005B104E0A8220BA11EA003F037F806F034
:105690001F0000B904E0A92206A11EA003F02EF805
:1056A00007F5805101EB44103246294600F0E4F939
:1056B000BDE8F0812E2E5C2E2E5C6C6962726172E8
:1056C0006965735C647269766572735C66736C5F3E
:1056D00065646D612E6300006368616E6E656C20A9
:1056E0003C2046534C5F464541545552455F454426
:1056F0004D415F4D4F44554C455F4348414E4E45EB
:105700004C000000636F6E66696720213D204E5596
:105710004C4C0000282875696E7433325F74296E12
:1057200065787454636420262030783146552920EA
:105730003D3D20300000000070B5044604B105E096
:1057400040F2123219A122A002F0D8FFE06828B975
:10575000207C00F01F00A168C87626E0A06800F554
:105760008050217C00EB4115607D40F08000607529
:10577000A869C8B1FFF796FB0646A068C068227CFE
:1057800001219140084060B9A88B00F0800018B159
:10579000A88B00F0100020B1207C00F01F00A16851
:1057A000C876304600F0F4F900BF70BD2E2E5C2E96
:1057B0002E5C6C69627261726965735C6472697691
:1057C0006572735C66736C5F65646D612E63000067
:1057D00068616E646C6520213D204E554C4C000084
:1057E0002DE9F05F04468A4604B105E040F28722C5
:1057F0006AA173A002F082FFBAF1000F00D005E0A9
:105800004FF4227265A172A002F078FFA06800F543
:105810008050217C00EB4115E06888BBA88B38B133
:10582000A88B00F0800018B941F2ED30BDE8F09F80
:10583000217C00235246A068FFF714FFA06800F502
:105840008050217C00EB4110808B40F00801A06863
:1058500000F58050227C00EB42108183A06800F5A7
:105860008050217C00EB4110808B40F00201A06849
:1058700000F58050227C00EB421081830020D5E7A8
:10588000FFE7FFF70FFB834694F9130094F9141018
:10589000884205DB584600F07BF941F2EC30C5E761
:1058A00094F91260E07C401C40B2E074701C4FFA26
:1058B00080F894F91400404501D14FF0000884F8B5
:1058C0001280584600F064F90EB1701E02E094F99F
:1058D0001400401E4FFA80F9E16801EB461000F019
:1058E0007FF8E16801EB46100022514600F0C4F851
:1058F000E06800EB4610808B40F00200E16801EBAD
:1059000046118883E06800EB4810E16801EB46111E
:1059100088614E452FD0E06800EB4910808B20F065
:10592000080040F01007E06800EB49108783E0684A
:1059300000EB4610A969884219D1A88B40F00800F5
:10594000A883A88B40F01007AF83A88B00F010004D
:1059500028B1A88B20F00800A883002066E7E06843
:1059600000EB4810A969884205D100205EE7A869CC
:1059700008B100205AE7E36803EB4612217CA068D7
:10598000FFF7ACFC607D00F0800020B1207C00F0CF
:105990001F00A168C876002048E700002E2E5C2E6C
:1059A0002E5C6C69627261726965735C647269769F
:1059B0006572735C66736C5F65646D612E63000075
:1059C00068616E646C6520213D204E554C4C000092
:1059D000636F6E66696720213D204E554C4C000078
:1059E00010B5044604B105E04FF483720EA117A070
:1059F00002F084FE04F01F0000B905E040F2071237
:105A000009A115A002F07AFE00202060A080E080AD
:105A1000A060E0602061A082E082A0610820A083F5
:105A20000020E08310BD00002E2E5C2E2E5C6C69E1
:105A3000627261726965735C647269766572735CC7
:105A400066736C5F65646D612E630000746364202F
:105A5000213D204E554C4C00282875696E74333218
:105A60005F742974636420262030783146552920DC
:105A70003D3D20300000000070B504460D4616463E
:105A800004B105E04FF48D7220A129A002F036FE8A
:105A900004F01F0000B905E040F21B121BA127A073
:105AA00002F02CFE05B105E04FF48E7217A12BA079
:105AB00002F024FE06F01F0000B905E040F21D12BE
:105AC00012A12AA002F01AFE2868206068682061EE
:105AD000287A4FF4E06101EA0020697A01F00701B9
:105AE0000843E0806889A080A889A0822869A06016
:105AF000A88AE082A88AE08336B1A661A08B20F054
:105B0000080040F01000A08370BD00002E2E5C2E17
:105B10002E5C6C69627261726965735C647269762D
:105B20006572735C66736C5F65646D612E63000003
:105B300074636420213D204E554C4C002828756923
:105B40006E7433325F742974636420262030783198
:105B5000465529203D3D203000000000636F6E66F1
:105B6000696720213D204E554C4C0000282875695E
:105B70006E7433325F74296E6578745463642026C2
:105B800020307831465529203D3D2030000000006E
:105B900000BF80F3108800BF704710B500F02CF9EB
:105BA00010BD70B504460D4605F0010050B1237DCF
:105BB00001229A40521E237C02FA03F120680161FF
:105BC00000BF00BF05F0020048B1237D01229A40CA
:105BD000521E237C02FA03F1206800F00BF970BD1D
:105BE00010B5044604B104E0462205A10FA002F05E
:105BF00085FD002020706070A070E07010BD000076
:105C00002E2E5C2E2E5C6C69627261726965735C0B
:105C1000647269766572735C66736C5F666C6578D6
:105C2000696F5F63616D6572612E6300636F6E669D
:105C30006967000010B50446206800F0F9F810BD4F
:105C400070B590B004460D460CB105B104E0502289
:105C500057A162A002F052FD00200F900E90204646
:105C6000FFF7E8FF614931F910603046FDF7F8FFB2
:105C7000182108A8FCF711FD1C2101A8FCF70DFD57
:105C8000206880680E905A490E9808400E90A878B7
:105C9000490701EA8070E978042202EA8101084399
:105CA000297801F0010108430E9908430E906878A5
:105CB00018B90E9840F000400E900E982168886048
:105CC000A069089000208DF824008DF825006068F8
:105CD0000A9000208DF82C0001208DF82D0007205F
:105CE0000C9001208DF8340000208DF835008DF8DF
:105CF000360020690F9008E00F9AD1B208AA2068F8
:105D000000F08DF90F98401C0F90D4E9040108446D
:105D1000401E0F998842EFD800208DF834000F9A6A
:105D2000D1B208AA206800F07AF9E068400001903A
:105D300000208DF8080001208DF8090000208DF862
:105D40000A00A068039000208DF8100003208DF851
:105D5000110001208DF8120002208DF8130006209A
:105D60008DF814008DF815008DF8160000208DF8C0
:105D700017008DF818006069C000401E0790217E52
:105D800001AA206800F089F9237D01229A40521E61
:105D9000237C02FA03F1206800F02CF8237E012214
:105DA00002FA03F12068816100BF10B070BD0000ED
:105DB0002E2E5C2E2E5C6C69627261726965735C5A
:105DC000647269766572735C66736C5F666C657825
:105DD000696F5F63616D6572612E630062617365F7
:105DE00020262620636F6E6669670000C4960060F7
:105DF000FAFFFF3F4161704710B500240FE00948EA
:105E000050F8240048B1074B53F82410064B53F8C0
:105E10002400064B53F824209047601CC4B2022C87
:105E2000EDDB10BD140000201C0000202400002029
:105E300070B50546002406E0094850F82400A84241
:105E400000D102E0641C022CF6D300BF022C00D269
:105E500004E0572203A10DA002F050FC204670BDC3
:105E6000BC9600602E2E5C2E2E5C6C696272617294
:105E70006965735C647269766572735C66736C5F86
:105E8000666C6578696F2E6300000000696E73743C
:105E9000616E6365203C2041525241595F53495A1B
:105EA0004528735F666C6578696F42617365732915
:105EB000000000002DE9F04105460E461446082C6E
:105EC00000D204E08D221AA123A002F017FC0027C3
:105ED000072E28D2DFE806F004090E13181D220051
:105EE00005F5007000EB84071EE005F5207000EB5F
:105EF000840719E005F5407000EB840714E005F510
:105F0000607000EB84070FE005F5D06000EB8407BC
:105F10000AE005F5E06000EB840705E005F5F060B8
:105F200000EB840700E000BF00BF3846BDE8F08109
:105F30002E2E5C2E2E5C6C69627261726965735CD8
:105F4000647269766572735C66736C5F666C6578A3
:105F5000696F2E6300000000696E646578203C2044
:105F6000464C4558494F5F53484946544255465F51
:105F7000434F554E5400000010B503210348FFF76E
:105F800010FE034800680349086010BD7800002037
:105F90000058E2810458E2810B4800680B498842AE
:105FA00003D108460849086005E00748006800F585
:105FB0001630054908600448016805480161002061
:105FC0000449C876704700000058E2810000E08173
:105FD00000900E4000800E4070B503F06DF903F0A4
:105FE00011F90121094C2068257C012404FA05F2ED
:105FF0000B461BB1046B1443046302E0046B94432F
:10600000046300BF00BFFCF76FFD70BD7800002087
:10601000816841F00201816000218160704730B5E4
:10602000137D4FF4807404EA0323148A4FF4F815A7
:1060300005EA04442343547D302505EA0414234330
:10604000947D04F00304234300F5807444F8213068
:1060500013784FF0E06404EA036314794FF4000509
:1060600005EAC454234354794FF4403505EA044407
:1060700023434FF4F855946805EA04242343147B22
:10608000802505EAC4142343547B04F0070423430A
:1060900000F1800444F8213030BD30B5937B4FF0DF
:1060A000407404EA0363D47B4FF4401505EA0454BA
:1060B0002343147C4FF4E02505EA04442343547C35
:1060C0002D1105EA04342343947C2D1105EA0424A0
:1060D0002343D47C302505EA04142343147D022590
:1060E00005EA4404234300F5906444F82130138BFF
:1060F0009CB200F5A06343F8214013784FF07C5424
:1061000004EA03631479AD0505EAC45423435479C2
:106110006D1005EA8454234394794FF4403505EA21
:10612000044423434FF4F855946805EA04242343B8
:10613000147B802505EAC4142343547B04F0030434
:10614000234300F5806444F8213030BD2DE9F0434D
:106150008BB004460D4616461F46DDF84890301BAE
:10616000401C791B491C48434FEA40083B463246D5
:106170002946204600F08AFA2C201149088000BFE9
:1061800002202021CDE900184FF020430A4649465D
:10619000CDE9028005A8FFF745F905A90948FFF7F1
:1061A0001FFB0020084908700648FFF7C5FA00BF2A
:1061B000054800780128FBD10BB0BDE8F083000052
:1061C000000001A0C81000203C00002010B54FF0D6
:1061D000806000BF0949886100BF00BFFFF7CCFEA7
:1061E000012007490870FFF7D7FE00BF00BF00BFBE
:1061F000BFF34F8F00BF00BF00BF10BD00801B402A
:106200003D00002070B50546002406E0094850F81E
:106210002400A84200D102E0641C062CF6D300BF83
:10622000062C00D204E0542203A10CA002F066FA6E
:10623000204670BD009600602E2E5C2E2E5C6C6990
:10624000627261726965735C647269766572735CAF
:1062500066736C5F6770696F2E630000696E73749C
:10626000616E6365203C2041525241595F53495A47
:106270004528735F6770696F426173657329000019
:106280002DE9F04104460D4616462046FFF7BAFFB9
:10629000124931F910703846FDF7A6FC60690121FA
:1062A000A94088436061307828B960680121A9401D
:1062B0008843606009E072782946204600F056F86D
:1062C00061680120A84001436160B7783A462946D9
:1062D000204600F005F800BFBDE8F0811896006088
:1062E000F0B503460C462146DD690126A640B543BC
:1062F000DD61102C02D203F10C0002E003F110006A
:106300001039062A2ED2DFE802F02D030A152027C5
:1063100005684F000326BE40B543056023E00568CD
:106320004F000326BE40B5434F000126BE40354313
:10633000056018E005684F000326BE40B5434F00D6
:106340000226BE40354305600DE005684F00032678
:10635000BE403543056006E0DD690126A6403543B1
:10636000DD6100E000BF00BFF0BD000070B5044675
:106370000D461646202D00D204E0742208A111A07B
:1063800002F0BCF92EB920680121A94088432060A1
:1063900004E021680120A8400143216070BD000095
:1063A0002E2E5C2E2E5C6C69627261726965735C64
:1063B000647269766572735C66736C5F6770696F2F
:1063C0002E63000070696E203C2033320000000014
:1063D00010B50448FEF778FE0349087008460078B7
:1063E00010BD000000800E401000002010B5CB2032
:1063F00000F072F9392000F075F92C2000F072F9E4
:10640000002000F06FF9342000F06CF9022000F059
:1064100069F9CF2000F060F9002000F063F9C12095
:1064200000F060F9302000F05DF9E82000F054F948
:10643000852000F057F9002000F054F9782000F092
:1064400051F9EA2000F048F9002000F04BF9002053
:1064500000F048F9ED2000F03FF9642000F042F927
:10646000032000F03FF9122000F03CF9812000F0F9
:1064700039F9F72000F030F9202000F033F9C0207E
:1064800000F02AF9232000F02DF9C12000F024F9B2
:10649000102000F027F9C52000F01EF93E2000F082
:1064A00021F9282000F01EF9C72000F015F98620F8
:1064B00000F018F9362000F00FF9282000F012F94A
:1064C0003A2000F009F9552000F00CF9B12000F055
:1064D00003F9002000F006F9182000F003F9B620B7
:1064E00000F0FAF8082000F0FDF8822000F0FAF839
:1064F000272000F0F7F8F22000F0EEF8002000F07E
:10650000F1F8262000F0E8F8012000F0EBF8E02098
:1065100000F0E2F80F2000F0E5F8312000F0E2F89A
:106520002B2000F0DFF80C2000F0DCF80E2000F04B
:10653000D9F8082000F0D6F84E2000F0D3F8F1206A
:1065400000F0D0F8372000F0CDF8072000F0CAF8AE
:10655000102000F0C7F8032000F0C4F80E2000F06F
:10656000C1F8092000F0BEF8002000F0BBF8E120DF
:1065700000F0B2F8002000F0B5F80E2000F0B2F8FC
:10658000142000F0AFF8032000F0ACF8112000F068
:10659000A9F8072000F0A6F8312000F0A3F8C120E8
:1065A00000F0A0F8482000F09DF8082000F09AF8CC
:1065B0000F2000F097F80C2000F094F8312000F044
:1065C00091F8362000F08EF80F2000F08BF81120A3
:1065D00000F082F8782000F007F8292000F07CF81D
:1065E000C82000F001F810BD08B50AE042F21071B1
:1065F000009102E00099491E009100990029F9D10B
:10660000401E0028F2D108BD08B51548006800906A
:106610006A4609211348FFF733FE6A4619211148DB
:10662000FFF72EFE012000F01FF8FDF765FF0022A6
:1066300009210C48FFF79AFE1920FFF7D5FF00202B
:1066400000F050F81920FFF7CFFF0122092105487B
:10665000FFF78CFE3220FFF7C7FFFFF7C7FE08BD2C
:106660001897006000001C4010B504462CB10022B1
:1066700019210548FFF77AFE04E00122192102489A
:10668000FFF774FE10BD000000001C402DE9F04132
:1066900004460D4616461F462A2000F01DF820121B
:1066A00000F020F8E0B200F01DF8301200F01AF807
:1066B000F0B200F017F82B2000F00EF8281200F0CE
:1066C00011F8E8B200F00EF8381200F00BF8F8B24A
:1066D00000F008F8BDE8F08101490880704700002B
:1066E000000001A04FF020410880704730B5DDE97F
:1066F000034504B1256030BDF0B5DDE9055401F076
:106700000706102707EA04173E43066002B113602C
:10671000F0BD0000F0B585B004460D4616461F4694
:1067200004B104E0FF221CA125A001F0E7FF2079BD
:10673000264908712068086008460079022826D199
:10674000684600F0CDFC009520493246086869464D
:1067500000F046FD1D4A0121106821B1826942F412
:106760000022826103E0826922F40022826100BF7C
:10677000164A0121106821B1826942F480228261A7
:1067800003E0826922F48022826100BF00E000BF42
:1067900000BF05B0F0BD00002E2E5C2E2E5C6C6993
:1067A000627261726965735C7574696C697469653C
:1067B000735C696F5C66736C5F696F2E63000000C9
:1067C0004E554C4C20213D20696F000034000020C4
:1067D0002DE9F04104460D46164600270C48007985
:1067E00002280FD136B10A492A460868214600F02E
:1067F000EFFE06E006492A460868214600F06AFED8
:10680000074601E0012700BF00BF3846BDE8F08120
:10681000340000202DE9FC4107460C4615461E4673
:1068200000978DF804400023324629466846FFF75A
:1068300071FF0020BDE8FC8170B505460C460026BE
:106840004CB145B1012636B1012221462846FFF759
:10685000BFFF00B10024204670BD000070B50446A3
:106860000D4604B105E040F23F1204A10DA001F075
:1068700045FF29462046FFF7DFFF70BD2E2E5C2E18
:106880002E5C6C69627261726965735C7574696CA7
:1068900069746965735C6C6F675C66736C5F6C6F61
:1068A000672E630062756620213D204E554C4C00DA
:1068B00010B50121014800F02DF810BD00003F4047
:1068C00010B50221014800F025F810BD00403F40FE
:1068D00010B50321014800F01DF810BD00803F40B5
:1068E00010B50421014800F015F810BD00C03F406C
:1068F00070B50546284600F02EF9044604F00070F5
:1069000028B104F0807010B94FF4617070BD0020A0
:10691000FCE7000070B504460D46206900F0010058
:1069200048B10D48006830B10C4850F82510204699
:10693000094A12689047D4F8100100F0010048B1EC
:106940000748006830B1074850F825102046044A2F
:106950001268904770BD00002C000020A01000209D
:1069600030000020B41000202DE9F04705460E4607
:1069700091461F4605B104E0D22214A11CA001F0EB
:10698000BDFE07B104E0D32210A11EA001F0B6FEA7
:10699000B5FBF7F04FF47A71B0FBF1F01D49B1FB94
:1069A000F0F8002400E0641C601C00FB08F0B0421A
:1069B00002D2601C4845F6D32CB906EB8600B8EB32
:1069C000400F00D801242046BDE8F0872E2E5C2E13
:1069D0002E5C6C69627261726965735C647269765F
:1069E0006572735C66736C5F6C706932632E6300F2
:1069F000736F75726365436C6F636B5F487A203E9B
:106A0000203000007072657363616C6572203E20F7
:106A10003000000040420F0070B50546002407E03A
:106A2000074850F82400A84201D1204670BD641CDC
:106A3000052CF5D3C22203A10BA001F05FFE0000DC
:106A4000C89600602E2E5C2E2E5C6C69627261729C
:106A50006965735C647269766572735C66736C5F9A
:106A60006C706932632E630066616C7365000000B0
:106A700070B505460C46002604F47054002C26D050
:106A800004F4005010B140F28A3618E004F40060BB
:106A900010B140F2893612E004F4806010B140F287
:106AA00086360CE004F4805010B140F2873605E0E1
:106AB0004FF4877207A110A001F020FE00BF21460D
:106AC000284600F01DF8286940F4407028613046DF
:106AD00070BD00002E2E5C2E2E5C6C69627261729D
:106AE0006965735C647269766572735C66736C5F0A
:106AF0006C706932632E630066616C736500000020
:106B000041617047026961F3000202617047000051
:106B10000121017000218170012141700021C170AB
:106B20000171064981600021C160016101754175F3
:106B300081750022C275012202767047A08601008D
:106B40001AB1C36D03F00703136019B1C36DC3F32A
:106B500002430B6070470146486970472DE9F05FBA
:106B600005460C4691462846FFF756FF834647499F
:106B700031F91B00FDF7B0F8284600F0DDF8A078E9
:106B8000082101EAC000617809B9012100E0002173
:106B9000042202EA8101084328612F6A27F00707CF
:106BA000A07D00F00100217E022202EA410108439B
:106BB000E17D042202EA8101084307432F626F6AE4
:106BC0003348074020794FF0E06101EA0060074355
:106BD000E078D10101EA402007436F6200200146BE
:106BE0004FF4403202EA01420243AA6500BF49461F
:106BF0002846A26800F0E0F8686A00F0070AAE6A6A
:106C0000E06860B1534640F6FF724846E168FFF71E
:106C1000ABFE80466FF30B06C8F30B000643207DE6
:106C200068B1217D01230F224846FFF79DFE804673
:106C300026F070664FF0706000EA08600643607DE1
:106C400068B1617D01230F224846FFF78DFE804623
:106C500026F470264FF4702000EA08400643AE6226
:106C6000206960B12069010A534640F6FF72484628
:106C7000FFF77AFE8046E86A68F31320E86221781D
:106C80002846FFF73FFFBDE8F09F0000E696006052
:106C9000FFFDFFF82DE9F04706460F46144607B101
:106CA00005E040F2832219A121A001F027FD14B9CB
:106CB0000020BDE8F087304600F059F905460DB1D7
:106CC0002846F6E7601EC0B240F480703066B846D1
:106CD00015E000BF3046FFF73EFF82465146304682
:106CE000FFF7C6FE05460DB12846E2E7D6F87090DC
:106CF00009F480400028EDD108F8019B00BF201E58
:106D0000A4F10104E5D100BFD3E700002E2E5C2ED4
:106D10002E5C6C69627261726965735C647269761B
:106D20006572735C66736C5F6C706932632E6300AE
:106D300072784275666600000221016100210161DE
:106D4000704700002DE9F04106460C4617462546DF
:106D500004B105E040F2BF220CA115A001F0CEFC69
:106D60000DE0304600F003F98046B8F1000F02D084
:106D70004046BDE8F08115F8010B306600BF381EB3
:106D8000A7F10107EDD100BFF3E700002E2E5C2E26
:106D90002E5C6C69627261726965735C647269769B
:106DA0006572735C66736C5F6C706932632E63002E
:106DB00074784275666600002DE9F74F84B0054689
:106DC0009146002400200390002602904FF0FF3BE4
:106DD000286900F00100009000212846FFF792FE8C
:106DE000012438E0012732E0012F0AD10598B0FBD9
:106DF000F4F10220B0FBF4F0801DB1FBF0F0019043
:106E00000CE00598B0FBF4F10220B0FBF4F207EBC4
:106E10004700801C1044B1FBF0F0019001988145BF
:106E200003D90198A9EB000002E00198A0EB09004A
:106E300002900298584509D203943E46DDF808B006
:106E4000DDF808B0BBF1000F00D102E07F1C202F5D
:106E5000CAD300BF6400802C02D8BBF1000FC1D19F
:106E60004FF47C5000EA062A022E03D21A484AEA5E
:106E7000000A0EE0F0064FF47C1101EA064141EAF7
:106E8000906071084FF07C5202EA0161084340EAC9
:106E90000A0AC5F848A04FF000080AE0012000FAED
:106EA00008F00399884202D1CDF80C8004E008F183
:106EB0000108B8F1080FF1DB00BF0398696A60F3BD
:106EC00002016962009818B101212846FFF71AFEF5
:106ED00007B0BDE8F08F0000030002012DE9F0418A
:106EE00004460E4617462046FFF702FD054615B13B
:106EF0002846BDE8F0814FF4FE412046FFF700FE32
:106F0000606A20F480706062204600F030F8054628
:106F10000DB12846EDE747EA460040F48060206660
:106F20000020E6E770B50546284600F020F8044644
:106F30000CB1204670BD4FF40070286612E0284660
:106F4000FFF709FE064631462846FFF791FD044645
:106F500006F4007028B14FF400712846FFF7D0FD09
:106F600002E000BF002CEAD000BF2046E2E7F8B5FF
:106F70000546042600BF6A4600212846FFF7E0FDCB
:106F80000098301A00902846FFF7E5FD074639467D
:106F90002846FFF76DFD04460CB12046F8BD009869
:106FA0000028E8D00020F9E710B5034841680348FD
:106FB000034A1268904710BDFC0F002000401840A3
:106FC0000C00002010B5034881680348034A12688A
:106FD000904710BDFC0F0020008018400C000020DE
:106FE00010B50348C1680348034A1268904710BDB2
:106FF000FC0F002000C018400C00002010B5034812
:1070000001690348034A1268904710BDFC0F002035
:10701000000019400C00002010B5034841690348E6
:10702000034A1268904710BDFC0F00200040194031
:107030000C00002010B5034881690348034A126818
:10704000904710BDFC0F0020008019400C0000206C
:1070500010B50348C1690348034A1268904710BD40
:10706000FC0F002000C019400C00002010B50348A0
:10707000016A0348034A1268904710BDFC0F0020C4
:1070800000001A400C00002070B505460C46AB6AA3
:1070900023F440334FF4403000EA04400343AB6232
:1070A0006B6923F0004304F0004003430B480340A6
:1070B000C14304EA0100034323F4404304F4404085
:1070C00003436B61284600F083F8204010B140F282
:1070D0001A5600E00026304670BD0000FFFFE0BFFA
:1070E00010B5044604B105E04FF4F1720BA115A0F0
:1070F00001F004FB4FF4E13020600020207160714A
:10710000A071E07120726072A072E07260732073EF
:10711000A073E0732074607410BD00002E2E5C2EEE
:107120002E5C6C69627261726965735C6472697607
:107130006572735C66736C5F6C70756172742E63DC
:1071400000000000636F6E666967000070B5054659
:10715000002406E0094850F82400A84200D102E0CB
:10716000641C092CF6D300BF092C00D204E08E2247
:1071700003A10DA001F0C2FA204670BD2496006064
:107180002E2E5C2E2E5C6C69627261726965735C76
:10719000647269766572735C66736C5F6C7075613E
:1071A00072742E6300000000696E7374616E636513
:1071B000203C2041525241595F53495A4528735F40
:1071C0006C70756172744261736573290000000010
:1071D000014648698A6A02F4430240EA1240704755
:1071E0002DE9F04F85B004460D46914605B104E007
:1071F000E42284A18DA001F081FA286800B104E0A6
:10720000E52280A18BA001F079FA287A042800DC1D
:1072100004E0E7227BA18DA001F070FA687A0428CF
:1072200000DC04E0E82277A198A001F067FA286862
:1072300002904FF0000A00200490042731E02868F3
:107240007843B9FBF0F01FFA80F8B8F1000F01D1D4
:107250004FF0010807FB08F0B9FBF0F00390296834
:107260000398A0EB010B08F101007843B9FBF0F0A3
:107270002968081A58450BD208F101007843B9FB78
:10728000F0F02968A1EB000B08F101001FFA80F86B
:107290000298834504D8CDF808B0BA46CDF81080DE
:1072A0007F1C202FCBD964212868B0FBF1F000EBC4
:1072B00040010298814204D240F2215005B0BDE85D
:1072C000F08F2046FFF742FF01908049019831F985
:1072D0001000009003210098FCF7A6FB00BF00BF40
:1072E000A06840F00200A060A06820F00200A0604A
:1072F00000BF2669BAF1030F04D9BAF1080F01D211
:1073000046F4003626F0F856AAF101004FF0F85185
:1073100001EA006006436FF30C060498C0F30C000A
:1073200030432061206920F000502061A06940F2C4
:10733000177120EA01062879E97B4FF4E06202EA3E
:1073400001210843A97B042202EA81010843064384
:107350006879012807D1287910B126F4006606E083
:1073600046F4006603E0287908B146F01006A661ED
:10737000206920F40056E8794FF4005101EA4030CA
:1073800030432061287A697A40EA0140E062A06ACD
:1073900040F08800A062A06A40F44040A0624C4ED9
:1073A00046F0004646F44046687B102101EA001092
:1073B000297B202202EA41110843616A0843606286
:1073C000A87A18B1606A40F008006062E87A18B1E3
:1073D000606A40F001006062A87910B146F0005682
:1073E00001E026F00056606930436061A669287CA0
:1073F00008B146F40026687C08B146F48026A661F0
:1074000000205BE72E2E5C2E2E5C6C69627261722E
:107410006965735C647269766572735C66736C5FD0
:107420006C70756172742E6300000000636F6E668D
:1074300069670000636F6E6669672D3E62617564FF
:10744000526174655F4270730000000046534C5FE8
:10745000464541545552455F4C50554152545F4644
:1074600049464F5F53495A456E286261736529202A
:107470003E3D20636F6E6669672D3E74784669668F
:107480006F57617465726D61726B000046534C5F9B
:10749000464541545552455F4C50554152545F4604
